{
	"contracts/CryptoZombies/cryptoZomC2.sol": {
		"cryptoZomC2": {
			"abi": [
				{
					"anonymous": false,
					"inputs": [
						{
							"indexed": false,
							"internalType": "uint256",
							"name": "zombieId",
							"type": "uint256"
						},
						{
							"indexed": false,
							"internalType": "string",
							"name": "name",
							"type": "string"
						},
						{
							"indexed": false,
							"internalType": "uint256",
							"name": "dna",
							"type": "uint256"
						}
					],
					"name": "NewZombie",
					"type": "event"
				},
				{
					"inputs": [
						{
							"internalType": "string",
							"name": "_name",
							"type": "string"
						}
					],
					"name": "createRandomZombie",
					"outputs": [],
					"stateMutability": "nonpayable",
					"type": "function"
				},
				{
					"inputs": [
						{
							"internalType": "uint256",
							"name": "_index",
							"type": "uint256"
						}
					],
					"name": "getZombie",
					"outputs": [
						{
							"internalType": "string",
							"name": "name",
							"type": "string"
						},
						{
							"internalType": "uint256",
							"name": "dna",
							"type": "uint256"
						}
					],
					"stateMutability": "view",
					"type": "function"
				},
				{
					"inputs": [
						{
							"internalType": "address",
							"name": "",
							"type": "address"
						}
					],
					"name": "zombieOwners",
					"outputs": [
						{
							"internalType": "bool",
							"name": "",
							"type": "bool"
						}
					],
					"stateMutability": "view",
					"type": "function"
				},
				{
					"inputs": [
						{
							"internalType": "uint256",
							"name": "",
							"type": "uint256"
						}
					],
					"name": "zombies",
					"outputs": [
						{
							"internalType": "string",
							"name": "name",
							"type": "string"
						},
						{
							"internalType": "uint256",
							"name": "dna",
							"type": "uint256"
						}
					],
					"stateMutability": "view",
					"type": "function"
				}
			],
			"devdoc": {
				"kind": "dev",
				"methods": {},
				"version": 1
			},
			"evm": {
				"assembly": "    /* \"contracts/CryptoZombies/cryptoZomC2.sol\":57:1280  contract cryptoZomC2{... */\n  mstore(0x40, 0x80)\n    /* \"contracts/CryptoZombies/cryptoZomC2.sol\":101:103  16 */\n  0x10\n    /* \"contracts/CryptoZombies/cryptoZomC2.sol\":84:103  uint dnaDigits = 16 */\n  0x00\n  sstore\n    /* \"contracts/CryptoZombies/cryptoZomC2.sol\":133:142  dnaDigits */\n  sload(0x00)\n    /* \"contracts/CryptoZombies/cryptoZomC2.sol\":127:129  10 */\n  0x0a\n    /* \"contracts/CryptoZombies/cryptoZomC2.sol\":127:142  10 ** dnaDigits */\n  tag_1\n  swap2\n  swap1\n  tag_2\n  jump\t// in\ntag_1:\n    /* \"contracts/CryptoZombies/cryptoZomC2.sol\":109:142  uint dnaModulus = 10 ** dnaDigits */\n  0x01\n  sstore\n    /* \"contracts/CryptoZombies/cryptoZomC2.sol\":57:1280  contract cryptoZomC2{... */\n  callvalue\n  dup1\n  iszero\n  tag_3\n  jumpi\n  0x00\n  dup1\n  revert\ntag_3:\n  pop\n  jump(tag_4)\n    /* \"#utility.yul\":7:187   */\ntag_5:\n    /* \"#utility.yul\":55:132   */\n  0x4e487b7100000000000000000000000000000000000000000000000000000000\n    /* \"#utility.yul\":52:53   */\n  0x00\n    /* \"#utility.yul\":45:133   */\n  mstore\n    /* \"#utility.yul\":152:156   */\n  0x11\n    /* \"#utility.yul\":149:150   */\n  0x04\n    /* \"#utility.yul\":142:157   */\n  mstore\n    /* \"#utility.yul\":176:180   */\n  0x24\n    /* \"#utility.yul\":173:174   */\n  0x00\n    /* \"#utility.yul\":166:181   */\n  revert\n    /* \"#utility.yul\":193:295   */\ntag_6:\n    /* \"#utility.yul\":235:243   */\n  0x00\n    /* \"#utility.yul\":282:287   */\n  dup2\n    /* \"#utility.yul\":279:280   */\n  0x01\n    /* \"#utility.yul\":275:288   */\n  shr\n    /* \"#utility.yul\":254:288   */\n  swap1\n  pop\n    /* \"#utility.yul\":193:295   */\n  swap2\n  swap1\n  pop\n  jump\t// out\n    /* \"#utility.yul\":301:1149   */\ntag_7:\n    /* \"#utility.yul\":362:367   */\n  0x00\n    /* \"#utility.yul\":369:373   */\n  dup1\n    /* \"#utility.yul\":393:399   */\n  dup3\n    /* \"#utility.yul\":384:399   */\n  swap2\n  pop\n    /* \"#utility.yul\":417:422   */\n  dup4\n    /* \"#utility.yul\":408:422   */\n  swap1\n  pop\n    /* \"#utility.yul\":431:1143   */\ntag_14:\n    /* \"#utility.yul\":452:453   */\n  0x01\n    /* \"#utility.yul\":442:450   */\n  dup6\n    /* \"#utility.yul\":439:454   */\n  gt\n    /* \"#utility.yul\":431:1143   */\n  iszero\n  tag_16\n  jumpi\n    /* \"#utility.yul\":547:551   */\n  dup1\n    /* \"#utility.yul\":542:545   */\n  dup7\n    /* \"#utility.yul\":538:552   */\n  div\n    /* \"#utility.yul\":532:536   */\n  dup2\n    /* \"#utility.yul\":529:553   */\n  gt\n    /* \"#utility.yul\":526:576   */\n  iszero\n  tag_17\n  jumpi\n    /* \"#utility.yul\":556:574   */\n  tag_18\n  tag_5\n  jump\t// in\ntag_18:\n    /* \"#utility.yul\":526:576   */\ntag_17:\n    /* \"#utility.yul\":606:607   */\n  0x01\n    /* \"#utility.yul\":596:604   */\n  dup6\n    /* \"#utility.yul\":592:608   */\n  and\n    /* \"#utility.yul\":589:1040   */\n  iszero\n  tag_19\n  jumpi\n    /* \"#utility.yul\":1021:1025   */\n  dup1\n    /* \"#utility.yul\":1014:1019   */\n  dup3\n    /* \"#utility.yul\":1010:1026   */\n  mul\n    /* \"#utility.yul\":1001:1026   */\n  swap2\n  pop\n    /* \"#utility.yul\":589:1040   */\ntag_19:\n    /* \"#utility.yul\":1071:1075   */\n  dup1\n    /* \"#utility.yul\":1065:1069   */\n  dup2\n    /* \"#utility.yul\":1061:1076   */\n  mul\n    /* \"#utility.yul\":1053:1076   */\n  swap1\n  pop\n    /* \"#utility.yul\":1101:1133   */\n  tag_20\n    /* \"#utility.yul\":1124:1132   */\n  dup6\n    /* \"#utility.yul\":1101:1133   */\n  tag_6\n  jump\t// in\ntag_20:\n    /* \"#utility.yul\":1089:1133   */\n  swap5\n  pop\n    /* \"#utility.yul\":431:1143   */\n  jump(tag_14)\ntag_16:\n    /* \"#utility.yul\":301:1149   */\n  swap5\n  pop\n  swap5\n  swap3\n  pop\n  pop\n  pop\n  jump\t// out\n    /* \"#utility.yul\":1155:2228   */\ntag_8:\n    /* \"#utility.yul\":1209:1214   */\n  0x00\n    /* \"#utility.yul\":1400:1408   */\n  dup3\n    /* \"#utility.yul\":1390:1430   */\n  tag_22\n  jumpi\n    /* \"#utility.yul\":1421:1422   */\n  0x01\n    /* \"#utility.yul\":1412:1422   */\n  swap1\n  pop\n    /* \"#utility.yul\":1423:1428   */\n  jump(tag_21)\n    /* \"#utility.yul\":1390:1430   */\ntag_22:\n    /* \"#utility.yul\":1449:1453   */\n  dup2\n    /* \"#utility.yul\":1439:1475   */\n  tag_23\n  jumpi\n    /* \"#utility.yul\":1466:1467   */\n  0x00\n    /* \"#utility.yul\":1457:1467   */\n  swap1\n  pop\n    /* \"#utility.yul\":1468:1473   */\n  jump(tag_21)\n    /* \"#utility.yul\":1439:1475   */\ntag_23:\n    /* \"#utility.yul\":1535:1539   */\n  dup2\n    /* \"#utility.yul\":1583:1584   */\n  0x01\n    /* \"#utility.yul\":1578:1605   */\n  dup2\n  eq\n  tag_25\n  jumpi\n    /* \"#utility.yul\":1619:1620   */\n  0x02\n    /* \"#utility.yul\":1614:1805   */\n  dup2\n  eq\n  tag_26\n  jumpi\n    /* \"#utility.yul\":1528:1805   */\n  jump(tag_24)\n    /* \"#utility.yul\":1578:1605   */\ntag_25:\n    /* \"#utility.yul\":1596:1597   */\n  0x01\n    /* \"#utility.yul\":1587:1597   */\n  swap2\n  pop\n    /* \"#utility.yul\":1598:1603   */\n  pop\n  jump(tag_21)\n    /* \"#utility.yul\":1614:1805   */\ntag_26:\n    /* \"#utility.yul\":1659:1662   */\n  0xff\n    /* \"#utility.yul\":1649:1657   */\n  dup5\n    /* \"#utility.yul\":1646:1663   */\n  gt\n    /* \"#utility.yul\":1643:1686   */\n  iszero\n  tag_27\n  jumpi\n    /* \"#utility.yul\":1666:1684   */\n  tag_28\n  tag_5\n  jump\t// in\ntag_28:\n    /* \"#utility.yul\":1643:1686   */\ntag_27:\n    /* \"#utility.yul\":1715:1723   */\n  dup4\n    /* \"#utility.yul\":1712:1713   */\n  0x02\n    /* \"#utility.yul\":1708:1724   */\n  exp\n    /* \"#utility.yul\":1699:1724   */\n  swap2\n  pop\n    /* \"#utility.yul\":1750:1753   */\n  dup5\n    /* \"#utility.yul\":1743:1748   */\n  dup3\n    /* \"#utility.yul\":1740:1754   */\n  gt\n    /* \"#utility.yul\":1737:1777   */\n  iszero\n  tag_29\n  jumpi\n    /* \"#utility.yul\":1757:1775   */\n  tag_30\n  tag_5\n  jump\t// in\ntag_30:\n    /* \"#utility.yul\":1737:1777   */\ntag_29:\n    /* \"#utility.yul\":1790:1795   */\n  pop\n  jump(tag_21)\n    /* \"#utility.yul\":1528:1805   */\ntag_24:\n  pop\n    /* \"#utility.yul\":1914:1916   */\n  0x20\n    /* \"#utility.yul\":1904:1912   */\n  dup4\n    /* \"#utility.yul\":1901:1917   */\n  lt\n    /* \"#utility.yul\":1895:1898   */\n  0x0133\n    /* \"#utility.yul\":1889:1893   */\n  dup4\n    /* \"#utility.yul\":1886:1899   */\n  lt\n    /* \"#utility.yul\":1882:1918   */\n  and\n    /* \"#utility.yul\":1864:1866   */\n  0x4e\n    /* \"#utility.yul\":1854:1862   */\n  dup5\n    /* \"#utility.yul\":1851:1867   */\n  lt\n    /* \"#utility.yul\":1846:1848   */\n  0x0b\n    /* \"#utility.yul\":1840:1844   */\n  dup5\n    /* \"#utility.yul\":1837:1849   */\n  lt\n    /* \"#utility.yul\":1833:1868   */\n  and\n    /* \"#utility.yul\":1817:1928   */\n  or\n    /* \"#utility.yul\":1814:2060   */\n  iszero\n  tag_31\n  jumpi\n    /* \"#utility.yul\":1970:1978   */\n  dup3\n    /* \"#utility.yul\":1964:1968   */\n  dup3\n    /* \"#utility.yul\":1960:1979   */\n  exp\n    /* \"#utility.yul\":1951:1979   */\n  swap1\n  pop\n    /* \"#utility.yul\":2005:2008   */\n  dup4\n    /* \"#utility.yul\":1998:2003   */\n  dup2\n    /* \"#utility.yul\":1995:2009   */\n  gt\n    /* \"#utility.yul\":1992:2032   */\n  iszero\n  tag_32\n  jumpi\n    /* \"#utility.yul\":2012:2030   */\n  tag_33\n  tag_5\n  jump\t// in\ntag_33:\n    /* \"#utility.yul\":1992:2032   */\ntag_32:\n    /* \"#utility.yul\":2045:2050   */\n  jump(tag_21)\n    /* \"#utility.yul\":1814:2060   */\ntag_31:\n    /* \"#utility.yul\":2085:2127   */\n  tag_34\n    /* \"#utility.yul\":2123:2126   */\n  dup5\n    /* \"#utility.yul\":2113:2121   */\n  dup5\n    /* \"#utility.yul\":2107:2111   */\n  dup5\n    /* \"#utility.yul\":2104:2105   */\n  0x01\n    /* \"#utility.yul\":2085:2127   */\n  tag_7\n  jump\t// in\ntag_34:\n    /* \"#utility.yul\":2070:2127   */\n  swap3\n  pop\n  swap1\n  pop\n    /* \"#utility.yul\":2159:2163   */\n  dup2\n    /* \"#utility.yul\":2154:2157   */\n  dup5\n    /* \"#utility.yul\":2150:2164   */\n  div\n    /* \"#utility.yul\":2143:2148   */\n  dup2\n    /* \"#utility.yul\":2140:2165   */\n  gt\n    /* \"#utility.yul\":2137:2188   */\n  iszero\n  tag_35\n  jumpi\n    /* \"#utility.yul\":2168:2186   */\n  tag_36\n  tag_5\n  jump\t// in\ntag_36:\n    /* \"#utility.yul\":2137:2188   */\ntag_35:\n    /* \"#utility.yul\":2217:2221   */\n  dup2\n    /* \"#utility.yul\":2210:2215   */\n  dup2\n    /* \"#utility.yul\":2206:2222   */\n  mul\n    /* \"#utility.yul\":2197:2222   */\n  swap1\n  pop\n    /* \"#utility.yul\":1155:2228   */\ntag_21:\n  swap4\n  swap3\n  pop\n  pop\n  pop\n  jump\t// out\n    /* \"#utility.yul\":2234:2311   */\ntag_9:\n    /* \"#utility.yul\":2271:2278   */\n  0x00\n    /* \"#utility.yul\":2300:2305   */\n  dup2\n    /* \"#utility.yul\":2289:2305   */\n  swap1\n  pop\n    /* \"#utility.yul\":2234:2311   */\n  swap2\n  swap1\n  pop\n  jump\t// out\n    /* \"#utility.yul\":2317:2602   */\ntag_2:\n    /* \"#utility.yul\":2377:2382   */\n  0x00\n    /* \"#utility.yul\":2401:2424   */\n  tag_39\n    /* \"#utility.yul\":2419:2423   */\n  dup3\n    /* \"#utility.yul\":2401:2424   */\n  tag_9\n  jump\t// in\ntag_39:\n    /* \"#utility.yul\":2393:2424   */\n  swap2\n  pop\n    /* \"#utility.yul\":2445:2472   */\n  tag_40\n    /* \"#utility.yul\":2463:2471   */\n  dup4\n    /* \"#utility.yul\":2445:2472   */\n  tag_9\n  jump\t// in\ntag_40:\n    /* \"#utility.yul\":2433:2472   */\n  swap3\n  pop\n    /* \"#utility.yul\":2491:2595   */\n  tag_41\n    /* \"#utility.yul\":2528:2594   */\n  0xffffffffffffffffffffffffffffffffffffffffffffffffffffffffffffffff\n    /* \"#utility.yul\":2518:2526   */\n  dup5\n    /* \"#utility.yul\":2512:2516   */\n  dup5\n    /* \"#utility.yul\":2491:2595   */\n  tag_8\n  jump\t// in\ntag_41:\n    /* \"#utility.yul\":2482:2595   */\n  swap1\n  pop\n    /* \"#utility.yul\":2317:2602   */\n  swap3\n  swap2\n  pop\n  pop\n  jump\t// out\n    /* \"contracts/CryptoZombies/cryptoZomC2.sol\":57:1280  contract cryptoZomC2{... */\ntag_4:\n  dataSize(sub_0)\n  dup1\n  dataOffset(sub_0)\n  0x00\n  codecopy\n  0x00\n  return\nstop\n\nsub_0: assembly {\n        /* \"contracts/CryptoZombies/cryptoZomC2.sol\":57:1280  contract cryptoZomC2{... */\n      mstore(0x40, 0x80)\n      callvalue\n      dup1\n      iszero\n      tag_1\n      jumpi\n      0x00\n      dup1\n      revert\n    tag_1:\n      pop\n      jumpi(tag_2, lt(calldatasize, 0x04))\n      shr(0xe0, calldataload(0x00))\n      dup1\n      0x2052465e\n      eq\n      tag_3\n      jumpi\n      dup1\n      0x7bff0a01\n      eq\n      tag_4\n      jumpi\n      dup1\n      0xa2905611\n      eq\n      tag_5\n      jumpi\n      dup1\n      0xb129adcf\n      eq\n      tag_6\n      jumpi\n    tag_2:\n      0x00\n      dup1\n      revert\n        /* \"contracts/CryptoZombies/cryptoZomC2.sol\":215:238  Zombie[] public zombies */\n    tag_3:\n      tag_7\n      0x04\n      dup1\n      calldatasize\n      sub\n      dup2\n      add\n      swap1\n      tag_8\n      swap2\n      swap1\n      tag_9\n      jump\t// in\n    tag_8:\n      tag_10\n      jump\t// in\n    tag_7:\n      mload(0x40)\n      tag_11\n      swap3\n      swap2\n      swap1\n      tag_12\n      jump\t// in\n    tag_11:\n      mload(0x40)\n      dup1\n      swap2\n      sub\n      swap1\n      return\n        /* \"contracts/CryptoZombies/cryptoZomC2.sol\":738:1019  function createRandomZombie(string memory _name) public {... */\n    tag_4:\n      tag_13\n      0x04\n      dup1\n      calldatasize\n      sub\n      dup2\n      add\n      swap1\n      tag_14\n      swap2\n      swap1\n      tag_15\n      jump\t// in\n    tag_14:\n      tag_16\n      jump\t// in\n    tag_13:\n      stop\n        /* \"contracts/CryptoZombies/cryptoZomC2.sol\":1025:1278  function getZombie(uint _index) public view returns (string memory name, uint dna) {... */\n    tag_5:\n      tag_17\n      0x04\n      dup1\n      calldatasize\n      sub\n      dup2\n      add\n      swap1\n      tag_18\n      swap2\n      swap1\n      tag_9\n      jump\t// in\n    tag_18:\n      tag_19\n      jump\t// in\n    tag_17:\n      mload(0x40)\n      tag_20\n      swap3\n      swap2\n      swap1\n      tag_12\n      jump\t// in\n    tag_20:\n      mload(0x40)\n      dup1\n      swap2\n      sub\n      swap1\n      return\n        /* \"contracts/CryptoZombies/cryptoZomC2.sol\":244:289  mapping (address => bool) public zombieOwners */\n    tag_6:\n      tag_21\n      0x04\n      dup1\n      calldatasize\n      sub\n      dup2\n      add\n      swap1\n      tag_22\n      swap2\n      swap1\n      tag_23\n      jump\t// in\n    tag_22:\n      tag_24\n      jump\t// in\n    tag_21:\n      mload(0x40)\n      tag_25\n      swap2\n      swap1\n      tag_26\n      jump\t// in\n    tag_25:\n      mload(0x40)\n      dup1\n      swap2\n      sub\n      swap1\n      return\n        /* \"contracts/CryptoZombies/cryptoZomC2.sol\":215:238  Zombie[] public zombies */\n    tag_10:\n      0x02\n      dup2\n      dup2\n      sload\n      dup2\n      lt\n      tag_27\n      jumpi\n      0x00\n      dup1\n      revert\n    tag_27:\n      swap1\n      0x00\n      mstore\n      keccak256(0x00, 0x20)\n      swap1\n      0x02\n      mul\n      add\n      0x00\n      swap2\n      pop\n      swap1\n      pop\n      dup1\n      0x00\n      add\n      dup1\n      sload\n      tag_29\n      swap1\n      tag_30\n      jump\t// in\n    tag_29:\n      dup1\n      0x1f\n      add\n      0x20\n      dup1\n      swap2\n      div\n      mul\n      0x20\n      add\n      mload(0x40)\n      swap1\n      dup2\n      add\n      0x40\n      mstore\n      dup1\n      swap3\n      swap2\n      swap1\n      dup2\n      dup2\n      mstore\n      0x20\n      add\n      dup3\n      dup1\n      sload\n      tag_31\n      swap1\n      tag_30\n      jump\t// in\n    tag_31:\n      dup1\n      iszero\n      tag_32\n      jumpi\n      dup1\n      0x1f\n      lt\n      tag_33\n      jumpi\n      0x0100\n      dup1\n      dup4\n      sload\n      div\n      mul\n      dup4\n      mstore\n      swap2\n      0x20\n      add\n      swap2\n      jump(tag_32)\n    tag_33:\n      dup3\n      add\n      swap2\n      swap1\n      0x00\n      mstore\n      keccak256(0x00, 0x20)\n      swap1\n    tag_34:\n      dup2\n      sload\n      dup2\n      mstore\n      swap1\n      0x01\n      add\n      swap1\n      0x20\n      add\n      dup1\n      dup4\n      gt\n      tag_34\n      jumpi\n      dup3\n      swap1\n      sub\n      0x1f\n      and\n      dup3\n      add\n      swap2\n    tag_32:\n      pop\n      pop\n      pop\n      pop\n      pop\n      swap1\n      dup1\n      0x01\n      add\n      sload\n      swap1\n      pop\n      dup3\n      jump\t// out\n        /* \"contracts/CryptoZombies/cryptoZomC2.sol\":738:1019  function createRandomZombie(string memory _name) public {... */\n    tag_16:\n        /* \"contracts/CryptoZombies/cryptoZomC2.sol\":813:825  zombieOwners */\n      0x03\n        /* \"contracts/CryptoZombies/cryptoZomC2.sol\":813:837  zombieOwners[msg.sender] */\n      0x00\n        /* \"contracts/CryptoZombies/cryptoZomC2.sol\":826:836  msg.sender */\n      caller\n        /* \"contracts/CryptoZombies/cryptoZomC2.sol\":813:837  zombieOwners[msg.sender] */\n      0xffffffffffffffffffffffffffffffffffffffff\n      and\n      0xffffffffffffffffffffffffffffffffffffffff\n      and\n      dup2\n      mstore\n      0x20\n      add\n      swap1\n      dup2\n      mstore\n      0x20\n      add\n      0x00\n      keccak256\n      0x00\n      swap1\n      sload\n      swap1\n      0x0100\n      exp\n      swap1\n      div\n      0xff\n      and\n        /* \"contracts/CryptoZombies/cryptoZomC2.sol\":812:837  !zombieOwners[msg.sender] */\n      iszero\n        /* \"contracts/CryptoZombies/cryptoZomC2.sol\":804:882  require(!zombieOwners[msg.sender], \"Cada direccion solo puede crear un zombi\") */\n      tag_36\n      jumpi\n      mload(0x40)\n      0x08c379a000000000000000000000000000000000000000000000000000000000\n      dup2\n      mstore\n      0x04\n      add\n      tag_37\n      swap1\n      tag_38\n      jump\t// in\n    tag_37:\n      mload(0x40)\n      dup1\n      swap2\n      sub\n      swap1\n      revert\n    tag_36:\n        /* \"contracts/CryptoZombies/cryptoZomC2.sol\":892:904  uint randDna */\n      0x00\n        /* \"contracts/CryptoZombies/cryptoZomC2.sol\":907:932  _generateRandomDna(_name) */\n      tag_39\n        /* \"contracts/CryptoZombies/cryptoZomC2.sol\":926:931  _name */\n      dup3\n        /* \"contracts/CryptoZombies/cryptoZomC2.sol\":907:925  _generateRandomDna */\n      tag_40\n        /* \"contracts/CryptoZombies/cryptoZomC2.sol\":907:932  _generateRandomDna(_name) */\n      jump\t// in\n    tag_39:\n        /* \"contracts/CryptoZombies/cryptoZomC2.sol\":892:932  uint randDna = _generateRandomDna(_name) */\n      swap1\n      pop\n        /* \"contracts/CryptoZombies/cryptoZomC2.sol\":942:971  _createZombie(_name, randDna) */\n      tag_41\n        /* \"contracts/CryptoZombies/cryptoZomC2.sol\":956:961  _name */\n      dup3\n        /* \"contracts/CryptoZombies/cryptoZomC2.sol\":963:970  randDna */\n      dup3\n        /* \"contracts/CryptoZombies/cryptoZomC2.sol\":942:955  _createZombie */\n      tag_42\n        /* \"contracts/CryptoZombies/cryptoZomC2.sol\":942:971  _createZombie(_name, randDna) */\n      jump\t// in\n    tag_41:\n        /* \"contracts/CryptoZombies/cryptoZomC2.sol\":1008:1012  true */\n      0x01\n        /* \"contracts/CryptoZombies/cryptoZomC2.sol\":981:993  zombieOwners */\n      0x03\n        /* \"contracts/CryptoZombies/cryptoZomC2.sol\":981:1005  zombieOwners[msg.sender] */\n      0x00\n        /* \"contracts/CryptoZombies/cryptoZomC2.sol\":994:1004  msg.sender */\n      caller\n        /* \"contracts/CryptoZombies/cryptoZomC2.sol\":981:1005  zombieOwners[msg.sender] */\n      0xffffffffffffffffffffffffffffffffffffffff\n      and\n      0xffffffffffffffffffffffffffffffffffffffff\n      and\n      dup2\n      mstore\n      0x20\n      add\n      swap1\n      dup2\n      mstore\n      0x20\n      add\n      0x00\n      keccak256\n      0x00\n        /* \"contracts/CryptoZombies/cryptoZomC2.sol\":981:1012  zombieOwners[msg.sender] = true */\n      0x0100\n      exp\n      dup2\n      sload\n      dup2\n      0xff\n      mul\n      not\n      and\n      swap1\n      dup4\n      iszero\n      iszero\n      mul\n      or\n      swap1\n      sstore\n      pop\n        /* \"contracts/CryptoZombies/cryptoZomC2.sol\":794:1019  {... */\n      pop\n        /* \"contracts/CryptoZombies/cryptoZomC2.sol\":738:1019  function createRandomZombie(string memory _name) public {... */\n      pop\n      jump\t// out\n        /* \"contracts/CryptoZombies/cryptoZomC2.sol\":1025:1278  function getZombie(uint _index) public view returns (string memory name, uint dna) {... */\n    tag_19:\n        /* \"contracts/CryptoZombies/cryptoZomC2.sol\":1078:1096  string memory name */\n      0x60\n        /* \"contracts/CryptoZombies/cryptoZomC2.sol\":1098:1106  uint dna */\n      0x00\n        /* \"contracts/CryptoZombies/cryptoZomC2.sol\":1135:1142  zombies */\n      0x02\n        /* \"contracts/CryptoZombies/cryptoZomC2.sol\":1135:1149  zombies.length */\n      dup1\n      sload\n      swap1\n      pop\n        /* \"contracts/CryptoZombies/cryptoZomC2.sol\":1126:1132  _index */\n      dup4\n        /* \"contracts/CryptoZombies/cryptoZomC2.sol\":1126:1149  _index < zombies.length */\n      lt\n        /* \"contracts/CryptoZombies/cryptoZomC2.sol\":1118:1175  require(_index < zombies.length, \"Indice fuera de rango\") */\n      tag_44\n      jumpi\n      mload(0x40)\n      0x08c379a000000000000000000000000000000000000000000000000000000000\n      dup2\n      mstore\n      0x04\n      add\n      tag_45\n      swap1\n      tag_46\n      jump\t// in\n    tag_45:\n      mload(0x40)\n      dup1\n      swap2\n      sub\n      swap1\n      revert\n    tag_44:\n        /* \"contracts/CryptoZombies/cryptoZomC2.sol\":1185:1207  Zombie memory myZombie */\n      0x00\n        /* \"contracts/CryptoZombies/cryptoZomC2.sol\":1210:1217  zombies */\n      0x02\n        /* \"contracts/CryptoZombies/cryptoZomC2.sol\":1218:1224  _index */\n      dup5\n        /* \"contracts/CryptoZombies/cryptoZomC2.sol\":1210:1225  zombies[_index] */\n      dup2\n      sload\n      dup2\n      lt\n      tag_47\n      jumpi\n      tag_48\n      tag_49\n      jump\t// in\n    tag_48:\n    tag_47:\n      swap1\n      0x00\n      mstore\n      keccak256(0x00, 0x20)\n      swap1\n      0x02\n      mul\n      add\n        /* \"contracts/CryptoZombies/cryptoZomC2.sol\":1185:1225  Zombie memory myZombie = zombies[_index] */\n      mload(0x40)\n      dup1\n      0x40\n      add\n      0x40\n      mstore\n      swap1\n      dup2\n      0x00\n      dup3\n      add\n      dup1\n      sload\n      tag_51\n      swap1\n      tag_30\n      jump\t// in\n    tag_51:\n      dup1\n      0x1f\n      add\n      0x20\n      dup1\n      swap2\n      div\n      mul\n      0x20\n      add\n      mload(0x40)\n      swap1\n      dup2\n      add\n      0x40\n      mstore\n      dup1\n      swap3\n      swap2\n      swap1\n      dup2\n      dup2\n      mstore\n      0x20\n      add\n      dup3\n      dup1\n      sload\n      tag_52\n      swap1\n      tag_30\n      jump\t// in\n    tag_52:\n      dup1\n      iszero\n      tag_53\n      jumpi\n      dup1\n      0x1f\n      lt\n      tag_54\n      jumpi\n      0x0100\n      dup1\n      dup4\n      sload\n      div\n      mul\n      dup4\n      mstore\n      swap2\n      0x20\n      add\n      swap2\n      jump(tag_53)\n    tag_54:\n      dup3\n      add\n      swap2\n      swap1\n      0x00\n      mstore\n      keccak256(0x00, 0x20)\n      swap1\n    tag_55:\n      dup2\n      sload\n      dup2\n      mstore\n      swap1\n      0x01\n      add\n      swap1\n      0x20\n      add\n      dup1\n      dup4\n      gt\n      tag_55\n      jumpi\n      dup3\n      swap1\n      sub\n      0x1f\n      and\n      dup3\n      add\n      swap2\n    tag_53:\n      pop\n      pop\n      pop\n      pop\n      pop\n      dup2\n      mstore\n      0x20\n      add\n      0x01\n      dup3\n      add\n      sload\n      dup2\n      mstore\n      pop\n      pop\n      swap1\n      pop\n        /* \"contracts/CryptoZombies/cryptoZomC2.sol\":1243:1251  myZombie */\n      dup1\n        /* \"contracts/CryptoZombies/cryptoZomC2.sol\":1243:1256  myZombie.name */\n      0x00\n      add\n      mload\n        /* \"contracts/CryptoZombies/cryptoZomC2.sol\":1258:1266  myZombie */\n      dup2\n        /* \"contracts/CryptoZombies/cryptoZomC2.sol\":1258:1270  myZombie.dna */\n      0x20\n      add\n      mload\n        /* \"contracts/CryptoZombies/cryptoZomC2.sol\":1235:1271  return (myZombie.name, myZombie.dna) */\n      swap3\n      pop\n      swap3\n      pop\n      pop\n        /* \"contracts/CryptoZombies/cryptoZomC2.sol\":1025:1278  function getZombie(uint _index) public view returns (string memory name, uint dna) {... */\n      swap2\n      pop\n      swap2\n      jump\t// out\n        /* \"contracts/CryptoZombies/cryptoZomC2.sol\":244:289  mapping (address => bool) public zombieOwners */\n    tag_24:\n      mstore(0x20, 0x03)\n      dup1\n      0x00\n      mstore\n      keccak256(0x00, 0x40)\n      0x00\n      swap2\n      pop\n      sload\n      swap1\n      0x0100\n      exp\n      swap1\n      div\n      0xff\n      and\n      dup2\n      jump\t// out\n        /* \"contracts/CryptoZombies/cryptoZomC2.sol\":554:732  function _generateRandomDna(string memory _str) private view returns (uint) {... */\n    tag_40:\n        /* \"contracts/CryptoZombies/cryptoZomC2.sol\":624:628  uint */\n      0x00\n        /* \"contracts/CryptoZombies/cryptoZomC2.sol\":640:649  uint rand */\n      dup1\n        /* \"contracts/CryptoZombies/cryptoZomC2.sol\":684:688  _str */\n      dup3\n        /* \"contracts/CryptoZombies/cryptoZomC2.sol\":667:689  abi.encodePacked(_str) */\n      add(0x20, mload(0x40))\n      tag_57\n      swap2\n      swap1\n      tag_58\n      jump\t// in\n    tag_57:\n      mload(0x40)\n      0x20\n      dup2\n      dup4\n      sub\n      sub\n      dup2\n      mstore\n      swap1\n      0x40\n      mstore\n        /* \"contracts/CryptoZombies/cryptoZomC2.sol\":657:690  keccak256(abi.encodePacked(_str)) */\n      dup1\n      mload\n      swap1\n      0x20\n      add\n      keccak256\n        /* \"contracts/CryptoZombies/cryptoZomC2.sol\":652:691  uint(keccak256(abi.encodePacked(_str))) */\n      0x00\n      shr\n        /* \"contracts/CryptoZombies/cryptoZomC2.sol\":640:691  uint rand = uint(keccak256(abi.encodePacked(_str))) */\n      swap1\n      pop\n        /* \"contracts/CryptoZombies/cryptoZomC2.sol\":715:725  dnaModulus */\n      sload(0x01)\n        /* \"contracts/CryptoZombies/cryptoZomC2.sol\":708:712  rand */\n      dup2\n        /* \"contracts/CryptoZombies/cryptoZomC2.sol\":708:725  rand % dnaModulus */\n      tag_59\n      swap2\n      swap1\n      tag_60\n      jump\t// in\n    tag_59:\n        /* \"contracts/CryptoZombies/cryptoZomC2.sol\":701:725  return rand % dnaModulus */\n      swap2\n      pop\n      pop\n        /* \"contracts/CryptoZombies/cryptoZomC2.sol\":554:732  function _generateRandomDna(string memory _str) private view returns (uint) {... */\n      swap2\n      swap1\n      pop\n      jump\t// out\n        /* \"contracts/CryptoZombies/cryptoZomC2.sol\":356:548  function _createZombie(string memory _name, uint _dna) private {... */\n    tag_42:\n        /* \"contracts/CryptoZombies/cryptoZomC2.sol\":429:436  zombies */\n      0x02\n        /* \"contracts/CryptoZombies/cryptoZomC2.sol\":442:461  Zombie(_name, _dna) */\n      mload(0x40)\n      dup1\n      0x40\n      add\n      0x40\n      mstore\n      dup1\n        /* \"contracts/CryptoZombies/cryptoZomC2.sol\":449:454  _name */\n      dup5\n        /* \"contracts/CryptoZombies/cryptoZomC2.sol\":442:461  Zombie(_name, _dna) */\n      dup2\n      mstore\n      0x20\n      add\n        /* \"contracts/CryptoZombies/cryptoZomC2.sol\":456:460  _dna */\n      dup4\n        /* \"contracts/CryptoZombies/cryptoZomC2.sol\":442:461  Zombie(_name, _dna) */\n      dup2\n      mstore\n      pop\n        /* \"contracts/CryptoZombies/cryptoZomC2.sol\":429:462  zombies.push(Zombie(_name, _dna)) */\n      swap1\n      dup1\n      0x01\n      dup2\n      sload\n      add\n      dup1\n      dup3\n      sstore\n      dup1\n      swap2\n      pop\n      pop\n      0x01\n      swap1\n      sub\n      swap1\n      0x00\n      mstore\n      keccak256(0x00, 0x20)\n      swap1\n      0x02\n      mul\n      add\n      0x00\n      swap1\n      swap2\n      swap1\n      swap2\n      swap1\n      swap2\n      pop\n      0x00\n      dup3\n      add\n      mload\n      dup2\n      0x00\n      add\n      swap1\n      dup2\n      tag_63\n      swap2\n      swap1\n      tag_64\n      jump\t// in\n    tag_63:\n      pop\n      0x20\n      dup3\n      add\n      mload\n      dup2\n      0x01\n      add\n      sstore\n      pop\n      pop\n        /* \"contracts/CryptoZombies/cryptoZomC2.sol\":472:479  uint id */\n      0x00\n        /* \"contracts/CryptoZombies/cryptoZomC2.sol\":499:500  1 */\n      0x01\n        /* \"contracts/CryptoZombies/cryptoZomC2.sol\":482:489  zombies */\n      0x02\n        /* \"contracts/CryptoZombies/cryptoZomC2.sol\":482:496  zombies.length */\n      dup1\n      sload\n      swap1\n      pop\n        /* \"contracts/CryptoZombies/cryptoZomC2.sol\":482:500  zombies.length - 1 */\n      tag_65\n      swap2\n      swap1\n      tag_66\n      jump\t// in\n    tag_65:\n        /* \"contracts/CryptoZombies/cryptoZomC2.sol\":472:500  uint id = zombies.length - 1 */\n      swap1\n      pop\n        /* \"contracts/CryptoZombies/cryptoZomC2.sol\":515:541  NewZombie(id, _name, _dna) */\n      0x88f026aacbbecc90c18411df4b1185fd8d9be2470f1962f192bf84a27d0704b7\n        /* \"contracts/CryptoZombies/cryptoZomC2.sol\":525:527  id */\n      dup2\n        /* \"contracts/CryptoZombies/cryptoZomC2.sol\":529:534  _name */\n      dup5\n        /* \"contracts/CryptoZombies/cryptoZomC2.sol\":536:540  _dna */\n      dup5\n        /* \"contracts/CryptoZombies/cryptoZomC2.sol\":515:541  NewZombie(id, _name, _dna) */\n      mload(0x40)\n      tag_67\n      swap4\n      swap3\n      swap2\n      swap1\n      tag_68\n      jump\t// in\n    tag_67:\n      mload(0x40)\n      dup1\n      swap2\n      sub\n      swap1\n      log1\n        /* \"contracts/CryptoZombies/cryptoZomC2.sol\":419:548  {... */\n      pop\n        /* \"contracts/CryptoZombies/cryptoZomC2.sol\":356:548  function _createZombie(string memory _name, uint _dna) private {... */\n      pop\n      pop\n      jump\t// out\n        /* \"#utility.yul\":7:82   */\n    tag_69:\n        /* \"#utility.yul\":40:46   */\n      0x00\n        /* \"#utility.yul\":73:75   */\n      0x40\n        /* \"#utility.yul\":67:76   */\n      mload\n        /* \"#utility.yul\":57:76   */\n      swap1\n      pop\n        /* \"#utility.yul\":7:82   */\n      swap1\n      jump\t// out\n        /* \"#utility.yul\":88:205   */\n    tag_70:\n        /* \"#utility.yul\":197:198   */\n      0x00\n        /* \"#utility.yul\":194:195   */\n      dup1\n        /* \"#utility.yul\":187:199   */\n      revert\n        /* \"#utility.yul\":211:328   */\n    tag_71:\n        /* \"#utility.yul\":320:321   */\n      0x00\n        /* \"#utility.yul\":317:318   */\n      dup1\n        /* \"#utility.yul\":310:322   */\n      revert\n        /* \"#utility.yul\":334:411   */\n    tag_72:\n        /* \"#utility.yul\":371:378   */\n      0x00\n        /* \"#utility.yul\":400:405   */\n      dup2\n        /* \"#utility.yul\":389:405   */\n      swap1\n      pop\n        /* \"#utility.yul\":334:411   */\n      swap2\n      swap1\n      pop\n      jump\t// out\n        /* \"#utility.yul\":417:539   */\n    tag_73:\n        /* \"#utility.yul\":490:514   */\n      tag_126\n        /* \"#utility.yul\":508:513   */\n      dup2\n        /* \"#utility.yul\":490:514   */\n      tag_72\n      jump\t// in\n    tag_126:\n        /* \"#utility.yul\":483:488   */\n      dup2\n        /* \"#utility.yul\":480:515   */\n      eq\n        /* \"#utility.yul\":470:533   */\n      tag_127\n      jumpi\n        /* \"#utility.yul\":529:530   */\n      0x00\n        /* \"#utility.yul\":526:527   */\n      dup1\n        /* \"#utility.yul\":519:531   */\n      revert\n        /* \"#utility.yul\":470:533   */\n    tag_127:\n        /* \"#utility.yul\":417:539   */\n      pop\n      jump\t// out\n        /* \"#utility.yul\":545:684   */\n    tag_74:\n        /* \"#utility.yul\":591:596   */\n      0x00\n        /* \"#utility.yul\":629:635   */\n      dup2\n        /* \"#utility.yul\":616:636   */\n      calldataload\n        /* \"#utility.yul\":607:636   */\n      swap1\n      pop\n        /* \"#utility.yul\":645:678   */\n      tag_129\n        /* \"#utility.yul\":672:677   */\n      dup2\n        /* \"#utility.yul\":645:678   */\n      tag_73\n      jump\t// in\n    tag_129:\n        /* \"#utility.yul\":545:684   */\n      swap3\n      swap2\n      pop\n      pop\n      jump\t// out\n        /* \"#utility.yul\":690:1019   */\n    tag_9:\n        /* \"#utility.yul\":749:755   */\n      0x00\n        /* \"#utility.yul\":798:800   */\n      0x20\n        /* \"#utility.yul\":786:795   */\n      dup3\n        /* \"#utility.yul\":777:784   */\n      dup5\n        /* \"#utility.yul\":773:796   */\n      sub\n        /* \"#utility.yul\":769:801   */\n      slt\n        /* \"#utility.yul\":766:885   */\n      iszero\n      tag_131\n      jumpi\n        /* \"#utility.yul\":804:883   */\n      tag_132\n      tag_70\n      jump\t// in\n    tag_132:\n        /* \"#utility.yul\":766:885   */\n    tag_131:\n        /* \"#utility.yul\":924:925   */\n      0x00\n        /* \"#utility.yul\":949:1002   */\n      tag_133\n        /* \"#utility.yul\":994:1001   */\n      dup5\n        /* \"#utility.yul\":985:991   */\n      dup3\n        /* \"#utility.yul\":974:983   */\n      dup6\n        /* \"#utility.yul\":970:992   */\n      add\n        /* \"#utility.yul\":949:1002   */\n      tag_74\n      jump\t// in\n    tag_133:\n        /* \"#utility.yul\":939:1002   */\n      swap2\n      pop\n        /* \"#utility.yul\":895:1012   */\n      pop\n        /* \"#utility.yul\":690:1019   */\n      swap3\n      swap2\n      pop\n      pop\n      jump\t// out\n        /* \"#utility.yul\":1025:1124   */\n    tag_75:\n        /* \"#utility.yul\":1077:1083   */\n      0x00\n        /* \"#utility.yul\":1111:1116   */\n      dup2\n        /* \"#utility.yul\":1105:1117   */\n      mload\n        /* \"#utility.yul\":1095:1117   */\n      swap1\n      pop\n        /* \"#utility.yul\":1025:1124   */\n      swap2\n      swap1\n      pop\n      jump\t// out\n        /* \"#utility.yul\":1130:1299   */\n    tag_76:\n        /* \"#utility.yul\":1214:1225   */\n      0x00\n        /* \"#utility.yul\":1248:1254   */\n      dup3\n        /* \"#utility.yul\":1243:1246   */\n      dup3\n        /* \"#utility.yul\":1236:1255   */\n      mstore\n        /* \"#utility.yul\":1288:1292   */\n      0x20\n        /* \"#utility.yul\":1283:1286   */\n      dup3\n        /* \"#utility.yul\":1279:1293   */\n      add\n        /* \"#utility.yul\":1264:1293   */\n      swap1\n      pop\n        /* \"#utility.yul\":1130:1299   */\n      swap3\n      swap2\n      pop\n      pop\n      jump\t// out\n        /* \"#utility.yul\":1305:1551   */\n    tag_77:\n        /* \"#utility.yul\":1386:1387   */\n      0x00\n        /* \"#utility.yul\":1396:1509   */\n    tag_137:\n        /* \"#utility.yul\":1410:1416   */\n      dup4\n        /* \"#utility.yul\":1407:1408   */\n      dup2\n        /* \"#utility.yul\":1404:1417   */\n      lt\n        /* \"#utility.yul\":1396:1509   */\n      iszero\n      tag_139\n      jumpi\n        /* \"#utility.yul\":1495:1496   */\n      dup1\n        /* \"#utility.yul\":1490:1493   */\n      dup3\n        /* \"#utility.yul\":1486:1497   */\n      add\n        /* \"#utility.yul\":1480:1498   */\n      mload\n        /* \"#utility.yul\":1476:1477   */\n      dup2\n        /* \"#utility.yul\":1471:1474   */\n      dup5\n        /* \"#utility.yul\":1467:1478   */\n      add\n        /* \"#utility.yul\":1460:1499   */\n      mstore\n        /* \"#utility.yul\":1432:1434   */\n      0x20\n        /* \"#utility.yul\":1429:1430   */\n      dup2\n        /* \"#utility.yul\":1425:1435   */\n      add\n        /* \"#utility.yul\":1420:1435   */\n      swap1\n      pop\n        /* \"#utility.yul\":1396:1509   */\n      jump(tag_137)\n    tag_139:\n        /* \"#utility.yul\":1543:1544   */\n      0x00\n        /* \"#utility.yul\":1534:1540   */\n      dup5\n        /* \"#utility.yul\":1529:1532   */\n      dup5\n        /* \"#utility.yul\":1525:1541   */\n      add\n        /* \"#utility.yul\":1518:1545   */\n      mstore\n        /* \"#utility.yul\":1367:1551   */\n      pop\n        /* \"#utility.yul\":1305:1551   */\n      pop\n      pop\n      pop\n      jump\t// out\n        /* \"#utility.yul\":1557:1659   */\n    tag_78:\n        /* \"#utility.yul\":1598:1604   */\n      0x00\n        /* \"#utility.yul\":1649:1651   */\n      0x1f\n        /* \"#utility.yul\":1645:1652   */\n      not\n        /* \"#utility.yul\":1640:1642   */\n      0x1f\n        /* \"#utility.yul\":1633:1638   */\n      dup4\n        /* \"#utility.yul\":1629:1643   */\n      add\n        /* \"#utility.yul\":1625:1653   */\n      and\n        /* \"#utility.yul\":1615:1653   */\n      swap1\n      pop\n        /* \"#utility.yul\":1557:1659   */\n      swap2\n      swap1\n      pop\n      jump\t// out\n        /* \"#utility.yul\":1665:2042   */\n    tag_79:\n        /* \"#utility.yul\":1753:1756   */\n      0x00\n        /* \"#utility.yul\":1781:1820   */\n      tag_142\n        /* \"#utility.yul\":1814:1819   */\n      dup3\n        /* \"#utility.yul\":1781:1820   */\n      tag_75\n      jump\t// in\n    tag_142:\n        /* \"#utility.yul\":1836:1907   */\n      tag_143\n        /* \"#utility.yul\":1900:1906   */\n      dup2\n        /* \"#utility.yul\":1895:1898   */\n      dup6\n        /* \"#utility.yul\":1836:1907   */\n      tag_76\n      jump\t// in\n    tag_143:\n        /* \"#utility.yul\":1829:1907   */\n      swap4\n      pop\n        /* \"#utility.yul\":1916:1981   */\n      tag_144\n        /* \"#utility.yul\":1974:1980   */\n      dup2\n        /* \"#utility.yul\":1969:1972   */\n      dup6\n        /* \"#utility.yul\":1962:1966   */\n      0x20\n        /* \"#utility.yul\":1955:1960   */\n      dup7\n        /* \"#utility.yul\":1951:1967   */\n      add\n        /* \"#utility.yul\":1916:1981   */\n      tag_77\n      jump\t// in\n    tag_144:\n        /* \"#utility.yul\":2006:2035   */\n      tag_145\n        /* \"#utility.yul\":2028:2034   */\n      dup2\n        /* \"#utility.yul\":2006:2035   */\n      tag_78\n      jump\t// in\n    tag_145:\n        /* \"#utility.yul\":2001:2004   */\n      dup5\n        /* \"#utility.yul\":1997:2036   */\n      add\n        /* \"#utility.yul\":1990:2036   */\n      swap2\n      pop\n        /* \"#utility.yul\":1757:2042   */\n      pop\n        /* \"#utility.yul\":1665:2042   */\n      swap3\n      swap2\n      pop\n      pop\n      jump\t// out\n        /* \"#utility.yul\":2048:2166   */\n    tag_80:\n        /* \"#utility.yul\":2135:2159   */\n      tag_147\n        /* \"#utility.yul\":2153:2158   */\n      dup2\n        /* \"#utility.yul\":2135:2159   */\n      tag_72\n      jump\t// in\n    tag_147:\n        /* \"#utility.yul\":2130:2133   */\n      dup3\n        /* \"#utility.yul\":2123:2160   */\n      mstore\n        /* \"#utility.yul\":2048:2166   */\n      pop\n      pop\n      jump\t// out\n        /* \"#utility.yul\":2172:2595   */\n    tag_12:\n        /* \"#utility.yul\":2313:2317   */\n      0x00\n        /* \"#utility.yul\":2351:2353   */\n      0x40\n        /* \"#utility.yul\":2340:2349   */\n      dup3\n        /* \"#utility.yul\":2336:2354   */\n      add\n        /* \"#utility.yul\":2328:2354   */\n      swap1\n      pop\n        /* \"#utility.yul\":2400:2409   */\n      dup2\n        /* \"#utility.yul\":2394:2398   */\n      dup2\n        /* \"#utility.yul\":2390:2410   */\n      sub\n        /* \"#utility.yul\":2386:2387   */\n      0x00\n        /* \"#utility.yul\":2375:2384   */\n      dup4\n        /* \"#utility.yul\":2371:2388   */\n      add\n        /* \"#utility.yul\":2364:2411   */\n      mstore\n        /* \"#utility.yul\":2428:2506   */\n      tag_149\n        /* \"#utility.yul\":2501:2505   */\n      dup2\n        /* \"#utility.yul\":2492:2498   */\n      dup6\n        /* \"#utility.yul\":2428:2506   */\n      tag_79\n      jump\t// in\n    tag_149:\n        /* \"#utility.yul\":2420:2506   */\n      swap1\n      pop\n        /* \"#utility.yul\":2516:2588   */\n      tag_150\n        /* \"#utility.yul\":2584:2586   */\n      0x20\n        /* \"#utility.yul\":2573:2582   */\n      dup4\n        /* \"#utility.yul\":2569:2587   */\n      add\n        /* \"#utility.yul\":2560:2566   */\n      dup5\n        /* \"#utility.yul\":2516:2588   */\n      tag_80\n      jump\t// in\n    tag_150:\n        /* \"#utility.yul\":2172:2595   */\n      swap4\n      swap3\n      pop\n      pop\n      pop\n      jump\t// out\n        /* \"#utility.yul\":2601:2718   */\n    tag_81:\n        /* \"#utility.yul\":2710:2711   */\n      0x00\n        /* \"#utility.yul\":2707:2708   */\n      dup1\n        /* \"#utility.yul\":2700:2712   */\n      revert\n        /* \"#utility.yul\":2724:2841   */\n    tag_82:\n        /* \"#utility.yul\":2833:2834   */\n      0x00\n        /* \"#utility.yul\":2830:2831   */\n      dup1\n        /* \"#utility.yul\":2823:2835   */\n      revert\n        /* \"#utility.yul\":2847:3027   */\n    tag_83:\n        /* \"#utility.yul\":2895:2972   */\n      0x4e487b7100000000000000000000000000000000000000000000000000000000\n        /* \"#utility.yul\":2892:2893   */\n      0x00\n        /* \"#utility.yul\":2885:2973   */\n      mstore\n        /* \"#utility.yul\":2992:2996   */\n      0x41\n        /* \"#utility.yul\":2989:2990   */\n      0x04\n        /* \"#utility.yul\":2982:2997   */\n      mstore\n        /* \"#utility.yul\":3016:3020   */\n      0x24\n        /* \"#utility.yul\":3013:3014   */\n      0x00\n        /* \"#utility.yul\":3006:3021   */\n      revert\n        /* \"#utility.yul\":3033:3314   */\n    tag_84:\n        /* \"#utility.yul\":3116:3143   */\n      tag_155\n        /* \"#utility.yul\":3138:3142   */\n      dup3\n        /* \"#utility.yul\":3116:3143   */\n      tag_78\n      jump\t// in\n    tag_155:\n        /* \"#utility.yul\":3108:3114   */\n      dup2\n        /* \"#utility.yul\":3104:3144   */\n      add\n        /* \"#utility.yul\":3246:3252   */\n      dup2\n        /* \"#utility.yul\":3234:3244   */\n      dup2\n        /* \"#utility.yul\":3231:3253   */\n      lt\n        /* \"#utility.yul\":3210:3228   */\n      0xffffffffffffffff\n        /* \"#utility.yul\":3198:3208   */\n      dup3\n        /* \"#utility.yul\":3195:3229   */\n      gt\n        /* \"#utility.yul\":3192:3254   */\n      or\n        /* \"#utility.yul\":3189:3277   */\n      iszero\n      tag_156\n      jumpi\n        /* \"#utility.yul\":3257:3275   */\n      tag_157\n      tag_83\n      jump\t// in\n    tag_157:\n        /* \"#utility.yul\":3189:3277   */\n    tag_156:\n        /* \"#utility.yul\":3297:3307   */\n      dup1\n        /* \"#utility.yul\":3293:3295   */\n      0x40\n        /* \"#utility.yul\":3286:3308   */\n      mstore\n        /* \"#utility.yul\":3076:3314   */\n      pop\n        /* \"#utility.yul\":3033:3314   */\n      pop\n      pop\n      jump\t// out\n        /* \"#utility.yul\":3320:3449   */\n    tag_85:\n        /* \"#utility.yul\":3354:3360   */\n      0x00\n        /* \"#utility.yul\":3381:3401   */\n      tag_159\n      tag_69\n      jump\t// in\n    tag_159:\n        /* \"#utility.yul\":3371:3401   */\n      swap1\n      pop\n        /* \"#utility.yul\":3410:3443   */\n      tag_160\n        /* \"#utility.yul\":3438:3442   */\n      dup3\n        /* \"#utility.yul\":3430:3436   */\n      dup3\n        /* \"#utility.yul\":3410:3443   */\n      tag_84\n      jump\t// in\n    tag_160:\n        /* \"#utility.yul\":3320:3449   */\n      swap2\n      swap1\n      pop\n      jump\t// out\n        /* \"#utility.yul\":3455:3763   */\n    tag_86:\n        /* \"#utility.yul\":3517:3521   */\n      0x00\n        /* \"#utility.yul\":3607:3625   */\n      0xffffffffffffffff\n        /* \"#utility.yul\":3599:3605   */\n      dup3\n        /* \"#utility.yul\":3596:3626   */\n      gt\n        /* \"#utility.yul\":3593:3649   */\n      iszero\n      tag_162\n      jumpi\n        /* \"#utility.yul\":3629:3647   */\n      tag_163\n      tag_83\n      jump\t// in\n    tag_163:\n        /* \"#utility.yul\":3593:3649   */\n    tag_162:\n        /* \"#utility.yul\":3667:3696   */\n      tag_164\n        /* \"#utility.yul\":3689:3695   */\n      dup3\n        /* \"#utility.yul\":3667:3696   */\n      tag_78\n      jump\t// in\n    tag_164:\n        /* \"#utility.yul\":3659:3696   */\n      swap1\n      pop\n        /* \"#utility.yul\":3751:3755   */\n      0x20\n        /* \"#utility.yul\":3745:3749   */\n      dup2\n        /* \"#utility.yul\":3741:3756   */\n      add\n        /* \"#utility.yul\":3733:3756   */\n      swap1\n      pop\n        /* \"#utility.yul\":3455:3763   */\n      swap2\n      swap1\n      pop\n      jump\t// out\n        /* \"#utility.yul\":3769:3915   */\n    tag_87:\n        /* \"#utility.yul\":3866:3872   */\n      dup3\n        /* \"#utility.yul\":3861:3864   */\n      dup2\n        /* \"#utility.yul\":3856:3859   */\n      dup4\n        /* \"#utility.yul\":3843:3873   */\n      calldatacopy\n        /* \"#utility.yul\":3907:3908   */\n      0x00\n        /* \"#utility.yul\":3898:3904   */\n      dup4\n        /* \"#utility.yul\":3893:3896   */\n      dup4\n        /* \"#utility.yul\":3889:3905   */\n      add\n        /* \"#utility.yul\":3882:3909   */\n      mstore\n        /* \"#utility.yul\":3769:3915   */\n      pop\n      pop\n      pop\n      jump\t// out\n        /* \"#utility.yul\":3921:4346   */\n    tag_88:\n        /* \"#utility.yul\":3999:4004   */\n      0x00\n        /* \"#utility.yul\":4024:4090   */\n      tag_167\n        /* \"#utility.yul\":4040:4089   */\n      tag_168\n        /* \"#utility.yul\":4082:4088   */\n      dup5\n        /* \"#utility.yul\":4040:4089   */\n      tag_86\n      jump\t// in\n    tag_168:\n        /* \"#utility.yul\":4024:4090   */\n      tag_85\n      jump\t// in\n    tag_167:\n        /* \"#utility.yul\":4015:4090   */\n      swap1\n      pop\n        /* \"#utility.yul\":4113:4119   */\n      dup3\n        /* \"#utility.yul\":4106:4111   */\n      dup2\n        /* \"#utility.yul\":4099:4120   */\n      mstore\n        /* \"#utility.yul\":4151:4155   */\n      0x20\n        /* \"#utility.yul\":4144:4149   */\n      dup2\n        /* \"#utility.yul\":4140:4156   */\n      add\n        /* \"#utility.yul\":4189:4192   */\n      dup5\n        /* \"#utility.yul\":4180:4186   */\n      dup5\n        /* \"#utility.yul\":4175:4178   */\n      dup5\n        /* \"#utility.yul\":4171:4187   */\n      add\n        /* \"#utility.yul\":4168:4193   */\n      gt\n        /* \"#utility.yul\":4165:4277   */\n      iszero\n      tag_169\n      jumpi\n        /* \"#utility.yul\":4196:4275   */\n      tag_170\n      tag_82\n      jump\t// in\n    tag_170:\n        /* \"#utility.yul\":4165:4277   */\n    tag_169:\n        /* \"#utility.yul\":4286:4340   */\n      tag_171\n        /* \"#utility.yul\":4333:4339   */\n      dup5\n        /* \"#utility.yul\":4328:4331   */\n      dup3\n        /* \"#utility.yul\":4323:4326   */\n      dup6\n        /* \"#utility.yul\":4286:4340   */\n      tag_87\n      jump\t// in\n    tag_171:\n        /* \"#utility.yul\":4005:4346   */\n      pop\n        /* \"#utility.yul\":3921:4346   */\n      swap4\n      swap3\n      pop\n      pop\n      pop\n      jump\t// out\n        /* \"#utility.yul\":4366:4706   */\n    tag_89:\n        /* \"#utility.yul\":4422:4427   */\n      0x00\n        /* \"#utility.yul\":4471:4474   */\n      dup3\n        /* \"#utility.yul\":4464:4468   */\n      0x1f\n        /* \"#utility.yul\":4456:4462   */\n      dup4\n        /* \"#utility.yul\":4452:4469   */\n      add\n        /* \"#utility.yul\":4448:4475   */\n      slt\n        /* \"#utility.yul\":4438:4560   */\n      tag_173\n      jumpi\n        /* \"#utility.yul\":4479:4558   */\n      tag_174\n      tag_81\n      jump\t// in\n    tag_174:\n        /* \"#utility.yul\":4438:4560   */\n    tag_173:\n        /* \"#utility.yul\":4596:4602   */\n      dup2\n        /* \"#utility.yul\":4583:4603   */\n      calldataload\n        /* \"#utility.yul\":4621:4700   */\n      tag_175\n        /* \"#utility.yul\":4696:4699   */\n      dup5\n        /* \"#utility.yul\":4688:4694   */\n      dup3\n        /* \"#utility.yul\":4681:4685   */\n      0x20\n        /* \"#utility.yul\":4673:4679   */\n      dup7\n        /* \"#utility.yul\":4669:4686   */\n      add\n        /* \"#utility.yul\":4621:4700   */\n      tag_88\n      jump\t// in\n    tag_175:\n        /* \"#utility.yul\":4612:4700   */\n      swap2\n      pop\n        /* \"#utility.yul\":4428:4706   */\n      pop\n        /* \"#utility.yul\":4366:4706   */\n      swap3\n      swap2\n      pop\n      pop\n      jump\t// out\n        /* \"#utility.yul\":4712:5221   */\n    tag_15:\n        /* \"#utility.yul\":4781:4787   */\n      0x00\n        /* \"#utility.yul\":4830:4832   */\n      0x20\n        /* \"#utility.yul\":4818:4827   */\n      dup3\n        /* \"#utility.yul\":4809:4816   */\n      dup5\n        /* \"#utility.yul\":4805:4828   */\n      sub\n        /* \"#utility.yul\":4801:4833   */\n      slt\n        /* \"#utility.yul\":4798:4917   */\n      iszero\n      tag_177\n      jumpi\n        /* \"#utility.yul\":4836:4915   */\n      tag_178\n      tag_70\n      jump\t// in\n    tag_178:\n        /* \"#utility.yul\":4798:4917   */\n    tag_177:\n        /* \"#utility.yul\":4984:4985   */\n      0x00\n        /* \"#utility.yul\":4973:4982   */\n      dup3\n        /* \"#utility.yul\":4969:4986   */\n      add\n        /* \"#utility.yul\":4956:4987   */\n      calldataload\n        /* \"#utility.yul\":5014:5032   */\n      0xffffffffffffffff\n        /* \"#utility.yul\":5006:5012   */\n      dup2\n        /* \"#utility.yul\":5003:5033   */\n      gt\n        /* \"#utility.yul\":5000:5117   */\n      iszero\n      tag_179\n      jumpi\n        /* \"#utility.yul\":5036:5115   */\n      tag_180\n      tag_71\n      jump\t// in\n    tag_180:\n        /* \"#utility.yul\":5000:5117   */\n    tag_179:\n        /* \"#utility.yul\":5141:5204   */\n      tag_181\n        /* \"#utility.yul\":5196:5203   */\n      dup5\n        /* \"#utility.yul\":5187:5193   */\n      dup3\n        /* \"#utility.yul\":5176:5185   */\n      dup6\n        /* \"#utility.yul\":5172:5194   */\n      add\n        /* \"#utility.yul\":5141:5204   */\n      tag_89\n      jump\t// in\n    tag_181:\n        /* \"#utility.yul\":5131:5204   */\n      swap2\n      pop\n        /* \"#utility.yul\":4927:5214   */\n      pop\n        /* \"#utility.yul\":4712:5221   */\n      swap3\n      swap2\n      pop\n      pop\n      jump\t// out\n        /* \"#utility.yul\":5227:5353   */\n    tag_90:\n        /* \"#utility.yul\":5264:5271   */\n      0x00\n        /* \"#utility.yul\":5304:5346   */\n      0xffffffffffffffffffffffffffffffffffffffff\n        /* \"#utility.yul\":5297:5302   */\n      dup3\n        /* \"#utility.yul\":5293:5347   */\n      and\n        /* \"#utility.yul\":5282:5347   */\n      swap1\n      pop\n        /* \"#utility.yul\":5227:5353   */\n      swap2\n      swap1\n      pop\n      jump\t// out\n        /* \"#utility.yul\":5359:5455   */\n    tag_91:\n        /* \"#utility.yul\":5396:5403   */\n      0x00\n        /* \"#utility.yul\":5425:5449   */\n      tag_184\n        /* \"#utility.yul\":5443:5448   */\n      dup3\n        /* \"#utility.yul\":5425:5449   */\n      tag_90\n      jump\t// in\n    tag_184:\n        /* \"#utility.yul\":5414:5449   */\n      swap1\n      pop\n        /* \"#utility.yul\":5359:5455   */\n      swap2\n      swap1\n      pop\n      jump\t// out\n        /* \"#utility.yul\":5461:5583   */\n    tag_92:\n        /* \"#utility.yul\":5534:5558   */\n      tag_186\n        /* \"#utility.yul\":5552:5557   */\n      dup2\n        /* \"#utility.yul\":5534:5558   */\n      tag_91\n      jump\t// in\n    tag_186:\n        /* \"#utility.yul\":5527:5532   */\n      dup2\n        /* \"#utility.yul\":5524:5559   */\n      eq\n        /* \"#utility.yul\":5514:5577   */\n      tag_187\n      jumpi\n        /* \"#utility.yul\":5573:5574   */\n      0x00\n        /* \"#utility.yul\":5570:5571   */\n      dup1\n        /* \"#utility.yul\":5563:5575   */\n      revert\n        /* \"#utility.yul\":5514:5577   */\n    tag_187:\n        /* \"#utility.yul\":5461:5583   */\n      pop\n      jump\t// out\n        /* \"#utility.yul\":5589:5728   */\n    tag_93:\n        /* \"#utility.yul\":5635:5640   */\n      0x00\n        /* \"#utility.yul\":5673:5679   */\n      dup2\n        /* \"#utility.yul\":5660:5680   */\n      calldataload\n        /* \"#utility.yul\":5651:5680   */\n      swap1\n      pop\n        /* \"#utility.yul\":5689:5722   */\n      tag_189\n        /* \"#utility.yul\":5716:5721   */\n      dup2\n        /* \"#utility.yul\":5689:5722   */\n      tag_92\n      jump\t// in\n    tag_189:\n        /* \"#utility.yul\":5589:5728   */\n      swap3\n      swap2\n      pop\n      pop\n      jump\t// out\n        /* \"#utility.yul\":5734:6063   */\n    tag_23:\n        /* \"#utility.yul\":5793:5799   */\n      0x00\n        /* \"#utility.yul\":5842:5844   */\n      0x20\n        /* \"#utility.yul\":5830:5839   */\n      dup3\n        /* \"#utility.yul\":5821:5828   */\n      dup5\n        /* \"#utility.yul\":5817:5840   */\n      sub\n        /* \"#utility.yul\":5813:5845   */\n      slt\n        /* \"#utility.yul\":5810:5929   */\n      iszero\n      tag_191\n      jumpi\n        /* \"#utility.yul\":5848:5927   */\n      tag_192\n      tag_70\n      jump\t// in\n    tag_192:\n        /* \"#utility.yul\":5810:5929   */\n    tag_191:\n        /* \"#utility.yul\":5968:5969   */\n      0x00\n        /* \"#utility.yul\":5993:6046   */\n      tag_193\n        /* \"#utility.yul\":6038:6045   */\n      dup5\n        /* \"#utility.yul\":6029:6035   */\n      dup3\n        /* \"#utility.yul\":6018:6027   */\n      dup6\n        /* \"#utility.yul\":6014:6036   */\n      add\n        /* \"#utility.yul\":5993:6046   */\n      tag_93\n      jump\t// in\n    tag_193:\n        /* \"#utility.yul\":5983:6046   */\n      swap2\n      pop\n        /* \"#utility.yul\":5939:6056   */\n      pop\n        /* \"#utility.yul\":5734:6063   */\n      swap3\n      swap2\n      pop\n      pop\n      jump\t// out\n        /* \"#utility.yul\":6069:6159   */\n    tag_94:\n        /* \"#utility.yul\":6103:6110   */\n      0x00\n        /* \"#utility.yul\":6146:6151   */\n      dup2\n        /* \"#utility.yul\":6139:6152   */\n      iszero\n        /* \"#utility.yul\":6132:6153   */\n      iszero\n        /* \"#utility.yul\":6121:6153   */\n      swap1\n      pop\n        /* \"#utility.yul\":6069:6159   */\n      swap2\n      swap1\n      pop\n      jump\t// out\n        /* \"#utility.yul\":6165:6274   */\n    tag_95:\n        /* \"#utility.yul\":6246:6267   */\n      tag_196\n        /* \"#utility.yul\":6261:6266   */\n      dup2\n        /* \"#utility.yul\":6246:6267   */\n      tag_94\n      jump\t// in\n    tag_196:\n        /* \"#utility.yul\":6241:6244   */\n      dup3\n        /* \"#utility.yul\":6234:6268   */\n      mstore\n        /* \"#utility.yul\":6165:6274   */\n      pop\n      pop\n      jump\t// out\n        /* \"#utility.yul\":6280:6490   */\n    tag_26:\n        /* \"#utility.yul\":6367:6371   */\n      0x00\n        /* \"#utility.yul\":6405:6407   */\n      0x20\n        /* \"#utility.yul\":6394:6403   */\n      dup3\n        /* \"#utility.yul\":6390:6408   */\n      add\n        /* \"#utility.yul\":6382:6408   */\n      swap1\n      pop\n        /* \"#utility.yul\":6418:6483   */\n      tag_198\n        /* \"#utility.yul\":6480:6481   */\n      0x00\n        /* \"#utility.yul\":6469:6478   */\n      dup4\n        /* \"#utility.yul\":6465:6482   */\n      add\n        /* \"#utility.yul\":6456:6462   */\n      dup5\n        /* \"#utility.yul\":6418:6483   */\n      tag_95\n      jump\t// in\n    tag_198:\n        /* \"#utility.yul\":6280:6490   */\n      swap3\n      swap2\n      pop\n      pop\n      jump\t// out\n        /* \"#utility.yul\":6496:6676   */\n    tag_96:\n        /* \"#utility.yul\":6544:6621   */\n      0x4e487b7100000000000000000000000000000000000000000000000000000000\n        /* \"#utility.yul\":6541:6542   */\n      0x00\n        /* \"#utility.yul\":6534:6622   */\n      mstore\n        /* \"#utility.yul\":6641:6645   */\n      0x22\n        /* \"#utility.yul\":6638:6639   */\n      0x04\n        /* \"#utility.yul\":6631:6646   */\n      mstore\n        /* \"#utility.yul\":6665:6669   */\n      0x24\n        /* \"#utility.yul\":6662:6663   */\n      0x00\n        /* \"#utility.yul\":6655:6670   */\n      revert\n        /* \"#utility.yul\":6682:7002   */\n    tag_30:\n        /* \"#utility.yul\":6726:6732   */\n      0x00\n        /* \"#utility.yul\":6763:6764   */\n      0x02\n        /* \"#utility.yul\":6757:6761   */\n      dup3\n        /* \"#utility.yul\":6753:6765   */\n      div\n        /* \"#utility.yul\":6743:6765   */\n      swap1\n      pop\n        /* \"#utility.yul\":6810:6811   */\n      0x01\n        /* \"#utility.yul\":6804:6808   */\n      dup3\n        /* \"#utility.yul\":6800:6812   */\n      and\n        /* \"#utility.yul\":6831:6849   */\n      dup1\n        /* \"#utility.yul\":6821:6902   */\n      tag_201\n      jumpi\n        /* \"#utility.yul\":6887:6891   */\n      0x7f\n        /* \"#utility.yul\":6879:6885   */\n      dup3\n        /* \"#utility.yul\":6875:6892   */\n      and\n        /* \"#utility.yul\":6865:6892   */\n      swap2\n      pop\n        /* \"#utility.yul\":6821:6902   */\n    tag_201:\n        /* \"#utility.yul\":6949:6951   */\n      0x20\n        /* \"#utility.yul\":6941:6947   */\n      dup3\n        /* \"#utility.yul\":6938:6952   */\n      lt\n        /* \"#utility.yul\":6918:6936   */\n      dup2\n        /* \"#utility.yul\":6915:6953   */\n      sub\n        /* \"#utility.yul\":6912:6996   */\n      tag_202\n      jumpi\n        /* \"#utility.yul\":6968:6986   */\n      tag_203\n      tag_96\n      jump\t// in\n    tag_203:\n        /* \"#utility.yul\":6912:6996   */\n    tag_202:\n        /* \"#utility.yul\":6733:7002   */\n      pop\n        /* \"#utility.yul\":6682:7002   */\n      swap2\n      swap1\n      pop\n      jump\t// out\n        /* \"#utility.yul\":7008:7235   */\n    tag_97:\n        /* \"#utility.yul\":7148:7182   */\n      0x4361646120646972656363696f6e20736f6c6f20707565646520637265617220\n        /* \"#utility.yul\":7144:7145   */\n      0x00\n        /* \"#utility.yul\":7136:7142   */\n      dup3\n        /* \"#utility.yul\":7132:7146   */\n      add\n        /* \"#utility.yul\":7125:7183   */\n      mstore\n        /* \"#utility.yul\":7217:7227   */\n      0x756e207a6f6d6269000000000000000000000000000000000000000000000000\n        /* \"#utility.yul\":7212:7214   */\n      0x20\n        /* \"#utility.yul\":7204:7210   */\n      dup3\n        /* \"#utility.yul\":7200:7215   */\n      add\n        /* \"#utility.yul\":7193:7228   */\n      mstore\n        /* \"#utility.yul\":7008:7235   */\n      pop\n      jump\t// out\n        /* \"#utility.yul\":7241:7607   */\n    tag_98:\n        /* \"#utility.yul\":7383:7386   */\n      0x00\n        /* \"#utility.yul\":7404:7471   */\n      tag_206\n        /* \"#utility.yul\":7468:7470   */\n      0x28\n        /* \"#utility.yul\":7463:7466   */\n      dup4\n        /* \"#utility.yul\":7404:7471   */\n      tag_76\n      jump\t// in\n    tag_206:\n        /* \"#utility.yul\":7397:7471   */\n      swap2\n      pop\n        /* \"#utility.yul\":7480:7573   */\n      tag_207\n        /* \"#utility.yul\":7569:7572   */\n      dup3\n        /* \"#utility.yul\":7480:7573   */\n      tag_97\n      jump\t// in\n    tag_207:\n        /* \"#utility.yul\":7598:7600   */\n      0x40\n        /* \"#utility.yul\":7593:7596   */\n      dup3\n        /* \"#utility.yul\":7589:7601   */\n      add\n        /* \"#utility.yul\":7582:7601   */\n      swap1\n      pop\n        /* \"#utility.yul\":7241:7607   */\n      swap2\n      swap1\n      pop\n      jump\t// out\n        /* \"#utility.yul\":7613:8032   */\n    tag_38:\n        /* \"#utility.yul\":7779:7783   */\n      0x00\n        /* \"#utility.yul\":7817:7819   */\n      0x20\n        /* \"#utility.yul\":7806:7815   */\n      dup3\n        /* \"#utility.yul\":7802:7820   */\n      add\n        /* \"#utility.yul\":7794:7820   */\n      swap1\n      pop\n        /* \"#utility.yul\":7866:7875   */\n      dup2\n        /* \"#utility.yul\":7860:7864   */\n      dup2\n        /* \"#utility.yul\":7856:7876   */\n      sub\n        /* \"#utility.yul\":7852:7853   */\n      0x00\n        /* \"#utility.yul\":7841:7850   */\n      dup4\n        /* \"#utility.yul\":7837:7854   */\n      add\n        /* \"#utility.yul\":7830:7877   */\n      mstore\n        /* \"#utility.yul\":7894:8025   */\n      tag_209\n        /* \"#utility.yul\":8020:8024   */\n      dup2\n        /* \"#utility.yul\":7894:8025   */\n      tag_98\n      jump\t// in\n    tag_209:\n        /* \"#utility.yul\":7886:8025   */\n      swap1\n      pop\n        /* \"#utility.yul\":7613:8032   */\n      swap2\n      swap1\n      pop\n      jump\t// out\n        /* \"#utility.yul\":8038:8209   */\n    tag_99:\n        /* \"#utility.yul\":8178:8201   */\n      0x496e646963652066756572612064652072616e676f0000000000000000000000\n        /* \"#utility.yul\":8174:8175   */\n      0x00\n        /* \"#utility.yul\":8166:8172   */\n      dup3\n        /* \"#utility.yul\":8162:8176   */\n      add\n        /* \"#utility.yul\":8155:8202   */\n      mstore\n        /* \"#utility.yul\":8038:8209   */\n      pop\n      jump\t// out\n        /* \"#utility.yul\":8215:8581   */\n    tag_100:\n        /* \"#utility.yul\":8357:8360   */\n      0x00\n        /* \"#utility.yul\":8378:8445   */\n      tag_212\n        /* \"#utility.yul\":8442:8444   */\n      0x15\n        /* \"#utility.yul\":8437:8440   */\n      dup4\n        /* \"#utility.yul\":8378:8445   */\n      tag_76\n      jump\t// in\n    tag_212:\n        /* \"#utility.yul\":8371:8445   */\n      swap2\n      pop\n        /* \"#utility.yul\":8454:8547   */\n      tag_213\n        /* \"#utility.yul\":8543:8546   */\n      dup3\n        /* \"#utility.yul\":8454:8547   */\n      tag_99\n      jump\t// in\n    tag_213:\n        /* \"#utility.yul\":8572:8574   */\n      0x20\n        /* \"#utility.yul\":8567:8570   */\n      dup3\n        /* \"#utility.yul\":8563:8575   */\n      add\n        /* \"#utility.yul\":8556:8575   */\n      swap1\n      pop\n        /* \"#utility.yul\":8215:8581   */\n      swap2\n      swap1\n      pop\n      jump\t// out\n        /* \"#utility.yul\":8587:9006   */\n    tag_46:\n        /* \"#utility.yul\":8753:8757   */\n      0x00\n        /* \"#utility.yul\":8791:8793   */\n      0x20\n        /* \"#utility.yul\":8780:8789   */\n      dup3\n        /* \"#utility.yul\":8776:8794   */\n      add\n        /* \"#utility.yul\":8768:8794   */\n      swap1\n      pop\n        /* \"#utility.yul\":8840:8849   */\n      dup2\n        /* \"#utility.yul\":8834:8838   */\n      dup2\n        /* \"#utility.yul\":8830:8850   */\n      sub\n        /* \"#utility.yul\":8826:8827   */\n      0x00\n        /* \"#utility.yul\":8815:8824   */\n      dup4\n        /* \"#utility.yul\":8811:8828   */\n      add\n        /* \"#utility.yul\":8804:8851   */\n      mstore\n        /* \"#utility.yul\":8868:8999   */\n      tag_215\n        /* \"#utility.yul\":8994:8998   */\n      dup2\n        /* \"#utility.yul\":8868:8999   */\n      tag_100\n      jump\t// in\n    tag_215:\n        /* \"#utility.yul\":8860:8999   */\n      swap1\n      pop\n        /* \"#utility.yul\":8587:9006   */\n      swap2\n      swap1\n      pop\n      jump\t// out\n        /* \"#utility.yul\":9012:9192   */\n    tag_49:\n        /* \"#utility.yul\":9060:9137   */\n      0x4e487b7100000000000000000000000000000000000000000000000000000000\n        /* \"#utility.yul\":9057:9058   */\n      0x00\n        /* \"#utility.yul\":9050:9138   */\n      mstore\n        /* \"#utility.yul\":9157:9161   */\n      0x32\n        /* \"#utility.yul\":9154:9155   */\n      0x04\n        /* \"#utility.yul\":9147:9162   */\n      mstore\n        /* \"#utility.yul\":9181:9185   */\n      0x24\n        /* \"#utility.yul\":9178:9179   */\n      0x00\n        /* \"#utility.yul\":9171:9186   */\n      revert\n        /* \"#utility.yul\":9198:9346   */\n    tag_101:\n        /* \"#utility.yul\":9300:9311   */\n      0x00\n        /* \"#utility.yul\":9337:9340   */\n      dup2\n        /* \"#utility.yul\":9322:9340   */\n      swap1\n      pop\n        /* \"#utility.yul\":9198:9346   */\n      swap3\n      swap2\n      pop\n      pop\n      jump\t// out\n        /* \"#utility.yul\":9352:9742   */\n    tag_102:\n        /* \"#utility.yul\":9458:9461   */\n      0x00\n        /* \"#utility.yul\":9486:9525   */\n      tag_219\n        /* \"#utility.yul\":9519:9524   */\n      dup3\n        /* \"#utility.yul\":9486:9525   */\n      tag_75\n      jump\t// in\n    tag_219:\n        /* \"#utility.yul\":9541:9630   */\n      tag_220\n        /* \"#utility.yul\":9623:9629   */\n      dup2\n        /* \"#utility.yul\":9618:9621   */\n      dup6\n        /* \"#utility.yul\":9541:9630   */\n      tag_101\n      jump\t// in\n    tag_220:\n        /* \"#utility.yul\":9534:9630   */\n      swap4\n      pop\n        /* \"#utility.yul\":9639:9704   */\n      tag_221\n        /* \"#utility.yul\":9697:9703   */\n      dup2\n        /* \"#utility.yul\":9692:9695   */\n      dup6\n        /* \"#utility.yul\":9685:9689   */\n      0x20\n        /* \"#utility.yul\":9678:9683   */\n      dup7\n        /* \"#utility.yul\":9674:9690   */\n      add\n        /* \"#utility.yul\":9639:9704   */\n      tag_77\n      jump\t// in\n    tag_221:\n        /* \"#utility.yul\":9729:9735   */\n      dup1\n        /* \"#utility.yul\":9724:9727   */\n      dup5\n        /* \"#utility.yul\":9720:9736   */\n      add\n        /* \"#utility.yul\":9713:9736   */\n      swap2\n      pop\n        /* \"#utility.yul\":9462:9742   */\n      pop\n        /* \"#utility.yul\":9352:9742   */\n      swap3\n      swap2\n      pop\n      pop\n      jump\t// out\n        /* \"#utility.yul\":9748:10023   */\n    tag_58:\n        /* \"#utility.yul\":9880:9883   */\n      0x00\n        /* \"#utility.yul\":9902:9997   */\n      tag_223\n        /* \"#utility.yul\":9993:9996   */\n      dup3\n        /* \"#utility.yul\":9984:9990   */\n      dup5\n        /* \"#utility.yul\":9902:9997   */\n      tag_102\n      jump\t// in\n    tag_223:\n        /* \"#utility.yul\":9895:9997   */\n      swap2\n      pop\n        /* \"#utility.yul\":10014:10017   */\n      dup2\n        /* \"#utility.yul\":10007:10017   */\n      swap1\n      pop\n        /* \"#utility.yul\":9748:10023   */\n      swap3\n      swap2\n      pop\n      pop\n      jump\t// out\n        /* \"#utility.yul\":10029:10209   */\n    tag_103:\n        /* \"#utility.yul\":10077:10154   */\n      0x4e487b7100000000000000000000000000000000000000000000000000000000\n        /* \"#utility.yul\":10074:10075   */\n      0x00\n        /* \"#utility.yul\":10067:10155   */\n      mstore\n        /* \"#utility.yul\":10174:10178   */\n      0x12\n        /* \"#utility.yul\":10171:10172   */\n      0x04\n        /* \"#utility.yul\":10164:10179   */\n      mstore\n        /* \"#utility.yul\":10198:10202   */\n      0x24\n        /* \"#utility.yul\":10195:10196   */\n      0x00\n        /* \"#utility.yul\":10188:10203   */\n      revert\n        /* \"#utility.yul\":10215:10391   */\n    tag_60:\n        /* \"#utility.yul\":10247:10248   */\n      0x00\n        /* \"#utility.yul\":10264:10284   */\n      tag_226\n        /* \"#utility.yul\":10282:10283   */\n      dup3\n        /* \"#utility.yul\":10264:10284   */\n      tag_72\n      jump\t// in\n    tag_226:\n        /* \"#utility.yul\":10259:10284   */\n      swap2\n      pop\n        /* \"#utility.yul\":10298:10318   */\n      tag_227\n        /* \"#utility.yul\":10316:10317   */\n      dup4\n        /* \"#utility.yul\":10298:10318   */\n      tag_72\n      jump\t// in\n    tag_227:\n        /* \"#utility.yul\":10293:10318   */\n      swap3\n      pop\n        /* \"#utility.yul\":10337:10338   */\n      dup3\n        /* \"#utility.yul\":10327:10362   */\n      tag_228\n      jumpi\n        /* \"#utility.yul\":10342:10360   */\n      tag_229\n      tag_103\n      jump\t// in\n    tag_229:\n        /* \"#utility.yul\":10327:10362   */\n    tag_228:\n        /* \"#utility.yul\":10383:10384   */\n      dup3\n        /* \"#utility.yul\":10380:10381   */\n      dup3\n        /* \"#utility.yul\":10376:10385   */\n      mod\n        /* \"#utility.yul\":10371:10385   */\n      swap1\n      pop\n        /* \"#utility.yul\":10215:10391   */\n      swap3\n      swap2\n      pop\n      pop\n      jump\t// out\n        /* \"#utility.yul\":10397:10538   */\n    tag_104:\n        /* \"#utility.yul\":10446:10450   */\n      0x00\n        /* \"#utility.yul\":10469:10472   */\n      dup2\n        /* \"#utility.yul\":10461:10472   */\n      swap1\n      pop\n        /* \"#utility.yul\":10492:10495   */\n      dup2\n        /* \"#utility.yul\":10489:10490   */\n      0x00\n        /* \"#utility.yul\":10482:10496   */\n      mstore\n        /* \"#utility.yul\":10526:10530   */\n      0x20\n        /* \"#utility.yul\":10523:10524   */\n      0x00\n        /* \"#utility.yul\":10513:10531   */\n      keccak256\n        /* \"#utility.yul\":10505:10531   */\n      swap1\n      pop\n        /* \"#utility.yul\":10397:10538   */\n      swap2\n      swap1\n      pop\n      jump\t// out\n        /* \"#utility.yul\":10544:10637   */\n    tag_105:\n        /* \"#utility.yul\":10581:10587   */\n      0x00\n        /* \"#utility.yul\":10628:10630   */\n      0x20\n        /* \"#utility.yul\":10623:10625   */\n      0x1f\n        /* \"#utility.yul\":10616:10621   */\n      dup4\n        /* \"#utility.yul\":10612:10626   */\n      add\n        /* \"#utility.yul\":10608:10631   */\n      div\n        /* \"#utility.yul\":10598:10631   */\n      swap1\n      pop\n        /* \"#utility.yul\":10544:10637   */\n      swap2\n      swap1\n      pop\n      jump\t// out\n        /* \"#utility.yul\":10643:10750   */\n    tag_106:\n        /* \"#utility.yul\":10687:10695   */\n      0x00\n        /* \"#utility.yul\":10737:10742   */\n      dup3\n        /* \"#utility.yul\":10731:10735   */\n      dup3\n        /* \"#utility.yul\":10727:10743   */\n      shl\n        /* \"#utility.yul\":10706:10743   */\n      swap1\n      pop\n        /* \"#utility.yul\":10643:10750   */\n      swap3\n      swap2\n      pop\n      pop\n      jump\t// out\n        /* \"#utility.yul\":10756:11149   */\n    tag_107:\n        /* \"#utility.yul\":10825:10831   */\n      0x00\n        /* \"#utility.yul\":10875:10876   */\n      0x08\n        /* \"#utility.yul\":10863:10873   */\n      dup4\n        /* \"#utility.yul\":10859:10877   */\n      mul\n        /* \"#utility.yul\":10898:10995   */\n      tag_234\n        /* \"#utility.yul\":10928:10994   */\n      0xffffffffffffffffffffffffffffffffffffffffffffffffffffffffffffffff\n        /* \"#utility.yul\":10917:10926   */\n      dup3\n        /* \"#utility.yul\":10898:10995   */\n      tag_106\n      jump\t// in\n    tag_234:\n        /* \"#utility.yul\":11016:11055   */\n      tag_235\n        /* \"#utility.yul\":11046:11054   */\n      dup7\n        /* \"#utility.yul\":11035:11044   */\n      dup4\n        /* \"#utility.yul\":11016:11055   */\n      tag_106\n      jump\t// in\n    tag_235:\n        /* \"#utility.yul\":11004:11055   */\n      swap6\n      pop\n        /* \"#utility.yul\":11088:11092   */\n      dup1\n        /* \"#utility.yul\":11084:11093   */\n      not\n        /* \"#utility.yul\":11077:11082   */\n      dup5\n        /* \"#utility.yul\":11073:11094   */\n      and\n        /* \"#utility.yul\":11064:11094   */\n      swap4\n      pop\n        /* \"#utility.yul\":11137:11141   */\n      dup1\n        /* \"#utility.yul\":11127:11135   */\n      dup7\n        /* \"#utility.yul\":11123:11142   */\n      and\n        /* \"#utility.yul\":11116:11121   */\n      dup5\n        /* \"#utility.yul\":11113:11143   */\n      or\n        /* \"#utility.yul\":11103:11143   */\n      swap3\n      pop\n        /* \"#utility.yul\":10832:11149   */\n      pop\n      pop\n        /* \"#utility.yul\":10756:11149   */\n      swap4\n      swap3\n      pop\n      pop\n      pop\n      jump\t// out\n        /* \"#utility.yul\":11155:11215   */\n    tag_108:\n        /* \"#utility.yul\":11183:11186   */\n      0x00\n        /* \"#utility.yul\":11204:11209   */\n      dup2\n        /* \"#utility.yul\":11197:11209   */\n      swap1\n      pop\n        /* \"#utility.yul\":11155:11215   */\n      swap2\n      swap1\n      pop\n      jump\t// out\n        /* \"#utility.yul\":11221:11363   */\n    tag_109:\n        /* \"#utility.yul\":11271:11280   */\n      0x00\n        /* \"#utility.yul\":11304:11357   */\n      tag_238\n        /* \"#utility.yul\":11322:11356   */\n      tag_239\n        /* \"#utility.yul\":11331:11355   */\n      tag_240\n        /* \"#utility.yul\":11349:11354   */\n      dup5\n        /* \"#utility.yul\":11331:11355   */\n      tag_72\n      jump\t// in\n    tag_240:\n        /* \"#utility.yul\":11322:11356   */\n      tag_108\n      jump\t// in\n    tag_239:\n        /* \"#utility.yul\":11304:11357   */\n      tag_72\n      jump\t// in\n    tag_238:\n        /* \"#utility.yul\":11291:11357   */\n      swap1\n      pop\n        /* \"#utility.yul\":11221:11363   */\n      swap2\n      swap1\n      pop\n      jump\t// out\n        /* \"#utility.yul\":11369:11444   */\n    tag_110:\n        /* \"#utility.yul\":11412:11415   */\n      0x00\n        /* \"#utility.yul\":11433:11438   */\n      dup2\n        /* \"#utility.yul\":11426:11438   */\n      swap1\n      pop\n        /* \"#utility.yul\":11369:11444   */\n      swap2\n      swap1\n      pop\n      jump\t// out\n        /* \"#utility.yul\":11450:11719   */\n    tag_111:\n        /* \"#utility.yul\":11560:11599   */\n      tag_243\n        /* \"#utility.yul\":11591:11598   */\n      dup4\n        /* \"#utility.yul\":11560:11599   */\n      tag_109\n      jump\t// in\n    tag_243:\n        /* \"#utility.yul\":11621:11712   */\n      tag_244\n        /* \"#utility.yul\":11670:11711   */\n      tag_245\n        /* \"#utility.yul\":11694:11710   */\n      dup3\n        /* \"#utility.yul\":11670:11711   */\n      tag_110\n      jump\t// in\n    tag_245:\n        /* \"#utility.yul\":11662:11668   */\n      dup5\n        /* \"#utility.yul\":11655:11659   */\n      dup5\n        /* \"#utility.yul\":11649:11660   */\n      sload\n        /* \"#utility.yul\":11621:11712   */\n      tag_107\n      jump\t// in\n    tag_244:\n        /* \"#utility.yul\":11615:11619   */\n      dup3\n        /* \"#utility.yul\":11608:11713   */\n      sstore\n        /* \"#utility.yul\":11526:11719   */\n      pop\n        /* \"#utility.yul\":11450:11719   */\n      pop\n      pop\n      pop\n      jump\t// out\n        /* \"#utility.yul\":11725:11798   */\n    tag_112:\n        /* \"#utility.yul\":11770:11773   */\n      0x00\n        /* \"#utility.yul\":11725:11798   */\n      swap1\n      jump\t// out\n        /* \"#utility.yul\":11804:11993   */\n    tag_113:\n        /* \"#utility.yul\":11881:11913   */\n      tag_248\n      tag_112\n      jump\t// in\n    tag_248:\n        /* \"#utility.yul\":11922:11987   */\n      tag_249\n        /* \"#utility.yul\":11980:11986   */\n      dup2\n        /* \"#utility.yul\":11972:11978   */\n      dup5\n        /* \"#utility.yul\":11966:11970   */\n      dup5\n        /* \"#utility.yul\":11922:11987   */\n      tag_111\n      jump\t// in\n    tag_249:\n        /* \"#utility.yul\":11857:11993   */\n      pop\n        /* \"#utility.yul\":11804:11993   */\n      pop\n      pop\n      jump\t// out\n        /* \"#utility.yul\":11999:12185   */\n    tag_114:\n        /* \"#utility.yul\":12059:12179   */\n    tag_251:\n        /* \"#utility.yul\":12076:12079   */\n      dup2\n        /* \"#utility.yul\":12069:12074   */\n      dup2\n        /* \"#utility.yul\":12066:12080   */\n      lt\n        /* \"#utility.yul\":12059:12179   */\n      iszero\n      tag_253\n      jumpi\n        /* \"#utility.yul\":12130:12169   */\n      tag_254\n        /* \"#utility.yul\":12167:12168   */\n      0x00\n        /* \"#utility.yul\":12160:12165   */\n      dup3\n        /* \"#utility.yul\":12130:12169   */\n      tag_113\n      jump\t// in\n    tag_254:\n        /* \"#utility.yul\":12103:12104   */\n      0x01\n        /* \"#utility.yul\":12096:12101   */\n      dup2\n        /* \"#utility.yul\":12092:12105   */\n      add\n        /* \"#utility.yul\":12083:12105   */\n      swap1\n      pop\n        /* \"#utility.yul\":12059:12179   */\n      jump(tag_251)\n    tag_253:\n        /* \"#utility.yul\":11999:12185   */\n      pop\n      pop\n      jump\t// out\n        /* \"#utility.yul\":12191:12734   */\n    tag_115:\n        /* \"#utility.yul\":12292:12294   */\n      0x1f\n        /* \"#utility.yul\":12287:12290   */\n      dup3\n        /* \"#utility.yul\":12284:12295   */\n      gt\n        /* \"#utility.yul\":12281:12727   */\n      iszero\n      tag_256\n      jumpi\n        /* \"#utility.yul\":12326:12364   */\n      tag_257\n        /* \"#utility.yul\":12358:12363   */\n      dup2\n        /* \"#utility.yul\":12326:12364   */\n      tag_104\n      jump\t// in\n    tag_257:\n        /* \"#utility.yul\":12410:12439   */\n      tag_258\n        /* \"#utility.yul\":12428:12438   */\n      dup5\n        /* \"#utility.yul\":12410:12439   */\n      tag_105\n      jump\t// in\n    tag_258:\n        /* \"#utility.yul\":12400:12408   */\n      dup2\n        /* \"#utility.yul\":12396:12440   */\n      add\n        /* \"#utility.yul\":12593:12595   */\n      0x20\n        /* \"#utility.yul\":12581:12591   */\n      dup6\n        /* \"#utility.yul\":12578:12596   */\n      lt\n        /* \"#utility.yul\":12575:12624   */\n      iszero\n      tag_259\n      jumpi\n        /* \"#utility.yul\":12614:12622   */\n      dup2\n        /* \"#utility.yul\":12599:12622   */\n      swap1\n      pop\n        /* \"#utility.yul\":12575:12624   */\n    tag_259:\n        /* \"#utility.yul\":12637:12717   */\n      tag_260\n        /* \"#utility.yul\":12693:12715   */\n      tag_261\n        /* \"#utility.yul\":12711:12714   */\n      dup6\n        /* \"#utility.yul\":12693:12715   */\n      tag_105\n      jump\t// in\n    tag_261:\n        /* \"#utility.yul\":12683:12691   */\n      dup4\n        /* \"#utility.yul\":12679:12716   */\n      add\n        /* \"#utility.yul\":12666:12677   */\n      dup3\n        /* \"#utility.yul\":12637:12717   */\n      tag_114\n      jump\t// in\n    tag_260:\n        /* \"#utility.yul\":12296:12727   */\n      pop\n      pop\n        /* \"#utility.yul\":12281:12727   */\n    tag_256:\n        /* \"#utility.yul\":12191:12734   */\n      pop\n      pop\n      pop\n      jump\t// out\n        /* \"#utility.yul\":12740:12857   */\n    tag_116:\n        /* \"#utility.yul\":12794:12802   */\n      0x00\n        /* \"#utility.yul\":12844:12849   */\n      dup3\n        /* \"#utility.yul\":12838:12842   */\n      dup3\n        /* \"#utility.yul\":12834:12850   */\n      shr\n        /* \"#utility.yul\":12813:12850   */\n      swap1\n      pop\n        /* \"#utility.yul\":12740:12857   */\n      swap3\n      swap2\n      pop\n      pop\n      jump\t// out\n        /* \"#utility.yul\":12863:13032   */\n    tag_117:\n        /* \"#utility.yul\":12907:12913   */\n      0x00\n        /* \"#utility.yul\":12940:12991   */\n      tag_264\n        /* \"#utility.yul\":12988:12989   */\n      0x00\n        /* \"#utility.yul\":12984:12990   */\n      not\n        /* \"#utility.yul\":12976:12981   */\n      dup5\n        /* \"#utility.yul\":12973:12974   */\n      0x08\n        /* \"#utility.yul\":12969:12982   */\n      mul\n        /* \"#utility.yul\":12940:12991   */\n      tag_116\n      jump\t// in\n    tag_264:\n        /* \"#utility.yul\":12936:12992   */\n      not\n        /* \"#utility.yul\":13021:13025   */\n      dup1\n        /* \"#utility.yul\":13015:13019   */\n      dup4\n        /* \"#utility.yul\":13011:13026   */\n      and\n        /* \"#utility.yul\":13001:13026   */\n      swap2\n      pop\n        /* \"#utility.yul\":12914:13032   */\n      pop\n        /* \"#utility.yul\":12863:13032   */\n      swap3\n      swap2\n      pop\n      pop\n      jump\t// out\n        /* \"#utility.yul\":13037:13332   */\n    tag_118:\n        /* \"#utility.yul\":13113:13117   */\n      0x00\n        /* \"#utility.yul\":13259:13288   */\n      tag_266\n        /* \"#utility.yul\":13284:13287   */\n      dup4\n        /* \"#utility.yul\":13278:13282   */\n      dup4\n        /* \"#utility.yul\":13259:13288   */\n      tag_117\n      jump\t// in\n    tag_266:\n        /* \"#utility.yul\":13251:13288   */\n      swap2\n      pop\n        /* \"#utility.yul\":13321:13324   */\n      dup3\n        /* \"#utility.yul\":13318:13319   */\n      0x02\n        /* \"#utility.yul\":13314:13325   */\n      mul\n        /* \"#utility.yul\":13308:13312   */\n      dup3\n        /* \"#utility.yul\":13305:13326   */\n      or\n        /* \"#utility.yul\":13297:13326   */\n      swap1\n      pop\n        /* \"#utility.yul\":13037:13332   */\n      swap3\n      swap2\n      pop\n      pop\n      jump\t// out\n        /* \"#utility.yul\":13337:14732   */\n    tag_64:\n        /* \"#utility.yul\":13454:13491   */\n      tag_268\n        /* \"#utility.yul\":13487:13490   */\n      dup3\n        /* \"#utility.yul\":13454:13491   */\n      tag_75\n      jump\t// in\n    tag_268:\n        /* \"#utility.yul\":13556:13574   */\n      0xffffffffffffffff\n        /* \"#utility.yul\":13548:13554   */\n      dup2\n        /* \"#utility.yul\":13545:13575   */\n      gt\n        /* \"#utility.yul\":13542:13598   */\n      iszero\n      tag_269\n      jumpi\n        /* \"#utility.yul\":13578:13596   */\n      tag_270\n      tag_83\n      jump\t// in\n    tag_270:\n        /* \"#utility.yul\":13542:13598   */\n    tag_269:\n        /* \"#utility.yul\":13622:13660   */\n      tag_271\n        /* \"#utility.yul\":13654:13658   */\n      dup3\n        /* \"#utility.yul\":13648:13659   */\n      sload\n        /* \"#utility.yul\":13622:13660   */\n      tag_30\n      jump\t// in\n    tag_271:\n        /* \"#utility.yul\":13707:13774   */\n      tag_272\n        /* \"#utility.yul\":13767:13773   */\n      dup3\n        /* \"#utility.yul\":13759:13765   */\n      dup3\n        /* \"#utility.yul\":13753:13757   */\n      dup6\n        /* \"#utility.yul\":13707:13774   */\n      tag_115\n      jump\t// in\n    tag_272:\n        /* \"#utility.yul\":13801:13802   */\n      0x00\n        /* \"#utility.yul\":13825:13829   */\n      0x20\n        /* \"#utility.yul\":13812:13829   */\n      swap1\n      pop\n        /* \"#utility.yul\":13857:13859   */\n      0x1f\n        /* \"#utility.yul\":13849:13855   */\n      dup4\n        /* \"#utility.yul\":13846:13860   */\n      gt\n        /* \"#utility.yul\":13874:13875   */\n      0x01\n        /* \"#utility.yul\":13869:14487   */\n      dup2\n      eq\n      tag_274\n      jumpi\n        /* \"#utility.yul\":14531:14532   */\n      0x00\n        /* \"#utility.yul\":14548:14554   */\n      dup5\n        /* \"#utility.yul\":14545:14622   */\n      iszero\n      tag_275\n      jumpi\n        /* \"#utility.yul\":14597:14606   */\n      dup3\n        /* \"#utility.yul\":14592:14595   */\n      dup8\n        /* \"#utility.yul\":14588:14607   */\n      add\n        /* \"#utility.yul\":14582:14608   */\n      mload\n        /* \"#utility.yul\":14573:14608   */\n      swap1\n      pop\n        /* \"#utility.yul\":14545:14622   */\n    tag_275:\n        /* \"#utility.yul\":14648:14715   */\n      tag_276\n        /* \"#utility.yul\":14708:14714   */\n      dup6\n        /* \"#utility.yul\":14701:14706   */\n      dup3\n        /* \"#utility.yul\":14648:14715   */\n      tag_118\n      jump\t// in\n    tag_276:\n        /* \"#utility.yul\":14642:14646   */\n      dup7\n        /* \"#utility.yul\":14635:14716   */\n      sstore\n        /* \"#utility.yul\":14504:14726   */\n      pop\n        /* \"#utility.yul\":13839:14726   */\n      jump(tag_273)\n        /* \"#utility.yul\":13869:14487   */\n    tag_274:\n        /* \"#utility.yul\":13921:13925   */\n      0x1f\n        /* \"#utility.yul\":13917:13926   */\n      not\n        /* \"#utility.yul\":13909:13915   */\n      dup5\n        /* \"#utility.yul\":13905:13927   */\n      and\n        /* \"#utility.yul\":13955:13992   */\n      tag_277\n        /* \"#utility.yul\":13987:13991   */\n      dup7\n        /* \"#utility.yul\":13955:13992   */\n      tag_104\n      jump\t// in\n    tag_277:\n        /* \"#utility.yul\":14014:14015   */\n      0x00\n        /* \"#utility.yul\":14028:14236   */\n    tag_278:\n        /* \"#utility.yul\":14042:14049   */\n      dup3\n        /* \"#utility.yul\":14039:14040   */\n      dup2\n        /* \"#utility.yul\":14036:14050   */\n      lt\n        /* \"#utility.yul\":14028:14236   */\n      iszero\n      tag_280\n      jumpi\n        /* \"#utility.yul\":14121:14130   */\n      dup5\n        /* \"#utility.yul\":14116:14119   */\n      dup10\n        /* \"#utility.yul\":14112:14131   */\n      add\n        /* \"#utility.yul\":14106:14132   */\n      mload\n        /* \"#utility.yul\":14098:14104   */\n      dup3\n        /* \"#utility.yul\":14091:14133   */\n      sstore\n        /* \"#utility.yul\":14172:14173   */\n      0x01\n        /* \"#utility.yul\":14164:14170   */\n      dup3\n        /* \"#utility.yul\":14160:14174   */\n      add\n        /* \"#utility.yul\":14150:14174   */\n      swap2\n      pop\n        /* \"#utility.yul\":14219:14221   */\n      0x20\n        /* \"#utility.yul\":14208:14217   */\n      dup6\n        /* \"#utility.yul\":14204:14222   */\n      add\n        /* \"#utility.yul\":14191:14222   */\n      swap5\n      pop\n        /* \"#utility.yul\":14065:14069   */\n      0x20\n        /* \"#utility.yul\":14062:14063   */\n      dup2\n        /* \"#utility.yul\":14058:14070   */\n      add\n        /* \"#utility.yul\":14053:14070   */\n      swap1\n      pop\n        /* \"#utility.yul\":14028:14236   */\n      jump(tag_278)\n    tag_280:\n        /* \"#utility.yul\":14264:14270   */\n      dup7\n        /* \"#utility.yul\":14255:14262   */\n      dup4\n        /* \"#utility.yul\":14252:14271   */\n      lt\n        /* \"#utility.yul\":14249:14428   */\n      iszero\n      tag_281\n      jumpi\n        /* \"#utility.yul\":14322:14331   */\n      dup5\n        /* \"#utility.yul\":14317:14320   */\n      dup10\n        /* \"#utility.yul\":14313:14332   */\n      add\n        /* \"#utility.yul\":14307:14333   */\n      mload\n        /* \"#utility.yul\":14365:14413   */\n      tag_282\n        /* \"#utility.yul\":14407:14411   */\n      0x1f\n        /* \"#utility.yul\":14399:14405   */\n      dup10\n        /* \"#utility.yul\":14395:14412   */\n      and\n        /* \"#utility.yul\":14384:14393   */\n      dup3\n        /* \"#utility.yul\":14365:14413   */\n      tag_117\n      jump\t// in\n    tag_282:\n        /* \"#utility.yul\":14357:14363   */\n      dup4\n        /* \"#utility.yul\":14350:14414   */\n      sstore\n        /* \"#utility.yul\":14272:14428   */\n      pop\n        /* \"#utility.yul\":14249:14428   */\n    tag_281:\n        /* \"#utility.yul\":14474:14475   */\n      0x01\n        /* \"#utility.yul\":14470:14471   */\n      0x02\n        /* \"#utility.yul\":14462:14468   */\n      dup9\n        /* \"#utility.yul\":14458:14472   */\n      mul\n        /* \"#utility.yul\":14454:14476   */\n      add\n        /* \"#utility.yul\":14448:14452   */\n      dup9\n        /* \"#utility.yul\":14441:14477   */\n      sstore\n        /* \"#utility.yul\":13876:14487   */\n      pop\n      pop\n      pop\n        /* \"#utility.yul\":13839:14726   */\n    tag_273:\n      pop\n        /* \"#utility.yul\":13429:14732   */\n      pop\n      pop\n      pop\n        /* \"#utility.yul\":13337:14732   */\n      pop\n      pop\n      jump\t// out\n        /* \"#utility.yul\":14738:14918   */\n    tag_119:\n        /* \"#utility.yul\":14786:14863   */\n      0x4e487b7100000000000000000000000000000000000000000000000000000000\n        /* \"#utility.yul\":14783:14784   */\n      0x00\n        /* \"#utility.yul\":14776:14864   */\n      mstore\n        /* \"#utility.yul\":14883:14887   */\n      0x11\n        /* \"#utility.yul\":14880:14881   */\n      0x04\n        /* \"#utility.yul\":14873:14888   */\n      mstore\n        /* \"#utility.yul\":14907:14911   */\n      0x24\n        /* \"#utility.yul\":14904:14905   */\n      0x00\n        /* \"#utility.yul\":14897:14912   */\n      revert\n        /* \"#utility.yul\":14924:15118   */\n    tag_66:\n        /* \"#utility.yul\":14964:14968   */\n      0x00\n        /* \"#utility.yul\":14984:15004   */\n      tag_285\n        /* \"#utility.yul\":15002:15003   */\n      dup3\n        /* \"#utility.yul\":14984:15004   */\n      tag_72\n      jump\t// in\n    tag_285:\n        /* \"#utility.yul\":14979:15004   */\n      swap2\n      pop\n        /* \"#utility.yul\":15018:15038   */\n      tag_286\n        /* \"#utility.yul\":15036:15037   */\n      dup4\n        /* \"#utility.yul\":15018:15038   */\n      tag_72\n      jump\t// in\n    tag_286:\n        /* \"#utility.yul\":15013:15038   */\n      swap3\n      pop\n        /* \"#utility.yul\":15062:15063   */\n      dup3\n        /* \"#utility.yul\":15059:15060   */\n      dup3\n        /* \"#utility.yul\":15055:15064   */\n      sub\n        /* \"#utility.yul\":15047:15064   */\n      swap1\n      pop\n        /* \"#utility.yul\":15086:15087   */\n      dup2\n        /* \"#utility.yul\":15080:15084   */\n      dup2\n        /* \"#utility.yul\":15077:15088   */\n      gt\n        /* \"#utility.yul\":15074:15111   */\n      iszero\n      tag_287\n      jumpi\n        /* \"#utility.yul\":15091:15109   */\n      tag_288\n      tag_119\n      jump\t// in\n    tag_288:\n        /* \"#utility.yul\":15074:15111   */\n    tag_287:\n        /* \"#utility.yul\":14924:15118   */\n      swap3\n      swap2\n      pop\n      pop\n      jump\t// out\n        /* \"#utility.yul\":15124:15657   */\n    tag_68:\n        /* \"#utility.yul\":15293:15297   */\n      0x00\n        /* \"#utility.yul\":15331:15333   */\n      0x60\n        /* \"#utility.yul\":15320:15329   */\n      dup3\n        /* \"#utility.yul\":15316:15334   */\n      add\n        /* \"#utility.yul\":15308:15334   */\n      swap1\n      pop\n        /* \"#utility.yul\":15344:15415   */\n      tag_290\n        /* \"#utility.yul\":15412:15413   */\n      0x00\n        /* \"#utility.yul\":15401:15410   */\n      dup4\n        /* \"#utility.yul\":15397:15414   */\n      add\n        /* \"#utility.yul\":15388:15394   */\n      dup7\n        /* \"#utility.yul\":15344:15415   */\n      tag_80\n      jump\t// in\n    tag_290:\n        /* \"#utility.yul\":15462:15471   */\n      dup2\n        /* \"#utility.yul\":15456:15460   */\n      dup2\n        /* \"#utility.yul\":15452:15472   */\n      sub\n        /* \"#utility.yul\":15447:15449   */\n      0x20\n        /* \"#utility.yul\":15436:15445   */\n      dup4\n        /* \"#utility.yul\":15432:15450   */\n      add\n        /* \"#utility.yul\":15425:15473   */\n      mstore\n        /* \"#utility.yul\":15490:15568   */\n      tag_291\n        /* \"#utility.yul\":15563:15567   */\n      dup2\n        /* \"#utility.yul\":15554:15560   */\n      dup6\n        /* \"#utility.yul\":15490:15568   */\n      tag_79\n      jump\t// in\n    tag_291:\n        /* \"#utility.yul\":15482:15568   */\n      swap1\n      pop\n        /* \"#utility.yul\":15578:15650   */\n      tag_292\n        /* \"#utility.yul\":15646:15648   */\n      0x40\n        /* \"#utility.yul\":15635:15644   */\n      dup4\n        /* \"#utility.yul\":15631:15649   */\n      add\n        /* \"#utility.yul\":15622:15628   */\n      dup5\n        /* \"#utility.yul\":15578:15650   */\n      tag_80\n      jump\t// in\n    tag_292:\n        /* \"#utility.yul\":15124:15657   */\n      swap5\n      swap4\n      pop\n      pop\n      pop\n      pop\n      jump\t// out\n\n    auxdata: 0xa2646970667358221220301398ac35aa3ac3062f58f9766d1b0ee1624be0ff45d67161a0abfa2acce8ac64736f6c63430008180033\n}\n",
				"bytecode": {
					"linkReferences": {},
					"object": "608060405260105f555f54600a620000189190620001b4565b60015534801562000027575f80fd5b5062000204565b7f4e487b71000000000000000000000000000000000000000000000000000000005f52601160045260245ffd5b5f8160011c9050919050565b5f808291508390505b6001851115620000b85780860481111562000090576200008f6200002e565b5b6001851615620000a05780820291505b8081029050620000b0856200005b565b945062000070565b94509492505050565b5f82620000d25760019050620001a4565b81620000e1575f9050620001a4565b8160018114620000fa576002811462000105576200013b565b6001915050620001a4565b60ff8411156200011a57620001196200002e565b5b8360020a9150848211156200013457620001336200002e565b5b50620001a4565b5060208310610133831016604e8410600b8410161715620001755782820a9050838111156200016f576200016e6200002e565b5b620001a4565b62000184848484600162000067565b925090508184048111156200019e576200019d6200002e565b5b81810290505b9392505050565b5f819050919050565b5f620001c082620001ab565b9150620001cd83620001ab565b9250620001fc7fffffffffffffffffffffffffffffffffffffffffffffffffffffffffffffffff8484620000c1565b905092915050565b610dac80620002125f395ff3fe608060405234801561000f575f80fd5b506004361061004a575f3560e01c80632052465e1461004e5780637bff0a011461007f578063a29056111461009b578063b129adcf146100cc575b5f80fd5b61006860048036038101906100639190610524565b6100fc565b6040516100769291906105e8565b60405180910390f35b61009960048036038101906100949190610742565b6101b1565b005b6100b560048036038101906100b09190610524565b6102aa565b6040516100c39291906105e8565b60405180910390f35b6100e660048036038101906100e191906107e3565b6103ce565b6040516100f39190610828565b60405180910390f35b6002818154811061010b575f80fd5b905f5260205f2090600202015f91509050805f01805461012a9061086e565b80601f01602080910402602001604051908101604052809291908181526020018280546101569061086e565b80156101a15780601f10610178576101008083540402835291602001916101a1565b820191905f5260205f20905b81548152906001019060200180831161018457829003601f168201915b5050505050908060010154905082565b60035f3373ffffffffffffffffffffffffffffffffffffffff1673ffffffffffffffffffffffffffffffffffffffff1681526020019081526020015f205f9054906101000a900460ff161561023b576040517f08c379a00000000000000000000000000000000000000000000000000000000081526004016102329061090e565b60405180910390fd5b5f610245826103eb565b9050610251828261042e565b600160035f3373ffffffffffffffffffffffffffffffffffffffff1673ffffffffffffffffffffffffffffffffffffffff1681526020019081526020015f205f6101000a81548160ff0219169083151502179055505050565b60605f60028054905083106102f4576040517f08c379a00000000000000000000000000000000000000000000000000000000081526004016102eb90610976565b60405180910390fd5b5f6002848154811061030957610308610994565b5b905f5260205f2090600202016040518060400160405290815f8201805461032f9061086e565b80601f016020809104026020016040519081016040528092919081815260200182805461035b9061086e565b80156103a65780601f1061037d576101008083540402835291602001916103a6565b820191905f5260205f20905b81548152906001019060200180831161038957829003601f168201915b505050505081526020016001820154815250509050805f015181602001519250925050915091565b6003602052805f5260405f205f915054906101000a900460ff1681565b5f80826040516020016103fe91906109fb565b604051602081830303815290604052805190602001205f1c9050600154816104269190610a3e565b915050919050565b6002604051806040016040528084815260200183815250908060018154018082558091505060019003905f5260205f2090600202015f909190919091505f820151815f01908161047e9190610c0b565b506020820151816001015550505f600160028054905061049e9190610d07565b90507f88f026aacbbecc90c18411df4b1185fd8d9be2470f1962f192bf84a27d0704b78184846040516104d393929190610d3a565b60405180910390a1505050565b5f604051905090565b5f80fd5b5f80fd5b5f819050919050565b610503816104f1565b811461050d575f80fd5b50565b5f8135905061051e816104fa565b92915050565b5f60208284031215610539576105386104e9565b5b5f61054684828501610510565b91505092915050565b5f81519050919050565b5f82825260208201905092915050565b5f5b8381101561058657808201518184015260208101905061056b565b5f8484015250505050565b5f601f19601f8301169050919050565b5f6105ab8261054f565b6105b58185610559565b93506105c5818560208601610569565b6105ce81610591565b840191505092915050565b6105e2816104f1565b82525050565b5f6040820190508181035f83015261060081856105a1565b905061060f60208301846105d9565b9392505050565b5f80fd5b5f80fd5b7f4e487b71000000000000000000000000000000000000000000000000000000005f52604160045260245ffd5b61065482610591565b810181811067ffffffffffffffff821117156106735761067261061e565b5b80604052505050565b5f6106856104e0565b9050610691828261064b565b919050565b5f67ffffffffffffffff8211156106b0576106af61061e565b5b6106b982610591565b9050602081019050919050565b828183375f83830152505050565b5f6106e66106e184610696565b61067c565b9050828152602081018484840111156107025761070161061a565b5b61070d8482856106c6565b509392505050565b5f82601f83011261072957610728610616565b5b81356107398482602086016106d4565b91505092915050565b5f60208284031215610757576107566104e9565b5b5f82013567ffffffffffffffff811115610774576107736104ed565b5b61078084828501610715565b91505092915050565b5f73ffffffffffffffffffffffffffffffffffffffff82169050919050565b5f6107b282610789565b9050919050565b6107c2816107a8565b81146107cc575f80fd5b50565b5f813590506107dd816107b9565b92915050565b5f602082840312156107f8576107f76104e9565b5b5f610805848285016107cf565b91505092915050565b5f8115159050919050565b6108228161080e565b82525050565b5f60208201905061083b5f830184610819565b92915050565b7f4e487b71000000000000000000000000000000000000000000000000000000005f52602260045260245ffd5b5f600282049050600182168061088557607f821691505b60208210810361089857610897610841565b5b50919050565b7f4361646120646972656363696f6e20736f6c6f207075656465206372656172205f8201527f756e207a6f6d6269000000000000000000000000000000000000000000000000602082015250565b5f6108f8602883610559565b91506109038261089e565b604082019050919050565b5f6020820190508181035f830152610925816108ec565b9050919050565b7f496e646963652066756572612064652072616e676f00000000000000000000005f82015250565b5f610960601583610559565b915061096b8261092c565b602082019050919050565b5f6020820190508181035f83015261098d81610954565b9050919050565b7f4e487b71000000000000000000000000000000000000000000000000000000005f52603260045260245ffd5b5f81905092915050565b5f6109d58261054f565b6109df81856109c1565b93506109ef818560208601610569565b80840191505092915050565b5f610a0682846109cb565b915081905092915050565b7f4e487b71000000000000000000000000000000000000000000000000000000005f52601260045260245ffd5b5f610a48826104f1565b9150610a53836104f1565b925082610a6357610a62610a11565b5b828206905092915050565b5f819050815f5260205f209050919050565b5f6020601f8301049050919050565b5f82821b905092915050565b5f60088302610aca7fffffffffffffffffffffffffffffffffffffffffffffffffffffffffffffffff82610a8f565b610ad48683610a8f565b95508019841693508086168417925050509392505050565b5f819050919050565b5f610b0f610b0a610b05846104f1565b610aec565b6104f1565b9050919050565b5f819050919050565b610b2883610af5565b610b3c610b3482610b16565b848454610a9b565b825550505050565b5f90565b610b50610b44565b610b5b818484610b1f565b505050565b5b81811015610b7e57610b735f82610b48565b600181019050610b61565b5050565b601f821115610bc357610b9481610a6e565b610b9d84610a80565b81016020851015610bac578190505b610bc0610bb885610a80565b830182610b60565b50505b505050565b5f82821c905092915050565b5f610be35f1984600802610bc8565b1980831691505092915050565b5f610bfb8383610bd4565b9150826002028217905092915050565b610c148261054f565b67ffffffffffffffff811115610c2d57610c2c61061e565b5b610c37825461086e565b610c42828285610b82565b5f60209050601f831160018114610c73575f8415610c61578287015190505b610c6b8582610bf0565b865550610cd2565b601f198416610c8186610a6e565b5f5b82811015610ca857848901518255600182019150602085019450602081019050610c83565b86831015610cc55784890151610cc1601f891682610bd4565b8355505b6001600288020188555050505b505050505050565b7f4e487b71000000000000000000000000000000000000000000000000000000005f52601160045260245ffd5b5f610d11826104f1565b9150610d1c836104f1565b9250828203905081811115610d3457610d33610cda565b5b92915050565b5f606082019050610d4d5f8301866105d9565b8181036020830152610d5f81856105a1565b9050610d6e60408301846105d9565b94935050505056fea2646970667358221220301398ac35aa3ac3062f58f9766d1b0ee1624be0ff45d67161a0abfa2acce8ac64736f6c63430008180033",
					"opcodes": "PUSH1 0x80 PUSH1 0x40 MSTORE PUSH1 0x10 PUSH0 SSTORE PUSH0 SLOAD PUSH1 0xA PUSH3 0x18 SWAP2 SWAP1 PUSH3 0x1B4 JUMP JUMPDEST PUSH1 0x1 SSTORE CALLVALUE DUP1 ISZERO PUSH3 0x27 JUMPI PUSH0 DUP1 REVERT JUMPDEST POP PUSH3 0x204 JUMP JUMPDEST PUSH32 0x4E487B7100000000000000000000000000000000000000000000000000000000 PUSH0 MSTORE PUSH1 0x11 PUSH1 0x4 MSTORE PUSH1 0x24 PUSH0 REVERT JUMPDEST PUSH0 DUP2 PUSH1 0x1 SHR SWAP1 POP SWAP2 SWAP1 POP JUMP JUMPDEST PUSH0 DUP1 DUP3 SWAP2 POP DUP4 SWAP1 POP JUMPDEST PUSH1 0x1 DUP6 GT ISZERO PUSH3 0xB8 JUMPI DUP1 DUP7 DIV DUP2 GT ISZERO PUSH3 0x90 JUMPI PUSH3 0x8F PUSH3 0x2E JUMP JUMPDEST JUMPDEST PUSH1 0x1 DUP6 AND ISZERO PUSH3 0xA0 JUMPI DUP1 DUP3 MUL SWAP2 POP JUMPDEST DUP1 DUP2 MUL SWAP1 POP PUSH3 0xB0 DUP6 PUSH3 0x5B JUMP JUMPDEST SWAP5 POP PUSH3 0x70 JUMP JUMPDEST SWAP5 POP SWAP5 SWAP3 POP POP POP JUMP JUMPDEST PUSH0 DUP3 PUSH3 0xD2 JUMPI PUSH1 0x1 SWAP1 POP PUSH3 0x1A4 JUMP JUMPDEST DUP2 PUSH3 0xE1 JUMPI PUSH0 SWAP1 POP PUSH3 0x1A4 JUMP JUMPDEST DUP2 PUSH1 0x1 DUP2 EQ PUSH3 0xFA JUMPI PUSH1 0x2 DUP2 EQ PUSH3 0x105 JUMPI PUSH3 0x13B JUMP JUMPDEST PUSH1 0x1 SWAP2 POP POP PUSH3 0x1A4 JUMP JUMPDEST PUSH1 0xFF DUP5 GT ISZERO PUSH3 0x11A JUMPI PUSH3 0x119 PUSH3 0x2E JUMP JUMPDEST JUMPDEST DUP4 PUSH1 0x2 EXP SWAP2 POP DUP5 DUP3 GT ISZERO PUSH3 0x134 JUMPI PUSH3 0x133 PUSH3 0x2E JUMP JUMPDEST JUMPDEST POP PUSH3 0x1A4 JUMP JUMPDEST POP PUSH1 0x20 DUP4 LT PUSH2 0x133 DUP4 LT AND PUSH1 0x4E DUP5 LT PUSH1 0xB DUP5 LT AND OR ISZERO PUSH3 0x175 JUMPI DUP3 DUP3 EXP SWAP1 POP DUP4 DUP2 GT ISZERO PUSH3 0x16F JUMPI PUSH3 0x16E PUSH3 0x2E JUMP JUMPDEST JUMPDEST PUSH3 0x1A4 JUMP JUMPDEST PUSH3 0x184 DUP5 DUP5 DUP5 PUSH1 0x1 PUSH3 0x67 JUMP JUMPDEST SWAP3 POP SWAP1 POP DUP2 DUP5 DIV DUP2 GT ISZERO PUSH3 0x19E JUMPI PUSH3 0x19D PUSH3 0x2E JUMP JUMPDEST JUMPDEST DUP2 DUP2 MUL SWAP1 POP JUMPDEST SWAP4 SWAP3 POP POP POP JUMP JUMPDEST PUSH0 DUP2 SWAP1 POP SWAP2 SWAP1 POP JUMP JUMPDEST PUSH0 PUSH3 0x1C0 DUP3 PUSH3 0x1AB JUMP JUMPDEST SWAP2 POP PUSH3 0x1CD DUP4 PUSH3 0x1AB JUMP JUMPDEST SWAP3 POP PUSH3 0x1FC PUSH32 0xFFFFFFFFFFFFFFFFFFFFFFFFFFFFFFFFFFFFFFFFFFFFFFFFFFFFFFFFFFFFFFFF DUP5 DUP5 PUSH3 0xC1 JUMP JUMPDEST SWAP1 POP SWAP3 SWAP2 POP POP JUMP JUMPDEST PUSH2 0xDAC DUP1 PUSH3 0x212 PUSH0 CODECOPY PUSH0 RETURN INVALID PUSH1 0x80 PUSH1 0x40 MSTORE CALLVALUE DUP1 ISZERO PUSH2 0xF JUMPI PUSH0 DUP1 REVERT JUMPDEST POP PUSH1 0x4 CALLDATASIZE LT PUSH2 0x4A JUMPI PUSH0 CALLDATALOAD PUSH1 0xE0 SHR DUP1 PUSH4 0x2052465E EQ PUSH2 0x4E JUMPI DUP1 PUSH4 0x7BFF0A01 EQ PUSH2 0x7F JUMPI DUP1 PUSH4 0xA2905611 EQ PUSH2 0x9B JUMPI DUP1 PUSH4 0xB129ADCF EQ PUSH2 0xCC JUMPI JUMPDEST PUSH0 DUP1 REVERT JUMPDEST PUSH2 0x68 PUSH1 0x4 DUP1 CALLDATASIZE SUB DUP2 ADD SWAP1 PUSH2 0x63 SWAP2 SWAP1 PUSH2 0x524 JUMP JUMPDEST PUSH2 0xFC JUMP JUMPDEST PUSH1 0x40 MLOAD PUSH2 0x76 SWAP3 SWAP2 SWAP1 PUSH2 0x5E8 JUMP JUMPDEST PUSH1 0x40 MLOAD DUP1 SWAP2 SUB SWAP1 RETURN JUMPDEST PUSH2 0x99 PUSH1 0x4 DUP1 CALLDATASIZE SUB DUP2 ADD SWAP1 PUSH2 0x94 SWAP2 SWAP1 PUSH2 0x742 JUMP JUMPDEST PUSH2 0x1B1 JUMP JUMPDEST STOP JUMPDEST PUSH2 0xB5 PUSH1 0x4 DUP1 CALLDATASIZE SUB DUP2 ADD SWAP1 PUSH2 0xB0 SWAP2 SWAP1 PUSH2 0x524 JUMP JUMPDEST PUSH2 0x2AA JUMP JUMPDEST PUSH1 0x40 MLOAD PUSH2 0xC3 SWAP3 SWAP2 SWAP1 PUSH2 0x5E8 JUMP JUMPDEST PUSH1 0x40 MLOAD DUP1 SWAP2 SUB SWAP1 RETURN JUMPDEST PUSH2 0xE6 PUSH1 0x4 DUP1 CALLDATASIZE SUB DUP2 ADD SWAP1 PUSH2 0xE1 SWAP2 SWAP1 PUSH2 0x7E3 JUMP JUMPDEST PUSH2 0x3CE JUMP JUMPDEST PUSH1 0x40 MLOAD PUSH2 0xF3 SWAP2 SWAP1 PUSH2 0x828 JUMP JUMPDEST PUSH1 0x40 MLOAD DUP1 SWAP2 SUB SWAP1 RETURN JUMPDEST PUSH1 0x2 DUP2 DUP2 SLOAD DUP2 LT PUSH2 0x10B JUMPI PUSH0 DUP1 REVERT JUMPDEST SWAP1 PUSH0 MSTORE PUSH1 0x20 PUSH0 KECCAK256 SWAP1 PUSH1 0x2 MUL ADD PUSH0 SWAP2 POP SWAP1 POP DUP1 PUSH0 ADD DUP1 SLOAD PUSH2 0x12A SWAP1 PUSH2 0x86E JUMP JUMPDEST DUP1 PUSH1 0x1F ADD PUSH1 0x20 DUP1 SWAP2 DIV MUL PUSH1 0x20 ADD PUSH1 0x40 MLOAD SWAP1 DUP2 ADD PUSH1 0x40 MSTORE DUP1 SWAP3 SWAP2 SWAP1 DUP2 DUP2 MSTORE PUSH1 0x20 ADD DUP3 DUP1 SLOAD PUSH2 0x156 SWAP1 PUSH2 0x86E JUMP JUMPDEST DUP1 ISZERO PUSH2 0x1A1 JUMPI DUP1 PUSH1 0x1F LT PUSH2 0x178 JUMPI PUSH2 0x100 DUP1 DUP4 SLOAD DIV MUL DUP4 MSTORE SWAP2 PUSH1 0x20 ADD SWAP2 PUSH2 0x1A1 JUMP JUMPDEST DUP3 ADD SWAP2 SWAP1 PUSH0 MSTORE PUSH1 0x20 PUSH0 KECCAK256 SWAP1 JUMPDEST DUP2 SLOAD DUP2 MSTORE SWAP1 PUSH1 0x1 ADD SWAP1 PUSH1 0x20 ADD DUP1 DUP4 GT PUSH2 0x184 JUMPI DUP3 SWAP1 SUB PUSH1 0x1F AND DUP3 ADD SWAP2 JUMPDEST POP POP POP POP POP SWAP1 DUP1 PUSH1 0x1 ADD SLOAD SWAP1 POP DUP3 JUMP JUMPDEST PUSH1 0x3 PUSH0 CALLER PUSH20 0xFFFFFFFFFFFFFFFFFFFFFFFFFFFFFFFFFFFFFFFF AND PUSH20 0xFFFFFFFFFFFFFFFFFFFFFFFFFFFFFFFFFFFFFFFF AND DUP2 MSTORE PUSH1 0x20 ADD SWAP1 DUP2 MSTORE PUSH1 0x20 ADD PUSH0 KECCAK256 PUSH0 SWAP1 SLOAD SWAP1 PUSH2 0x100 EXP SWAP1 DIV PUSH1 0xFF AND ISZERO PUSH2 0x23B JUMPI PUSH1 0x40 MLOAD PUSH32 0x8C379A000000000000000000000000000000000000000000000000000000000 DUP2 MSTORE PUSH1 0x4 ADD PUSH2 0x232 SWAP1 PUSH2 0x90E JUMP JUMPDEST PUSH1 0x40 MLOAD DUP1 SWAP2 SUB SWAP1 REVERT JUMPDEST PUSH0 PUSH2 0x245 DUP3 PUSH2 0x3EB JUMP JUMPDEST SWAP1 POP PUSH2 0x251 DUP3 DUP3 PUSH2 0x42E JUMP JUMPDEST PUSH1 0x1 PUSH1 0x3 PUSH0 CALLER PUSH20 0xFFFFFFFFFFFFFFFFFFFFFFFFFFFFFFFFFFFFFFFF AND PUSH20 0xFFFFFFFFFFFFFFFFFFFFFFFFFFFFFFFFFFFFFFFF AND DUP2 MSTORE PUSH1 0x20 ADD SWAP1 DUP2 MSTORE PUSH1 0x20 ADD PUSH0 KECCAK256 PUSH0 PUSH2 0x100 EXP DUP2 SLOAD DUP2 PUSH1 0xFF MUL NOT AND SWAP1 DUP4 ISZERO ISZERO MUL OR SWAP1 SSTORE POP POP POP JUMP JUMPDEST PUSH1 0x60 PUSH0 PUSH1 0x2 DUP1 SLOAD SWAP1 POP DUP4 LT PUSH2 0x2F4 JUMPI PUSH1 0x40 MLOAD PUSH32 0x8C379A000000000000000000000000000000000000000000000000000000000 DUP2 MSTORE PUSH1 0x4 ADD PUSH2 0x2EB SWAP1 PUSH2 0x976 JUMP JUMPDEST PUSH1 0x40 MLOAD DUP1 SWAP2 SUB SWAP1 REVERT JUMPDEST PUSH0 PUSH1 0x2 DUP5 DUP2 SLOAD DUP2 LT PUSH2 0x309 JUMPI PUSH2 0x308 PUSH2 0x994 JUMP JUMPDEST JUMPDEST SWAP1 PUSH0 MSTORE PUSH1 0x20 PUSH0 KECCAK256 SWAP1 PUSH1 0x2 MUL ADD PUSH1 0x40 MLOAD DUP1 PUSH1 0x40 ADD PUSH1 0x40 MSTORE SWAP1 DUP2 PUSH0 DUP3 ADD DUP1 SLOAD PUSH2 0x32F SWAP1 PUSH2 0x86E JUMP JUMPDEST DUP1 PUSH1 0x1F ADD PUSH1 0x20 DUP1 SWAP2 DIV MUL PUSH1 0x20 ADD PUSH1 0x40 MLOAD SWAP1 DUP2 ADD PUSH1 0x40 MSTORE DUP1 SWAP3 SWAP2 SWAP1 DUP2 DUP2 MSTORE PUSH1 0x20 ADD DUP3 DUP1 SLOAD PUSH2 0x35B SWAP1 PUSH2 0x86E JUMP JUMPDEST DUP1 ISZERO PUSH2 0x3A6 JUMPI DUP1 PUSH1 0x1F LT PUSH2 0x37D JUMPI PUSH2 0x100 DUP1 DUP4 SLOAD DIV MUL DUP4 MSTORE SWAP2 PUSH1 0x20 ADD SWAP2 PUSH2 0x3A6 JUMP JUMPDEST DUP3 ADD SWAP2 SWAP1 PUSH0 MSTORE PUSH1 0x20 PUSH0 KECCAK256 SWAP1 JUMPDEST DUP2 SLOAD DUP2 MSTORE SWAP1 PUSH1 0x1 ADD SWAP1 PUSH1 0x20 ADD DUP1 DUP4 GT PUSH2 0x389 JUMPI DUP3 SWAP1 SUB PUSH1 0x1F AND DUP3 ADD SWAP2 JUMPDEST POP POP POP POP POP DUP2 MSTORE PUSH1 0x20 ADD PUSH1 0x1 DUP3 ADD SLOAD DUP2 MSTORE POP POP SWAP1 POP DUP1 PUSH0 ADD MLOAD DUP2 PUSH1 0x20 ADD MLOAD SWAP3 POP SWAP3 POP POP SWAP2 POP SWAP2 JUMP JUMPDEST PUSH1 0x3 PUSH1 0x20 MSTORE DUP1 PUSH0 MSTORE PUSH1 0x40 PUSH0 KECCAK256 PUSH0 SWAP2 POP SLOAD SWAP1 PUSH2 0x100 EXP SWAP1 DIV PUSH1 0xFF AND DUP2 JUMP JUMPDEST PUSH0 DUP1 DUP3 PUSH1 0x40 MLOAD PUSH1 0x20 ADD PUSH2 0x3FE SWAP2 SWAP1 PUSH2 0x9FB JUMP JUMPDEST PUSH1 0x40 MLOAD PUSH1 0x20 DUP2 DUP4 SUB SUB DUP2 MSTORE SWAP1 PUSH1 0x40 MSTORE DUP1 MLOAD SWAP1 PUSH1 0x20 ADD KECCAK256 PUSH0 SHR SWAP1 POP PUSH1 0x1 SLOAD DUP2 PUSH2 0x426 SWAP2 SWAP1 PUSH2 0xA3E JUMP JUMPDEST SWAP2 POP POP SWAP2 SWAP1 POP JUMP JUMPDEST PUSH1 0x2 PUSH1 0x40 MLOAD DUP1 PUSH1 0x40 ADD PUSH1 0x40 MSTORE DUP1 DUP5 DUP2 MSTORE PUSH1 0x20 ADD DUP4 DUP2 MSTORE POP SWAP1 DUP1 PUSH1 0x1 DUP2 SLOAD ADD DUP1 DUP3 SSTORE DUP1 SWAP2 POP POP PUSH1 0x1 SWAP1 SUB SWAP1 PUSH0 MSTORE PUSH1 0x20 PUSH0 KECCAK256 SWAP1 PUSH1 0x2 MUL ADD PUSH0 SWAP1 SWAP2 SWAP1 SWAP2 SWAP1 SWAP2 POP PUSH0 DUP3 ADD MLOAD DUP2 PUSH0 ADD SWAP1 DUP2 PUSH2 0x47E SWAP2 SWAP1 PUSH2 0xC0B JUMP JUMPDEST POP PUSH1 0x20 DUP3 ADD MLOAD DUP2 PUSH1 0x1 ADD SSTORE POP POP PUSH0 PUSH1 0x1 PUSH1 0x2 DUP1 SLOAD SWAP1 POP PUSH2 0x49E SWAP2 SWAP1 PUSH2 0xD07 JUMP JUMPDEST SWAP1 POP PUSH32 0x88F026AACBBECC90C18411DF4B1185FD8D9BE2470F1962F192BF84A27D0704B7 DUP2 DUP5 DUP5 PUSH1 0x40 MLOAD PUSH2 0x4D3 SWAP4 SWAP3 SWAP2 SWAP1 PUSH2 0xD3A JUMP JUMPDEST PUSH1 0x40 MLOAD DUP1 SWAP2 SUB SWAP1 LOG1 POP POP POP JUMP JUMPDEST PUSH0 PUSH1 0x40 MLOAD SWAP1 POP SWAP1 JUMP JUMPDEST PUSH0 DUP1 REVERT JUMPDEST PUSH0 DUP1 REVERT JUMPDEST PUSH0 DUP2 SWAP1 POP SWAP2 SWAP1 POP JUMP JUMPDEST PUSH2 0x503 DUP2 PUSH2 0x4F1 JUMP JUMPDEST DUP2 EQ PUSH2 0x50D JUMPI PUSH0 DUP1 REVERT JUMPDEST POP JUMP JUMPDEST PUSH0 DUP2 CALLDATALOAD SWAP1 POP PUSH2 0x51E DUP2 PUSH2 0x4FA JUMP JUMPDEST SWAP3 SWAP2 POP POP JUMP JUMPDEST PUSH0 PUSH1 0x20 DUP3 DUP5 SUB SLT ISZERO PUSH2 0x539 JUMPI PUSH2 0x538 PUSH2 0x4E9 JUMP JUMPDEST JUMPDEST PUSH0 PUSH2 0x546 DUP5 DUP3 DUP6 ADD PUSH2 0x510 JUMP JUMPDEST SWAP2 POP POP SWAP3 SWAP2 POP POP JUMP JUMPDEST PUSH0 DUP2 MLOAD SWAP1 POP SWAP2 SWAP1 POP JUMP JUMPDEST PUSH0 DUP3 DUP3 MSTORE PUSH1 0x20 DUP3 ADD SWAP1 POP SWAP3 SWAP2 POP POP JUMP JUMPDEST PUSH0 JUMPDEST DUP4 DUP2 LT ISZERO PUSH2 0x586 JUMPI DUP1 DUP3 ADD MLOAD DUP2 DUP5 ADD MSTORE PUSH1 0x20 DUP2 ADD SWAP1 POP PUSH2 0x56B JUMP JUMPDEST PUSH0 DUP5 DUP5 ADD MSTORE POP POP POP POP JUMP JUMPDEST PUSH0 PUSH1 0x1F NOT PUSH1 0x1F DUP4 ADD AND SWAP1 POP SWAP2 SWAP1 POP JUMP JUMPDEST PUSH0 PUSH2 0x5AB DUP3 PUSH2 0x54F JUMP JUMPDEST PUSH2 0x5B5 DUP2 DUP6 PUSH2 0x559 JUMP JUMPDEST SWAP4 POP PUSH2 0x5C5 DUP2 DUP6 PUSH1 0x20 DUP7 ADD PUSH2 0x569 JUMP JUMPDEST PUSH2 0x5CE DUP2 PUSH2 0x591 JUMP JUMPDEST DUP5 ADD SWAP2 POP POP SWAP3 SWAP2 POP POP JUMP JUMPDEST PUSH2 0x5E2 DUP2 PUSH2 0x4F1 JUMP JUMPDEST DUP3 MSTORE POP POP JUMP JUMPDEST PUSH0 PUSH1 0x40 DUP3 ADD SWAP1 POP DUP2 DUP2 SUB PUSH0 DUP4 ADD MSTORE PUSH2 0x600 DUP2 DUP6 PUSH2 0x5A1 JUMP JUMPDEST SWAP1 POP PUSH2 0x60F PUSH1 0x20 DUP4 ADD DUP5 PUSH2 0x5D9 JUMP JUMPDEST SWAP4 SWAP3 POP POP POP JUMP JUMPDEST PUSH0 DUP1 REVERT JUMPDEST PUSH0 DUP1 REVERT JUMPDEST PUSH32 0x4E487B7100000000000000000000000000000000000000000000000000000000 PUSH0 MSTORE PUSH1 0x41 PUSH1 0x4 MSTORE PUSH1 0x24 PUSH0 REVERT JUMPDEST PUSH2 0x654 DUP3 PUSH2 0x591 JUMP JUMPDEST DUP2 ADD DUP2 DUP2 LT PUSH8 0xFFFFFFFFFFFFFFFF DUP3 GT OR ISZERO PUSH2 0x673 JUMPI PUSH2 0x672 PUSH2 0x61E JUMP JUMPDEST JUMPDEST DUP1 PUSH1 0x40 MSTORE POP POP POP JUMP JUMPDEST PUSH0 PUSH2 0x685 PUSH2 0x4E0 JUMP JUMPDEST SWAP1 POP PUSH2 0x691 DUP3 DUP3 PUSH2 0x64B JUMP JUMPDEST SWAP2 SWAP1 POP JUMP JUMPDEST PUSH0 PUSH8 0xFFFFFFFFFFFFFFFF DUP3 GT ISZERO PUSH2 0x6B0 JUMPI PUSH2 0x6AF PUSH2 0x61E JUMP JUMPDEST JUMPDEST PUSH2 0x6B9 DUP3 PUSH2 0x591 JUMP JUMPDEST SWAP1 POP PUSH1 0x20 DUP2 ADD SWAP1 POP SWAP2 SWAP1 POP JUMP JUMPDEST DUP3 DUP2 DUP4 CALLDATACOPY PUSH0 DUP4 DUP4 ADD MSTORE POP POP POP JUMP JUMPDEST PUSH0 PUSH2 0x6E6 PUSH2 0x6E1 DUP5 PUSH2 0x696 JUMP JUMPDEST PUSH2 0x67C JUMP JUMPDEST SWAP1 POP DUP3 DUP2 MSTORE PUSH1 0x20 DUP2 ADD DUP5 DUP5 DUP5 ADD GT ISZERO PUSH2 0x702 JUMPI PUSH2 0x701 PUSH2 0x61A JUMP JUMPDEST JUMPDEST PUSH2 0x70D DUP5 DUP3 DUP6 PUSH2 0x6C6 JUMP JUMPDEST POP SWAP4 SWAP3 POP POP POP JUMP JUMPDEST PUSH0 DUP3 PUSH1 0x1F DUP4 ADD SLT PUSH2 0x729 JUMPI PUSH2 0x728 PUSH2 0x616 JUMP JUMPDEST JUMPDEST DUP2 CALLDATALOAD PUSH2 0x739 DUP5 DUP3 PUSH1 0x20 DUP7 ADD PUSH2 0x6D4 JUMP JUMPDEST SWAP2 POP POP SWAP3 SWAP2 POP POP JUMP JUMPDEST PUSH0 PUSH1 0x20 DUP3 DUP5 SUB SLT ISZERO PUSH2 0x757 JUMPI PUSH2 0x756 PUSH2 0x4E9 JUMP JUMPDEST JUMPDEST PUSH0 DUP3 ADD CALLDATALOAD PUSH8 0xFFFFFFFFFFFFFFFF DUP2 GT ISZERO PUSH2 0x774 JUMPI PUSH2 0x773 PUSH2 0x4ED JUMP JUMPDEST JUMPDEST PUSH2 0x780 DUP5 DUP3 DUP6 ADD PUSH2 0x715 JUMP JUMPDEST SWAP2 POP POP SWAP3 SWAP2 POP POP JUMP JUMPDEST PUSH0 PUSH20 0xFFFFFFFFFFFFFFFFFFFFFFFFFFFFFFFFFFFFFFFF DUP3 AND SWAP1 POP SWAP2 SWAP1 POP JUMP JUMPDEST PUSH0 PUSH2 0x7B2 DUP3 PUSH2 0x789 JUMP JUMPDEST SWAP1 POP SWAP2 SWAP1 POP JUMP JUMPDEST PUSH2 0x7C2 DUP2 PUSH2 0x7A8 JUMP JUMPDEST DUP2 EQ PUSH2 0x7CC JUMPI PUSH0 DUP1 REVERT JUMPDEST POP JUMP JUMPDEST PUSH0 DUP2 CALLDATALOAD SWAP1 POP PUSH2 0x7DD DUP2 PUSH2 0x7B9 JUMP JUMPDEST SWAP3 SWAP2 POP POP JUMP JUMPDEST PUSH0 PUSH1 0x20 DUP3 DUP5 SUB SLT ISZERO PUSH2 0x7F8 JUMPI PUSH2 0x7F7 PUSH2 0x4E9 JUMP JUMPDEST JUMPDEST PUSH0 PUSH2 0x805 DUP5 DUP3 DUP6 ADD PUSH2 0x7CF JUMP JUMPDEST SWAP2 POP POP SWAP3 SWAP2 POP POP JUMP JUMPDEST PUSH0 DUP2 ISZERO ISZERO SWAP1 POP SWAP2 SWAP1 POP JUMP JUMPDEST PUSH2 0x822 DUP2 PUSH2 0x80E JUMP JUMPDEST DUP3 MSTORE POP POP JUMP JUMPDEST PUSH0 PUSH1 0x20 DUP3 ADD SWAP1 POP PUSH2 0x83B PUSH0 DUP4 ADD DUP5 PUSH2 0x819 JUMP JUMPDEST SWAP3 SWAP2 POP POP JUMP JUMPDEST PUSH32 0x4E487B7100000000000000000000000000000000000000000000000000000000 PUSH0 MSTORE PUSH1 0x22 PUSH1 0x4 MSTORE PUSH1 0x24 PUSH0 REVERT JUMPDEST PUSH0 PUSH1 0x2 DUP3 DIV SWAP1 POP PUSH1 0x1 DUP3 AND DUP1 PUSH2 0x885 JUMPI PUSH1 0x7F DUP3 AND SWAP2 POP JUMPDEST PUSH1 0x20 DUP3 LT DUP2 SUB PUSH2 0x898 JUMPI PUSH2 0x897 PUSH2 0x841 JUMP JUMPDEST JUMPDEST POP SWAP2 SWAP1 POP JUMP JUMPDEST PUSH32 0x4361646120646972656363696F6E20736F6C6F20707565646520637265617220 PUSH0 DUP3 ADD MSTORE PUSH32 0x756E207A6F6D6269000000000000000000000000000000000000000000000000 PUSH1 0x20 DUP3 ADD MSTORE POP JUMP JUMPDEST PUSH0 PUSH2 0x8F8 PUSH1 0x28 DUP4 PUSH2 0x559 JUMP JUMPDEST SWAP2 POP PUSH2 0x903 DUP3 PUSH2 0x89E JUMP JUMPDEST PUSH1 0x40 DUP3 ADD SWAP1 POP SWAP2 SWAP1 POP JUMP JUMPDEST PUSH0 PUSH1 0x20 DUP3 ADD SWAP1 POP DUP2 DUP2 SUB PUSH0 DUP4 ADD MSTORE PUSH2 0x925 DUP2 PUSH2 0x8EC JUMP JUMPDEST SWAP1 POP SWAP2 SWAP1 POP JUMP JUMPDEST PUSH32 0x496E646963652066756572612064652072616E676F0000000000000000000000 PUSH0 DUP3 ADD MSTORE POP JUMP JUMPDEST PUSH0 PUSH2 0x960 PUSH1 0x15 DUP4 PUSH2 0x559 JUMP JUMPDEST SWAP2 POP PUSH2 0x96B DUP3 PUSH2 0x92C JUMP JUMPDEST PUSH1 0x20 DUP3 ADD SWAP1 POP SWAP2 SWAP1 POP JUMP JUMPDEST PUSH0 PUSH1 0x20 DUP3 ADD SWAP1 POP DUP2 DUP2 SUB PUSH0 DUP4 ADD MSTORE PUSH2 0x98D DUP2 PUSH2 0x954 JUMP JUMPDEST SWAP1 POP SWAP2 SWAP1 POP JUMP JUMPDEST PUSH32 0x4E487B7100000000000000000000000000000000000000000000000000000000 PUSH0 MSTORE PUSH1 0x32 PUSH1 0x4 MSTORE PUSH1 0x24 PUSH0 REVERT JUMPDEST PUSH0 DUP2 SWAP1 POP SWAP3 SWAP2 POP POP JUMP JUMPDEST PUSH0 PUSH2 0x9D5 DUP3 PUSH2 0x54F JUMP JUMPDEST PUSH2 0x9DF DUP2 DUP6 PUSH2 0x9C1 JUMP JUMPDEST SWAP4 POP PUSH2 0x9EF DUP2 DUP6 PUSH1 0x20 DUP7 ADD PUSH2 0x569 JUMP JUMPDEST DUP1 DUP5 ADD SWAP2 POP POP SWAP3 SWAP2 POP POP JUMP JUMPDEST PUSH0 PUSH2 0xA06 DUP3 DUP5 PUSH2 0x9CB JUMP JUMPDEST SWAP2 POP DUP2 SWAP1 POP SWAP3 SWAP2 POP POP JUMP JUMPDEST PUSH32 0x4E487B7100000000000000000000000000000000000000000000000000000000 PUSH0 MSTORE PUSH1 0x12 PUSH1 0x4 MSTORE PUSH1 0x24 PUSH0 REVERT JUMPDEST PUSH0 PUSH2 0xA48 DUP3 PUSH2 0x4F1 JUMP JUMPDEST SWAP2 POP PUSH2 0xA53 DUP4 PUSH2 0x4F1 JUMP JUMPDEST SWAP3 POP DUP3 PUSH2 0xA63 JUMPI PUSH2 0xA62 PUSH2 0xA11 JUMP JUMPDEST JUMPDEST DUP3 DUP3 MOD SWAP1 POP SWAP3 SWAP2 POP POP JUMP JUMPDEST PUSH0 DUP2 SWAP1 POP DUP2 PUSH0 MSTORE PUSH1 0x20 PUSH0 KECCAK256 SWAP1 POP SWAP2 SWAP1 POP JUMP JUMPDEST PUSH0 PUSH1 0x20 PUSH1 0x1F DUP4 ADD DIV SWAP1 POP SWAP2 SWAP1 POP JUMP JUMPDEST PUSH0 DUP3 DUP3 SHL SWAP1 POP SWAP3 SWAP2 POP POP JUMP JUMPDEST PUSH0 PUSH1 0x8 DUP4 MUL PUSH2 0xACA PUSH32 0xFFFFFFFFFFFFFFFFFFFFFFFFFFFFFFFFFFFFFFFFFFFFFFFFFFFFFFFFFFFFFFFF DUP3 PUSH2 0xA8F JUMP JUMPDEST PUSH2 0xAD4 DUP7 DUP4 PUSH2 0xA8F JUMP JUMPDEST SWAP6 POP DUP1 NOT DUP5 AND SWAP4 POP DUP1 DUP7 AND DUP5 OR SWAP3 POP POP POP SWAP4 SWAP3 POP POP POP JUMP JUMPDEST PUSH0 DUP2 SWAP1 POP SWAP2 SWAP1 POP JUMP JUMPDEST PUSH0 PUSH2 0xB0F PUSH2 0xB0A PUSH2 0xB05 DUP5 PUSH2 0x4F1 JUMP JUMPDEST PUSH2 0xAEC JUMP JUMPDEST PUSH2 0x4F1 JUMP JUMPDEST SWAP1 POP SWAP2 SWAP1 POP JUMP JUMPDEST PUSH0 DUP2 SWAP1 POP SWAP2 SWAP1 POP JUMP JUMPDEST PUSH2 0xB28 DUP4 PUSH2 0xAF5 JUMP JUMPDEST PUSH2 0xB3C PUSH2 0xB34 DUP3 PUSH2 0xB16 JUMP JUMPDEST DUP5 DUP5 SLOAD PUSH2 0xA9B JUMP JUMPDEST DUP3 SSTORE POP POP POP POP JUMP JUMPDEST PUSH0 SWAP1 JUMP JUMPDEST PUSH2 0xB50 PUSH2 0xB44 JUMP JUMPDEST PUSH2 0xB5B DUP2 DUP5 DUP5 PUSH2 0xB1F JUMP JUMPDEST POP POP POP JUMP JUMPDEST JUMPDEST DUP2 DUP2 LT ISZERO PUSH2 0xB7E JUMPI PUSH2 0xB73 PUSH0 DUP3 PUSH2 0xB48 JUMP JUMPDEST PUSH1 0x1 DUP2 ADD SWAP1 POP PUSH2 0xB61 JUMP JUMPDEST POP POP JUMP JUMPDEST PUSH1 0x1F DUP3 GT ISZERO PUSH2 0xBC3 JUMPI PUSH2 0xB94 DUP2 PUSH2 0xA6E JUMP JUMPDEST PUSH2 0xB9D DUP5 PUSH2 0xA80 JUMP JUMPDEST DUP2 ADD PUSH1 0x20 DUP6 LT ISZERO PUSH2 0xBAC JUMPI DUP2 SWAP1 POP JUMPDEST PUSH2 0xBC0 PUSH2 0xBB8 DUP6 PUSH2 0xA80 JUMP JUMPDEST DUP4 ADD DUP3 PUSH2 0xB60 JUMP JUMPDEST POP POP JUMPDEST POP POP POP JUMP JUMPDEST PUSH0 DUP3 DUP3 SHR SWAP1 POP SWAP3 SWAP2 POP POP JUMP JUMPDEST PUSH0 PUSH2 0xBE3 PUSH0 NOT DUP5 PUSH1 0x8 MUL PUSH2 0xBC8 JUMP JUMPDEST NOT DUP1 DUP4 AND SWAP2 POP POP SWAP3 SWAP2 POP POP JUMP JUMPDEST PUSH0 PUSH2 0xBFB DUP4 DUP4 PUSH2 0xBD4 JUMP JUMPDEST SWAP2 POP DUP3 PUSH1 0x2 MUL DUP3 OR SWAP1 POP SWAP3 SWAP2 POP POP JUMP JUMPDEST PUSH2 0xC14 DUP3 PUSH2 0x54F JUMP JUMPDEST PUSH8 0xFFFFFFFFFFFFFFFF DUP2 GT ISZERO PUSH2 0xC2D JUMPI PUSH2 0xC2C PUSH2 0x61E JUMP JUMPDEST JUMPDEST PUSH2 0xC37 DUP3 SLOAD PUSH2 0x86E JUMP JUMPDEST PUSH2 0xC42 DUP3 DUP3 DUP6 PUSH2 0xB82 JUMP JUMPDEST PUSH0 PUSH1 0x20 SWAP1 POP PUSH1 0x1F DUP4 GT PUSH1 0x1 DUP2 EQ PUSH2 0xC73 JUMPI PUSH0 DUP5 ISZERO PUSH2 0xC61 JUMPI DUP3 DUP8 ADD MLOAD SWAP1 POP JUMPDEST PUSH2 0xC6B DUP6 DUP3 PUSH2 0xBF0 JUMP JUMPDEST DUP7 SSTORE POP PUSH2 0xCD2 JUMP JUMPDEST PUSH1 0x1F NOT DUP5 AND PUSH2 0xC81 DUP7 PUSH2 0xA6E JUMP JUMPDEST PUSH0 JUMPDEST DUP3 DUP2 LT ISZERO PUSH2 0xCA8 JUMPI DUP5 DUP10 ADD MLOAD DUP3 SSTORE PUSH1 0x1 DUP3 ADD SWAP2 POP PUSH1 0x20 DUP6 ADD SWAP5 POP PUSH1 0x20 DUP2 ADD SWAP1 POP PUSH2 0xC83 JUMP JUMPDEST DUP7 DUP4 LT ISZERO PUSH2 0xCC5 JUMPI DUP5 DUP10 ADD MLOAD PUSH2 0xCC1 PUSH1 0x1F DUP10 AND DUP3 PUSH2 0xBD4 JUMP JUMPDEST DUP4 SSTORE POP JUMPDEST PUSH1 0x1 PUSH1 0x2 DUP9 MUL ADD DUP9 SSTORE POP POP POP JUMPDEST POP POP POP POP POP POP JUMP JUMPDEST PUSH32 0x4E487B7100000000000000000000000000000000000000000000000000000000 PUSH0 MSTORE PUSH1 0x11 PUSH1 0x4 MSTORE PUSH1 0x24 PUSH0 REVERT JUMPDEST PUSH0 PUSH2 0xD11 DUP3 PUSH2 0x4F1 JUMP JUMPDEST SWAP2 POP PUSH2 0xD1C DUP4 PUSH2 0x4F1 JUMP JUMPDEST SWAP3 POP DUP3 DUP3 SUB SWAP1 POP DUP2 DUP2 GT ISZERO PUSH2 0xD34 JUMPI PUSH2 0xD33 PUSH2 0xCDA JUMP JUMPDEST JUMPDEST SWAP3 SWAP2 POP POP JUMP JUMPDEST PUSH0 PUSH1 0x60 DUP3 ADD SWAP1 POP PUSH2 0xD4D PUSH0 DUP4 ADD DUP7 PUSH2 0x5D9 JUMP JUMPDEST DUP2 DUP2 SUB PUSH1 0x20 DUP4 ADD MSTORE PUSH2 0xD5F DUP2 DUP6 PUSH2 0x5A1 JUMP JUMPDEST SWAP1 POP PUSH2 0xD6E PUSH1 0x40 DUP4 ADD DUP5 PUSH2 0x5D9 JUMP JUMPDEST SWAP5 SWAP4 POP POP POP POP JUMP INVALID LOG2 PUSH5 0x6970667358 0x22 SLT KECCAK256 ADDRESS SGT SWAP9 0xAC CALLDATALOAD 0xAA GASPRICE 0xC3 MOD 0x2F PC 0xF9 PUSH23 0x6D1B0EE1624BE0FF45D67161A0ABFA2ACCE8AC64736F6C PUSH4 0x43000818 STOP CALLER "
				},
				"gasEstimates": {
					"creation": {
						"codeDepositCost": "700000",
						"executionCost": "infinite",
						"totalCost": "infinite"
					},
					"external": {
						"createRandomZombie(string)": "infinite",
						"getZombie(uint256)": "infinite",
						"zombieOwners(address)": "2877",
						"zombies(uint256)": "infinite"
					},
					"internal": {
						"_createZombie(string memory,uint256)": "infinite",
						"_generateRandomDna(string memory)": "infinite"
					}
				},
				"methodIdentifiers": {
					"createRandomZombie(string)": "7bff0a01",
					"getZombie(uint256)": "a2905611",
					"zombieOwners(address)": "b129adcf",
					"zombies(uint256)": "2052465e"
				}
			},
			"storageLayout": {
				"storage": [
					{
						"astId": 4,
						"contract": "contracts/CryptoZombies/cryptoZomC2.sol:cryptoZomC2",
						"label": "dnaDigits",
						"offset": 0,
						"slot": "0",
						"type": "t_uint256"
					},
					{
						"astId": 9,
						"contract": "contracts/CryptoZombies/cryptoZomC2.sol:cryptoZomC2",
						"label": "dnaModulus",
						"offset": 0,
						"slot": "1",
						"type": "t_uint256"
					},
					{
						"astId": 18,
						"contract": "contracts/CryptoZombies/cryptoZomC2.sol:cryptoZomC2",
						"label": "zombies",
						"offset": 0,
						"slot": "2",
						"type": "t_array(t_struct(Zombie)14_storage)dyn_storage"
					},
					{
						"astId": 22,
						"contract": "contracts/CryptoZombies/cryptoZomC2.sol:cryptoZomC2",
						"label": "zombieOwners",
						"offset": 0,
						"slot": "3",
						"type": "t_mapping(t_address,t_bool)"
					}
				],
				"types": {
					"t_address": {
						"encoding": "inplace",
						"label": "address",
						"numberOfBytes": "20"
					},
					"t_array(t_struct(Zombie)14_storage)dyn_storage": {
						"base": "t_struct(Zombie)14_storage",
						"encoding": "dynamic_array",
						"label": "struct cryptoZomC2.Zombie[]",
						"numberOfBytes": "32"
					},
					"t_bool": {
						"encoding": "inplace",
						"label": "bool",
						"numberOfBytes": "1"
					},
					"t_mapping(t_address,t_bool)": {
						"encoding": "mapping",
						"key": "t_address",
						"label": "mapping(address => bool)",
						"numberOfBytes": "32",
						"value": "t_bool"
					},
					"t_string_storage": {
						"encoding": "bytes",
						"label": "string",
						"numberOfBytes": "32"
					},
					"t_struct(Zombie)14_storage": {
						"encoding": "inplace",
						"label": "struct cryptoZomC2.Zombie",
						"members": [
							{
								"astId": 11,
								"contract": "contracts/CryptoZombies/cryptoZomC2.sol:cryptoZomC2",
								"label": "name",
								"offset": 0,
								"slot": "0",
								"type": "t_string_storage"
							},
							{
								"astId": 13,
								"contract": "contracts/CryptoZombies/cryptoZomC2.sol:cryptoZomC2",
								"label": "dna",
								"offset": 0,
								"slot": "1",
								"type": "t_uint256"
							}
						],
						"numberOfBytes": "64"
					},
					"t_uint256": {
						"encoding": "inplace",
						"label": "uint256",
						"numberOfBytes": "32"
					}
				}
			},
			"userdoc": {
				"kind": "user",
				"methods": {},
				"version": 1
			}
		}
	}
}