{
	"data": {
		"bytecode": {
			"linkReferences": {},
			"object": "608060405234801561000f575f80fd5b50610e378061001d5f395ff3fe608060405234801561000f575f80fd5b5060043610610091575f3560e01c8063462c6af011610064578063462c6af014610147578063567229901461016557806380e808a8146101815780639e7be36f1461019d578063a35fe0b6146101ce57610091565b80630a49322a1461009557806314f9dc8b146100b35780631fcea3fa146100e457806340291e6a14610116575b5f80fd5b61009d6101ea565b6040516100aa91906106a9565b60405180910390f35b6100cd60048036038101906100c891906106fd565b6101f5565b6040516100db9291906107b2565b60405180910390f35b6100fe60048036038101906100f991906106fd565b6102d1565b60405161010d939291906107e0565b60405180910390f35b610130600480360381019061012b91906106fd565b6103db565b60405161013e9291906107b2565b60405180910390f35b61014f61048f565b60405161015c91906106a9565b60405180910390f35b61017f600480360381019061017a9190610948565b61049b565b005b61019b600480360381019061019691906109a2565b610500565b005b6101b760048036038101906101b291906106fd565b61052c565b6040516101c5929190610a71565b60405180910390f35b6101e860048036038101906101e39190610a9f565b6105fe565b005b5f8080549050905090565b5f60605f80848154811061020c5761020b610b0b565b5b905f5260205f2090600202016040518060400160405290815f820154815260200160018201805461023c90610b65565b80601f016020809104026020016040519081016040528092919081815260200182805461026890610b65565b80156102b35780601f1061028a576101008083540402835291602001916102b3565b820191905f5260205f20905b81548152906001019060200180831161029657829003601f168201915b5050505050815250509050805f015181602001519250925050915091565b5f60605f80600185815481106102ea576102e9610b0b565b5b905f5260205f2090600302016040518060400160405290815f82016040518060400160405290815f820154815260200160018201805461032990610b65565b80601f016020809104026020016040519081016040528092919081815260200182805461035590610b65565b80156103a05780601f10610377576101008083540402835291602001916103a0565b820191905f5260205f20905b81548152906001019060200180831161038357829003601f168201915b50505050508152505081526020016002820154815250509050805f01515f0151815f0151602001518260200151935093509350509193909250565b5f81815481106103e9575f80fd5b905f5260205f2090600202015f91509050805f01549080600101805461040e90610b65565b80601f016020809104026020016040519081016040528092919081815260200182805461043a90610b65565b80156104855780601f1061045c57610100808354040283529160200191610485565b820191905f5260205f20905b81548152906001019060200180831161046857829003601f168201915b5050505050905082565b5f600180549050905090565b5f60405180604001604052808481526020018381525090505f81908060018154018082558091505060019003905f5260205f2090600202015f909190919091505f820151815f015560208201518160010190816104f89190610d32565b505050505050565b806001838154811061051557610514610b0b565b5b905f5260205f209060030201600201819055505050565b6001818154811061053b575f80fd5b905f5260205f2090600302015f91509050805f016040518060400160405290815f820154815260200160018201805461057390610b65565b80601f016020809104026020016040519081016040528092919081815260200182805461059f90610b65565b80156105ea5780601f106105c1576101008083540402835291602001916105ea565b820191905f5260205f20905b8154815290600101906020018083116105cd57829003601f168201915b505050505081525050908060020154905082565b5f60405180604001604052808581526020018481525090505f6040518060400160405280838152602001848152509050600181908060018154018082558091505060019003905f5260205f2090600302015f909190919091505f820151815f015f820151815f0155602082015181600101908161067b9190610d32565b5050506020820151816002015550505050505050565b5f819050919050565b6106a381610691565b82525050565b5f6020820190506106bc5f83018461069a565b92915050565b5f604051905090565b5f80fd5b5f80fd5b6106dc81610691565b81146106e6575f80fd5b50565b5f813590506106f7816106d3565b92915050565b5f60208284031215610712576107116106cb565b5b5f61071f848285016106e9565b91505092915050565b5f81519050919050565b5f82825260208201905092915050565b5f5b8381101561075f578082015181840152602081019050610744565b5f8484015250505050565b5f601f19601f8301169050919050565b5f61078482610728565b61078e8185610732565b935061079e818560208601610742565b6107a78161076a565b840191505092915050565b5f6040820190506107c55f83018561069a565b81810360208301526107d7818461077a565b90509392505050565b5f6060820190506107f35f83018661069a565b8181036020830152610805818561077a565b9050610814604083018461069a565b949350505050565b5f80fd5b5f80fd5b7f4e487b71000000000000000000000000000000000000000000000000000000005f52604160045260245ffd5b61085a8261076a565b810181811067ffffffffffffffff8211171561087957610878610824565b5b80604052505050565b5f61088b6106c2565b90506108978282610851565b919050565b5f67ffffffffffffffff8211156108b6576108b5610824565b5b6108bf8261076a565b9050602081019050919050565b828183375f83830152505050565b5f6108ec6108e78461089c565b610882565b90508281526020810184848401111561090857610907610820565b5b6109138482856108cc565b509392505050565b5f82601f83011261092f5761092e61081c565b5b813561093f8482602086016108da565b91505092915050565b5f806040838503121561095e5761095d6106cb565b5b5f61096b858286016106e9565b925050602083013567ffffffffffffffff81111561098c5761098b6106cf565b5b6109988582860161091b565b9150509250929050565b5f80604083850312156109b8576109b76106cb565b5b5f6109c5858286016106e9565b92505060206109d6858286016106e9565b9150509250929050565b6109e981610691565b82525050565b5f82825260208201905092915050565b5f610a0982610728565b610a1381856109ef565b9350610a23818560208601610742565b610a2c8161076a565b840191505092915050565b5f604083015f830151610a4c5f8601826109e0565b5060208301518482036020860152610a6482826109ff565b9150508091505092915050565b5f6040820190508181035f830152610a898185610a37565b9050610a98602083018461069a565b9392505050565b5f805f60608486031215610ab657610ab56106cb565b5b5f610ac3868287016106e9565b935050602084013567ffffffffffffffff811115610ae457610ae36106cf565b5b610af08682870161091b565b9250506040610b01868287016106e9565b9150509250925092565b7f4e487b71000000000000000000000000000000000000000000000000000000005f52603260045260245ffd5b7f4e487b71000000000000000000000000000000000000000000000000000000005f52602260045260245ffd5b5f6002820490506001821680610b7c57607f821691505b602082108103610b8f57610b8e610b38565b5b50919050565b5f819050815f5260205f209050919050565b5f6020601f8301049050919050565b5f82821b905092915050565b5f60088302610bf17fffffffffffffffffffffffffffffffffffffffffffffffffffffffffffffffff82610bb6565b610bfb8683610bb6565b95508019841693508086168417925050509392505050565b5f819050919050565b5f610c36610c31610c2c84610691565b610c13565b610691565b9050919050565b5f819050919050565b610c4f83610c1c565b610c63610c5b82610c3d565b848454610bc2565b825550505050565b5f90565b610c77610c6b565b610c82818484610c46565b505050565b5b81811015610ca557610c9a5f82610c6f565b600181019050610c88565b5050565b601f821115610cea57610cbb81610b95565b610cc484610ba7565b81016020851015610cd3578190505b610ce7610cdf85610ba7565b830182610c87565b50505b505050565b5f82821c905092915050565b5f610d0a5f1984600802610cef565b1980831691505092915050565b5f610d228383610cfb565b9150826002028217905092915050565b610d3b82610728565b67ffffffffffffffff811115610d5457610d53610824565b5b610d5e8254610b65565b610d69828285610ca9565b5f60209050601f831160018114610d9a575f8415610d88578287015190505b610d928582610d17565b865550610df9565b601f198416610da886610b95565b5f5b82811015610dcf57848901518255600182019150602085019450602081019050610daa565b86831015610dec5784890151610de8601f891682610cfb565b8355505b6001600288020188555050505b50505050505056fea264697066735822122032d29b84ed2ee1c949e32901e573050fac71549dfb13d9fc6997b4c6eec5c77d64736f6c63430008180033",
			"opcodes": "PUSH1 0x80 PUSH1 0x40 MSTORE CALLVALUE DUP1 ISZERO PUSH2 0xF JUMPI PUSH0 DUP1 REVERT JUMPDEST POP PUSH2 0xE37 DUP1 PUSH2 0x1D PUSH0 CODECOPY PUSH0 RETURN INVALID PUSH1 0x80 PUSH1 0x40 MSTORE CALLVALUE DUP1 ISZERO PUSH2 0xF JUMPI PUSH0 DUP1 REVERT JUMPDEST POP PUSH1 0x4 CALLDATASIZE LT PUSH2 0x91 JUMPI PUSH0 CALLDATALOAD PUSH1 0xE0 SHR DUP1 PUSH4 0x462C6AF0 GT PUSH2 0x64 JUMPI DUP1 PUSH4 0x462C6AF0 EQ PUSH2 0x147 JUMPI DUP1 PUSH4 0x56722990 EQ PUSH2 0x165 JUMPI DUP1 PUSH4 0x80E808A8 EQ PUSH2 0x181 JUMPI DUP1 PUSH4 0x9E7BE36F EQ PUSH2 0x19D JUMPI DUP1 PUSH4 0xA35FE0B6 EQ PUSH2 0x1CE JUMPI PUSH2 0x91 JUMP JUMPDEST DUP1 PUSH4 0xA49322A EQ PUSH2 0x95 JUMPI DUP1 PUSH4 0x14F9DC8B EQ PUSH2 0xB3 JUMPI DUP1 PUSH4 0x1FCEA3FA EQ PUSH2 0xE4 JUMPI DUP1 PUSH4 0x40291E6A EQ PUSH2 0x116 JUMPI JUMPDEST PUSH0 DUP1 REVERT JUMPDEST PUSH2 0x9D PUSH2 0x1EA JUMP JUMPDEST PUSH1 0x40 MLOAD PUSH2 0xAA SWAP2 SWAP1 PUSH2 0x6A9 JUMP JUMPDEST PUSH1 0x40 MLOAD DUP1 SWAP2 SUB SWAP1 RETURN JUMPDEST PUSH2 0xCD PUSH1 0x4 DUP1 CALLDATASIZE SUB DUP2 ADD SWAP1 PUSH2 0xC8 SWAP2 SWAP1 PUSH2 0x6FD JUMP JUMPDEST PUSH2 0x1F5 JUMP JUMPDEST PUSH1 0x40 MLOAD PUSH2 0xDB SWAP3 SWAP2 SWAP1 PUSH2 0x7B2 JUMP JUMPDEST PUSH1 0x40 MLOAD DUP1 SWAP2 SUB SWAP1 RETURN JUMPDEST PUSH2 0xFE PUSH1 0x4 DUP1 CALLDATASIZE SUB DUP2 ADD SWAP1 PUSH2 0xF9 SWAP2 SWAP1 PUSH2 0x6FD JUMP JUMPDEST PUSH2 0x2D1 JUMP JUMPDEST PUSH1 0x40 MLOAD PUSH2 0x10D SWAP4 SWAP3 SWAP2 SWAP1 PUSH2 0x7E0 JUMP JUMPDEST PUSH1 0x40 MLOAD DUP1 SWAP2 SUB SWAP1 RETURN JUMPDEST PUSH2 0x130 PUSH1 0x4 DUP1 CALLDATASIZE SUB DUP2 ADD SWAP1 PUSH2 0x12B SWAP2 SWAP1 PUSH2 0x6FD JUMP JUMPDEST PUSH2 0x3DB JUMP JUMPDEST PUSH1 0x40 MLOAD PUSH2 0x13E SWAP3 SWAP2 SWAP1 PUSH2 0x7B2 JUMP JUMPDEST PUSH1 0x40 MLOAD DUP1 SWAP2 SUB SWAP1 RETURN JUMPDEST PUSH2 0x14F PUSH2 0x48F JUMP JUMPDEST PUSH1 0x40 MLOAD PUSH2 0x15C SWAP2 SWAP1 PUSH2 0x6A9 JUMP JUMPDEST PUSH1 0x40 MLOAD DUP1 SWAP2 SUB SWAP1 RETURN JUMPDEST PUSH2 0x17F PUSH1 0x4 DUP1 CALLDATASIZE SUB DUP2 ADD SWAP1 PUSH2 0x17A SWAP2 SWAP1 PUSH2 0x948 JUMP JUMPDEST PUSH2 0x49B JUMP JUMPDEST STOP JUMPDEST PUSH2 0x19B PUSH1 0x4 DUP1 CALLDATASIZE SUB DUP2 ADD SWAP1 PUSH2 0x196 SWAP2 SWAP1 PUSH2 0x9A2 JUMP JUMPDEST PUSH2 0x500 JUMP JUMPDEST STOP JUMPDEST PUSH2 0x1B7 PUSH1 0x4 DUP1 CALLDATASIZE SUB DUP2 ADD SWAP1 PUSH2 0x1B2 SWAP2 SWAP1 PUSH2 0x6FD JUMP JUMPDEST PUSH2 0x52C JUMP JUMPDEST PUSH1 0x40 MLOAD PUSH2 0x1C5 SWAP3 SWAP2 SWAP1 PUSH2 0xA71 JUMP JUMPDEST PUSH1 0x40 MLOAD DUP1 SWAP2 SUB SWAP1 RETURN JUMPDEST PUSH2 0x1E8 PUSH1 0x4 DUP1 CALLDATASIZE SUB DUP2 ADD SWAP1 PUSH2 0x1E3 SWAP2 SWAP1 PUSH2 0xA9F JUMP JUMPDEST PUSH2 0x5FE JUMP JUMPDEST STOP JUMPDEST PUSH0 DUP1 DUP1 SLOAD SWAP1 POP SWAP1 POP SWAP1 JUMP JUMPDEST PUSH0 PUSH1 0x60 PUSH0 DUP1 DUP5 DUP2 SLOAD DUP2 LT PUSH2 0x20C JUMPI PUSH2 0x20B PUSH2 0xB0B JUMP JUMPDEST JUMPDEST SWAP1 PUSH0 MSTORE PUSH1 0x20 PUSH0 KECCAK256 SWAP1 PUSH1 0x2 MUL ADD PUSH1 0x40 MLOAD DUP1 PUSH1 0x40 ADD PUSH1 0x40 MSTORE SWAP1 DUP2 PUSH0 DUP3 ADD SLOAD DUP2 MSTORE PUSH1 0x20 ADD PUSH1 0x1 DUP3 ADD DUP1 SLOAD PUSH2 0x23C SWAP1 PUSH2 0xB65 JUMP JUMPDEST DUP1 PUSH1 0x1F ADD PUSH1 0x20 DUP1 SWAP2 DIV MUL PUSH1 0x20 ADD PUSH1 0x40 MLOAD SWAP1 DUP2 ADD PUSH1 0x40 MSTORE DUP1 SWAP3 SWAP2 SWAP1 DUP2 DUP2 MSTORE PUSH1 0x20 ADD DUP3 DUP1 SLOAD PUSH2 0x268 SWAP1 PUSH2 0xB65 JUMP JUMPDEST DUP1 ISZERO PUSH2 0x2B3 JUMPI DUP1 PUSH1 0x1F LT PUSH2 0x28A JUMPI PUSH2 0x100 DUP1 DUP4 SLOAD DIV MUL DUP4 MSTORE SWAP2 PUSH1 0x20 ADD SWAP2 PUSH2 0x2B3 JUMP JUMPDEST DUP3 ADD SWAP2 SWAP1 PUSH0 MSTORE PUSH1 0x20 PUSH0 KECCAK256 SWAP1 JUMPDEST DUP2 SLOAD DUP2 MSTORE SWAP1 PUSH1 0x1 ADD SWAP1 PUSH1 0x20 ADD DUP1 DUP4 GT PUSH2 0x296 JUMPI DUP3 SWAP1 SUB PUSH1 0x1F AND DUP3 ADD SWAP2 JUMPDEST POP POP POP POP POP DUP2 MSTORE POP POP SWAP1 POP DUP1 PUSH0 ADD MLOAD DUP2 PUSH1 0x20 ADD MLOAD SWAP3 POP SWAP3 POP POP SWAP2 POP SWAP2 JUMP JUMPDEST PUSH0 PUSH1 0x60 PUSH0 DUP1 PUSH1 0x1 DUP6 DUP2 SLOAD DUP2 LT PUSH2 0x2EA JUMPI PUSH2 0x2E9 PUSH2 0xB0B JUMP JUMPDEST JUMPDEST SWAP1 PUSH0 MSTORE PUSH1 0x20 PUSH0 KECCAK256 SWAP1 PUSH1 0x3 MUL ADD PUSH1 0x40 MLOAD DUP1 PUSH1 0x40 ADD PUSH1 0x40 MSTORE SWAP1 DUP2 PUSH0 DUP3 ADD PUSH1 0x40 MLOAD DUP1 PUSH1 0x40 ADD PUSH1 0x40 MSTORE SWAP1 DUP2 PUSH0 DUP3 ADD SLOAD DUP2 MSTORE PUSH1 0x20 ADD PUSH1 0x1 DUP3 ADD DUP1 SLOAD PUSH2 0x329 SWAP1 PUSH2 0xB65 JUMP JUMPDEST DUP1 PUSH1 0x1F ADD PUSH1 0x20 DUP1 SWAP2 DIV MUL PUSH1 0x20 ADD PUSH1 0x40 MLOAD SWAP1 DUP2 ADD PUSH1 0x40 MSTORE DUP1 SWAP3 SWAP2 SWAP1 DUP2 DUP2 MSTORE PUSH1 0x20 ADD DUP3 DUP1 SLOAD PUSH2 0x355 SWAP1 PUSH2 0xB65 JUMP JUMPDEST DUP1 ISZERO PUSH2 0x3A0 JUMPI DUP1 PUSH1 0x1F LT PUSH2 0x377 JUMPI PUSH2 0x100 DUP1 DUP4 SLOAD DIV MUL DUP4 MSTORE SWAP2 PUSH1 0x20 ADD SWAP2 PUSH2 0x3A0 JUMP JUMPDEST DUP3 ADD SWAP2 SWAP1 PUSH0 MSTORE PUSH1 0x20 PUSH0 KECCAK256 SWAP1 JUMPDEST DUP2 SLOAD DUP2 MSTORE SWAP1 PUSH1 0x1 ADD SWAP1 PUSH1 0x20 ADD DUP1 DUP4 GT PUSH2 0x383 JUMPI DUP3 SWAP1 SUB PUSH1 0x1F AND DUP3 ADD SWAP2 JUMPDEST POP POP POP POP POP DUP2 MSTORE POP POP DUP2 MSTORE PUSH1 0x20 ADD PUSH1 0x2 DUP3 ADD SLOAD DUP2 MSTORE POP POP SWAP1 POP DUP1 PUSH0 ADD MLOAD PUSH0 ADD MLOAD DUP2 PUSH0 ADD MLOAD PUSH1 0x20 ADD MLOAD DUP3 PUSH1 0x20 ADD MLOAD SWAP4 POP SWAP4 POP SWAP4 POP POP SWAP2 SWAP4 SWAP1 SWAP3 POP JUMP JUMPDEST PUSH0 DUP2 DUP2 SLOAD DUP2 LT PUSH2 0x3E9 JUMPI PUSH0 DUP1 REVERT JUMPDEST SWAP1 PUSH0 MSTORE PUSH1 0x20 PUSH0 KECCAK256 SWAP1 PUSH1 0x2 MUL ADD PUSH0 SWAP2 POP SWAP1 POP DUP1 PUSH0 ADD SLOAD SWAP1 DUP1 PUSH1 0x1 ADD DUP1 SLOAD PUSH2 0x40E SWAP1 PUSH2 0xB65 JUMP JUMPDEST DUP1 PUSH1 0x1F ADD PUSH1 0x20 DUP1 SWAP2 DIV MUL PUSH1 0x20 ADD PUSH1 0x40 MLOAD SWAP1 DUP2 ADD PUSH1 0x40 MSTORE DUP1 SWAP3 SWAP2 SWAP1 DUP2 DUP2 MSTORE PUSH1 0x20 ADD DUP3 DUP1 SLOAD PUSH2 0x43A SWAP1 PUSH2 0xB65 JUMP JUMPDEST DUP1 ISZERO PUSH2 0x485 JUMPI DUP1 PUSH1 0x1F LT PUSH2 0x45C JUMPI PUSH2 0x100 DUP1 DUP4 SLOAD DIV MUL DUP4 MSTORE SWAP2 PUSH1 0x20 ADD SWAP2 PUSH2 0x485 JUMP JUMPDEST DUP3 ADD SWAP2 SWAP1 PUSH0 MSTORE PUSH1 0x20 PUSH0 KECCAK256 SWAP1 JUMPDEST DUP2 SLOAD DUP2 MSTORE SWAP1 PUSH1 0x1 ADD SWAP1 PUSH1 0x20 ADD DUP1 DUP4 GT PUSH2 0x468 JUMPI DUP3 SWAP1 SUB PUSH1 0x1F AND DUP3 ADD SWAP2 JUMPDEST POP POP POP POP POP SWAP1 POP DUP3 JUMP JUMPDEST PUSH0 PUSH1 0x1 DUP1 SLOAD SWAP1 POP SWAP1 POP SWAP1 JUMP JUMPDEST PUSH0 PUSH1 0x40 MLOAD DUP1 PUSH1 0x40 ADD PUSH1 0x40 MSTORE DUP1 DUP5 DUP2 MSTORE PUSH1 0x20 ADD DUP4 DUP2 MSTORE POP SWAP1 POP PUSH0 DUP2 SWAP1 DUP1 PUSH1 0x1 DUP2 SLOAD ADD DUP1 DUP3 SSTORE DUP1 SWAP2 POP POP PUSH1 0x1 SWAP1 SUB SWAP1 PUSH0 MSTORE PUSH1 0x20 PUSH0 KECCAK256 SWAP1 PUSH1 0x2 MUL ADD PUSH0 SWAP1 SWAP2 SWAP1 SWAP2 SWAP1 SWAP2 POP PUSH0 DUP3 ADD MLOAD DUP2 PUSH0 ADD SSTORE PUSH1 0x20 DUP3 ADD MLOAD DUP2 PUSH1 0x1 ADD SWAP1 DUP2 PUSH2 0x4F8 SWAP2 SWAP1 PUSH2 0xD32 JUMP JUMPDEST POP POP POP POP POP POP JUMP JUMPDEST DUP1 PUSH1 0x1 DUP4 DUP2 SLOAD DUP2 LT PUSH2 0x515 JUMPI PUSH2 0x514 PUSH2 0xB0B JUMP JUMPDEST JUMPDEST SWAP1 PUSH0 MSTORE PUSH1 0x20 PUSH0 KECCAK256 SWAP1 PUSH1 0x3 MUL ADD PUSH1 0x2 ADD DUP2 SWAP1 SSTORE POP POP POP JUMP JUMPDEST PUSH1 0x1 DUP2 DUP2 SLOAD DUP2 LT PUSH2 0x53B JUMPI PUSH0 DUP1 REVERT JUMPDEST SWAP1 PUSH0 MSTORE PUSH1 0x20 PUSH0 KECCAK256 SWAP1 PUSH1 0x3 MUL ADD PUSH0 SWAP2 POP SWAP1 POP DUP1 PUSH0 ADD PUSH1 0x40 MLOAD DUP1 PUSH1 0x40 ADD PUSH1 0x40 MSTORE SWAP1 DUP2 PUSH0 DUP3 ADD SLOAD DUP2 MSTORE PUSH1 0x20 ADD PUSH1 0x1 DUP3 ADD DUP1 SLOAD PUSH2 0x573 SWAP1 PUSH2 0xB65 JUMP JUMPDEST DUP1 PUSH1 0x1F ADD PUSH1 0x20 DUP1 SWAP2 DIV MUL PUSH1 0x20 ADD PUSH1 0x40 MLOAD SWAP1 DUP2 ADD PUSH1 0x40 MSTORE DUP1 SWAP3 SWAP2 SWAP1 DUP2 DUP2 MSTORE PUSH1 0x20 ADD DUP3 DUP1 SLOAD PUSH2 0x59F SWAP1 PUSH2 0xB65 JUMP JUMPDEST DUP1 ISZERO PUSH2 0x5EA JUMPI DUP1 PUSH1 0x1F LT PUSH2 0x5C1 JUMPI PUSH2 0x100 DUP1 DUP4 SLOAD DIV MUL DUP4 MSTORE SWAP2 PUSH1 0x20 ADD SWAP2 PUSH2 0x5EA JUMP JUMPDEST DUP3 ADD SWAP2 SWAP1 PUSH0 MSTORE PUSH1 0x20 PUSH0 KECCAK256 SWAP1 JUMPDEST DUP2 SLOAD DUP2 MSTORE SWAP1 PUSH1 0x1 ADD SWAP1 PUSH1 0x20 ADD DUP1 DUP4 GT PUSH2 0x5CD JUMPI DUP3 SWAP1 SUB PUSH1 0x1F AND DUP3 ADD SWAP2 JUMPDEST POP POP POP POP POP DUP2 MSTORE POP POP SWAP1 DUP1 PUSH1 0x2 ADD SLOAD SWAP1 POP DUP3 JUMP JUMPDEST PUSH0 PUSH1 0x40 MLOAD DUP1 PUSH1 0x40 ADD PUSH1 0x40 MSTORE DUP1 DUP6 DUP2 MSTORE PUSH1 0x20 ADD DUP5 DUP2 MSTORE POP SWAP1 POP PUSH0 PUSH1 0x40 MLOAD DUP1 PUSH1 0x40 ADD PUSH1 0x40 MSTORE DUP1 DUP4 DUP2 MSTORE PUSH1 0x20 ADD DUP5 DUP2 MSTORE POP SWAP1 POP PUSH1 0x1 DUP2 SWAP1 DUP1 PUSH1 0x1 DUP2 SLOAD ADD DUP1 DUP3 SSTORE DUP1 SWAP2 POP POP PUSH1 0x1 SWAP1 SUB SWAP1 PUSH0 MSTORE PUSH1 0x20 PUSH0 KECCAK256 SWAP1 PUSH1 0x3 MUL ADD PUSH0 SWAP1 SWAP2 SWAP1 SWAP2 SWAP1 SWAP2 POP PUSH0 DUP3 ADD MLOAD DUP2 PUSH0 ADD PUSH0 DUP3 ADD MLOAD DUP2 PUSH0 ADD SSTORE PUSH1 0x20 DUP3 ADD MLOAD DUP2 PUSH1 0x1 ADD SWAP1 DUP2 PUSH2 0x67B SWAP2 SWAP1 PUSH2 0xD32 JUMP JUMPDEST POP POP POP PUSH1 0x20 DUP3 ADD MLOAD DUP2 PUSH1 0x2 ADD SSTORE POP POP POP POP POP POP POP JUMP JUMPDEST PUSH0 DUP2 SWAP1 POP SWAP2 SWAP1 POP JUMP JUMPDEST PUSH2 0x6A3 DUP2 PUSH2 0x691 JUMP JUMPDEST DUP3 MSTORE POP POP JUMP JUMPDEST PUSH0 PUSH1 0x20 DUP3 ADD SWAP1 POP PUSH2 0x6BC PUSH0 DUP4 ADD DUP5 PUSH2 0x69A JUMP JUMPDEST SWAP3 SWAP2 POP POP JUMP JUMPDEST PUSH0 PUSH1 0x40 MLOAD SWAP1 POP SWAP1 JUMP JUMPDEST PUSH0 DUP1 REVERT JUMPDEST PUSH0 DUP1 REVERT JUMPDEST PUSH2 0x6DC DUP2 PUSH2 0x691 JUMP JUMPDEST DUP2 EQ PUSH2 0x6E6 JUMPI PUSH0 DUP1 REVERT JUMPDEST POP JUMP JUMPDEST PUSH0 DUP2 CALLDATALOAD SWAP1 POP PUSH2 0x6F7 DUP2 PUSH2 0x6D3 JUMP JUMPDEST SWAP3 SWAP2 POP POP JUMP JUMPDEST PUSH0 PUSH1 0x20 DUP3 DUP5 SUB SLT ISZERO PUSH2 0x712 JUMPI PUSH2 0x711 PUSH2 0x6CB JUMP JUMPDEST JUMPDEST PUSH0 PUSH2 0x71F DUP5 DUP3 DUP6 ADD PUSH2 0x6E9 JUMP JUMPDEST SWAP2 POP POP SWAP3 SWAP2 POP POP JUMP JUMPDEST PUSH0 DUP2 MLOAD SWAP1 POP SWAP2 SWAP1 POP JUMP JUMPDEST PUSH0 DUP3 DUP3 MSTORE PUSH1 0x20 DUP3 ADD SWAP1 POP SWAP3 SWAP2 POP POP JUMP JUMPDEST PUSH0 JUMPDEST DUP4 DUP2 LT ISZERO PUSH2 0x75F JUMPI DUP1 DUP3 ADD MLOAD DUP2 DUP5 ADD MSTORE PUSH1 0x20 DUP2 ADD SWAP1 POP PUSH2 0x744 JUMP JUMPDEST PUSH0 DUP5 DUP5 ADD MSTORE POP POP POP POP JUMP JUMPDEST PUSH0 PUSH1 0x1F NOT PUSH1 0x1F DUP4 ADD AND SWAP1 POP SWAP2 SWAP1 POP JUMP JUMPDEST PUSH0 PUSH2 0x784 DUP3 PUSH2 0x728 JUMP JUMPDEST PUSH2 0x78E DUP2 DUP6 PUSH2 0x732 JUMP JUMPDEST SWAP4 POP PUSH2 0x79E DUP2 DUP6 PUSH1 0x20 DUP7 ADD PUSH2 0x742 JUMP JUMPDEST PUSH2 0x7A7 DUP2 PUSH2 0x76A JUMP JUMPDEST DUP5 ADD SWAP2 POP POP SWAP3 SWAP2 POP POP JUMP JUMPDEST PUSH0 PUSH1 0x40 DUP3 ADD SWAP1 POP PUSH2 0x7C5 PUSH0 DUP4 ADD DUP6 PUSH2 0x69A JUMP JUMPDEST DUP2 DUP2 SUB PUSH1 0x20 DUP4 ADD MSTORE PUSH2 0x7D7 DUP2 DUP5 PUSH2 0x77A JUMP JUMPDEST SWAP1 POP SWAP4 SWAP3 POP POP POP JUMP JUMPDEST PUSH0 PUSH1 0x60 DUP3 ADD SWAP1 POP PUSH2 0x7F3 PUSH0 DUP4 ADD DUP7 PUSH2 0x69A JUMP JUMPDEST DUP2 DUP2 SUB PUSH1 0x20 DUP4 ADD MSTORE PUSH2 0x805 DUP2 DUP6 PUSH2 0x77A JUMP JUMPDEST SWAP1 POP PUSH2 0x814 PUSH1 0x40 DUP4 ADD DUP5 PUSH2 0x69A JUMP JUMPDEST SWAP5 SWAP4 POP POP POP POP JUMP JUMPDEST PUSH0 DUP1 REVERT JUMPDEST PUSH0 DUP1 REVERT JUMPDEST PUSH32 0x4E487B7100000000000000000000000000000000000000000000000000000000 PUSH0 MSTORE PUSH1 0x41 PUSH1 0x4 MSTORE PUSH1 0x24 PUSH0 REVERT JUMPDEST PUSH2 0x85A DUP3 PUSH2 0x76A JUMP JUMPDEST DUP2 ADD DUP2 DUP2 LT PUSH8 0xFFFFFFFFFFFFFFFF DUP3 GT OR ISZERO PUSH2 0x879 JUMPI PUSH2 0x878 PUSH2 0x824 JUMP JUMPDEST JUMPDEST DUP1 PUSH1 0x40 MSTORE POP POP POP JUMP JUMPDEST PUSH0 PUSH2 0x88B PUSH2 0x6C2 JUMP JUMPDEST SWAP1 POP PUSH2 0x897 DUP3 DUP3 PUSH2 0x851 JUMP JUMPDEST SWAP2 SWAP1 POP JUMP JUMPDEST PUSH0 PUSH8 0xFFFFFFFFFFFFFFFF DUP3 GT ISZERO PUSH2 0x8B6 JUMPI PUSH2 0x8B5 PUSH2 0x824 JUMP JUMPDEST JUMPDEST PUSH2 0x8BF DUP3 PUSH2 0x76A JUMP JUMPDEST SWAP1 POP PUSH1 0x20 DUP2 ADD SWAP1 POP SWAP2 SWAP1 POP JUMP JUMPDEST DUP3 DUP2 DUP4 CALLDATACOPY PUSH0 DUP4 DUP4 ADD MSTORE POP POP POP JUMP JUMPDEST PUSH0 PUSH2 0x8EC PUSH2 0x8E7 DUP5 PUSH2 0x89C JUMP JUMPDEST PUSH2 0x882 JUMP JUMPDEST SWAP1 POP DUP3 DUP2 MSTORE PUSH1 0x20 DUP2 ADD DUP5 DUP5 DUP5 ADD GT ISZERO PUSH2 0x908 JUMPI PUSH2 0x907 PUSH2 0x820 JUMP JUMPDEST JUMPDEST PUSH2 0x913 DUP5 DUP3 DUP6 PUSH2 0x8CC JUMP JUMPDEST POP SWAP4 SWAP3 POP POP POP JUMP JUMPDEST PUSH0 DUP3 PUSH1 0x1F DUP4 ADD SLT PUSH2 0x92F JUMPI PUSH2 0x92E PUSH2 0x81C JUMP JUMPDEST JUMPDEST DUP2 CALLDATALOAD PUSH2 0x93F DUP5 DUP3 PUSH1 0x20 DUP7 ADD PUSH2 0x8DA JUMP JUMPDEST SWAP2 POP POP SWAP3 SWAP2 POP POP JUMP JUMPDEST PUSH0 DUP1 PUSH1 0x40 DUP4 DUP6 SUB SLT ISZERO PUSH2 0x95E JUMPI PUSH2 0x95D PUSH2 0x6CB JUMP JUMPDEST JUMPDEST PUSH0 PUSH2 0x96B DUP6 DUP3 DUP7 ADD PUSH2 0x6E9 JUMP JUMPDEST SWAP3 POP POP PUSH1 0x20 DUP4 ADD CALLDATALOAD PUSH8 0xFFFFFFFFFFFFFFFF DUP2 GT ISZERO PUSH2 0x98C JUMPI PUSH2 0x98B PUSH2 0x6CF JUMP JUMPDEST JUMPDEST PUSH2 0x998 DUP6 DUP3 DUP7 ADD PUSH2 0x91B JUMP JUMPDEST SWAP2 POP POP SWAP3 POP SWAP3 SWAP1 POP JUMP JUMPDEST PUSH0 DUP1 PUSH1 0x40 DUP4 DUP6 SUB SLT ISZERO PUSH2 0x9B8 JUMPI PUSH2 0x9B7 PUSH2 0x6CB JUMP JUMPDEST JUMPDEST PUSH0 PUSH2 0x9C5 DUP6 DUP3 DUP7 ADD PUSH2 0x6E9 JUMP JUMPDEST SWAP3 POP POP PUSH1 0x20 PUSH2 0x9D6 DUP6 DUP3 DUP7 ADD PUSH2 0x6E9 JUMP JUMPDEST SWAP2 POP POP SWAP3 POP SWAP3 SWAP1 POP JUMP JUMPDEST PUSH2 0x9E9 DUP2 PUSH2 0x691 JUMP JUMPDEST DUP3 MSTORE POP POP JUMP JUMPDEST PUSH0 DUP3 DUP3 MSTORE PUSH1 0x20 DUP3 ADD SWAP1 POP SWAP3 SWAP2 POP POP JUMP JUMPDEST PUSH0 PUSH2 0xA09 DUP3 PUSH2 0x728 JUMP JUMPDEST PUSH2 0xA13 DUP2 DUP6 PUSH2 0x9EF JUMP JUMPDEST SWAP4 POP PUSH2 0xA23 DUP2 DUP6 PUSH1 0x20 DUP7 ADD PUSH2 0x742 JUMP JUMPDEST PUSH2 0xA2C DUP2 PUSH2 0x76A JUMP JUMPDEST DUP5 ADD SWAP2 POP POP SWAP3 SWAP2 POP POP JUMP JUMPDEST PUSH0 PUSH1 0x40 DUP4 ADD PUSH0 DUP4 ADD MLOAD PUSH2 0xA4C PUSH0 DUP7 ADD DUP3 PUSH2 0x9E0 JUMP JUMPDEST POP PUSH1 0x20 DUP4 ADD MLOAD DUP5 DUP3 SUB PUSH1 0x20 DUP7 ADD MSTORE PUSH2 0xA64 DUP3 DUP3 PUSH2 0x9FF JUMP JUMPDEST SWAP2 POP POP DUP1 SWAP2 POP POP SWAP3 SWAP2 POP POP JUMP JUMPDEST PUSH0 PUSH1 0x40 DUP3 ADD SWAP1 POP DUP2 DUP2 SUB PUSH0 DUP4 ADD MSTORE PUSH2 0xA89 DUP2 DUP6 PUSH2 0xA37 JUMP JUMPDEST SWAP1 POP PUSH2 0xA98 PUSH1 0x20 DUP4 ADD DUP5 PUSH2 0x69A JUMP JUMPDEST SWAP4 SWAP3 POP POP POP JUMP JUMPDEST PUSH0 DUP1 PUSH0 PUSH1 0x60 DUP5 DUP7 SUB SLT ISZERO PUSH2 0xAB6 JUMPI PUSH2 0xAB5 PUSH2 0x6CB JUMP JUMPDEST JUMPDEST PUSH0 PUSH2 0xAC3 DUP7 DUP3 DUP8 ADD PUSH2 0x6E9 JUMP JUMPDEST SWAP4 POP POP PUSH1 0x20 DUP5 ADD CALLDATALOAD PUSH8 0xFFFFFFFFFFFFFFFF DUP2 GT ISZERO PUSH2 0xAE4 JUMPI PUSH2 0xAE3 PUSH2 0x6CF JUMP JUMPDEST JUMPDEST PUSH2 0xAF0 DUP7 DUP3 DUP8 ADD PUSH2 0x91B JUMP JUMPDEST SWAP3 POP POP PUSH1 0x40 PUSH2 0xB01 DUP7 DUP3 DUP8 ADD PUSH2 0x6E9 JUMP JUMPDEST SWAP2 POP POP SWAP3 POP SWAP3 POP SWAP3 JUMP JUMPDEST PUSH32 0x4E487B7100000000000000000000000000000000000000000000000000000000 PUSH0 MSTORE PUSH1 0x32 PUSH1 0x4 MSTORE PUSH1 0x24 PUSH0 REVERT JUMPDEST PUSH32 0x4E487B7100000000000000000000000000000000000000000000000000000000 PUSH0 MSTORE PUSH1 0x22 PUSH1 0x4 MSTORE PUSH1 0x24 PUSH0 REVERT JUMPDEST PUSH0 PUSH1 0x2 DUP3 DIV SWAP1 POP PUSH1 0x1 DUP3 AND DUP1 PUSH2 0xB7C JUMPI PUSH1 0x7F DUP3 AND SWAP2 POP JUMPDEST PUSH1 0x20 DUP3 LT DUP2 SUB PUSH2 0xB8F JUMPI PUSH2 0xB8E PUSH2 0xB38 JUMP JUMPDEST JUMPDEST POP SWAP2 SWAP1 POP JUMP JUMPDEST PUSH0 DUP2 SWAP1 POP DUP2 PUSH0 MSTORE PUSH1 0x20 PUSH0 KECCAK256 SWAP1 POP SWAP2 SWAP1 POP JUMP JUMPDEST PUSH0 PUSH1 0x20 PUSH1 0x1F DUP4 ADD DIV SWAP1 POP SWAP2 SWAP1 POP JUMP JUMPDEST PUSH0 DUP3 DUP3 SHL SWAP1 POP SWAP3 SWAP2 POP POP JUMP JUMPDEST PUSH0 PUSH1 0x8 DUP4 MUL PUSH2 0xBF1 PUSH32 0xFFFFFFFFFFFFFFFFFFFFFFFFFFFFFFFFFFFFFFFFFFFFFFFFFFFFFFFFFFFFFFFF DUP3 PUSH2 0xBB6 JUMP JUMPDEST PUSH2 0xBFB DUP7 DUP4 PUSH2 0xBB6 JUMP JUMPDEST SWAP6 POP DUP1 NOT DUP5 AND SWAP4 POP DUP1 DUP7 AND DUP5 OR SWAP3 POP POP POP SWAP4 SWAP3 POP POP POP JUMP JUMPDEST PUSH0 DUP2 SWAP1 POP SWAP2 SWAP1 POP JUMP JUMPDEST PUSH0 PUSH2 0xC36 PUSH2 0xC31 PUSH2 0xC2C DUP5 PUSH2 0x691 JUMP JUMPDEST PUSH2 0xC13 JUMP JUMPDEST PUSH2 0x691 JUMP JUMPDEST SWAP1 POP SWAP2 SWAP1 POP JUMP JUMPDEST PUSH0 DUP2 SWAP1 POP SWAP2 SWAP1 POP JUMP JUMPDEST PUSH2 0xC4F DUP4 PUSH2 0xC1C JUMP JUMPDEST PUSH2 0xC63 PUSH2 0xC5B DUP3 PUSH2 0xC3D JUMP JUMPDEST DUP5 DUP5 SLOAD PUSH2 0xBC2 JUMP JUMPDEST DUP3 SSTORE POP POP POP POP JUMP JUMPDEST PUSH0 SWAP1 JUMP JUMPDEST PUSH2 0xC77 PUSH2 0xC6B JUMP JUMPDEST PUSH2 0xC82 DUP2 DUP5 DUP5 PUSH2 0xC46 JUMP JUMPDEST POP POP POP JUMP JUMPDEST JUMPDEST DUP2 DUP2 LT ISZERO PUSH2 0xCA5 JUMPI PUSH2 0xC9A PUSH0 DUP3 PUSH2 0xC6F JUMP JUMPDEST PUSH1 0x1 DUP2 ADD SWAP1 POP PUSH2 0xC88 JUMP JUMPDEST POP POP JUMP JUMPDEST PUSH1 0x1F DUP3 GT ISZERO PUSH2 0xCEA JUMPI PUSH2 0xCBB DUP2 PUSH2 0xB95 JUMP JUMPDEST PUSH2 0xCC4 DUP5 PUSH2 0xBA7 JUMP JUMPDEST DUP2 ADD PUSH1 0x20 DUP6 LT ISZERO PUSH2 0xCD3 JUMPI DUP2 SWAP1 POP JUMPDEST PUSH2 0xCE7 PUSH2 0xCDF DUP6 PUSH2 0xBA7 JUMP JUMPDEST DUP4 ADD DUP3 PUSH2 0xC87 JUMP JUMPDEST POP POP JUMPDEST POP POP POP JUMP JUMPDEST PUSH0 DUP3 DUP3 SHR SWAP1 POP SWAP3 SWAP2 POP POP JUMP JUMPDEST PUSH0 PUSH2 0xD0A PUSH0 NOT DUP5 PUSH1 0x8 MUL PUSH2 0xCEF JUMP JUMPDEST NOT DUP1 DUP4 AND SWAP2 POP POP SWAP3 SWAP2 POP POP JUMP JUMPDEST PUSH0 PUSH2 0xD22 DUP4 DUP4 PUSH2 0xCFB JUMP JUMPDEST SWAP2 POP DUP3 PUSH1 0x2 MUL DUP3 OR SWAP1 POP SWAP3 SWAP2 POP POP JUMP JUMPDEST PUSH2 0xD3B DUP3 PUSH2 0x728 JUMP JUMPDEST PUSH8 0xFFFFFFFFFFFFFFFF DUP2 GT ISZERO PUSH2 0xD54 JUMPI PUSH2 0xD53 PUSH2 0x824 JUMP JUMPDEST JUMPDEST PUSH2 0xD5E DUP3 SLOAD PUSH2 0xB65 JUMP JUMPDEST PUSH2 0xD69 DUP3 DUP3 DUP6 PUSH2 0xCA9 JUMP JUMPDEST PUSH0 PUSH1 0x20 SWAP1 POP PUSH1 0x1F DUP4 GT PUSH1 0x1 DUP2 EQ PUSH2 0xD9A JUMPI PUSH0 DUP5 ISZERO PUSH2 0xD88 JUMPI DUP3 DUP8 ADD MLOAD SWAP1 POP JUMPDEST PUSH2 0xD92 DUP6 DUP3 PUSH2 0xD17 JUMP JUMPDEST DUP7 SSTORE POP PUSH2 0xDF9 JUMP JUMPDEST PUSH1 0x1F NOT DUP5 AND PUSH2 0xDA8 DUP7 PUSH2 0xB95 JUMP JUMPDEST PUSH0 JUMPDEST DUP3 DUP2 LT ISZERO PUSH2 0xDCF JUMPI DUP5 DUP10 ADD MLOAD DUP3 SSTORE PUSH1 0x1 DUP3 ADD SWAP2 POP PUSH1 0x20 DUP6 ADD SWAP5 POP PUSH1 0x20 DUP2 ADD SWAP1 POP PUSH2 0xDAA JUMP JUMPDEST DUP7 DUP4 LT ISZERO PUSH2 0xDEC JUMPI DUP5 DUP10 ADD MLOAD PUSH2 0xDE8 PUSH1 0x1F DUP10 AND DUP3 PUSH2 0xCFB JUMP JUMPDEST DUP4 SSTORE POP JUMPDEST PUSH1 0x1 PUSH1 0x2 DUP9 MUL ADD DUP9 SSTORE POP POP POP JUMPDEST POP POP POP POP POP POP JUMP INVALID LOG2 PUSH5 0x6970667358 0x22 SLT KECCAK256 ORIGIN 0xD2 SWAP12 DUP5 0xED 0x2E 0xE1 0xC9 BLOBHASH 0xE3 0x29 ADD 0xE5 PUSH20 0x50FAC71549DFB13D9FC6997B4C6EEC5C77D6473 PUSH16 0x6C634300081800330000000000000000 "
		},
		"gasEstimates": {
			"creation": {
				"codeDepositCost": "727800",
				"executionCost": "758",
				"totalCost": "728558"
			},
			"external": {
				"agregarEmpleado(uint256,string,uint256)": "infinite",
				"agregarPersona(uint256,string)": "infinite",
				"cambiarSalario(uint256,uint256)": "infinite",
				"empleadosInfo(uint256)": "infinite",
				"getEmpleado(uint256)": "infinite",
				"getEmpleadosLength()": "2440",
				"getPersona(uint256)": "infinite",
				"getPersonasLength()": "2441",
				"personas(uint256)": "infinite"
			}
		},
		"methodIdentifiers": {
			"agregarEmpleado(uint256,string,uint256)": "a35fe0b6",
			"agregarPersona(uint256,string)": "56722990",
			"cambiarSalario(uint256,uint256)": "80e808a8",
			"empleadosInfo(uint256)": "9e7be36f",
			"getEmpleado(uint256)": "1fcea3fa",
			"getEmpleadosLength()": "462c6af0",
			"getPersona(uint256)": "14f9dc8b",
			"getPersonasLength()": "0a49322a",
			"personas(uint256)": "40291e6a"
		}
	},
	"abi": [
		{
			"inputs": [
				{
					"internalType": "uint256",
					"name": "_edad",
					"type": "uint256"
				},
				{
					"internalType": "string",
					"name": "_nombre",
					"type": "string"
				},
				{
					"internalType": "uint256",
					"name": "_salario",
					"type": "uint256"
				}
			],
			"name": "agregarEmpleado",
			"outputs": [],
			"stateMutability": "nonpayable",
			"type": "function"
		},
		{
			"inputs": [
				{
					"internalType": "uint256",
					"name": "_edad",
					"type": "uint256"
				},
				{
					"internalType": "string",
					"name": "_nombre",
					"type": "string"
				}
			],
			"name": "agregarPersona",
			"outputs": [],
			"stateMutability": "nonpayable",
			"type": "function"
		},
		{
			"inputs": [
				{
					"internalType": "uint256",
					"name": "index",
					"type": "uint256"
				},
				{
					"internalType": "uint256",
					"name": "nuevoSalario",
					"type": "uint256"
				}
			],
			"name": "cambiarSalario",
			"outputs": [],
			"stateMutability": "nonpayable",
			"type": "function"
		},
		{
			"inputs": [
				{
					"internalType": "uint256",
					"name": "",
					"type": "uint256"
				}
			],
			"name": "empleadosInfo",
			"outputs": [
				{
					"components": [
						{
							"internalType": "uint256",
							"name": "edad",
							"type": "uint256"
						},
						{
							"internalType": "string",
							"name": "nombre",
							"type": "string"
						}
					],
					"internalType": "struct Personas.Persona",
					"name": "persona",
					"type": "tuple"
				},
				{
					"internalType": "uint256",
					"name": "salario",
					"type": "uint256"
				}
			],
			"stateMutability": "view",
			"type": "function"
		},
		{
			"inputs": [
				{
					"internalType": "uint256",
					"name": "index",
					"type": "uint256"
				}
			],
			"name": "getEmpleado",
			"outputs": [
				{
					"internalType": "uint256",
					"name": "",
					"type": "uint256"
				},
				{
					"internalType": "string",
					"name": "",
					"type": "string"
				},
				{
					"internalType": "uint256",
					"name": "",
					"type": "uint256"
				}
			],
			"stateMutability": "view",
			"type": "function"
		},
		{
			"inputs": [],
			"name": "getEmpleadosLength",
			"outputs": [
				{
					"internalType": "uint256",
					"name": "",
					"type": "uint256"
				}
			],
			"stateMutability": "view",
			"type": "function"
		},
		{
			"inputs": [
				{
					"internalType": "uint256",
					"name": "index",
					"type": "uint256"
				}
			],
			"name": "getPersona",
			"outputs": [
				{
					"internalType": "uint256",
					"name": "",
					"type": "uint256"
				},
				{
					"internalType": "string",
					"name": "",
					"type": "string"
				}
			],
			"stateMutability": "view",
			"type": "function"
		},
		{
			"inputs": [],
			"name": "getPersonasLength",
			"outputs": [
				{
					"internalType": "uint256",
					"name": "",
					"type": "uint256"
				}
			],
			"stateMutability": "view",
			"type": "function"
		},
		{
			"inputs": [
				{
					"internalType": "uint256",
					"name": "",
					"type": "uint256"
				}
			],
			"name": "personas",
			"outputs": [
				{
					"internalType": "uint256",
					"name": "edad",
					"type": "uint256"
				},
				{
					"internalType": "string",
					"name": "nombre",
					"type": "string"
				}
			],
			"stateMutability": "view",
			"type": "function"
		}
	]
}