{
	"data": {
		"bytecode": {
			"linkReferences": {},
			"object": "608060405234801561001057600080fd5b50610eb3806100206000396000f3fe608060405234801561001057600080fd5b50600436106100935760003560e01c8063462c6af011610066578063462c6af01461014a578063567229901461016857806380e808a8146101845780639e7be36f146101a0578063a35fe0b6146101d157610093565b80630a49322a1461009857806314f9dc8b146100b65780631fcea3fa146100e757806340291e6a14610119575b600080fd5b6100a06101ed565b6040516100ad91906106e4565b60405180910390f35b6100d060048036038101906100cb919061073f565b6101f9565b6040516100de9291906107fc565b60405180910390f35b61010160048036038101906100fc919061073f565b6102dd565b6040516101109392919061082c565b60405180910390f35b610133600480360381019061012e919061073f565b6103f2565b6040516101419291906107fc565b60405180910390f35b6101526104ae565b60405161015f91906106e4565b60405180910390f35b610182600480360381019061017d919061099f565b6104bb565b005b61019e600480360381019061019991906109fb565b610527565b005b6101ba60048036038101906101b5919061073f565b610555565b6040516101c8929190610ad1565b60405180910390f35b6101eb60048036038101906101e69190610b01565b61062f565b005b60008080549050905090565b60006060600080848154811061021257610211610b70565b5b90600052602060002090600202016040518060400160405290816000820154815260200160018201805461024590610bce565b80601f016020809104026020016040519081016040528092919081815260200182805461027190610bce565b80156102be5780601f10610293576101008083540402835291602001916102be565b820191906000526020600020905b8154815290600101906020018083116102a157829003601f168201915b5050505050815250509050806000015181602001519250925050915091565b60006060600080600185815481106102f8576102f7610b70565b5b9060005260206000209060030201604051806040016040529081600082016040518060400160405290816000820154815260200160018201805461033b90610bce565b80601f016020809104026020016040519081016040528092919081815260200182805461036790610bce565b80156103b45780601f10610389576101008083540402835291602001916103b4565b820191906000526020600020905b81548152906001019060200180831161039757829003601f168201915b505050505081525050815260200160028201548152505090508060000151600001518160000151602001518260200151935093509350509193909250565b6000818154811061040257600080fd5b906000526020600020906002020160009150905080600001549080600101805461042b90610bce565b80601f016020809104026020016040519081016040528092919081815260200182805461045790610bce565b80156104a45780601f10610479576101008083540402835291602001916104a4565b820191906000526020600020905b81548152906001019060200180831161048757829003601f168201915b5050505050905082565b6000600180549050905090565b60006040518060400160405280848152602001838152509050600081908060018154018082558091505060019003906000526020600020906002020160009091909190915060008201518160000155602082015181600101908161051f9190610dab565b505050505050565b806001838154811061053c5761053b610b70565b5b9060005260206000209060030201600201819055505050565b6001818154811061056557600080fd5b906000526020600020906003020160009150905080600001604051806040016040529081600082015481526020016001820180546105a290610bce565b80601f01602080910402602001604051908101604052809291908181526020018280546105ce90610bce565b801561061b5780601f106105f05761010080835404028352916020019161061b565b820191906000526020600020905b8154815290600101906020018083116105fe57829003601f168201915b505050505081525050908060020154905082565b600060405180604001604052808581526020018481525090506000604051806040016040528083815260200184815250905060018190806001815401808255809150506001900390600052602060002090600302016000909190919091506000820151816000016000820151816000015560208201518160010190816106b59190610dab565b5050506020820151816002015550505050505050565b6000819050919050565b6106de816106cb565b82525050565b60006020820190506106f960008301846106d5565b92915050565b6000604051905090565b600080fd5b600080fd5b61071c816106cb565b811461072757600080fd5b50565b60008135905061073981610713565b92915050565b60006020828403121561075557610754610709565b5b60006107638482850161072a565b91505092915050565b600081519050919050565b600082825260208201905092915050565b60005b838110156107a657808201518184015260208101905061078b565b60008484015250505050565b6000601f19601f8301169050919050565b60006107ce8261076c565b6107d88185610777565b93506107e8818560208601610788565b6107f1816107b2565b840191505092915050565b600060408201905061081160008301856106d5565b818103602083015261082381846107c3565b90509392505050565b600060608201905061084160008301866106d5565b818103602083015261085381856107c3565b905061086260408301846106d5565b949350505050565b600080fd5b600080fd5b7f4e487b7100000000000000000000000000000000000000000000000000000000600052604160045260246000fd5b6108ac826107b2565b810181811067ffffffffffffffff821117156108cb576108ca610874565b5b80604052505050565b60006108de6106ff565b90506108ea82826108a3565b919050565b600067ffffffffffffffff82111561090a57610909610874565b5b610913826107b2565b9050602081019050919050565b82818337600083830152505050565b600061094261093d846108ef565b6108d4565b90508281526020810184848401111561095e5761095d61086f565b5b610969848285610920565b509392505050565b600082601f8301126109865761098561086a565b5b813561099684826020860161092f565b91505092915050565b600080604083850312156109b6576109b5610709565b5b60006109c48582860161072a565b925050602083013567ffffffffffffffff8111156109e5576109e461070e565b5b6109f185828601610971565b9150509250929050565b60008060408385031215610a1257610a11610709565b5b6000610a208582860161072a565b9250506020610a318582860161072a565b9150509250929050565b610a44816106cb565b82525050565b600082825260208201905092915050565b6000610a668261076c565b610a708185610a4a565b9350610a80818560208601610788565b610a89816107b2565b840191505092915050565b6000604083016000830151610aac6000860182610a3b565b5060208301518482036020860152610ac48282610a5b565b9150508091505092915050565b60006040820190508181036000830152610aeb8185610a94565b9050610afa60208301846106d5565b9392505050565b600080600060608486031215610b1a57610b19610709565b5b6000610b288682870161072a565b935050602084013567ffffffffffffffff811115610b4957610b4861070e565b5b610b5586828701610971565b9250506040610b668682870161072a565b9150509250925092565b7f4e487b7100000000000000000000000000000000000000000000000000000000600052603260045260246000fd5b7f4e487b7100000000000000000000000000000000000000000000000000000000600052602260045260246000fd5b60006002820490506001821680610be657607f821691505b602082108103610bf957610bf8610b9f565b5b50919050565b60008190508160005260206000209050919050565b60006020601f8301049050919050565b600082821b905092915050565b600060088302610c617fffffffffffffffffffffffffffffffffffffffffffffffffffffffffffffffff82610c24565b610c6b8683610c24565b95508019841693508086168417925050509392505050565b6000819050919050565b6000610ca8610ca3610c9e846106cb565b610c83565b6106cb565b9050919050565b6000819050919050565b610cc283610c8d565b610cd6610cce82610caf565b848454610c31565b825550505050565b600090565b610ceb610cde565b610cf6818484610cb9565b505050565b5b81811015610d1a57610d0f600082610ce3565b600181019050610cfc565b5050565b601f821115610d5f57610d3081610bff565b610d3984610c14565b81016020851015610d48578190505b610d5c610d5485610c14565b830182610cfb565b50505b505050565b600082821c905092915050565b6000610d8260001984600802610d64565b1980831691505092915050565b6000610d9b8383610d71565b9150826002028217905092915050565b610db48261076c565b67ffffffffffffffff811115610dcd57610dcc610874565b5b610dd78254610bce565b610de2828285610d1e565b600060209050601f831160018114610e155760008415610e03578287015190505b610e0d8582610d8f565b865550610e75565b601f198416610e2386610bff565b60005b82811015610e4b57848901518255600182019150602085019450602081019050610e26565b86831015610e685784890151610e64601f891682610d71565b8355505b6001600288020188555050505b50505050505056fea2646970667358221220f61d919bbaba0ee7ca0556ce23ace7c28d0106c0fcb7218bb209d4fef426745764736f6c63430008110033",
			"opcodes": "PUSH1 0x80 PUSH1 0x40 MSTORE CALLVALUE DUP1 ISZERO PUSH2 0x10 JUMPI PUSH1 0x0 DUP1 REVERT JUMPDEST POP PUSH2 0xEB3 DUP1 PUSH2 0x20 PUSH1 0x0 CODECOPY PUSH1 0x0 RETURN INVALID PUSH1 0x80 PUSH1 0x40 MSTORE CALLVALUE DUP1 ISZERO PUSH2 0x10 JUMPI PUSH1 0x0 DUP1 REVERT JUMPDEST POP PUSH1 0x4 CALLDATASIZE LT PUSH2 0x93 JUMPI PUSH1 0x0 CALLDATALOAD PUSH1 0xE0 SHR DUP1 PUSH4 0x462C6AF0 GT PUSH2 0x66 JUMPI DUP1 PUSH4 0x462C6AF0 EQ PUSH2 0x14A JUMPI DUP1 PUSH4 0x56722990 EQ PUSH2 0x168 JUMPI DUP1 PUSH4 0x80E808A8 EQ PUSH2 0x184 JUMPI DUP1 PUSH4 0x9E7BE36F EQ PUSH2 0x1A0 JUMPI DUP1 PUSH4 0xA35FE0B6 EQ PUSH2 0x1D1 JUMPI PUSH2 0x93 JUMP JUMPDEST DUP1 PUSH4 0xA49322A EQ PUSH2 0x98 JUMPI DUP1 PUSH4 0x14F9DC8B EQ PUSH2 0xB6 JUMPI DUP1 PUSH4 0x1FCEA3FA EQ PUSH2 0xE7 JUMPI DUP1 PUSH4 0x40291E6A EQ PUSH2 0x119 JUMPI JUMPDEST PUSH1 0x0 DUP1 REVERT JUMPDEST PUSH2 0xA0 PUSH2 0x1ED JUMP JUMPDEST PUSH1 0x40 MLOAD PUSH2 0xAD SWAP2 SWAP1 PUSH2 0x6E4 JUMP JUMPDEST PUSH1 0x40 MLOAD DUP1 SWAP2 SUB SWAP1 RETURN JUMPDEST PUSH2 0xD0 PUSH1 0x4 DUP1 CALLDATASIZE SUB DUP2 ADD SWAP1 PUSH2 0xCB SWAP2 SWAP1 PUSH2 0x73F JUMP JUMPDEST PUSH2 0x1F9 JUMP JUMPDEST PUSH1 0x40 MLOAD PUSH2 0xDE SWAP3 SWAP2 SWAP1 PUSH2 0x7FC JUMP JUMPDEST PUSH1 0x40 MLOAD DUP1 SWAP2 SUB SWAP1 RETURN JUMPDEST PUSH2 0x101 PUSH1 0x4 DUP1 CALLDATASIZE SUB DUP2 ADD SWAP1 PUSH2 0xFC SWAP2 SWAP1 PUSH2 0x73F JUMP JUMPDEST PUSH2 0x2DD JUMP JUMPDEST PUSH1 0x40 MLOAD PUSH2 0x110 SWAP4 SWAP3 SWAP2 SWAP1 PUSH2 0x82C JUMP JUMPDEST PUSH1 0x40 MLOAD DUP1 SWAP2 SUB SWAP1 RETURN JUMPDEST PUSH2 0x133 PUSH1 0x4 DUP1 CALLDATASIZE SUB DUP2 ADD SWAP1 PUSH2 0x12E SWAP2 SWAP1 PUSH2 0x73F JUMP JUMPDEST PUSH2 0x3F2 JUMP JUMPDEST PUSH1 0x40 MLOAD PUSH2 0x141 SWAP3 SWAP2 SWAP1 PUSH2 0x7FC JUMP JUMPDEST PUSH1 0x40 MLOAD DUP1 SWAP2 SUB SWAP1 RETURN JUMPDEST PUSH2 0x152 PUSH2 0x4AE JUMP JUMPDEST PUSH1 0x40 MLOAD PUSH2 0x15F SWAP2 SWAP1 PUSH2 0x6E4 JUMP JUMPDEST PUSH1 0x40 MLOAD DUP1 SWAP2 SUB SWAP1 RETURN JUMPDEST PUSH2 0x182 PUSH1 0x4 DUP1 CALLDATASIZE SUB DUP2 ADD SWAP1 PUSH2 0x17D SWAP2 SWAP1 PUSH2 0x99F JUMP JUMPDEST PUSH2 0x4BB JUMP JUMPDEST STOP JUMPDEST PUSH2 0x19E PUSH1 0x4 DUP1 CALLDATASIZE SUB DUP2 ADD SWAP1 PUSH2 0x199 SWAP2 SWAP1 PUSH2 0x9FB JUMP JUMPDEST PUSH2 0x527 JUMP JUMPDEST STOP JUMPDEST PUSH2 0x1BA PUSH1 0x4 DUP1 CALLDATASIZE SUB DUP2 ADD SWAP1 PUSH2 0x1B5 SWAP2 SWAP1 PUSH2 0x73F JUMP JUMPDEST PUSH2 0x555 JUMP JUMPDEST PUSH1 0x40 MLOAD PUSH2 0x1C8 SWAP3 SWAP2 SWAP1 PUSH2 0xAD1 JUMP JUMPDEST PUSH1 0x40 MLOAD DUP1 SWAP2 SUB SWAP1 RETURN JUMPDEST PUSH2 0x1EB PUSH1 0x4 DUP1 CALLDATASIZE SUB DUP2 ADD SWAP1 PUSH2 0x1E6 SWAP2 SWAP1 PUSH2 0xB01 JUMP JUMPDEST PUSH2 0x62F JUMP JUMPDEST STOP JUMPDEST PUSH1 0x0 DUP1 DUP1 SLOAD SWAP1 POP SWAP1 POP SWAP1 JUMP JUMPDEST PUSH1 0x0 PUSH1 0x60 PUSH1 0x0 DUP1 DUP5 DUP2 SLOAD DUP2 LT PUSH2 0x212 JUMPI PUSH2 0x211 PUSH2 0xB70 JUMP JUMPDEST JUMPDEST SWAP1 PUSH1 0x0 MSTORE PUSH1 0x20 PUSH1 0x0 KECCAK256 SWAP1 PUSH1 0x2 MUL ADD PUSH1 0x40 MLOAD DUP1 PUSH1 0x40 ADD PUSH1 0x40 MSTORE SWAP1 DUP2 PUSH1 0x0 DUP3 ADD SLOAD DUP2 MSTORE PUSH1 0x20 ADD PUSH1 0x1 DUP3 ADD DUP1 SLOAD PUSH2 0x245 SWAP1 PUSH2 0xBCE JUMP JUMPDEST DUP1 PUSH1 0x1F ADD PUSH1 0x20 DUP1 SWAP2 DIV MUL PUSH1 0x20 ADD PUSH1 0x40 MLOAD SWAP1 DUP2 ADD PUSH1 0x40 MSTORE DUP1 SWAP3 SWAP2 SWAP1 DUP2 DUP2 MSTORE PUSH1 0x20 ADD DUP3 DUP1 SLOAD PUSH2 0x271 SWAP1 PUSH2 0xBCE JUMP JUMPDEST DUP1 ISZERO PUSH2 0x2BE JUMPI DUP1 PUSH1 0x1F LT PUSH2 0x293 JUMPI PUSH2 0x100 DUP1 DUP4 SLOAD DIV MUL DUP4 MSTORE SWAP2 PUSH1 0x20 ADD SWAP2 PUSH2 0x2BE JUMP JUMPDEST DUP3 ADD SWAP2 SWAP1 PUSH1 0x0 MSTORE PUSH1 0x20 PUSH1 0x0 KECCAK256 SWAP1 JUMPDEST DUP2 SLOAD DUP2 MSTORE SWAP1 PUSH1 0x1 ADD SWAP1 PUSH1 0x20 ADD DUP1 DUP4 GT PUSH2 0x2A1 JUMPI DUP3 SWAP1 SUB PUSH1 0x1F AND DUP3 ADD SWAP2 JUMPDEST POP POP POP POP POP DUP2 MSTORE POP POP SWAP1 POP DUP1 PUSH1 0x0 ADD MLOAD DUP2 PUSH1 0x20 ADD MLOAD SWAP3 POP SWAP3 POP POP SWAP2 POP SWAP2 JUMP JUMPDEST PUSH1 0x0 PUSH1 0x60 PUSH1 0x0 DUP1 PUSH1 0x1 DUP6 DUP2 SLOAD DUP2 LT PUSH2 0x2F8 JUMPI PUSH2 0x2F7 PUSH2 0xB70 JUMP JUMPDEST JUMPDEST SWAP1 PUSH1 0x0 MSTORE PUSH1 0x20 PUSH1 0x0 KECCAK256 SWAP1 PUSH1 0x3 MUL ADD PUSH1 0x40 MLOAD DUP1 PUSH1 0x40 ADD PUSH1 0x40 MSTORE SWAP1 DUP2 PUSH1 0x0 DUP3 ADD PUSH1 0x40 MLOAD DUP1 PUSH1 0x40 ADD PUSH1 0x40 MSTORE SWAP1 DUP2 PUSH1 0x0 DUP3 ADD SLOAD DUP2 MSTORE PUSH1 0x20 ADD PUSH1 0x1 DUP3 ADD DUP1 SLOAD PUSH2 0x33B SWAP1 PUSH2 0xBCE JUMP JUMPDEST DUP1 PUSH1 0x1F ADD PUSH1 0x20 DUP1 SWAP2 DIV MUL PUSH1 0x20 ADD PUSH1 0x40 MLOAD SWAP1 DUP2 ADD PUSH1 0x40 MSTORE DUP1 SWAP3 SWAP2 SWAP1 DUP2 DUP2 MSTORE PUSH1 0x20 ADD DUP3 DUP1 SLOAD PUSH2 0x367 SWAP1 PUSH2 0xBCE JUMP JUMPDEST DUP1 ISZERO PUSH2 0x3B4 JUMPI DUP1 PUSH1 0x1F LT PUSH2 0x389 JUMPI PUSH2 0x100 DUP1 DUP4 SLOAD DIV MUL DUP4 MSTORE SWAP2 PUSH1 0x20 ADD SWAP2 PUSH2 0x3B4 JUMP JUMPDEST DUP3 ADD SWAP2 SWAP1 PUSH1 0x0 MSTORE PUSH1 0x20 PUSH1 0x0 KECCAK256 SWAP1 JUMPDEST DUP2 SLOAD DUP2 MSTORE SWAP1 PUSH1 0x1 ADD SWAP1 PUSH1 0x20 ADD DUP1 DUP4 GT PUSH2 0x397 JUMPI DUP3 SWAP1 SUB PUSH1 0x1F AND DUP3 ADD SWAP2 JUMPDEST POP POP POP POP POP DUP2 MSTORE POP POP DUP2 MSTORE PUSH1 0x20 ADD PUSH1 0x2 DUP3 ADD SLOAD DUP2 MSTORE POP POP SWAP1 POP DUP1 PUSH1 0x0 ADD MLOAD PUSH1 0x0 ADD MLOAD DUP2 PUSH1 0x0 ADD MLOAD PUSH1 0x20 ADD MLOAD DUP3 PUSH1 0x20 ADD MLOAD SWAP4 POP SWAP4 POP SWAP4 POP POP SWAP2 SWAP4 SWAP1 SWAP3 POP JUMP JUMPDEST PUSH1 0x0 DUP2 DUP2 SLOAD DUP2 LT PUSH2 0x402 JUMPI PUSH1 0x0 DUP1 REVERT JUMPDEST SWAP1 PUSH1 0x0 MSTORE PUSH1 0x20 PUSH1 0x0 KECCAK256 SWAP1 PUSH1 0x2 MUL ADD PUSH1 0x0 SWAP2 POP SWAP1 POP DUP1 PUSH1 0x0 ADD SLOAD SWAP1 DUP1 PUSH1 0x1 ADD DUP1 SLOAD PUSH2 0x42B SWAP1 PUSH2 0xBCE JUMP JUMPDEST DUP1 PUSH1 0x1F ADD PUSH1 0x20 DUP1 SWAP2 DIV MUL PUSH1 0x20 ADD PUSH1 0x40 MLOAD SWAP1 DUP2 ADD PUSH1 0x40 MSTORE DUP1 SWAP3 SWAP2 SWAP1 DUP2 DUP2 MSTORE PUSH1 0x20 ADD DUP3 DUP1 SLOAD PUSH2 0x457 SWAP1 PUSH2 0xBCE JUMP JUMPDEST DUP1 ISZERO PUSH2 0x4A4 JUMPI DUP1 PUSH1 0x1F LT PUSH2 0x479 JUMPI PUSH2 0x100 DUP1 DUP4 SLOAD DIV MUL DUP4 MSTORE SWAP2 PUSH1 0x20 ADD SWAP2 PUSH2 0x4A4 JUMP JUMPDEST DUP3 ADD SWAP2 SWAP1 PUSH1 0x0 MSTORE PUSH1 0x20 PUSH1 0x0 KECCAK256 SWAP1 JUMPDEST DUP2 SLOAD DUP2 MSTORE SWAP1 PUSH1 0x1 ADD SWAP1 PUSH1 0x20 ADD DUP1 DUP4 GT PUSH2 0x487 JUMPI DUP3 SWAP1 SUB PUSH1 0x1F AND DUP3 ADD SWAP2 JUMPDEST POP POP POP POP POP SWAP1 POP DUP3 JUMP JUMPDEST PUSH1 0x0 PUSH1 0x1 DUP1 SLOAD SWAP1 POP SWAP1 POP SWAP1 JUMP JUMPDEST PUSH1 0x0 PUSH1 0x40 MLOAD DUP1 PUSH1 0x40 ADD PUSH1 0x40 MSTORE DUP1 DUP5 DUP2 MSTORE PUSH1 0x20 ADD DUP4 DUP2 MSTORE POP SWAP1 POP PUSH1 0x0 DUP2 SWAP1 DUP1 PUSH1 0x1 DUP2 SLOAD ADD DUP1 DUP3 SSTORE DUP1 SWAP2 POP POP PUSH1 0x1 SWAP1 SUB SWAP1 PUSH1 0x0 MSTORE PUSH1 0x20 PUSH1 0x0 KECCAK256 SWAP1 PUSH1 0x2 MUL ADD PUSH1 0x0 SWAP1 SWAP2 SWAP1 SWAP2 SWAP1 SWAP2 POP PUSH1 0x0 DUP3 ADD MLOAD DUP2 PUSH1 0x0 ADD SSTORE PUSH1 0x20 DUP3 ADD MLOAD DUP2 PUSH1 0x1 ADD SWAP1 DUP2 PUSH2 0x51F SWAP2 SWAP1 PUSH2 0xDAB JUMP JUMPDEST POP POP POP POP POP POP JUMP JUMPDEST DUP1 PUSH1 0x1 DUP4 DUP2 SLOAD DUP2 LT PUSH2 0x53C JUMPI PUSH2 0x53B PUSH2 0xB70 JUMP JUMPDEST JUMPDEST SWAP1 PUSH1 0x0 MSTORE PUSH1 0x20 PUSH1 0x0 KECCAK256 SWAP1 PUSH1 0x3 MUL ADD PUSH1 0x2 ADD DUP2 SWAP1 SSTORE POP POP POP JUMP JUMPDEST PUSH1 0x1 DUP2 DUP2 SLOAD DUP2 LT PUSH2 0x565 JUMPI PUSH1 0x0 DUP1 REVERT JUMPDEST SWAP1 PUSH1 0x0 MSTORE PUSH1 0x20 PUSH1 0x0 KECCAK256 SWAP1 PUSH1 0x3 MUL ADD PUSH1 0x0 SWAP2 POP SWAP1 POP DUP1 PUSH1 0x0 ADD PUSH1 0x40 MLOAD DUP1 PUSH1 0x40 ADD PUSH1 0x40 MSTORE SWAP1 DUP2 PUSH1 0x0 DUP3 ADD SLOAD DUP2 MSTORE PUSH1 0x20 ADD PUSH1 0x1 DUP3 ADD DUP1 SLOAD PUSH2 0x5A2 SWAP1 PUSH2 0xBCE JUMP JUMPDEST DUP1 PUSH1 0x1F ADD PUSH1 0x20 DUP1 SWAP2 DIV MUL PUSH1 0x20 ADD PUSH1 0x40 MLOAD SWAP1 DUP2 ADD PUSH1 0x40 MSTORE DUP1 SWAP3 SWAP2 SWAP1 DUP2 DUP2 MSTORE PUSH1 0x20 ADD DUP3 DUP1 SLOAD PUSH2 0x5CE SWAP1 PUSH2 0xBCE JUMP JUMPDEST DUP1 ISZERO PUSH2 0x61B JUMPI DUP1 PUSH1 0x1F LT PUSH2 0x5F0 JUMPI PUSH2 0x100 DUP1 DUP4 SLOAD DIV MUL DUP4 MSTORE SWAP2 PUSH1 0x20 ADD SWAP2 PUSH2 0x61B JUMP JUMPDEST DUP3 ADD SWAP2 SWAP1 PUSH1 0x0 MSTORE PUSH1 0x20 PUSH1 0x0 KECCAK256 SWAP1 JUMPDEST DUP2 SLOAD DUP2 MSTORE SWAP1 PUSH1 0x1 ADD SWAP1 PUSH1 0x20 ADD DUP1 DUP4 GT PUSH2 0x5FE JUMPI DUP3 SWAP1 SUB PUSH1 0x1F AND DUP3 ADD SWAP2 JUMPDEST POP POP POP POP POP DUP2 MSTORE POP POP SWAP1 DUP1 PUSH1 0x2 ADD SLOAD SWAP1 POP DUP3 JUMP JUMPDEST PUSH1 0x0 PUSH1 0x40 MLOAD DUP1 PUSH1 0x40 ADD PUSH1 0x40 MSTORE DUP1 DUP6 DUP2 MSTORE PUSH1 0x20 ADD DUP5 DUP2 MSTORE POP SWAP1 POP PUSH1 0x0 PUSH1 0x40 MLOAD DUP1 PUSH1 0x40 ADD PUSH1 0x40 MSTORE DUP1 DUP4 DUP2 MSTORE PUSH1 0x20 ADD DUP5 DUP2 MSTORE POP SWAP1 POP PUSH1 0x1 DUP2 SWAP1 DUP1 PUSH1 0x1 DUP2 SLOAD ADD DUP1 DUP3 SSTORE DUP1 SWAP2 POP POP PUSH1 0x1 SWAP1 SUB SWAP1 PUSH1 0x0 MSTORE PUSH1 0x20 PUSH1 0x0 KECCAK256 SWAP1 PUSH1 0x3 MUL ADD PUSH1 0x0 SWAP1 SWAP2 SWAP1 SWAP2 SWAP1 SWAP2 POP PUSH1 0x0 DUP3 ADD MLOAD DUP2 PUSH1 0x0 ADD PUSH1 0x0 DUP3 ADD MLOAD DUP2 PUSH1 0x0 ADD SSTORE PUSH1 0x20 DUP3 ADD MLOAD DUP2 PUSH1 0x1 ADD SWAP1 DUP2 PUSH2 0x6B5 SWAP2 SWAP1 PUSH2 0xDAB JUMP JUMPDEST POP POP POP PUSH1 0x20 DUP3 ADD MLOAD DUP2 PUSH1 0x2 ADD SSTORE POP POP POP POP POP POP POP JUMP JUMPDEST PUSH1 0x0 DUP2 SWAP1 POP SWAP2 SWAP1 POP JUMP JUMPDEST PUSH2 0x6DE DUP2 PUSH2 0x6CB JUMP JUMPDEST DUP3 MSTORE POP POP JUMP JUMPDEST PUSH1 0x0 PUSH1 0x20 DUP3 ADD SWAP1 POP PUSH2 0x6F9 PUSH1 0x0 DUP4 ADD DUP5 PUSH2 0x6D5 JUMP JUMPDEST SWAP3 SWAP2 POP POP JUMP JUMPDEST PUSH1 0x0 PUSH1 0x40 MLOAD SWAP1 POP SWAP1 JUMP JUMPDEST PUSH1 0x0 DUP1 REVERT JUMPDEST PUSH1 0x0 DUP1 REVERT JUMPDEST PUSH2 0x71C DUP2 PUSH2 0x6CB JUMP JUMPDEST DUP2 EQ PUSH2 0x727 JUMPI PUSH1 0x0 DUP1 REVERT JUMPDEST POP JUMP JUMPDEST PUSH1 0x0 DUP2 CALLDATALOAD SWAP1 POP PUSH2 0x739 DUP2 PUSH2 0x713 JUMP JUMPDEST SWAP3 SWAP2 POP POP JUMP JUMPDEST PUSH1 0x0 PUSH1 0x20 DUP3 DUP5 SUB SLT ISZERO PUSH2 0x755 JUMPI PUSH2 0x754 PUSH2 0x709 JUMP JUMPDEST JUMPDEST PUSH1 0x0 PUSH2 0x763 DUP5 DUP3 DUP6 ADD PUSH2 0x72A JUMP JUMPDEST SWAP2 POP POP SWAP3 SWAP2 POP POP JUMP JUMPDEST PUSH1 0x0 DUP2 MLOAD SWAP1 POP SWAP2 SWAP1 POP JUMP JUMPDEST PUSH1 0x0 DUP3 DUP3 MSTORE PUSH1 0x20 DUP3 ADD SWAP1 POP SWAP3 SWAP2 POP POP JUMP JUMPDEST PUSH1 0x0 JUMPDEST DUP4 DUP2 LT ISZERO PUSH2 0x7A6 JUMPI DUP1 DUP3 ADD MLOAD DUP2 DUP5 ADD MSTORE PUSH1 0x20 DUP2 ADD SWAP1 POP PUSH2 0x78B JUMP JUMPDEST PUSH1 0x0 DUP5 DUP5 ADD MSTORE POP POP POP POP JUMP JUMPDEST PUSH1 0x0 PUSH1 0x1F NOT PUSH1 0x1F DUP4 ADD AND SWAP1 POP SWAP2 SWAP1 POP JUMP JUMPDEST PUSH1 0x0 PUSH2 0x7CE DUP3 PUSH2 0x76C JUMP JUMPDEST PUSH2 0x7D8 DUP2 DUP6 PUSH2 0x777 JUMP JUMPDEST SWAP4 POP PUSH2 0x7E8 DUP2 DUP6 PUSH1 0x20 DUP7 ADD PUSH2 0x788 JUMP JUMPDEST PUSH2 0x7F1 DUP2 PUSH2 0x7B2 JUMP JUMPDEST DUP5 ADD SWAP2 POP POP SWAP3 SWAP2 POP POP JUMP JUMPDEST PUSH1 0x0 PUSH1 0x40 DUP3 ADD SWAP1 POP PUSH2 0x811 PUSH1 0x0 DUP4 ADD DUP6 PUSH2 0x6D5 JUMP JUMPDEST DUP2 DUP2 SUB PUSH1 0x20 DUP4 ADD MSTORE PUSH2 0x823 DUP2 DUP5 PUSH2 0x7C3 JUMP JUMPDEST SWAP1 POP SWAP4 SWAP3 POP POP POP JUMP JUMPDEST PUSH1 0x0 PUSH1 0x60 DUP3 ADD SWAP1 POP PUSH2 0x841 PUSH1 0x0 DUP4 ADD DUP7 PUSH2 0x6D5 JUMP JUMPDEST DUP2 DUP2 SUB PUSH1 0x20 DUP4 ADD MSTORE PUSH2 0x853 DUP2 DUP6 PUSH2 0x7C3 JUMP JUMPDEST SWAP1 POP PUSH2 0x862 PUSH1 0x40 DUP4 ADD DUP5 PUSH2 0x6D5 JUMP JUMPDEST SWAP5 SWAP4 POP POP POP POP JUMP JUMPDEST PUSH1 0x0 DUP1 REVERT JUMPDEST PUSH1 0x0 DUP1 REVERT JUMPDEST PUSH32 0x4E487B7100000000000000000000000000000000000000000000000000000000 PUSH1 0x0 MSTORE PUSH1 0x41 PUSH1 0x4 MSTORE PUSH1 0x24 PUSH1 0x0 REVERT JUMPDEST PUSH2 0x8AC DUP3 PUSH2 0x7B2 JUMP JUMPDEST DUP2 ADD DUP2 DUP2 LT PUSH8 0xFFFFFFFFFFFFFFFF DUP3 GT OR ISZERO PUSH2 0x8CB JUMPI PUSH2 0x8CA PUSH2 0x874 JUMP JUMPDEST JUMPDEST DUP1 PUSH1 0x40 MSTORE POP POP POP JUMP JUMPDEST PUSH1 0x0 PUSH2 0x8DE PUSH2 0x6FF JUMP JUMPDEST SWAP1 POP PUSH2 0x8EA DUP3 DUP3 PUSH2 0x8A3 JUMP JUMPDEST SWAP2 SWAP1 POP JUMP JUMPDEST PUSH1 0x0 PUSH8 0xFFFFFFFFFFFFFFFF DUP3 GT ISZERO PUSH2 0x90A JUMPI PUSH2 0x909 PUSH2 0x874 JUMP JUMPDEST JUMPDEST PUSH2 0x913 DUP3 PUSH2 0x7B2 JUMP JUMPDEST SWAP1 POP PUSH1 0x20 DUP2 ADD SWAP1 POP SWAP2 SWAP1 POP JUMP JUMPDEST DUP3 DUP2 DUP4 CALLDATACOPY PUSH1 0x0 DUP4 DUP4 ADD MSTORE POP POP POP JUMP JUMPDEST PUSH1 0x0 PUSH2 0x942 PUSH2 0x93D DUP5 PUSH2 0x8EF JUMP JUMPDEST PUSH2 0x8D4 JUMP JUMPDEST SWAP1 POP DUP3 DUP2 MSTORE PUSH1 0x20 DUP2 ADD DUP5 DUP5 DUP5 ADD GT ISZERO PUSH2 0x95E JUMPI PUSH2 0x95D PUSH2 0x86F JUMP JUMPDEST JUMPDEST PUSH2 0x969 DUP5 DUP3 DUP6 PUSH2 0x920 JUMP JUMPDEST POP SWAP4 SWAP3 POP POP POP JUMP JUMPDEST PUSH1 0x0 DUP3 PUSH1 0x1F DUP4 ADD SLT PUSH2 0x986 JUMPI PUSH2 0x985 PUSH2 0x86A JUMP JUMPDEST JUMPDEST DUP2 CALLDATALOAD PUSH2 0x996 DUP5 DUP3 PUSH1 0x20 DUP7 ADD PUSH2 0x92F JUMP JUMPDEST SWAP2 POP POP SWAP3 SWAP2 POP POP JUMP JUMPDEST PUSH1 0x0 DUP1 PUSH1 0x40 DUP4 DUP6 SUB SLT ISZERO PUSH2 0x9B6 JUMPI PUSH2 0x9B5 PUSH2 0x709 JUMP JUMPDEST JUMPDEST PUSH1 0x0 PUSH2 0x9C4 DUP6 DUP3 DUP7 ADD PUSH2 0x72A JUMP JUMPDEST SWAP3 POP POP PUSH1 0x20 DUP4 ADD CALLDATALOAD PUSH8 0xFFFFFFFFFFFFFFFF DUP2 GT ISZERO PUSH2 0x9E5 JUMPI PUSH2 0x9E4 PUSH2 0x70E JUMP JUMPDEST JUMPDEST PUSH2 0x9F1 DUP6 DUP3 DUP7 ADD PUSH2 0x971 JUMP JUMPDEST SWAP2 POP POP SWAP3 POP SWAP3 SWAP1 POP JUMP JUMPDEST PUSH1 0x0 DUP1 PUSH1 0x40 DUP4 DUP6 SUB SLT ISZERO PUSH2 0xA12 JUMPI PUSH2 0xA11 PUSH2 0x709 JUMP JUMPDEST JUMPDEST PUSH1 0x0 PUSH2 0xA20 DUP6 DUP3 DUP7 ADD PUSH2 0x72A JUMP JUMPDEST SWAP3 POP POP PUSH1 0x20 PUSH2 0xA31 DUP6 DUP3 DUP7 ADD PUSH2 0x72A JUMP JUMPDEST SWAP2 POP POP SWAP3 POP SWAP3 SWAP1 POP JUMP JUMPDEST PUSH2 0xA44 DUP2 PUSH2 0x6CB JUMP JUMPDEST DUP3 MSTORE POP POP JUMP JUMPDEST PUSH1 0x0 DUP3 DUP3 MSTORE PUSH1 0x20 DUP3 ADD SWAP1 POP SWAP3 SWAP2 POP POP JUMP JUMPDEST PUSH1 0x0 PUSH2 0xA66 DUP3 PUSH2 0x76C JUMP JUMPDEST PUSH2 0xA70 DUP2 DUP6 PUSH2 0xA4A JUMP JUMPDEST SWAP4 POP PUSH2 0xA80 DUP2 DUP6 PUSH1 0x20 DUP7 ADD PUSH2 0x788 JUMP JUMPDEST PUSH2 0xA89 DUP2 PUSH2 0x7B2 JUMP JUMPDEST DUP5 ADD SWAP2 POP POP SWAP3 SWAP2 POP POP JUMP JUMPDEST PUSH1 0x0 PUSH1 0x40 DUP4 ADD PUSH1 0x0 DUP4 ADD MLOAD PUSH2 0xAAC PUSH1 0x0 DUP7 ADD DUP3 PUSH2 0xA3B JUMP JUMPDEST POP PUSH1 0x20 DUP4 ADD MLOAD DUP5 DUP3 SUB PUSH1 0x20 DUP7 ADD MSTORE PUSH2 0xAC4 DUP3 DUP3 PUSH2 0xA5B JUMP JUMPDEST SWAP2 POP POP DUP1 SWAP2 POP POP SWAP3 SWAP2 POP POP JUMP JUMPDEST PUSH1 0x0 PUSH1 0x40 DUP3 ADD SWAP1 POP DUP2 DUP2 SUB PUSH1 0x0 DUP4 ADD MSTORE PUSH2 0xAEB DUP2 DUP6 PUSH2 0xA94 JUMP JUMPDEST SWAP1 POP PUSH2 0xAFA PUSH1 0x20 DUP4 ADD DUP5 PUSH2 0x6D5 JUMP JUMPDEST SWAP4 SWAP3 POP POP POP JUMP JUMPDEST PUSH1 0x0 DUP1 PUSH1 0x0 PUSH1 0x60 DUP5 DUP7 SUB SLT ISZERO PUSH2 0xB1A JUMPI PUSH2 0xB19 PUSH2 0x709 JUMP JUMPDEST JUMPDEST PUSH1 0x0 PUSH2 0xB28 DUP7 DUP3 DUP8 ADD PUSH2 0x72A JUMP JUMPDEST SWAP4 POP POP PUSH1 0x20 DUP5 ADD CALLDATALOAD PUSH8 0xFFFFFFFFFFFFFFFF DUP2 GT ISZERO PUSH2 0xB49 JUMPI PUSH2 0xB48 PUSH2 0x70E JUMP JUMPDEST JUMPDEST PUSH2 0xB55 DUP7 DUP3 DUP8 ADD PUSH2 0x971 JUMP JUMPDEST SWAP3 POP POP PUSH1 0x40 PUSH2 0xB66 DUP7 DUP3 DUP8 ADD PUSH2 0x72A JUMP JUMPDEST SWAP2 POP POP SWAP3 POP SWAP3 POP SWAP3 JUMP JUMPDEST PUSH32 0x4E487B7100000000000000000000000000000000000000000000000000000000 PUSH1 0x0 MSTORE PUSH1 0x32 PUSH1 0x4 MSTORE PUSH1 0x24 PUSH1 0x0 REVERT JUMPDEST PUSH32 0x4E487B7100000000000000000000000000000000000000000000000000000000 PUSH1 0x0 MSTORE PUSH1 0x22 PUSH1 0x4 MSTORE PUSH1 0x24 PUSH1 0x0 REVERT JUMPDEST PUSH1 0x0 PUSH1 0x2 DUP3 DIV SWAP1 POP PUSH1 0x1 DUP3 AND DUP1 PUSH2 0xBE6 JUMPI PUSH1 0x7F DUP3 AND SWAP2 POP JUMPDEST PUSH1 0x20 DUP3 LT DUP2 SUB PUSH2 0xBF9 JUMPI PUSH2 0xBF8 PUSH2 0xB9F JUMP JUMPDEST JUMPDEST POP SWAP2 SWAP1 POP JUMP JUMPDEST PUSH1 0x0 DUP2 SWAP1 POP DUP2 PUSH1 0x0 MSTORE PUSH1 0x20 PUSH1 0x0 KECCAK256 SWAP1 POP SWAP2 SWAP1 POP JUMP JUMPDEST PUSH1 0x0 PUSH1 0x20 PUSH1 0x1F DUP4 ADD DIV SWAP1 POP SWAP2 SWAP1 POP JUMP JUMPDEST PUSH1 0x0 DUP3 DUP3 SHL SWAP1 POP SWAP3 SWAP2 POP POP JUMP JUMPDEST PUSH1 0x0 PUSH1 0x8 DUP4 MUL PUSH2 0xC61 PUSH32 0xFFFFFFFFFFFFFFFFFFFFFFFFFFFFFFFFFFFFFFFFFFFFFFFFFFFFFFFFFFFFFFFF DUP3 PUSH2 0xC24 JUMP JUMPDEST PUSH2 0xC6B DUP7 DUP4 PUSH2 0xC24 JUMP JUMPDEST SWAP6 POP DUP1 NOT DUP5 AND SWAP4 POP DUP1 DUP7 AND DUP5 OR SWAP3 POP POP POP SWAP4 SWAP3 POP POP POP JUMP JUMPDEST PUSH1 0x0 DUP2 SWAP1 POP SWAP2 SWAP1 POP JUMP JUMPDEST PUSH1 0x0 PUSH2 0xCA8 PUSH2 0xCA3 PUSH2 0xC9E DUP5 PUSH2 0x6CB JUMP JUMPDEST PUSH2 0xC83 JUMP JUMPDEST PUSH2 0x6CB JUMP JUMPDEST SWAP1 POP SWAP2 SWAP1 POP JUMP JUMPDEST PUSH1 0x0 DUP2 SWAP1 POP SWAP2 SWAP1 POP JUMP JUMPDEST PUSH2 0xCC2 DUP4 PUSH2 0xC8D JUMP JUMPDEST PUSH2 0xCD6 PUSH2 0xCCE DUP3 PUSH2 0xCAF JUMP JUMPDEST DUP5 DUP5 SLOAD PUSH2 0xC31 JUMP JUMPDEST DUP3 SSTORE POP POP POP POP JUMP JUMPDEST PUSH1 0x0 SWAP1 JUMP JUMPDEST PUSH2 0xCEB PUSH2 0xCDE JUMP JUMPDEST PUSH2 0xCF6 DUP2 DUP5 DUP5 PUSH2 0xCB9 JUMP JUMPDEST POP POP POP JUMP JUMPDEST JUMPDEST DUP2 DUP2 LT ISZERO PUSH2 0xD1A JUMPI PUSH2 0xD0F PUSH1 0x0 DUP3 PUSH2 0xCE3 JUMP JUMPDEST PUSH1 0x1 DUP2 ADD SWAP1 POP PUSH2 0xCFC JUMP JUMPDEST POP POP JUMP JUMPDEST PUSH1 0x1F DUP3 GT ISZERO PUSH2 0xD5F JUMPI PUSH2 0xD30 DUP2 PUSH2 0xBFF JUMP JUMPDEST PUSH2 0xD39 DUP5 PUSH2 0xC14 JUMP JUMPDEST DUP2 ADD PUSH1 0x20 DUP6 LT ISZERO PUSH2 0xD48 JUMPI DUP2 SWAP1 POP JUMPDEST PUSH2 0xD5C PUSH2 0xD54 DUP6 PUSH2 0xC14 JUMP JUMPDEST DUP4 ADD DUP3 PUSH2 0xCFB JUMP JUMPDEST POP POP JUMPDEST POP POP POP JUMP JUMPDEST PUSH1 0x0 DUP3 DUP3 SHR SWAP1 POP SWAP3 SWAP2 POP POP JUMP JUMPDEST PUSH1 0x0 PUSH2 0xD82 PUSH1 0x0 NOT DUP5 PUSH1 0x8 MUL PUSH2 0xD64 JUMP JUMPDEST NOT DUP1 DUP4 AND SWAP2 POP POP SWAP3 SWAP2 POP POP JUMP JUMPDEST PUSH1 0x0 PUSH2 0xD9B DUP4 DUP4 PUSH2 0xD71 JUMP JUMPDEST SWAP2 POP DUP3 PUSH1 0x2 MUL DUP3 OR SWAP1 POP SWAP3 SWAP2 POP POP JUMP JUMPDEST PUSH2 0xDB4 DUP3 PUSH2 0x76C JUMP JUMPDEST PUSH8 0xFFFFFFFFFFFFFFFF DUP2 GT ISZERO PUSH2 0xDCD JUMPI PUSH2 0xDCC PUSH2 0x874 JUMP JUMPDEST JUMPDEST PUSH2 0xDD7 DUP3 SLOAD PUSH2 0xBCE JUMP JUMPDEST PUSH2 0xDE2 DUP3 DUP3 DUP6 PUSH2 0xD1E JUMP JUMPDEST PUSH1 0x0 PUSH1 0x20 SWAP1 POP PUSH1 0x1F DUP4 GT PUSH1 0x1 DUP2 EQ PUSH2 0xE15 JUMPI PUSH1 0x0 DUP5 ISZERO PUSH2 0xE03 JUMPI DUP3 DUP8 ADD MLOAD SWAP1 POP JUMPDEST PUSH2 0xE0D DUP6 DUP3 PUSH2 0xD8F JUMP JUMPDEST DUP7 SSTORE POP PUSH2 0xE75 JUMP JUMPDEST PUSH1 0x1F NOT DUP5 AND PUSH2 0xE23 DUP7 PUSH2 0xBFF JUMP JUMPDEST PUSH1 0x0 JUMPDEST DUP3 DUP2 LT ISZERO PUSH2 0xE4B JUMPI DUP5 DUP10 ADD MLOAD DUP3 SSTORE PUSH1 0x1 DUP3 ADD SWAP2 POP PUSH1 0x20 DUP6 ADD SWAP5 POP PUSH1 0x20 DUP2 ADD SWAP1 POP PUSH2 0xE26 JUMP JUMPDEST DUP7 DUP4 LT ISZERO PUSH2 0xE68 JUMPI DUP5 DUP10 ADD MLOAD PUSH2 0xE64 PUSH1 0x1F DUP10 AND DUP3 PUSH2 0xD71 JUMP JUMPDEST DUP4 SSTORE POP JUMPDEST PUSH1 0x1 PUSH1 0x2 DUP9 MUL ADD DUP9 SSTORE POP POP POP JUMPDEST POP POP POP POP POP POP JUMP INVALID LOG2 PUSH5 0x6970667358 0x22 SLT KECCAK256 0xF6 SAR SWAP2 SWAP12 0xBA 0xBA 0xE 0xE7 0xCA SDIV JUMP 0xCE 0x23 0xAC 0xE7 0xC2 DUP14 ADD MOD 0xC0 0xFC 0xB7 0x21 DUP12 0xB2 MULMOD 0xD4 INVALID DELEGATECALL 0x26 PUSH21 0x5764736F6C63430008110033000000000000000000 "
		},
		"gasEstimates": {
			"creation": {
				"codeDepositCost": "752600",
				"executionCost": "786",
				"totalCost": "753386"
			},
			"external": {
				"agregarEmpleado(uint256,string,uint256)": "infinite",
				"agregarPersona(uint256,string)": "infinite",
				"cambiarSalario(uint256,uint256)": "infinite",
				"empleadosInfo(uint256)": "infinite",
				"getEmpleado(uint256)": "infinite",
				"getEmpleadosLength()": "2445",
				"getPersona(uint256)": "infinite",
				"getPersonasLength()": "2446",
				"personas(uint256)": "infinite"
			}
		},
		"methodIdentifiers": {
			"agregarEmpleado(uint256,string,uint256)": "a35fe0b6",
			"agregarPersona(uint256,string)": "56722990",
			"cambiarSalario(uint256,uint256)": "80e808a8",
			"empleadosInfo(uint256)": "9e7be36f",
			"getEmpleado(uint256)": "1fcea3fa",
			"getEmpleadosLength()": "462c6af0",
			"getPersona(uint256)": "14f9dc8b",
			"getPersonasLength()": "0a49322a",
			"personas(uint256)": "40291e6a"
		}
	},
	"abi": [
		{
			"inputs": [
				{
					"internalType": "uint256",
					"name": "_edad",
					"type": "uint256"
				},
				{
					"internalType": "string",
					"name": "_nombre",
					"type": "string"
				},
				{
					"internalType": "uint256",
					"name": "_salario",
					"type": "uint256"
				}
			],
			"name": "agregarEmpleado",
			"outputs": [],
			"stateMutability": "nonpayable",
			"type": "function"
		},
		{
			"inputs": [
				{
					"internalType": "uint256",
					"name": "_edad",
					"type": "uint256"
				},
				{
					"internalType": "string",
					"name": "_nombre",
					"type": "string"
				}
			],
			"name": "agregarPersona",
			"outputs": [],
			"stateMutability": "nonpayable",
			"type": "function"
		},
		{
			"inputs": [
				{
					"internalType": "uint256",
					"name": "index",
					"type": "uint256"
				},
				{
					"internalType": "uint256",
					"name": "nuevoSalario",
					"type": "uint256"
				}
			],
			"name": "cambiarSalario",
			"outputs": [],
			"stateMutability": "nonpayable",
			"type": "function"
		},
		{
			"inputs": [
				{
					"internalType": "uint256",
					"name": "",
					"type": "uint256"
				}
			],
			"name": "empleadosInfo",
			"outputs": [
				{
					"components": [
						{
							"internalType": "uint256",
							"name": "edad",
							"type": "uint256"
						},
						{
							"internalType": "string",
							"name": "nombre",
							"type": "string"
						}
					],
					"internalType": "struct Personas.Persona",
					"name": "persona",
					"type": "tuple"
				},
				{
					"internalType": "uint256",
					"name": "salario",
					"type": "uint256"
				}
			],
			"stateMutability": "view",
			"type": "function"
		},
		{
			"inputs": [
				{
					"internalType": "uint256",
					"name": "index",
					"type": "uint256"
				}
			],
			"name": "getEmpleado",
			"outputs": [
				{
					"internalType": "uint256",
					"name": "",
					"type": "uint256"
				},
				{
					"internalType": "string",
					"name": "",
					"type": "string"
				},
				{
					"internalType": "uint256",
					"name": "",
					"type": "uint256"
				}
			],
			"stateMutability": "view",
			"type": "function"
		},
		{
			"inputs": [],
			"name": "getEmpleadosLength",
			"outputs": [
				{
					"internalType": "uint256",
					"name": "",
					"type": "uint256"
				}
			],
			"stateMutability": "view",
			"type": "function"
		},
		{
			"inputs": [
				{
					"internalType": "uint256",
					"name": "index",
					"type": "uint256"
				}
			],
			"name": "getPersona",
			"outputs": [
				{
					"internalType": "uint256",
					"name": "",
					"type": "uint256"
				},
				{
					"internalType": "string",
					"name": "",
					"type": "string"
				}
			],
			"stateMutability": "view",
			"type": "function"
		},
		{
			"inputs": [],
			"name": "getPersonasLength",
			"outputs": [
				{
					"internalType": "uint256",
					"name": "",
					"type": "uint256"
				}
			],
			"stateMutability": "view",
			"type": "function"
		},
		{
			"inputs": [
				{
					"internalType": "uint256",
					"name": "",
					"type": "uint256"
				}
			],
			"name": "personas",
			"outputs": [
				{
					"internalType": "uint256",
					"name": "edad",
					"type": "uint256"
				},
				{
					"internalType": "string",
					"name": "nombre",
					"type": "string"
				}
			],
			"stateMutability": "view",
			"type": "function"
		}
	]
}