{
	"contracts/DuleceHalloween.sol": {
		"DulceHalloween": {
			"abi": [
				{
					"inputs": [],
					"stateMutability": "nonpayable",
					"type": "constructor"
				},
				{
					"anonymous": false,
					"inputs": [
						{
							"indexed": true,
							"internalType": "address",
							"name": "user",
							"type": "address"
						},
						{
							"indexed": false,
							"internalType": "string",
							"name": "dulce",
							"type": "string"
						}
					],
					"name": "TrucooTrato",
					"type": "event"
				},
				{
					"inputs": [
						{
							"internalType": "address",
							"name": "",
							"type": "address"
						}
					],
					"name": "bolsa",
					"outputs": [
						{
							"internalType": "string",
							"name": "nombre",
							"type": "string"
						},
						{
							"internalType": "string",
							"name": "color",
							"type": "string"
						}
					],
					"stateMutability": "view",
					"type": "function"
				},
				{
					"inputs": [
						{
							"internalType": "uint256",
							"name": "",
							"type": "uint256"
						}
					],
					"name": "dulces",
					"outputs": [
						{
							"internalType": "string",
							"name": "nombre",
							"type": "string"
						},
						{
							"internalType": "string",
							"name": "color",
							"type": "string"
						}
					],
					"stateMutability": "view",
					"type": "function"
				},
				{
					"inputs": [],
					"name": "trucooTrato",
					"outputs": [],
					"stateMutability": "nonpayable",
					"type": "function"
				}
			],
			"devdoc": {
				"kind": "dev",
				"methods": {},
				"version": 1
			},
			"evm": {
				"assembly": "    /* \"contracts/DuleceHalloween.sol\":123:1404  contract DulceHalloween {... */\n  mstore(0x40, 0x80)\n    /* \"contracts/DuleceHalloween.sol\":656:831  constructor() {... */\n  callvalue\n  dup1\n  iszero\n  tag_1\n  jumpi\n  0x00\n  dup1\n  revert\ntag_1:\n  pop\n    /* \"contracts/DuleceHalloween.sol\":680:686  dulces */\n  0x00\n    /* \"contracts/DuleceHalloween.sol\":692:720  Dulce(\"Calabaza\", \"Naranja\") */\n  mload(0x40)\n  dup1\n  0x40\n  add\n  0x40\n  mstore\n  dup1\n  mload(0x40)\n  dup1\n  0x40\n  add\n  0x40\n  mstore\n  dup1\n  0x08\n  dup2\n  mstore\n  0x20\n  add\n  0x43616c6162617a61000000000000000000000000000000000000000000000000\n  dup2\n  mstore\n  pop\n  dup2\n  mstore\n  0x20\n  add\n  mload(0x40)\n  dup1\n  0x40\n  add\n  0x40\n  mstore\n  dup1\n  0x07\n  dup2\n  mstore\n  0x20\n  add\n  0x4e6172616e6a6100000000000000000000000000000000000000000000000000\n  dup2\n  mstore\n  pop\n  dup2\n  mstore\n  pop\n    /* \"contracts/DuleceHalloween.sol\":680:721  dulces.push(Dulce(\"Calabaza\", \"Naranja\")) */\n  swap1\n  dup1\n  0x01\n  dup2\n  sload\n  add\n  dup1\n  dup3\n  sstore\n  dup1\n  swap2\n  pop\n  pop\n  0x01\n  swap1\n  sub\n  swap1\n  0x00\n  mstore\n  keccak256(0x00, 0x20)\n  swap1\n  0x02\n  mul\n  add\n  0x00\n  swap1\n  swap2\n  swap1\n  swap2\n  swap1\n  swap2\n  pop\n  0x00\n  dup3\n  add\n  mload\n  dup2\n  0x00\n  add\n  swap1\n  dup1\n  mload\n  swap1\n  0x20\n  add\n  swap1\n  tag_5\n  swap3\n  swap2\n  swap1\n  tag_6\n  jump\t// in\ntag_5:\n  pop\n  0x20\n  dup3\n  add\n  mload\n  dup2\n  0x01\n  add\n  swap1\n  dup1\n  mload\n  swap1\n  0x20\n  add\n  swap1\n  tag_7\n  swap3\n  swap2\n  swap1\n  tag_6\n  jump\t// in\ntag_7:\n  pop\n  pop\n  pop\n    /* \"contracts/DuleceHalloween.sol\":731:737  dulces */\n  0x00\n    /* \"contracts/DuleceHalloween.sol\":743:771  Dulce(\"Murcielago\", \"Negro\") */\n  mload(0x40)\n  dup1\n  0x40\n  add\n  0x40\n  mstore\n  dup1\n  mload(0x40)\n  dup1\n  0x40\n  add\n  0x40\n  mstore\n  dup1\n  0x0a\n  dup2\n  mstore\n  0x20\n  add\n  0x4d75726369656c61676f00000000000000000000000000000000000000000000\n  dup2\n  mstore\n  pop\n  dup2\n  mstore\n  0x20\n  add\n  mload(0x40)\n  dup1\n  0x40\n  add\n  0x40\n  mstore\n  dup1\n  0x05\n  dup2\n  mstore\n  0x20\n  add\n  0x4e6567726f000000000000000000000000000000000000000000000000000000\n  dup2\n  mstore\n  pop\n  dup2\n  mstore\n  pop\n    /* \"contracts/DuleceHalloween.sol\":731:772  dulces.push(Dulce(\"Murcielago\", \"Negro\")) */\n  swap1\n  dup1\n  0x01\n  dup2\n  sload\n  add\n  dup1\n  dup3\n  sstore\n  dup1\n  swap2\n  pop\n  pop\n  0x01\n  swap1\n  sub\n  swap1\n  0x00\n  mstore\n  keccak256(0x00, 0x20)\n  swap1\n  0x02\n  mul\n  add\n  0x00\n  swap1\n  swap2\n  swap1\n  swap2\n  swap1\n  swap2\n  pop\n  0x00\n  dup3\n  add\n  mload\n  dup2\n  0x00\n  add\n  swap1\n  dup1\n  mload\n  swap1\n  0x20\n  add\n  swap1\n  tag_9\n  swap3\n  swap2\n  swap1\n  tag_6\n  jump\t// in\ntag_9:\n  pop\n  0x20\n  dup3\n  add\n  mload\n  dup2\n  0x01\n  add\n  swap1\n  dup1\n  mload\n  swap1\n  0x20\n  add\n  swap1\n  tag_10\n  swap3\n  swap2\n  swap1\n  tag_6\n  jump\t// in\ntag_10:\n  pop\n  pop\n  pop\n    /* \"contracts/DuleceHalloween.sol\":783:789  dulces */\n  0x00\n    /* \"contracts/DuleceHalloween.sol\":795:823  Dulce(\"Murcielago\", \"Negro\") */\n  mload(0x40)\n  dup1\n  0x40\n  add\n  0x40\n  mstore\n  dup1\n  mload(0x40)\n  dup1\n  0x40\n  add\n  0x40\n  mstore\n  dup1\n  0x0a\n  dup2\n  mstore\n  0x20\n  add\n  0x4d75726369656c61676f00000000000000000000000000000000000000000000\n  dup2\n  mstore\n  pop\n  dup2\n  mstore\n  0x20\n  add\n  mload(0x40)\n  dup1\n  0x40\n  add\n  0x40\n  mstore\n  dup1\n  0x05\n  dup2\n  mstore\n  0x20\n  add\n  0x4e6567726f000000000000000000000000000000000000000000000000000000\n  dup2\n  mstore\n  pop\n  dup2\n  mstore\n  pop\n    /* \"contracts/DuleceHalloween.sol\":783:824  dulces.push(Dulce(\"Murcielago\", \"Negro\")) */\n  swap1\n  dup1\n  0x01\n  dup2\n  sload\n  add\n  dup1\n  dup3\n  sstore\n  dup1\n  swap2\n  pop\n  pop\n  0x01\n  swap1\n  sub\n  swap1\n  0x00\n  mstore\n  keccak256(0x00, 0x20)\n  swap1\n  0x02\n  mul\n  add\n  0x00\n  swap1\n  swap2\n  swap1\n  swap2\n  swap1\n  swap2\n  pop\n  0x00\n  dup3\n  add\n  mload\n  dup2\n  0x00\n  add\n  swap1\n  dup1\n  mload\n  swap1\n  0x20\n  add\n  swap1\n  tag_12\n  swap3\n  swap2\n  swap1\n  tag_6\n  jump\t// in\ntag_12:\n  pop\n  0x20\n  dup3\n  add\n  mload\n  dup2\n  0x01\n  add\n  swap1\n  dup1\n  mload\n  swap1\n  0x20\n  add\n  swap1\n  tag_13\n  swap3\n  swap2\n  swap1\n  tag_6\n  jump\t// in\ntag_13:\n  pop\n  pop\n  pop\n    /* \"contracts/DuleceHalloween.sol\":123:1404  contract DulceHalloween {... */\n  jump(tag_14)\ntag_6:\n  dup3\n  dup1\n  sload\n  tag_15\n  swap1\n  tag_16\n  jump\t// in\ntag_15:\n  swap1\n  0x00\n  mstore\n  keccak256(0x00, 0x20)\n  swap1\n  0x1f\n  add\n  0x20\n  swap1\n  div\n  dup2\n  add\n  swap3\n  dup3\n  tag_18\n  jumpi\n  0x00\n  dup6\n  sstore\n  jump(tag_17)\ntag_18:\n  dup3\n  0x1f\n  lt\n  tag_19\n  jumpi\n  dup1\n  mload\n  not(0xff)\n  and\n  dup4\n  dup1\n  add\n  or\n  dup6\n  sstore\n  jump(tag_17)\ntag_19:\n  dup3\n  dup1\n  add\n  0x01\n  add\n  dup6\n  sstore\n  dup3\n  iszero\n  tag_17\n  jumpi\n  swap2\n  dup3\n  add\ntag_20:\n  dup3\n  dup2\n  gt\n  iszero\n  tag_21\n  jumpi\n  dup3\n  mload\n  dup3\n  sstore\n  swap2\n  0x20\n  add\n  swap2\n  swap1\n  0x01\n  add\n  swap1\n  jump(tag_20)\ntag_21:\ntag_17:\n  pop\n  swap1\n  pop\n  tag_22\n  swap2\n  swap1\n  tag_23\n  jump\t// in\ntag_22:\n  pop\n  swap1\n  jump\t// out\ntag_23:\ntag_24:\n  dup1\n  dup3\n  gt\n  iszero\n  tag_25\n  jumpi\n  0x00\n  dup2\n  0x00\n  swap1\n  sstore\n  pop\n  0x01\n  add\n  jump(tag_24)\ntag_25:\n  pop\n  swap1\n  jump\t// out\n    /* \"#utility.yul\":7:187   */\ntag_26:\n    /* \"#utility.yul\":55:132   */\n  0x4e487b7100000000000000000000000000000000000000000000000000000000\n    /* \"#utility.yul\":52:53   */\n  0x00\n    /* \"#utility.yul\":45:133   */\n  mstore\n    /* \"#utility.yul\":152:156   */\n  0x22\n    /* \"#utility.yul\":149:150   */\n  0x04\n    /* \"#utility.yul\":142:157   */\n  mstore\n    /* \"#utility.yul\":176:180   */\n  0x24\n    /* \"#utility.yul\":173:174   */\n  0x00\n    /* \"#utility.yul\":166:181   */\n  revert\n    /* \"#utility.yul\":193:513   */\ntag_16:\n    /* \"#utility.yul\":237:243   */\n  0x00\n    /* \"#utility.yul\":274:275   */\n  0x02\n    /* \"#utility.yul\":268:272   */\n  dup3\n    /* \"#utility.yul\":264:276   */\n  div\n    /* \"#utility.yul\":254:276   */\n  swap1\n  pop\n    /* \"#utility.yul\":321:322   */\n  0x01\n    /* \"#utility.yul\":315:319   */\n  dup3\n    /* \"#utility.yul\":311:323   */\n  and\n    /* \"#utility.yul\":342:360   */\n  dup1\n    /* \"#utility.yul\":332:413   */\n  tag_30\n  jumpi\n    /* \"#utility.yul\":398:402   */\n  0x7f\n    /* \"#utility.yul\":390:396   */\n  dup3\n    /* \"#utility.yul\":386:403   */\n  and\n    /* \"#utility.yul\":376:403   */\n  swap2\n  pop\n    /* \"#utility.yul\":332:413   */\ntag_30:\n    /* \"#utility.yul\":460:462   */\n  0x20\n    /* \"#utility.yul\":452:458   */\n  dup3\n    /* \"#utility.yul\":449:463   */\n  lt\n    /* \"#utility.yul\":429:447   */\n  dup2\n    /* \"#utility.yul\":426:464   */\n  sub\n    /* \"#utility.yul\":423:507   */\n  tag_31\n  jumpi\n    /* \"#utility.yul\":479:497   */\n  tag_32\n  tag_26\n  jump\t// in\ntag_32:\n    /* \"#utility.yul\":423:507   */\ntag_31:\n    /* \"#utility.yul\":244:513   */\n  pop\n    /* \"#utility.yul\":193:513   */\n  swap2\n  swap1\n  pop\n  jump\t// out\n    /* \"contracts/DuleceHalloween.sol\":123:1404  contract DulceHalloween {... */\ntag_14:\n  dataSize(sub_0)\n  dup1\n  dataOffset(sub_0)\n  0x00\n  codecopy\n  0x00\n  return\nstop\n\nsub_0: assembly {\n        /* \"contracts/DuleceHalloween.sol\":123:1404  contract DulceHalloween {... */\n      mstore(0x40, 0x80)\n      callvalue\n      dup1\n      iszero\n      tag_1\n      jumpi\n      0x00\n      dup1\n      revert\n    tag_1:\n      pop\n      jumpi(tag_2, lt(calldatasize, 0x04))\n      shr(0xe0, calldataload(0x00))\n      dup1\n      0x72e84e45\n      eq\n      tag_3\n      jumpi\n      dup1\n      0x77c31b4c\n      eq\n      tag_4\n      jumpi\n      dup1\n      0xd7055097\n      eq\n      tag_5\n      jumpi\n    tag_2:\n      0x00\n      dup1\n      revert\n        /* \"contracts/DuleceHalloween.sol\":460:498  mapping(address => Dulce) public bolsa */\n    tag_3:\n      tag_6\n      0x04\n      dup1\n      calldatasize\n      sub\n      dup2\n      add\n      swap1\n      tag_7\n      swap2\n      swap1\n      tag_8\n      jump\t// in\n    tag_7:\n      tag_9\n      jump\t// in\n    tag_6:\n      mload(0x40)\n      tag_10\n      swap3\n      swap2\n      swap1\n      tag_11\n      jump\t// in\n    tag_10:\n      mload(0x40)\n      dup1\n      swap2\n      sub\n      swap1\n      return\n        /* \"contracts/DuleceHalloween.sol\":432:453  Dulce[] public dulces */\n    tag_4:\n      tag_12\n      0x04\n      dup1\n      calldatasize\n      sub\n      dup2\n      add\n      swap1\n      tag_13\n      swap2\n      swap1\n      tag_14\n      jump\t// in\n    tag_13:\n      tag_15\n      jump\t// in\n    tag_12:\n      mload(0x40)\n      tag_16\n      swap3\n      swap2\n      swap1\n      tag_11\n      jump\t// in\n    tag_16:\n      mload(0x40)\n      dup1\n      swap2\n      sub\n      swap1\n      return\n        /* \"contracts/DuleceHalloween.sol\":1073:1402  function trucooTrato() public {... */\n    tag_5:\n      tag_17\n      tag_18\n      jump\t// in\n    tag_17:\n      stop\n        /* \"contracts/DuleceHalloween.sol\":460:498  mapping(address => Dulce) public bolsa */\n    tag_9:\n      mstore(0x20, 0x01)\n      dup1\n      0x00\n      mstore\n      keccak256(0x00, 0x40)\n      0x00\n      swap2\n      pop\n      swap1\n      pop\n      dup1\n      0x00\n      add\n      dup1\n      sload\n      tag_19\n      swap1\n      tag_20\n      jump\t// in\n    tag_19:\n      dup1\n      0x1f\n      add\n      0x20\n      dup1\n      swap2\n      div\n      mul\n      0x20\n      add\n      mload(0x40)\n      swap1\n      dup2\n      add\n      0x40\n      mstore\n      dup1\n      swap3\n      swap2\n      swap1\n      dup2\n      dup2\n      mstore\n      0x20\n      add\n      dup3\n      dup1\n      sload\n      tag_21\n      swap1\n      tag_20\n      jump\t// in\n    tag_21:\n      dup1\n      iszero\n      tag_22\n      jumpi\n      dup1\n      0x1f\n      lt\n      tag_23\n      jumpi\n      0x0100\n      dup1\n      dup4\n      sload\n      div\n      mul\n      dup4\n      mstore\n      swap2\n      0x20\n      add\n      swap2\n      jump(tag_22)\n    tag_23:\n      dup3\n      add\n      swap2\n      swap1\n      0x00\n      mstore\n      keccak256(0x00, 0x20)\n      swap1\n    tag_24:\n      dup2\n      sload\n      dup2\n      mstore\n      swap1\n      0x01\n      add\n      swap1\n      0x20\n      add\n      dup1\n      dup4\n      gt\n      tag_24\n      jumpi\n      dup3\n      swap1\n      sub\n      0x1f\n      and\n      dup3\n      add\n      swap2\n    tag_22:\n      pop\n      pop\n      pop\n      pop\n      pop\n      swap1\n      dup1\n      0x01\n      add\n      dup1\n      sload\n      tag_25\n      swap1\n      tag_20\n      jump\t// in\n    tag_25:\n      dup1\n      0x1f\n      add\n      0x20\n      dup1\n      swap2\n      div\n      mul\n      0x20\n      add\n      mload(0x40)\n      swap1\n      dup2\n      add\n      0x40\n      mstore\n      dup1\n      swap3\n      swap2\n      swap1\n      dup2\n      dup2\n      mstore\n      0x20\n      add\n      dup3\n      dup1\n      sload\n      tag_26\n      swap1\n      tag_20\n      jump\t// in\n    tag_26:\n      dup1\n      iszero\n      tag_27\n      jumpi\n      dup1\n      0x1f\n      lt\n      tag_28\n      jumpi\n      0x0100\n      dup1\n      dup4\n      sload\n      div\n      mul\n      dup4\n      mstore\n      swap2\n      0x20\n      add\n      swap2\n      jump(tag_27)\n    tag_28:\n      dup3\n      add\n      swap2\n      swap1\n      0x00\n      mstore\n      keccak256(0x00, 0x20)\n      swap1\n    tag_29:\n      dup2\n      sload\n      dup2\n      mstore\n      swap1\n      0x01\n      add\n      swap1\n      0x20\n      add\n      dup1\n      dup4\n      gt\n      tag_29\n      jumpi\n      dup3\n      swap1\n      sub\n      0x1f\n      and\n      dup3\n      add\n      swap2\n    tag_27:\n      pop\n      pop\n      pop\n      pop\n      pop\n      swap1\n      pop\n      dup3\n      jump\t// out\n        /* \"contracts/DuleceHalloween.sol\":432:453  Dulce[] public dulces */\n    tag_15:\n      0x00\n      dup2\n      dup2\n      sload\n      dup2\n      lt\n      tag_30\n      jumpi\n      0x00\n      dup1\n      revert\n    tag_30:\n      swap1\n      0x00\n      mstore\n      keccak256(0x00, 0x20)\n      swap1\n      0x02\n      mul\n      add\n      0x00\n      swap2\n      pop\n      swap1\n      pop\n      dup1\n      0x00\n      add\n      dup1\n      sload\n      tag_32\n      swap1\n      tag_20\n      jump\t// in\n    tag_32:\n      dup1\n      0x1f\n      add\n      0x20\n      dup1\n      swap2\n      div\n      mul\n      0x20\n      add\n      mload(0x40)\n      swap1\n      dup2\n      add\n      0x40\n      mstore\n      dup1\n      swap3\n      swap2\n      swap1\n      dup2\n      dup2\n      mstore\n      0x20\n      add\n      dup3\n      dup1\n      sload\n      tag_33\n      swap1\n      tag_20\n      jump\t// in\n    tag_33:\n      dup1\n      iszero\n      tag_34\n      jumpi\n      dup1\n      0x1f\n      lt\n      tag_35\n      jumpi\n      0x0100\n      dup1\n      dup4\n      sload\n      div\n      mul\n      dup4\n      mstore\n      swap2\n      0x20\n      add\n      swap2\n      jump(tag_34)\n    tag_35:\n      dup3\n      add\n      swap2\n      swap1\n      0x00\n      mstore\n      keccak256(0x00, 0x20)\n      swap1\n    tag_36:\n      dup2\n      sload\n      dup2\n      mstore\n      swap1\n      0x01\n      add\n      swap1\n      0x20\n      add\n      dup1\n      dup4\n      gt\n      tag_36\n      jumpi\n      dup3\n      swap1\n      sub\n      0x1f\n      and\n      dup3\n      add\n      swap2\n    tag_34:\n      pop\n      pop\n      pop\n      pop\n      pop\n      swap1\n      dup1\n      0x01\n      add\n      dup1\n      sload\n      tag_37\n      swap1\n      tag_20\n      jump\t// in\n    tag_37:\n      dup1\n      0x1f\n      add\n      0x20\n      dup1\n      swap2\n      div\n      mul\n      0x20\n      add\n      mload(0x40)\n      swap1\n      dup2\n      add\n      0x40\n      mstore\n      dup1\n      swap3\n      swap2\n      swap1\n      dup2\n      dup2\n      mstore\n      0x20\n      add\n      dup3\n      dup1\n      sload\n      tag_38\n      swap1\n      tag_20\n      jump\t// in\n    tag_38:\n      dup1\n      iszero\n      tag_39\n      jumpi\n      dup1\n      0x1f\n      lt\n      tag_40\n      jumpi\n      0x0100\n      dup1\n      dup4\n      sload\n      div\n      mul\n      dup4\n      mstore\n      swap2\n      0x20\n      add\n      swap2\n      jump(tag_39)\n    tag_40:\n      dup3\n      add\n      swap2\n      swap1\n      0x00\n      mstore\n      keccak256(0x00, 0x20)\n      swap1\n    tag_41:\n      dup2\n      sload\n      dup2\n      mstore\n      swap1\n      0x01\n      add\n      swap1\n      0x20\n      add\n      dup1\n      dup4\n      gt\n      tag_41\n      jumpi\n      dup3\n      swap1\n      sub\n      0x1f\n      and\n      dup3\n      add\n      swap2\n    tag_39:\n      pop\n      pop\n      pop\n      pop\n      pop\n      swap1\n      pop\n      dup3\n      jump\t// out\n        /* \"contracts/DuleceHalloween.sol\":1073:1402  function trucooTrato() public {... */\n    tag_18:\n        /* \"contracts/DuleceHalloween.sol\":1113:1129  uint randomIndex */\n      0x00\n        /* \"contracts/DuleceHalloween.sol\":1132:1140  random() */\n      tag_43\n        /* \"contracts/DuleceHalloween.sol\":1132:1138  random */\n      tag_44\n        /* \"contracts/DuleceHalloween.sol\":1132:1140  random() */\n      jump\t// in\n    tag_43:\n        /* \"contracts/DuleceHalloween.sol\":1113:1140  uint randomIndex = random() */\n      swap1\n      pop\n        /* \"contracts/DuleceHalloween.sol\":1210:1228  Dulce memory dulce */\n      0x00\n        /* \"contracts/DuleceHalloween.sol\":1231:1237  dulces */\n      dup1\n        /* \"contracts/DuleceHalloween.sol\":1238:1249  randomIndex */\n      dup3\n        /* \"contracts/DuleceHalloween.sol\":1231:1250  dulces[randomIndex] */\n      dup2\n      sload\n      dup2\n      lt\n      tag_45\n      jumpi\n      tag_46\n      tag_47\n      jump\t// in\n    tag_46:\n    tag_45:\n      swap1\n      0x00\n      mstore\n      keccak256(0x00, 0x20)\n      swap1\n      0x02\n      mul\n      add\n        /* \"contracts/DuleceHalloween.sol\":1210:1250  Dulce memory dulce = dulces[randomIndex] */\n      mload(0x40)\n      dup1\n      0x40\n      add\n      0x40\n      mstore\n      swap1\n      dup2\n      0x00\n      dup3\n      add\n      dup1\n      sload\n      tag_49\n      swap1\n      tag_20\n      jump\t// in\n    tag_49:\n      dup1\n      0x1f\n      add\n      0x20\n      dup1\n      swap2\n      div\n      mul\n      0x20\n      add\n      mload(0x40)\n      swap1\n      dup2\n      add\n      0x40\n      mstore\n      dup1\n      swap3\n      swap2\n      swap1\n      dup2\n      dup2\n      mstore\n      0x20\n      add\n      dup3\n      dup1\n      sload\n      tag_50\n      swap1\n      tag_20\n      jump\t// in\n    tag_50:\n      dup1\n      iszero\n      tag_51\n      jumpi\n      dup1\n      0x1f\n      lt\n      tag_52\n      jumpi\n      0x0100\n      dup1\n      dup4\n      sload\n      div\n      mul\n      dup4\n      mstore\n      swap2\n      0x20\n      add\n      swap2\n      jump(tag_51)\n    tag_52:\n      dup3\n      add\n      swap2\n      swap1\n      0x00\n      mstore\n      keccak256(0x00, 0x20)\n      swap1\n    tag_53:\n      dup2\n      sload\n      dup2\n      mstore\n      swap1\n      0x01\n      add\n      swap1\n      0x20\n      add\n      dup1\n      dup4\n      gt\n      tag_53\n      jumpi\n      dup3\n      swap1\n      sub\n      0x1f\n      and\n      dup3\n      add\n      swap2\n    tag_51:\n      pop\n      pop\n      pop\n      pop\n      pop\n      dup2\n      mstore\n      0x20\n      add\n      0x01\n      dup3\n      add\n      dup1\n      sload\n      tag_54\n      swap1\n      tag_20\n      jump\t// in\n    tag_54:\n      dup1\n      0x1f\n      add\n      0x20\n      dup1\n      swap2\n      div\n      mul\n      0x20\n      add\n      mload(0x40)\n      swap1\n      dup2\n      add\n      0x40\n      mstore\n      dup1\n      swap3\n      swap2\n      swap1\n      dup2\n      dup2\n      mstore\n      0x20\n      add\n      dup3\n      dup1\n      sload\n      tag_55\n      swap1\n      tag_20\n      jump\t// in\n    tag_55:\n      dup1\n      iszero\n      tag_56\n      jumpi\n      dup1\n      0x1f\n      lt\n      tag_57\n      jumpi\n      0x0100\n      dup1\n      dup4\n      sload\n      div\n      mul\n      dup4\n      mstore\n      swap2\n      0x20\n      add\n      swap2\n      jump(tag_56)\n    tag_57:\n      dup3\n      add\n      swap2\n      swap1\n      0x00\n      mstore\n      keccak256(0x00, 0x20)\n      swap1\n    tag_58:\n      dup2\n      sload\n      dup2\n      mstore\n      swap1\n      0x01\n      add\n      swap1\n      0x20\n      add\n      dup1\n      dup4\n      gt\n      tag_58\n      jumpi\n      dup3\n      swap1\n      sub\n      0x1f\n      and\n      dup3\n      add\n      swap2\n    tag_56:\n      pop\n      pop\n      pop\n      pop\n      pop\n      dup2\n      mstore\n      pop\n      pop\n      swap1\n      pop\n        /* \"contracts/DuleceHalloween.sol\":1280:1285  dulce */\n      dup1\n        /* \"contracts/DuleceHalloween.sol\":1260:1265  bolsa */\n      0x01\n        /* \"contracts/DuleceHalloween.sol\":1260:1277  bolsa[msg.sender] */\n      0x00\n        /* \"contracts/DuleceHalloween.sol\":1266:1276  msg.sender */\n      caller\n        /* \"contracts/DuleceHalloween.sol\":1260:1277  bolsa[msg.sender] */\n      0xffffffffffffffffffffffffffffffffffffffff\n      and\n      0xffffffffffffffffffffffffffffffffffffffff\n      and\n      dup2\n      mstore\n      0x20\n      add\n      swap1\n      dup2\n      mstore\n      0x20\n      add\n      0x00\n      keccak256\n        /* \"contracts/DuleceHalloween.sol\":1260:1285  bolsa[msg.sender] = dulce */\n      0x00\n      dup3\n      add\n      mload\n      dup2\n      0x00\n      add\n      swap1\n      dup1\n      mload\n      swap1\n      0x20\n      add\n      swap1\n      tag_59\n      swap3\n      swap2\n      swap1\n      tag_60\n      jump\t// in\n    tag_59:\n      pop\n      0x20\n      dup3\n      add\n      mload\n      dup2\n      0x01\n      add\n      swap1\n      dup1\n      mload\n      swap1\n      0x20\n      add\n      swap1\n      tag_61\n      swap3\n      swap2\n      swap1\n      tag_60\n      jump\t// in\n    tag_61:\n      pop\n      swap1\n      pop\n      pop\n        /* \"contracts/DuleceHalloween.sol\":1312:1322  msg.sender */\n      caller\n        /* \"contracts/DuleceHalloween.sol\":1300:1337  TrucooTrato(msg.sender, dulce.nombre) */\n      0xffffffffffffffffffffffffffffffffffffffff\n      and\n      0x6f2fe09e9db84f63d4f5f035ac2bbaaad542f120a6521c1c016fb292350e2be4\n        /* \"contracts/DuleceHalloween.sol\":1324:1329  dulce */\n      dup3\n        /* \"contracts/DuleceHalloween.sol\":1324:1336  dulce.nombre */\n      0x00\n      add\n      mload\n        /* \"contracts/DuleceHalloween.sol\":1300:1337  TrucooTrato(msg.sender, dulce.nombre) */\n      mload(0x40)\n      tag_62\n      swap2\n      swap1\n      tag_63\n      jump\t// in\n    tag_62:\n      mload(0x40)\n      dup1\n      swap2\n      sub\n      swap1\n      log2\n        /* \"contracts/DuleceHalloween.sol\":1103:1402  {... */\n      pop\n      pop\n        /* \"contracts/DuleceHalloween.sol\":1073:1402  function trucooTrato() public {... */\n      jump\t// out\n        /* \"contracts/DuleceHalloween.sol\":837:1063  function random() private view returns(uint) {  // Corrección: Cambié \"unit\" por \"uint\" y corregí \"timestap\" a \"timestamp\"... */\n    tag_44:\n        /* \"contracts/DuleceHalloween.sol\":876:880  uint */\n      0x00\n        /* \"contracts/DuleceHalloween.sol\":1043:1049  dulces */\n      dup1\n        /* \"contracts/DuleceHalloween.sol\":1043:1056  dulces.length */\n      dup1\n      sload\n      swap1\n      pop\n        /* \"contracts/DuleceHalloween.sol\":1010:1025  block.timestamp */\n      timestamp\n        /* \"contracts/DuleceHalloween.sol\":1027:1037  msg.sender */\n      caller\n        /* \"contracts/DuleceHalloween.sol\":993:1038  abi.encodePacked(block.timestamp, msg.sender) */\n      add(0x20, mload(0x40))\n      tag_65\n      swap3\n      swap2\n      swap1\n      tag_66\n      jump\t// in\n    tag_65:\n      mload(0x40)\n      0x20\n      dup2\n      dup4\n      sub\n      sub\n      dup2\n      mstore\n      swap1\n      0x40\n      mstore\n        /* \"contracts/DuleceHalloween.sol\":983:1039  keccak256(abi.encodePacked(block.timestamp, msg.sender)) */\n      dup1\n      mload\n      swap1\n      0x20\n      add\n      keccak256\n        /* \"contracts/DuleceHalloween.sol\":978:1040  uint(keccak256(abi.encodePacked(block.timestamp, msg.sender))) */\n      0x00\n      shr\n        /* \"contracts/DuleceHalloween.sol\":978:1056  uint(keccak256(abi.encodePacked(block.timestamp, msg.sender))) % dulces.length */\n      tag_67\n      swap2\n      swap1\n      tag_68\n      jump\t// in\n    tag_67:\n        /* \"contracts/DuleceHalloween.sol\":971:1056  return uint(keccak256(abi.encodePacked(block.timestamp, msg.sender))) % dulces.length */\n      swap1\n      pop\n        /* \"contracts/DuleceHalloween.sol\":837:1063  function random() private view returns(uint) {  // Corrección: Cambié \"unit\" por \"uint\" y corregí \"timestap\" a \"timestamp\"... */\n      swap1\n      jump\t// out\n    tag_60:\n      dup3\n      dup1\n      sload\n      tag_69\n      swap1\n      tag_20\n      jump\t// in\n    tag_69:\n      swap1\n      0x00\n      mstore\n      keccak256(0x00, 0x20)\n      swap1\n      0x1f\n      add\n      0x20\n      swap1\n      div\n      dup2\n      add\n      swap3\n      dup3\n      tag_71\n      jumpi\n      0x00\n      dup6\n      sstore\n      jump(tag_70)\n    tag_71:\n      dup3\n      0x1f\n      lt\n      tag_72\n      jumpi\n      dup1\n      mload\n      not(0xff)\n      and\n      dup4\n      dup1\n      add\n      or\n      dup6\n      sstore\n      jump(tag_70)\n    tag_72:\n      dup3\n      dup1\n      add\n      0x01\n      add\n      dup6\n      sstore\n      dup3\n      iszero\n      tag_70\n      jumpi\n      swap2\n      dup3\n      add\n    tag_73:\n      dup3\n      dup2\n      gt\n      iszero\n      tag_74\n      jumpi\n      dup3\n      mload\n      dup3\n      sstore\n      swap2\n      0x20\n      add\n      swap2\n      swap1\n      0x01\n      add\n      swap1\n      jump(tag_73)\n    tag_74:\n    tag_70:\n      pop\n      swap1\n      pop\n      tag_75\n      swap2\n      swap1\n      tag_76\n      jump\t// in\n    tag_75:\n      pop\n      swap1\n      jump\t// out\n    tag_76:\n    tag_77:\n      dup1\n      dup3\n      gt\n      iszero\n      tag_78\n      jumpi\n      0x00\n      dup2\n      0x00\n      swap1\n      sstore\n      pop\n      0x01\n      add\n      jump(tag_77)\n    tag_78:\n      pop\n      swap1\n      jump\t// out\n        /* \"#utility.yul\":88:205   */\n    tag_80:\n        /* \"#utility.yul\":197:198   */\n      0x00\n        /* \"#utility.yul\":194:195   */\n      dup1\n        /* \"#utility.yul\":187:199   */\n      revert\n        /* \"#utility.yul\":334:460   */\n    tag_82:\n        /* \"#utility.yul\":371:378   */\n      0x00\n        /* \"#utility.yul\":411:453   */\n      0xffffffffffffffffffffffffffffffffffffffff\n        /* \"#utility.yul\":404:409   */\n      dup3\n        /* \"#utility.yul\":400:454   */\n      and\n        /* \"#utility.yul\":389:454   */\n      swap1\n      pop\n        /* \"#utility.yul\":334:460   */\n      swap2\n      swap1\n      pop\n      jump\t// out\n        /* \"#utility.yul\":466:562   */\n    tag_83:\n        /* \"#utility.yul\":503:510   */\n      0x00\n        /* \"#utility.yul\":532:556   */\n      tag_108\n        /* \"#utility.yul\":550:555   */\n      dup3\n        /* \"#utility.yul\":532:556   */\n      tag_82\n      jump\t// in\n    tag_108:\n        /* \"#utility.yul\":521:556   */\n      swap1\n      pop\n        /* \"#utility.yul\":466:562   */\n      swap2\n      swap1\n      pop\n      jump\t// out\n        /* \"#utility.yul\":568:690   */\n    tag_84:\n        /* \"#utility.yul\":641:665   */\n      tag_110\n        /* \"#utility.yul\":659:664   */\n      dup2\n        /* \"#utility.yul\":641:665   */\n      tag_83\n      jump\t// in\n    tag_110:\n        /* \"#utility.yul\":634:639   */\n      dup2\n        /* \"#utility.yul\":631:666   */\n      eq\n        /* \"#utility.yul\":621:684   */\n      tag_111\n      jumpi\n        /* \"#utility.yul\":680:681   */\n      0x00\n        /* \"#utility.yul\":677:678   */\n      dup1\n        /* \"#utility.yul\":670:682   */\n      revert\n        /* \"#utility.yul\":621:684   */\n    tag_111:\n        /* \"#utility.yul\":568:690   */\n      pop\n      jump\t// out\n        /* \"#utility.yul\":696:835   */\n    tag_85:\n        /* \"#utility.yul\":742:747   */\n      0x00\n        /* \"#utility.yul\":780:786   */\n      dup2\n        /* \"#utility.yul\":767:787   */\n      calldataload\n        /* \"#utility.yul\":758:787   */\n      swap1\n      pop\n        /* \"#utility.yul\":796:829   */\n      tag_113\n        /* \"#utility.yul\":823:828   */\n      dup2\n        /* \"#utility.yul\":796:829   */\n      tag_84\n      jump\t// in\n    tag_113:\n        /* \"#utility.yul\":696:835   */\n      swap3\n      swap2\n      pop\n      pop\n      jump\t// out\n        /* \"#utility.yul\":841:1170   */\n    tag_8:\n        /* \"#utility.yul\":900:906   */\n      0x00\n        /* \"#utility.yul\":949:951   */\n      0x20\n        /* \"#utility.yul\":937:946   */\n      dup3\n        /* \"#utility.yul\":928:935   */\n      dup5\n        /* \"#utility.yul\":924:947   */\n      sub\n        /* \"#utility.yul\":920:952   */\n      slt\n        /* \"#utility.yul\":917:1036   */\n      iszero\n      tag_115\n      jumpi\n        /* \"#utility.yul\":955:1034   */\n      tag_116\n      tag_80\n      jump\t// in\n    tag_116:\n        /* \"#utility.yul\":917:1036   */\n    tag_115:\n        /* \"#utility.yul\":1075:1076   */\n      0x00\n        /* \"#utility.yul\":1100:1153   */\n      tag_117\n        /* \"#utility.yul\":1145:1152   */\n      dup5\n        /* \"#utility.yul\":1136:1142   */\n      dup3\n        /* \"#utility.yul\":1125:1134   */\n      dup6\n        /* \"#utility.yul\":1121:1143   */\n      add\n        /* \"#utility.yul\":1100:1153   */\n      tag_85\n      jump\t// in\n    tag_117:\n        /* \"#utility.yul\":1090:1153   */\n      swap2\n      pop\n        /* \"#utility.yul\":1046:1163   */\n      pop\n        /* \"#utility.yul\":841:1170   */\n      swap3\n      swap2\n      pop\n      pop\n      jump\t// out\n        /* \"#utility.yul\":1176:1275   */\n    tag_86:\n        /* \"#utility.yul\":1228:1234   */\n      0x00\n        /* \"#utility.yul\":1262:1267   */\n      dup2\n        /* \"#utility.yul\":1256:1268   */\n      mload\n        /* \"#utility.yul\":1246:1268   */\n      swap1\n      pop\n        /* \"#utility.yul\":1176:1275   */\n      swap2\n      swap1\n      pop\n      jump\t// out\n        /* \"#utility.yul\":1281:1450   */\n    tag_87:\n        /* \"#utility.yul\":1365:1376   */\n      0x00\n        /* \"#utility.yul\":1399:1405   */\n      dup3\n        /* \"#utility.yul\":1394:1397   */\n      dup3\n        /* \"#utility.yul\":1387:1406   */\n      mstore\n        /* \"#utility.yul\":1439:1443   */\n      0x20\n        /* \"#utility.yul\":1434:1437   */\n      dup3\n        /* \"#utility.yul\":1430:1444   */\n      add\n        /* \"#utility.yul\":1415:1444   */\n      swap1\n      pop\n        /* \"#utility.yul\":1281:1450   */\n      swap3\n      swap2\n      pop\n      pop\n      jump\t// out\n        /* \"#utility.yul\":1456:1763   */\n    tag_88:\n        /* \"#utility.yul\":1524:1525   */\n      0x00\n        /* \"#utility.yul\":1534:1647   */\n    tag_121:\n        /* \"#utility.yul\":1548:1554   */\n      dup4\n        /* \"#utility.yul\":1545:1546   */\n      dup2\n        /* \"#utility.yul\":1542:1555   */\n      lt\n        /* \"#utility.yul\":1534:1647   */\n      iszero\n      tag_123\n      jumpi\n        /* \"#utility.yul\":1633:1634   */\n      dup1\n        /* \"#utility.yul\":1628:1631   */\n      dup3\n        /* \"#utility.yul\":1624:1635   */\n      add\n        /* \"#utility.yul\":1618:1636   */\n      mload\n        /* \"#utility.yul\":1614:1615   */\n      dup2\n        /* \"#utility.yul\":1609:1612   */\n      dup5\n        /* \"#utility.yul\":1605:1616   */\n      add\n        /* \"#utility.yul\":1598:1637   */\n      mstore\n        /* \"#utility.yul\":1570:1572   */\n      0x20\n        /* \"#utility.yul\":1567:1568   */\n      dup2\n        /* \"#utility.yul\":1563:1573   */\n      add\n        /* \"#utility.yul\":1558:1573   */\n      swap1\n      pop\n        /* \"#utility.yul\":1534:1647   */\n      jump(tag_121)\n    tag_123:\n        /* \"#utility.yul\":1665:1671   */\n      dup4\n        /* \"#utility.yul\":1662:1663   */\n      dup2\n        /* \"#utility.yul\":1659:1672   */\n      gt\n        /* \"#utility.yul\":1656:1757   */\n      iszero\n      tag_124\n      jumpi\n        /* \"#utility.yul\":1745:1746   */\n      0x00\n        /* \"#utility.yul\":1736:1742   */\n      dup5\n        /* \"#utility.yul\":1731:1734   */\n      dup5\n        /* \"#utility.yul\":1727:1743   */\n      add\n        /* \"#utility.yul\":1720:1747   */\n      mstore\n        /* \"#utility.yul\":1656:1757   */\n    tag_124:\n        /* \"#utility.yul\":1505:1763   */\n      pop\n        /* \"#utility.yul\":1456:1763   */\n      pop\n      pop\n      pop\n      jump\t// out\n        /* \"#utility.yul\":1769:1871   */\n    tag_89:\n        /* \"#utility.yul\":1810:1816   */\n      0x00\n        /* \"#utility.yul\":1861:1863   */\n      0x1f\n        /* \"#utility.yul\":1857:1864   */\n      not\n        /* \"#utility.yul\":1852:1854   */\n      0x1f\n        /* \"#utility.yul\":1845:1850   */\n      dup4\n        /* \"#utility.yul\":1841:1855   */\n      add\n        /* \"#utility.yul\":1837:1865   */\n      and\n        /* \"#utility.yul\":1827:1865   */\n      swap1\n      pop\n        /* \"#utility.yul\":1769:1871   */\n      swap2\n      swap1\n      pop\n      jump\t// out\n        /* \"#utility.yul\":1877:2241   */\n    tag_90:\n        /* \"#utility.yul\":1965:1968   */\n      0x00\n        /* \"#utility.yul\":1993:2032   */\n      tag_127\n        /* \"#utility.yul\":2026:2031   */\n      dup3\n        /* \"#utility.yul\":1993:2032   */\n      tag_86\n      jump\t// in\n    tag_127:\n        /* \"#utility.yul\":2048:2119   */\n      tag_128\n        /* \"#utility.yul\":2112:2118   */\n      dup2\n        /* \"#utility.yul\":2107:2110   */\n      dup6\n        /* \"#utility.yul\":2048:2119   */\n      tag_87\n      jump\t// in\n    tag_128:\n        /* \"#utility.yul\":2041:2119   */\n      swap4\n      pop\n        /* \"#utility.yul\":2128:2180   */\n      tag_129\n        /* \"#utility.yul\":2173:2179   */\n      dup2\n        /* \"#utility.yul\":2168:2171   */\n      dup6\n        /* \"#utility.yul\":2161:2165   */\n      0x20\n        /* \"#utility.yul\":2154:2159   */\n      dup7\n        /* \"#utility.yul\":2150:2166   */\n      add\n        /* \"#utility.yul\":2128:2180   */\n      tag_88\n      jump\t// in\n    tag_129:\n        /* \"#utility.yul\":2205:2234   */\n      tag_130\n        /* \"#utility.yul\":2227:2233   */\n      dup2\n        /* \"#utility.yul\":2205:2234   */\n      tag_89\n      jump\t// in\n    tag_130:\n        /* \"#utility.yul\":2200:2203   */\n      dup5\n        /* \"#utility.yul\":2196:2235   */\n      add\n        /* \"#utility.yul\":2189:2235   */\n      swap2\n      pop\n        /* \"#utility.yul\":1969:2241   */\n      pop\n        /* \"#utility.yul\":1877:2241   */\n      swap3\n      swap2\n      pop\n      pop\n      jump\t// out\n        /* \"#utility.yul\":2247:2761   */\n    tag_11:\n        /* \"#utility.yul\":2408:2412   */\n      0x00\n        /* \"#utility.yul\":2446:2448   */\n      0x40\n        /* \"#utility.yul\":2435:2444   */\n      dup3\n        /* \"#utility.yul\":2431:2449   */\n      add\n        /* \"#utility.yul\":2423:2449   */\n      swap1\n      pop\n        /* \"#utility.yul\":2495:2504   */\n      dup2\n        /* \"#utility.yul\":2489:2493   */\n      dup2\n        /* \"#utility.yul\":2485:2505   */\n      sub\n        /* \"#utility.yul\":2481:2482   */\n      0x00\n        /* \"#utility.yul\":2470:2479   */\n      dup4\n        /* \"#utility.yul\":2466:2483   */\n      add\n        /* \"#utility.yul\":2459:2506   */\n      mstore\n        /* \"#utility.yul\":2523:2601   */\n      tag_132\n        /* \"#utility.yul\":2596:2600   */\n      dup2\n        /* \"#utility.yul\":2587:2593   */\n      dup6\n        /* \"#utility.yul\":2523:2601   */\n      tag_90\n      jump\t// in\n    tag_132:\n        /* \"#utility.yul\":2515:2601   */\n      swap1\n      pop\n        /* \"#utility.yul\":2648:2657   */\n      dup2\n        /* \"#utility.yul\":2642:2646   */\n      dup2\n        /* \"#utility.yul\":2638:2658   */\n      sub\n        /* \"#utility.yul\":2633:2635   */\n      0x20\n        /* \"#utility.yul\":2622:2631   */\n      dup4\n        /* \"#utility.yul\":2618:2636   */\n      add\n        /* \"#utility.yul\":2611:2659   */\n      mstore\n        /* \"#utility.yul\":2676:2754   */\n      tag_133\n        /* \"#utility.yul\":2749:2753   */\n      dup2\n        /* \"#utility.yul\":2740:2746   */\n      dup5\n        /* \"#utility.yul\":2676:2754   */\n      tag_90\n      jump\t// in\n    tag_133:\n        /* \"#utility.yul\":2668:2754   */\n      swap1\n      pop\n        /* \"#utility.yul\":2247:2761   */\n      swap4\n      swap3\n      pop\n      pop\n      pop\n      jump\t// out\n        /* \"#utility.yul\":2767:2844   */\n    tag_91:\n        /* \"#utility.yul\":2804:2811   */\n      0x00\n        /* \"#utility.yul\":2833:2838   */\n      dup2\n        /* \"#utility.yul\":2822:2838   */\n      swap1\n      pop\n        /* \"#utility.yul\":2767:2844   */\n      swap2\n      swap1\n      pop\n      jump\t// out\n        /* \"#utility.yul\":2850:2972   */\n    tag_92:\n        /* \"#utility.yul\":2923:2947   */\n      tag_136\n        /* \"#utility.yul\":2941:2946   */\n      dup2\n        /* \"#utility.yul\":2923:2947   */\n      tag_91\n      jump\t// in\n    tag_136:\n        /* \"#utility.yul\":2916:2921   */\n      dup2\n        /* \"#utility.yul\":2913:2948   */\n      eq\n        /* \"#utility.yul\":2903:2966   */\n      tag_137\n      jumpi\n        /* \"#utility.yul\":2962:2963   */\n      0x00\n        /* \"#utility.yul\":2959:2960   */\n      dup1\n        /* \"#utility.yul\":2952:2964   */\n      revert\n        /* \"#utility.yul\":2903:2966   */\n    tag_137:\n        /* \"#utility.yul\":2850:2972   */\n      pop\n      jump\t// out\n        /* \"#utility.yul\":2978:3117   */\n    tag_93:\n        /* \"#utility.yul\":3024:3029   */\n      0x00\n        /* \"#utility.yul\":3062:3068   */\n      dup2\n        /* \"#utility.yul\":3049:3069   */\n      calldataload\n        /* \"#utility.yul\":3040:3069   */\n      swap1\n      pop\n        /* \"#utility.yul\":3078:3111   */\n      tag_139\n        /* \"#utility.yul\":3105:3110   */\n      dup2\n        /* \"#utility.yul\":3078:3111   */\n      tag_92\n      jump\t// in\n    tag_139:\n        /* \"#utility.yul\":2978:3117   */\n      swap3\n      swap2\n      pop\n      pop\n      jump\t// out\n        /* \"#utility.yul\":3123:3452   */\n    tag_14:\n        /* \"#utility.yul\":3182:3188   */\n      0x00\n        /* \"#utility.yul\":3231:3233   */\n      0x20\n        /* \"#utility.yul\":3219:3228   */\n      dup3\n        /* \"#utility.yul\":3210:3217   */\n      dup5\n        /* \"#utility.yul\":3206:3229   */\n      sub\n        /* \"#utility.yul\":3202:3234   */\n      slt\n        /* \"#utility.yul\":3199:3318   */\n      iszero\n      tag_141\n      jumpi\n        /* \"#utility.yul\":3237:3316   */\n      tag_142\n      tag_80\n      jump\t// in\n    tag_142:\n        /* \"#utility.yul\":3199:3318   */\n    tag_141:\n        /* \"#utility.yul\":3357:3358   */\n      0x00\n        /* \"#utility.yul\":3382:3435   */\n      tag_143\n        /* \"#utility.yul\":3427:3434   */\n      dup5\n        /* \"#utility.yul\":3418:3424   */\n      dup3\n        /* \"#utility.yul\":3407:3416   */\n      dup6\n        /* \"#utility.yul\":3403:3425   */\n      add\n        /* \"#utility.yul\":3382:3435   */\n      tag_93\n      jump\t// in\n    tag_143:\n        /* \"#utility.yul\":3372:3435   */\n      swap2\n      pop\n        /* \"#utility.yul\":3328:3445   */\n      pop\n        /* \"#utility.yul\":3123:3452   */\n      swap3\n      swap2\n      pop\n      pop\n      jump\t// out\n        /* \"#utility.yul\":3458:3638   */\n    tag_94:\n        /* \"#utility.yul\":3506:3583   */\n      0x4e487b7100000000000000000000000000000000000000000000000000000000\n        /* \"#utility.yul\":3503:3504   */\n      0x00\n        /* \"#utility.yul\":3496:3584   */\n      mstore\n        /* \"#utility.yul\":3603:3607   */\n      0x22\n        /* \"#utility.yul\":3600:3601   */\n      0x04\n        /* \"#utility.yul\":3593:3608   */\n      mstore\n        /* \"#utility.yul\":3627:3631   */\n      0x24\n        /* \"#utility.yul\":3624:3625   */\n      0x00\n        /* \"#utility.yul\":3617:3632   */\n      revert\n        /* \"#utility.yul\":3644:3964   */\n    tag_20:\n        /* \"#utility.yul\":3688:3694   */\n      0x00\n        /* \"#utility.yul\":3725:3726   */\n      0x02\n        /* \"#utility.yul\":3719:3723   */\n      dup3\n        /* \"#utility.yul\":3715:3727   */\n      div\n        /* \"#utility.yul\":3705:3727   */\n      swap1\n      pop\n        /* \"#utility.yul\":3772:3773   */\n      0x01\n        /* \"#utility.yul\":3766:3770   */\n      dup3\n        /* \"#utility.yul\":3762:3774   */\n      and\n        /* \"#utility.yul\":3793:3811   */\n      dup1\n        /* \"#utility.yul\":3783:3864   */\n      tag_146\n      jumpi\n        /* \"#utility.yul\":3849:3853   */\n      0x7f\n        /* \"#utility.yul\":3841:3847   */\n      dup3\n        /* \"#utility.yul\":3837:3854   */\n      and\n        /* \"#utility.yul\":3827:3854   */\n      swap2\n      pop\n        /* \"#utility.yul\":3783:3864   */\n    tag_146:\n        /* \"#utility.yul\":3911:3913   */\n      0x20\n        /* \"#utility.yul\":3903:3909   */\n      dup3\n        /* \"#utility.yul\":3900:3914   */\n      lt\n        /* \"#utility.yul\":3880:3898   */\n      dup2\n        /* \"#utility.yul\":3877:3915   */\n      sub\n        /* \"#utility.yul\":3874:3958   */\n      tag_147\n      jumpi\n        /* \"#utility.yul\":3930:3948   */\n      tag_148\n      tag_94\n      jump\t// in\n    tag_148:\n        /* \"#utility.yul\":3874:3958   */\n    tag_147:\n        /* \"#utility.yul\":3695:3964   */\n      pop\n        /* \"#utility.yul\":3644:3964   */\n      swap2\n      swap1\n      pop\n      jump\t// out\n        /* \"#utility.yul\":3970:4150   */\n    tag_47:\n        /* \"#utility.yul\":4018:4095   */\n      0x4e487b7100000000000000000000000000000000000000000000000000000000\n        /* \"#utility.yul\":4015:4016   */\n      0x00\n        /* \"#utility.yul\":4008:4096   */\n      mstore\n        /* \"#utility.yul\":4115:4119   */\n      0x32\n        /* \"#utility.yul\":4112:4113   */\n      0x04\n        /* \"#utility.yul\":4105:4120   */\n      mstore\n        /* \"#utility.yul\":4139:4143   */\n      0x24\n        /* \"#utility.yul\":4136:4137   */\n      0x00\n        /* \"#utility.yul\":4129:4144   */\n      revert\n        /* \"#utility.yul\":4156:4469   */\n    tag_63:\n        /* \"#utility.yul\":4269:4273   */\n      0x00\n        /* \"#utility.yul\":4307:4309   */\n      0x20\n        /* \"#utility.yul\":4296:4305   */\n      dup3\n        /* \"#utility.yul\":4292:4310   */\n      add\n        /* \"#utility.yul\":4284:4310   */\n      swap1\n      pop\n        /* \"#utility.yul\":4356:4365   */\n      dup2\n        /* \"#utility.yul\":4350:4354   */\n      dup2\n        /* \"#utility.yul\":4346:4366   */\n      sub\n        /* \"#utility.yul\":4342:4343   */\n      0x00\n        /* \"#utility.yul\":4331:4340   */\n      dup4\n        /* \"#utility.yul\":4327:4344   */\n      add\n        /* \"#utility.yul\":4320:4367   */\n      mstore\n        /* \"#utility.yul\":4384:4462   */\n      tag_151\n        /* \"#utility.yul\":4457:4461   */\n      dup2\n        /* \"#utility.yul\":4448:4454   */\n      dup5\n        /* \"#utility.yul\":4384:4462   */\n      tag_90\n      jump\t// in\n    tag_151:\n        /* \"#utility.yul\":4376:4462   */\n      swap1\n      pop\n        /* \"#utility.yul\":4156:4469   */\n      swap3\n      swap2\n      pop\n      pop\n      jump\t// out\n        /* \"#utility.yul\":4475:4554   */\n    tag_95:\n        /* \"#utility.yul\":4514:4521   */\n      0x00\n        /* \"#utility.yul\":4543:4548   */\n      dup2\n        /* \"#utility.yul\":4532:4548   */\n      swap1\n      pop\n        /* \"#utility.yul\":4475:4554   */\n      swap2\n      swap1\n      pop\n      jump\t// out\n        /* \"#utility.yul\":4560:4717   */\n    tag_96:\n        /* \"#utility.yul\":4665:4710   */\n      tag_154\n        /* \"#utility.yul\":4685:4709   */\n      tag_155\n        /* \"#utility.yul\":4703:4708   */\n      dup3\n        /* \"#utility.yul\":4685:4709   */\n      tag_91\n      jump\t// in\n    tag_155:\n        /* \"#utility.yul\":4665:4710   */\n      tag_95\n      jump\t// in\n    tag_154:\n        /* \"#utility.yul\":4660:4663   */\n      dup3\n        /* \"#utility.yul\":4653:4711   */\n      mstore\n        /* \"#utility.yul\":4560:4717   */\n      pop\n      pop\n      jump\t// out\n        /* \"#utility.yul\":4723:4817   */\n    tag_97:\n        /* \"#utility.yul\":4756:4764   */\n      0x00\n        /* \"#utility.yul\":4804:4809   */\n      dup2\n        /* \"#utility.yul\":4800:4802   */\n      0x60\n        /* \"#utility.yul\":4796:4810   */\n      shl\n        /* \"#utility.yul\":4775:4810   */\n      swap1\n      pop\n        /* \"#utility.yul\":4723:4817   */\n      swap2\n      swap1\n      pop\n      jump\t// out\n        /* \"#utility.yul\":4823:4917   */\n    tag_98:\n        /* \"#utility.yul\":4862:4869   */\n      0x00\n        /* \"#utility.yul\":4891:4911   */\n      tag_158\n        /* \"#utility.yul\":4905:4910   */\n      dup3\n        /* \"#utility.yul\":4891:4911   */\n      tag_97\n      jump\t// in\n    tag_158:\n        /* \"#utility.yul\":4880:4911   */\n      swap1\n      pop\n        /* \"#utility.yul\":4823:4917   */\n      swap2\n      swap1\n      pop\n      jump\t// out\n        /* \"#utility.yul\":4923:5023   */\n    tag_99:\n        /* \"#utility.yul\":4962:4969   */\n      0x00\n        /* \"#utility.yul\":4991:5017   */\n      tag_160\n        /* \"#utility.yul\":5011:5016   */\n      dup3\n        /* \"#utility.yul\":4991:5017   */\n      tag_98\n      jump\t// in\n    tag_160:\n        /* \"#utility.yul\":4980:5017   */\n      swap1\n      pop\n        /* \"#utility.yul\":4923:5023   */\n      swap2\n      swap1\n      pop\n      jump\t// out\n        /* \"#utility.yul\":5029:5186   */\n    tag_100:\n        /* \"#utility.yul\":5134:5179   */\n      tag_162\n        /* \"#utility.yul\":5154:5178   */\n      tag_163\n        /* \"#utility.yul\":5172:5177   */\n      dup3\n        /* \"#utility.yul\":5154:5178   */\n      tag_83\n      jump\t// in\n    tag_163:\n        /* \"#utility.yul\":5134:5179   */\n      tag_99\n      jump\t// in\n    tag_162:\n        /* \"#utility.yul\":5129:5132   */\n      dup3\n        /* \"#utility.yul\":5122:5180   */\n      mstore\n        /* \"#utility.yul\":5029:5186   */\n      pop\n      pop\n      jump\t// out\n        /* \"#utility.yul\":5192:5589   */\n    tag_66:\n        /* \"#utility.yul\":5332:5335   */\n      0x00\n        /* \"#utility.yul\":5347:5422   */\n      tag_165\n        /* \"#utility.yul\":5418:5421   */\n      dup3\n        /* \"#utility.yul\":5409:5415   */\n      dup6\n        /* \"#utility.yul\":5347:5422   */\n      tag_96\n      jump\t// in\n    tag_165:\n        /* \"#utility.yul\":5447:5449   */\n      0x20\n        /* \"#utility.yul\":5442:5445   */\n      dup3\n        /* \"#utility.yul\":5438:5450   */\n      add\n        /* \"#utility.yul\":5431:5450   */\n      swap2\n      pop\n        /* \"#utility.yul\":5460:5535   */\n      tag_166\n        /* \"#utility.yul\":5531:5534   */\n      dup3\n        /* \"#utility.yul\":5522:5528   */\n      dup5\n        /* \"#utility.yul\":5460:5535   */\n      tag_100\n      jump\t// in\n    tag_166:\n        /* \"#utility.yul\":5560:5562   */\n      0x14\n        /* \"#utility.yul\":5555:5558   */\n      dup3\n        /* \"#utility.yul\":5551:5563   */\n      add\n        /* \"#utility.yul\":5544:5563   */\n      swap2\n      pop\n        /* \"#utility.yul\":5580:5583   */\n      dup2\n        /* \"#utility.yul\":5573:5583   */\n      swap1\n      pop\n        /* \"#utility.yul\":5192:5589   */\n      swap4\n      swap3\n      pop\n      pop\n      pop\n      jump\t// out\n        /* \"#utility.yul\":5595:5775   */\n    tag_101:\n        /* \"#utility.yul\":5643:5720   */\n      0x4e487b7100000000000000000000000000000000000000000000000000000000\n        /* \"#utility.yul\":5640:5641   */\n      0x00\n        /* \"#utility.yul\":5633:5721   */\n      mstore\n        /* \"#utility.yul\":5740:5744   */\n      0x12\n        /* \"#utility.yul\":5737:5738   */\n      0x04\n        /* \"#utility.yul\":5730:5745   */\n      mstore\n        /* \"#utility.yul\":5764:5768   */\n      0x24\n        /* \"#utility.yul\":5761:5762   */\n      0x00\n        /* \"#utility.yul\":5754:5769   */\n      revert\n        /* \"#utility.yul\":5781:5957   */\n    tag_68:\n        /* \"#utility.yul\":5813:5814   */\n      0x00\n        /* \"#utility.yul\":5830:5850   */\n      tag_169\n        /* \"#utility.yul\":5848:5849   */\n      dup3\n        /* \"#utility.yul\":5830:5850   */\n      tag_91\n      jump\t// in\n    tag_169:\n        /* \"#utility.yul\":5825:5850   */\n      swap2\n      pop\n        /* \"#utility.yul\":5864:5884   */\n      tag_170\n        /* \"#utility.yul\":5882:5883   */\n      dup4\n        /* \"#utility.yul\":5864:5884   */\n      tag_91\n      jump\t// in\n    tag_170:\n        /* \"#utility.yul\":5859:5884   */\n      swap3\n      pop\n        /* \"#utility.yul\":5903:5904   */\n      dup3\n        /* \"#utility.yul\":5893:5928   */\n      tag_171\n      jumpi\n        /* \"#utility.yul\":5908:5926   */\n      tag_172\n      tag_101\n      jump\t// in\n    tag_172:\n        /* \"#utility.yul\":5893:5928   */\n    tag_171:\n        /* \"#utility.yul\":5949:5950   */\n      dup3\n        /* \"#utility.yul\":5946:5947   */\n      dup3\n        /* \"#utility.yul\":5942:5951   */\n      mod\n        /* \"#utility.yul\":5937:5951   */\n      swap1\n      pop\n        /* \"#utility.yul\":5781:5957   */\n      swap3\n      swap2\n      pop\n      pop\n      jump\t// out\n\n    auxdata: 0xa2646970667358221220742b6daa58050470c6380e2c2e3f3d718375eb7ee800504551f5ea9174ba12f364736f6c634300080d0033\n}\n",
				"bytecode": {
					"linkReferences": {},
					"object": "60806040523480156200001157600080fd5b50600060405180604001604052806040518060400160405280600881526020017f43616c6162617a6100000000000000000000000000000000000000000000000081525081526020016040518060400160405280600781526020017f4e6172616e6a610000000000000000000000000000000000000000000000000081525081525090806001815401808255809150506001900390600052602060002090600202016000909190919091506000820151816000019080519060200190620000da929190620002d6565b506020820151816001019080519060200190620000f9929190620002d6565b505050600060405180604001604052806040518060400160405280600a81526020017f4d75726369656c61676f0000000000000000000000000000000000000000000081525081526020016040518060400160405280600581526020017f4e6567726f00000000000000000000000000000000000000000000000000000081525081525090806001815401808255809150506001900390600052602060002090600202016000909190919091506000820151816000019080519060200190620001c4929190620002d6565b506020820151816001019080519060200190620001e3929190620002d6565b505050600060405180604001604052806040518060400160405280600a81526020017f4d75726369656c61676f0000000000000000000000000000000000000000000081525081526020016040518060400160405280600581526020017f4e6567726f00000000000000000000000000000000000000000000000000000081525081525090806001815401808255809150506001900390600052602060002090600202016000909190919091506000820151816000019080519060200190620002ae929190620002d6565b506020820151816001019080519060200190620002cd929190620002d6565b505050620003ea565b828054620002e490620003b5565b90600052602060002090601f01602090048101928262000308576000855562000354565b82601f106200032357805160ff191683800117855562000354565b8280016001018555821562000354579182015b828111156200035357825182559160200191906001019062000336565b5b50905062000363919062000367565b5090565b5b808211156200038257600081600090555060010162000368565b5090565b7f4e487b7100000000000000000000000000000000000000000000000000000000600052602260045260246000fd5b60006002820490506001821680620003ce57607f821691505b602082108103620003e457620003e362000386565b5b50919050565b6109e180620003fa6000396000f3fe608060405234801561001057600080fd5b50600436106100415760003560e01c806372e84e451461004657806377c31b4c14610077578063d7055097146100a8575b600080fd5b610060600480360381019061005b91906106a5565b6100b2565b60405161006e92919061076b565b60405180910390f35b610091600480360381019061008c91906107d8565b6101e6565b60405161009f92919061076b565b60405180910390f35b6100b061032a565b005b60016020528060005260406000206000915090508060000180546100d590610834565b80601f016020809104026020016040519081016040528092919081815260200182805461010190610834565b801561014e5780601f106101235761010080835404028352916020019161014e565b820191906000526020600020905b81548152906001019060200180831161013157829003601f168201915b50505050509080600101805461016390610834565b80601f016020809104026020016040519081016040528092919081815260200182805461018f90610834565b80156101dc5780601f106101b1576101008083540402835291602001916101dc565b820191906000526020600020905b8154815290600101906020018083116101bf57829003601f168201915b5050505050905082565b600081815481106101f657600080fd5b906000526020600020906002020160009150905080600001805461021990610834565b80601f016020809104026020016040519081016040528092919081815260200182805461024590610834565b80156102925780601f1061026757610100808354040283529160200191610292565b820191906000526020600020905b81548152906001019060200180831161027557829003601f168201915b5050505050908060010180546102a790610834565b80601f01602080910402602001604051908101604052809291908181526020018280546102d390610834565b80156103205780601f106102f557610100808354040283529160200191610320565b820191906000526020600020905b81548152906001019060200180831161030357829003601f168201915b5050505050905082565b600061033461055d565b9050600080828154811061034b5761034a610865565b5b906000526020600020906002020160405180604001604052908160008201805461037490610834565b80601f01602080910402602001604051908101604052809291908181526020018280546103a090610834565b80156103ed5780601f106103c2576101008083540402835291602001916103ed565b820191906000526020600020905b8154815290600101906020018083116103d057829003601f168201915b5050505050815260200160018201805461040690610834565b80601f016020809104026020016040519081016040528092919081815260200182805461043290610834565b801561047f5780601f106104545761010080835404028352916020019161047f565b820191906000526020600020905b81548152906001019060200180831161046257829003601f168201915b505050505081525050905080600160003373ffffffffffffffffffffffffffffffffffffffff1673ffffffffffffffffffffffffffffffffffffffff16815260200190815260200160002060008201518160000190805190602001906104e692919061059f565b50602082015181600101908051906020019061050392919061059f565b509050503373ffffffffffffffffffffffffffffffffffffffff167f6f2fe09e9db84f63d4f5f035ac2bbaaad542f120a6521c1c016fb292350e2be482600001516040516105519190610894565b60405180910390a25050565b60008080549050423360405160200161057792919061091f565b6040516020818303038152906040528051906020012060001c61059a919061097a565b905090565b8280546105ab90610834565b90600052602060002090601f0160209004810192826105cd5760008555610614565b82601f106105e657805160ff1916838001178555610614565b82800160010185558215610614579182015b828111156106135782518255916020019190600101906105f8565b5b5090506106219190610625565b5090565b5b8082111561063e576000816000905550600101610626565b5090565b600080fd5b600073ffffffffffffffffffffffffffffffffffffffff82169050919050565b600061067282610647565b9050919050565b61068281610667565b811461068d57600080fd5b50565b60008135905061069f81610679565b92915050565b6000602082840312156106bb576106ba610642565b5b60006106c984828501610690565b91505092915050565b600081519050919050565b600082825260208201905092915050565b60005b8381101561070c5780820151818401526020810190506106f1565b8381111561071b576000848401525b50505050565b6000601f19601f8301169050919050565b600061073d826106d2565b61074781856106dd565b93506107578185602086016106ee565b61076081610721565b840191505092915050565b600060408201905081810360008301526107858185610732565b905081810360208301526107998184610732565b90509392505050565b6000819050919050565b6107b5816107a2565b81146107c057600080fd5b50565b6000813590506107d2816107ac565b92915050565b6000602082840312156107ee576107ed610642565b5b60006107fc848285016107c3565b91505092915050565b7f4e487b7100000000000000000000000000000000000000000000000000000000600052602260045260246000fd5b6000600282049050600182168061084c57607f821691505b60208210810361085f5761085e610805565b5b50919050565b7f4e487b7100000000000000000000000000000000000000000000000000000000600052603260045260246000fd5b600060208201905081810360008301526108ae8184610732565b905092915050565b6000819050919050565b6108d16108cc826107a2565b6108b6565b82525050565b60008160601b9050919050565b60006108ef826108d7565b9050919050565b6000610901826108e4565b9050919050565b61091961091482610667565b6108f6565b82525050565b600061092b82856108c0565b60208201915061093b8284610908565b6014820191508190509392505050565b7f4e487b7100000000000000000000000000000000000000000000000000000000600052601260045260246000fd5b6000610985826107a2565b9150610990836107a2565b9250826109a05761099f61094b565b5b82820690509291505056fea2646970667358221220742b6daa58050470c6380e2c2e3f3d718375eb7ee800504551f5ea9174ba12f364736f6c634300080d0033",
					"opcodes": "PUSH1 0x80 PUSH1 0x40 MSTORE CALLVALUE DUP1 ISZERO PUSH3 0x11 JUMPI PUSH1 0x0 DUP1 REVERT JUMPDEST POP PUSH1 0x0 PUSH1 0x40 MLOAD DUP1 PUSH1 0x40 ADD PUSH1 0x40 MSTORE DUP1 PUSH1 0x40 MLOAD DUP1 PUSH1 0x40 ADD PUSH1 0x40 MSTORE DUP1 PUSH1 0x8 DUP2 MSTORE PUSH1 0x20 ADD PUSH32 0x43616C6162617A61000000000000000000000000000000000000000000000000 DUP2 MSTORE POP DUP2 MSTORE PUSH1 0x20 ADD PUSH1 0x40 MLOAD DUP1 PUSH1 0x40 ADD PUSH1 0x40 MSTORE DUP1 PUSH1 0x7 DUP2 MSTORE PUSH1 0x20 ADD PUSH32 0x4E6172616E6A6100000000000000000000000000000000000000000000000000 DUP2 MSTORE POP DUP2 MSTORE POP SWAP1 DUP1 PUSH1 0x1 DUP2 SLOAD ADD DUP1 DUP3 SSTORE DUP1 SWAP2 POP POP PUSH1 0x1 SWAP1 SUB SWAP1 PUSH1 0x0 MSTORE PUSH1 0x20 PUSH1 0x0 KECCAK256 SWAP1 PUSH1 0x2 MUL ADD PUSH1 0x0 SWAP1 SWAP2 SWAP1 SWAP2 SWAP1 SWAP2 POP PUSH1 0x0 DUP3 ADD MLOAD DUP2 PUSH1 0x0 ADD SWAP1 DUP1 MLOAD SWAP1 PUSH1 0x20 ADD SWAP1 PUSH3 0xDA SWAP3 SWAP2 SWAP1 PUSH3 0x2D6 JUMP JUMPDEST POP PUSH1 0x20 DUP3 ADD MLOAD DUP2 PUSH1 0x1 ADD SWAP1 DUP1 MLOAD SWAP1 PUSH1 0x20 ADD SWAP1 PUSH3 0xF9 SWAP3 SWAP2 SWAP1 PUSH3 0x2D6 JUMP JUMPDEST POP POP POP PUSH1 0x0 PUSH1 0x40 MLOAD DUP1 PUSH1 0x40 ADD PUSH1 0x40 MSTORE DUP1 PUSH1 0x40 MLOAD DUP1 PUSH1 0x40 ADD PUSH1 0x40 MSTORE DUP1 PUSH1 0xA DUP2 MSTORE PUSH1 0x20 ADD PUSH32 0x4D75726369656C61676F00000000000000000000000000000000000000000000 DUP2 MSTORE POP DUP2 MSTORE PUSH1 0x20 ADD PUSH1 0x40 MLOAD DUP1 PUSH1 0x40 ADD PUSH1 0x40 MSTORE DUP1 PUSH1 0x5 DUP2 MSTORE PUSH1 0x20 ADD PUSH32 0x4E6567726F000000000000000000000000000000000000000000000000000000 DUP2 MSTORE POP DUP2 MSTORE POP SWAP1 DUP1 PUSH1 0x1 DUP2 SLOAD ADD DUP1 DUP3 SSTORE DUP1 SWAP2 POP POP PUSH1 0x1 SWAP1 SUB SWAP1 PUSH1 0x0 MSTORE PUSH1 0x20 PUSH1 0x0 KECCAK256 SWAP1 PUSH1 0x2 MUL ADD PUSH1 0x0 SWAP1 SWAP2 SWAP1 SWAP2 SWAP1 SWAP2 POP PUSH1 0x0 DUP3 ADD MLOAD DUP2 PUSH1 0x0 ADD SWAP1 DUP1 MLOAD SWAP1 PUSH1 0x20 ADD SWAP1 PUSH3 0x1C4 SWAP3 SWAP2 SWAP1 PUSH3 0x2D6 JUMP JUMPDEST POP PUSH1 0x20 DUP3 ADD MLOAD DUP2 PUSH1 0x1 ADD SWAP1 DUP1 MLOAD SWAP1 PUSH1 0x20 ADD SWAP1 PUSH3 0x1E3 SWAP3 SWAP2 SWAP1 PUSH3 0x2D6 JUMP JUMPDEST POP POP POP PUSH1 0x0 PUSH1 0x40 MLOAD DUP1 PUSH1 0x40 ADD PUSH1 0x40 MSTORE DUP1 PUSH1 0x40 MLOAD DUP1 PUSH1 0x40 ADD PUSH1 0x40 MSTORE DUP1 PUSH1 0xA DUP2 MSTORE PUSH1 0x20 ADD PUSH32 0x4D75726369656C61676F00000000000000000000000000000000000000000000 DUP2 MSTORE POP DUP2 MSTORE PUSH1 0x20 ADD PUSH1 0x40 MLOAD DUP1 PUSH1 0x40 ADD PUSH1 0x40 MSTORE DUP1 PUSH1 0x5 DUP2 MSTORE PUSH1 0x20 ADD PUSH32 0x4E6567726F000000000000000000000000000000000000000000000000000000 DUP2 MSTORE POP DUP2 MSTORE POP SWAP1 DUP1 PUSH1 0x1 DUP2 SLOAD ADD DUP1 DUP3 SSTORE DUP1 SWAP2 POP POP PUSH1 0x1 SWAP1 SUB SWAP1 PUSH1 0x0 MSTORE PUSH1 0x20 PUSH1 0x0 KECCAK256 SWAP1 PUSH1 0x2 MUL ADD PUSH1 0x0 SWAP1 SWAP2 SWAP1 SWAP2 SWAP1 SWAP2 POP PUSH1 0x0 DUP3 ADD MLOAD DUP2 PUSH1 0x0 ADD SWAP1 DUP1 MLOAD SWAP1 PUSH1 0x20 ADD SWAP1 PUSH3 0x2AE SWAP3 SWAP2 SWAP1 PUSH3 0x2D6 JUMP JUMPDEST POP PUSH1 0x20 DUP3 ADD MLOAD DUP2 PUSH1 0x1 ADD SWAP1 DUP1 MLOAD SWAP1 PUSH1 0x20 ADD SWAP1 PUSH3 0x2CD SWAP3 SWAP2 SWAP1 PUSH3 0x2D6 JUMP JUMPDEST POP POP POP PUSH3 0x3EA JUMP JUMPDEST DUP3 DUP1 SLOAD PUSH3 0x2E4 SWAP1 PUSH3 0x3B5 JUMP JUMPDEST SWAP1 PUSH1 0x0 MSTORE PUSH1 0x20 PUSH1 0x0 KECCAK256 SWAP1 PUSH1 0x1F ADD PUSH1 0x20 SWAP1 DIV DUP2 ADD SWAP3 DUP3 PUSH3 0x308 JUMPI PUSH1 0x0 DUP6 SSTORE PUSH3 0x354 JUMP JUMPDEST DUP3 PUSH1 0x1F LT PUSH3 0x323 JUMPI DUP1 MLOAD PUSH1 0xFF NOT AND DUP4 DUP1 ADD OR DUP6 SSTORE PUSH3 0x354 JUMP JUMPDEST DUP3 DUP1 ADD PUSH1 0x1 ADD DUP6 SSTORE DUP3 ISZERO PUSH3 0x354 JUMPI SWAP2 DUP3 ADD JUMPDEST DUP3 DUP2 GT ISZERO PUSH3 0x353 JUMPI DUP3 MLOAD DUP3 SSTORE SWAP2 PUSH1 0x20 ADD SWAP2 SWAP1 PUSH1 0x1 ADD SWAP1 PUSH3 0x336 JUMP JUMPDEST JUMPDEST POP SWAP1 POP PUSH3 0x363 SWAP2 SWAP1 PUSH3 0x367 JUMP JUMPDEST POP SWAP1 JUMP JUMPDEST JUMPDEST DUP1 DUP3 GT ISZERO PUSH3 0x382 JUMPI PUSH1 0x0 DUP2 PUSH1 0x0 SWAP1 SSTORE POP PUSH1 0x1 ADD PUSH3 0x368 JUMP JUMPDEST POP SWAP1 JUMP JUMPDEST PUSH32 0x4E487B7100000000000000000000000000000000000000000000000000000000 PUSH1 0x0 MSTORE PUSH1 0x22 PUSH1 0x4 MSTORE PUSH1 0x24 PUSH1 0x0 REVERT JUMPDEST PUSH1 0x0 PUSH1 0x2 DUP3 DIV SWAP1 POP PUSH1 0x1 DUP3 AND DUP1 PUSH3 0x3CE JUMPI PUSH1 0x7F DUP3 AND SWAP2 POP JUMPDEST PUSH1 0x20 DUP3 LT DUP2 SUB PUSH3 0x3E4 JUMPI PUSH3 0x3E3 PUSH3 0x386 JUMP JUMPDEST JUMPDEST POP SWAP2 SWAP1 POP JUMP JUMPDEST PUSH2 0x9E1 DUP1 PUSH3 0x3FA PUSH1 0x0 CODECOPY PUSH1 0x0 RETURN INVALID PUSH1 0x80 PUSH1 0x40 MSTORE CALLVALUE DUP1 ISZERO PUSH2 0x10 JUMPI PUSH1 0x0 DUP1 REVERT JUMPDEST POP PUSH1 0x4 CALLDATASIZE LT PUSH2 0x41 JUMPI PUSH1 0x0 CALLDATALOAD PUSH1 0xE0 SHR DUP1 PUSH4 0x72E84E45 EQ PUSH2 0x46 JUMPI DUP1 PUSH4 0x77C31B4C EQ PUSH2 0x77 JUMPI DUP1 PUSH4 0xD7055097 EQ PUSH2 0xA8 JUMPI JUMPDEST PUSH1 0x0 DUP1 REVERT JUMPDEST PUSH2 0x60 PUSH1 0x4 DUP1 CALLDATASIZE SUB DUP2 ADD SWAP1 PUSH2 0x5B SWAP2 SWAP1 PUSH2 0x6A5 JUMP JUMPDEST PUSH2 0xB2 JUMP JUMPDEST PUSH1 0x40 MLOAD PUSH2 0x6E SWAP3 SWAP2 SWAP1 PUSH2 0x76B JUMP JUMPDEST PUSH1 0x40 MLOAD DUP1 SWAP2 SUB SWAP1 RETURN JUMPDEST PUSH2 0x91 PUSH1 0x4 DUP1 CALLDATASIZE SUB DUP2 ADD SWAP1 PUSH2 0x8C SWAP2 SWAP1 PUSH2 0x7D8 JUMP JUMPDEST PUSH2 0x1E6 JUMP JUMPDEST PUSH1 0x40 MLOAD PUSH2 0x9F SWAP3 SWAP2 SWAP1 PUSH2 0x76B JUMP JUMPDEST PUSH1 0x40 MLOAD DUP1 SWAP2 SUB SWAP1 RETURN JUMPDEST PUSH2 0xB0 PUSH2 0x32A JUMP JUMPDEST STOP JUMPDEST PUSH1 0x1 PUSH1 0x20 MSTORE DUP1 PUSH1 0x0 MSTORE PUSH1 0x40 PUSH1 0x0 KECCAK256 PUSH1 0x0 SWAP2 POP SWAP1 POP DUP1 PUSH1 0x0 ADD DUP1 SLOAD PUSH2 0xD5 SWAP1 PUSH2 0x834 JUMP JUMPDEST DUP1 PUSH1 0x1F ADD PUSH1 0x20 DUP1 SWAP2 DIV MUL PUSH1 0x20 ADD PUSH1 0x40 MLOAD SWAP1 DUP2 ADD PUSH1 0x40 MSTORE DUP1 SWAP3 SWAP2 SWAP1 DUP2 DUP2 MSTORE PUSH1 0x20 ADD DUP3 DUP1 SLOAD PUSH2 0x101 SWAP1 PUSH2 0x834 JUMP JUMPDEST DUP1 ISZERO PUSH2 0x14E JUMPI DUP1 PUSH1 0x1F LT PUSH2 0x123 JUMPI PUSH2 0x100 DUP1 DUP4 SLOAD DIV MUL DUP4 MSTORE SWAP2 PUSH1 0x20 ADD SWAP2 PUSH2 0x14E JUMP JUMPDEST DUP3 ADD SWAP2 SWAP1 PUSH1 0x0 MSTORE PUSH1 0x20 PUSH1 0x0 KECCAK256 SWAP1 JUMPDEST DUP2 SLOAD DUP2 MSTORE SWAP1 PUSH1 0x1 ADD SWAP1 PUSH1 0x20 ADD DUP1 DUP4 GT PUSH2 0x131 JUMPI DUP3 SWAP1 SUB PUSH1 0x1F AND DUP3 ADD SWAP2 JUMPDEST POP POP POP POP POP SWAP1 DUP1 PUSH1 0x1 ADD DUP1 SLOAD PUSH2 0x163 SWAP1 PUSH2 0x834 JUMP JUMPDEST DUP1 PUSH1 0x1F ADD PUSH1 0x20 DUP1 SWAP2 DIV MUL PUSH1 0x20 ADD PUSH1 0x40 MLOAD SWAP1 DUP2 ADD PUSH1 0x40 MSTORE DUP1 SWAP3 SWAP2 SWAP1 DUP2 DUP2 MSTORE PUSH1 0x20 ADD DUP3 DUP1 SLOAD PUSH2 0x18F SWAP1 PUSH2 0x834 JUMP JUMPDEST DUP1 ISZERO PUSH2 0x1DC JUMPI DUP1 PUSH1 0x1F LT PUSH2 0x1B1 JUMPI PUSH2 0x100 DUP1 DUP4 SLOAD DIV MUL DUP4 MSTORE SWAP2 PUSH1 0x20 ADD SWAP2 PUSH2 0x1DC JUMP JUMPDEST DUP3 ADD SWAP2 SWAP1 PUSH1 0x0 MSTORE PUSH1 0x20 PUSH1 0x0 KECCAK256 SWAP1 JUMPDEST DUP2 SLOAD DUP2 MSTORE SWAP1 PUSH1 0x1 ADD SWAP1 PUSH1 0x20 ADD DUP1 DUP4 GT PUSH2 0x1BF JUMPI DUP3 SWAP1 SUB PUSH1 0x1F AND DUP3 ADD SWAP2 JUMPDEST POP POP POP POP POP SWAP1 POP DUP3 JUMP JUMPDEST PUSH1 0x0 DUP2 DUP2 SLOAD DUP2 LT PUSH2 0x1F6 JUMPI PUSH1 0x0 DUP1 REVERT JUMPDEST SWAP1 PUSH1 0x0 MSTORE PUSH1 0x20 PUSH1 0x0 KECCAK256 SWAP1 PUSH1 0x2 MUL ADD PUSH1 0x0 SWAP2 POP SWAP1 POP DUP1 PUSH1 0x0 ADD DUP1 SLOAD PUSH2 0x219 SWAP1 PUSH2 0x834 JUMP JUMPDEST DUP1 PUSH1 0x1F ADD PUSH1 0x20 DUP1 SWAP2 DIV MUL PUSH1 0x20 ADD PUSH1 0x40 MLOAD SWAP1 DUP2 ADD PUSH1 0x40 MSTORE DUP1 SWAP3 SWAP2 SWAP1 DUP2 DUP2 MSTORE PUSH1 0x20 ADD DUP3 DUP1 SLOAD PUSH2 0x245 SWAP1 PUSH2 0x834 JUMP JUMPDEST DUP1 ISZERO PUSH2 0x292 JUMPI DUP1 PUSH1 0x1F LT PUSH2 0x267 JUMPI PUSH2 0x100 DUP1 DUP4 SLOAD DIV MUL DUP4 MSTORE SWAP2 PUSH1 0x20 ADD SWAP2 PUSH2 0x292 JUMP JUMPDEST DUP3 ADD SWAP2 SWAP1 PUSH1 0x0 MSTORE PUSH1 0x20 PUSH1 0x0 KECCAK256 SWAP1 JUMPDEST DUP2 SLOAD DUP2 MSTORE SWAP1 PUSH1 0x1 ADD SWAP1 PUSH1 0x20 ADD DUP1 DUP4 GT PUSH2 0x275 JUMPI DUP3 SWAP1 SUB PUSH1 0x1F AND DUP3 ADD SWAP2 JUMPDEST POP POP POP POP POP SWAP1 DUP1 PUSH1 0x1 ADD DUP1 SLOAD PUSH2 0x2A7 SWAP1 PUSH2 0x834 JUMP JUMPDEST DUP1 PUSH1 0x1F ADD PUSH1 0x20 DUP1 SWAP2 DIV MUL PUSH1 0x20 ADD PUSH1 0x40 MLOAD SWAP1 DUP2 ADD PUSH1 0x40 MSTORE DUP1 SWAP3 SWAP2 SWAP1 DUP2 DUP2 MSTORE PUSH1 0x20 ADD DUP3 DUP1 SLOAD PUSH2 0x2D3 SWAP1 PUSH2 0x834 JUMP JUMPDEST DUP1 ISZERO PUSH2 0x320 JUMPI DUP1 PUSH1 0x1F LT PUSH2 0x2F5 JUMPI PUSH2 0x100 DUP1 DUP4 SLOAD DIV MUL DUP4 MSTORE SWAP2 PUSH1 0x20 ADD SWAP2 PUSH2 0x320 JUMP JUMPDEST DUP3 ADD SWAP2 SWAP1 PUSH1 0x0 MSTORE PUSH1 0x20 PUSH1 0x0 KECCAK256 SWAP1 JUMPDEST DUP2 SLOAD DUP2 MSTORE SWAP1 PUSH1 0x1 ADD SWAP1 PUSH1 0x20 ADD DUP1 DUP4 GT PUSH2 0x303 JUMPI DUP3 SWAP1 SUB PUSH1 0x1F AND DUP3 ADD SWAP2 JUMPDEST POP POP POP POP POP SWAP1 POP DUP3 JUMP JUMPDEST PUSH1 0x0 PUSH2 0x334 PUSH2 0x55D JUMP JUMPDEST SWAP1 POP PUSH1 0x0 DUP1 DUP3 DUP2 SLOAD DUP2 LT PUSH2 0x34B JUMPI PUSH2 0x34A PUSH2 0x865 JUMP JUMPDEST JUMPDEST SWAP1 PUSH1 0x0 MSTORE PUSH1 0x20 PUSH1 0x0 KECCAK256 SWAP1 PUSH1 0x2 MUL ADD PUSH1 0x40 MLOAD DUP1 PUSH1 0x40 ADD PUSH1 0x40 MSTORE SWAP1 DUP2 PUSH1 0x0 DUP3 ADD DUP1 SLOAD PUSH2 0x374 SWAP1 PUSH2 0x834 JUMP JUMPDEST DUP1 PUSH1 0x1F ADD PUSH1 0x20 DUP1 SWAP2 DIV MUL PUSH1 0x20 ADD PUSH1 0x40 MLOAD SWAP1 DUP2 ADD PUSH1 0x40 MSTORE DUP1 SWAP3 SWAP2 SWAP1 DUP2 DUP2 MSTORE PUSH1 0x20 ADD DUP3 DUP1 SLOAD PUSH2 0x3A0 SWAP1 PUSH2 0x834 JUMP JUMPDEST DUP1 ISZERO PUSH2 0x3ED JUMPI DUP1 PUSH1 0x1F LT PUSH2 0x3C2 JUMPI PUSH2 0x100 DUP1 DUP4 SLOAD DIV MUL DUP4 MSTORE SWAP2 PUSH1 0x20 ADD SWAP2 PUSH2 0x3ED JUMP JUMPDEST DUP3 ADD SWAP2 SWAP1 PUSH1 0x0 MSTORE PUSH1 0x20 PUSH1 0x0 KECCAK256 SWAP1 JUMPDEST DUP2 SLOAD DUP2 MSTORE SWAP1 PUSH1 0x1 ADD SWAP1 PUSH1 0x20 ADD DUP1 DUP4 GT PUSH2 0x3D0 JUMPI DUP3 SWAP1 SUB PUSH1 0x1F AND DUP3 ADD SWAP2 JUMPDEST POP POP POP POP POP DUP2 MSTORE PUSH1 0x20 ADD PUSH1 0x1 DUP3 ADD DUP1 SLOAD PUSH2 0x406 SWAP1 PUSH2 0x834 JUMP JUMPDEST DUP1 PUSH1 0x1F ADD PUSH1 0x20 DUP1 SWAP2 DIV MUL PUSH1 0x20 ADD PUSH1 0x40 MLOAD SWAP1 DUP2 ADD PUSH1 0x40 MSTORE DUP1 SWAP3 SWAP2 SWAP1 DUP2 DUP2 MSTORE PUSH1 0x20 ADD DUP3 DUP1 SLOAD PUSH2 0x432 SWAP1 PUSH2 0x834 JUMP JUMPDEST DUP1 ISZERO PUSH2 0x47F JUMPI DUP1 PUSH1 0x1F LT PUSH2 0x454 JUMPI PUSH2 0x100 DUP1 DUP4 SLOAD DIV MUL DUP4 MSTORE SWAP2 PUSH1 0x20 ADD SWAP2 PUSH2 0x47F JUMP JUMPDEST DUP3 ADD SWAP2 SWAP1 PUSH1 0x0 MSTORE PUSH1 0x20 PUSH1 0x0 KECCAK256 SWAP1 JUMPDEST DUP2 SLOAD DUP2 MSTORE SWAP1 PUSH1 0x1 ADD SWAP1 PUSH1 0x20 ADD DUP1 DUP4 GT PUSH2 0x462 JUMPI DUP3 SWAP1 SUB PUSH1 0x1F AND DUP3 ADD SWAP2 JUMPDEST POP POP POP POP POP DUP2 MSTORE POP POP SWAP1 POP DUP1 PUSH1 0x1 PUSH1 0x0 CALLER PUSH20 0xFFFFFFFFFFFFFFFFFFFFFFFFFFFFFFFFFFFFFFFF AND PUSH20 0xFFFFFFFFFFFFFFFFFFFFFFFFFFFFFFFFFFFFFFFF AND DUP2 MSTORE PUSH1 0x20 ADD SWAP1 DUP2 MSTORE PUSH1 0x20 ADD PUSH1 0x0 KECCAK256 PUSH1 0x0 DUP3 ADD MLOAD DUP2 PUSH1 0x0 ADD SWAP1 DUP1 MLOAD SWAP1 PUSH1 0x20 ADD SWAP1 PUSH2 0x4E6 SWAP3 SWAP2 SWAP1 PUSH2 0x59F JUMP JUMPDEST POP PUSH1 0x20 DUP3 ADD MLOAD DUP2 PUSH1 0x1 ADD SWAP1 DUP1 MLOAD SWAP1 PUSH1 0x20 ADD SWAP1 PUSH2 0x503 SWAP3 SWAP2 SWAP1 PUSH2 0x59F JUMP JUMPDEST POP SWAP1 POP POP CALLER PUSH20 0xFFFFFFFFFFFFFFFFFFFFFFFFFFFFFFFFFFFFFFFF AND PUSH32 0x6F2FE09E9DB84F63D4F5F035AC2BBAAAD542F120A6521C1C016FB292350E2BE4 DUP3 PUSH1 0x0 ADD MLOAD PUSH1 0x40 MLOAD PUSH2 0x551 SWAP2 SWAP1 PUSH2 0x894 JUMP JUMPDEST PUSH1 0x40 MLOAD DUP1 SWAP2 SUB SWAP1 LOG2 POP POP JUMP JUMPDEST PUSH1 0x0 DUP1 DUP1 SLOAD SWAP1 POP TIMESTAMP CALLER PUSH1 0x40 MLOAD PUSH1 0x20 ADD PUSH2 0x577 SWAP3 SWAP2 SWAP1 PUSH2 0x91F JUMP JUMPDEST PUSH1 0x40 MLOAD PUSH1 0x20 DUP2 DUP4 SUB SUB DUP2 MSTORE SWAP1 PUSH1 0x40 MSTORE DUP1 MLOAD SWAP1 PUSH1 0x20 ADD KECCAK256 PUSH1 0x0 SHR PUSH2 0x59A SWAP2 SWAP1 PUSH2 0x97A JUMP JUMPDEST SWAP1 POP SWAP1 JUMP JUMPDEST DUP3 DUP1 SLOAD PUSH2 0x5AB SWAP1 PUSH2 0x834 JUMP JUMPDEST SWAP1 PUSH1 0x0 MSTORE PUSH1 0x20 PUSH1 0x0 KECCAK256 SWAP1 PUSH1 0x1F ADD PUSH1 0x20 SWAP1 DIV DUP2 ADD SWAP3 DUP3 PUSH2 0x5CD JUMPI PUSH1 0x0 DUP6 SSTORE PUSH2 0x614 JUMP JUMPDEST DUP3 PUSH1 0x1F LT PUSH2 0x5E6 JUMPI DUP1 MLOAD PUSH1 0xFF NOT AND DUP4 DUP1 ADD OR DUP6 SSTORE PUSH2 0x614 JUMP JUMPDEST DUP3 DUP1 ADD PUSH1 0x1 ADD DUP6 SSTORE DUP3 ISZERO PUSH2 0x614 JUMPI SWAP2 DUP3 ADD JUMPDEST DUP3 DUP2 GT ISZERO PUSH2 0x613 JUMPI DUP3 MLOAD DUP3 SSTORE SWAP2 PUSH1 0x20 ADD SWAP2 SWAP1 PUSH1 0x1 ADD SWAP1 PUSH2 0x5F8 JUMP JUMPDEST JUMPDEST POP SWAP1 POP PUSH2 0x621 SWAP2 SWAP1 PUSH2 0x625 JUMP JUMPDEST POP SWAP1 JUMP JUMPDEST JUMPDEST DUP1 DUP3 GT ISZERO PUSH2 0x63E JUMPI PUSH1 0x0 DUP2 PUSH1 0x0 SWAP1 SSTORE POP PUSH1 0x1 ADD PUSH2 0x626 JUMP JUMPDEST POP SWAP1 JUMP JUMPDEST PUSH1 0x0 DUP1 REVERT JUMPDEST PUSH1 0x0 PUSH20 0xFFFFFFFFFFFFFFFFFFFFFFFFFFFFFFFFFFFFFFFF DUP3 AND SWAP1 POP SWAP2 SWAP1 POP JUMP JUMPDEST PUSH1 0x0 PUSH2 0x672 DUP3 PUSH2 0x647 JUMP JUMPDEST SWAP1 POP SWAP2 SWAP1 POP JUMP JUMPDEST PUSH2 0x682 DUP2 PUSH2 0x667 JUMP JUMPDEST DUP2 EQ PUSH2 0x68D JUMPI PUSH1 0x0 DUP1 REVERT JUMPDEST POP JUMP JUMPDEST PUSH1 0x0 DUP2 CALLDATALOAD SWAP1 POP PUSH2 0x69F DUP2 PUSH2 0x679 JUMP JUMPDEST SWAP3 SWAP2 POP POP JUMP JUMPDEST PUSH1 0x0 PUSH1 0x20 DUP3 DUP5 SUB SLT ISZERO PUSH2 0x6BB JUMPI PUSH2 0x6BA PUSH2 0x642 JUMP JUMPDEST JUMPDEST PUSH1 0x0 PUSH2 0x6C9 DUP5 DUP3 DUP6 ADD PUSH2 0x690 JUMP JUMPDEST SWAP2 POP POP SWAP3 SWAP2 POP POP JUMP JUMPDEST PUSH1 0x0 DUP2 MLOAD SWAP1 POP SWAP2 SWAP1 POP JUMP JUMPDEST PUSH1 0x0 DUP3 DUP3 MSTORE PUSH1 0x20 DUP3 ADD SWAP1 POP SWAP3 SWAP2 POP POP JUMP JUMPDEST PUSH1 0x0 JUMPDEST DUP4 DUP2 LT ISZERO PUSH2 0x70C JUMPI DUP1 DUP3 ADD MLOAD DUP2 DUP5 ADD MSTORE PUSH1 0x20 DUP2 ADD SWAP1 POP PUSH2 0x6F1 JUMP JUMPDEST DUP4 DUP2 GT ISZERO PUSH2 0x71B JUMPI PUSH1 0x0 DUP5 DUP5 ADD MSTORE JUMPDEST POP POP POP POP JUMP JUMPDEST PUSH1 0x0 PUSH1 0x1F NOT PUSH1 0x1F DUP4 ADD AND SWAP1 POP SWAP2 SWAP1 POP JUMP JUMPDEST PUSH1 0x0 PUSH2 0x73D DUP3 PUSH2 0x6D2 JUMP JUMPDEST PUSH2 0x747 DUP2 DUP6 PUSH2 0x6DD JUMP JUMPDEST SWAP4 POP PUSH2 0x757 DUP2 DUP6 PUSH1 0x20 DUP7 ADD PUSH2 0x6EE JUMP JUMPDEST PUSH2 0x760 DUP2 PUSH2 0x721 JUMP JUMPDEST DUP5 ADD SWAP2 POP POP SWAP3 SWAP2 POP POP JUMP JUMPDEST PUSH1 0x0 PUSH1 0x40 DUP3 ADD SWAP1 POP DUP2 DUP2 SUB PUSH1 0x0 DUP4 ADD MSTORE PUSH2 0x785 DUP2 DUP6 PUSH2 0x732 JUMP JUMPDEST SWAP1 POP DUP2 DUP2 SUB PUSH1 0x20 DUP4 ADD MSTORE PUSH2 0x799 DUP2 DUP5 PUSH2 0x732 JUMP JUMPDEST SWAP1 POP SWAP4 SWAP3 POP POP POP JUMP JUMPDEST PUSH1 0x0 DUP2 SWAP1 POP SWAP2 SWAP1 POP JUMP JUMPDEST PUSH2 0x7B5 DUP2 PUSH2 0x7A2 JUMP JUMPDEST DUP2 EQ PUSH2 0x7C0 JUMPI PUSH1 0x0 DUP1 REVERT JUMPDEST POP JUMP JUMPDEST PUSH1 0x0 DUP2 CALLDATALOAD SWAP1 POP PUSH2 0x7D2 DUP2 PUSH2 0x7AC JUMP JUMPDEST SWAP3 SWAP2 POP POP JUMP JUMPDEST PUSH1 0x0 PUSH1 0x20 DUP3 DUP5 SUB SLT ISZERO PUSH2 0x7EE JUMPI PUSH2 0x7ED PUSH2 0x642 JUMP JUMPDEST JUMPDEST PUSH1 0x0 PUSH2 0x7FC DUP5 DUP3 DUP6 ADD PUSH2 0x7C3 JUMP JUMPDEST SWAP2 POP POP SWAP3 SWAP2 POP POP JUMP JUMPDEST PUSH32 0x4E487B7100000000000000000000000000000000000000000000000000000000 PUSH1 0x0 MSTORE PUSH1 0x22 PUSH1 0x4 MSTORE PUSH1 0x24 PUSH1 0x0 REVERT JUMPDEST PUSH1 0x0 PUSH1 0x2 DUP3 DIV SWAP1 POP PUSH1 0x1 DUP3 AND DUP1 PUSH2 0x84C JUMPI PUSH1 0x7F DUP3 AND SWAP2 POP JUMPDEST PUSH1 0x20 DUP3 LT DUP2 SUB PUSH2 0x85F JUMPI PUSH2 0x85E PUSH2 0x805 JUMP JUMPDEST JUMPDEST POP SWAP2 SWAP1 POP JUMP JUMPDEST PUSH32 0x4E487B7100000000000000000000000000000000000000000000000000000000 PUSH1 0x0 MSTORE PUSH1 0x32 PUSH1 0x4 MSTORE PUSH1 0x24 PUSH1 0x0 REVERT JUMPDEST PUSH1 0x0 PUSH1 0x20 DUP3 ADD SWAP1 POP DUP2 DUP2 SUB PUSH1 0x0 DUP4 ADD MSTORE PUSH2 0x8AE DUP2 DUP5 PUSH2 0x732 JUMP JUMPDEST SWAP1 POP SWAP3 SWAP2 POP POP JUMP JUMPDEST PUSH1 0x0 DUP2 SWAP1 POP SWAP2 SWAP1 POP JUMP JUMPDEST PUSH2 0x8D1 PUSH2 0x8CC DUP3 PUSH2 0x7A2 JUMP JUMPDEST PUSH2 0x8B6 JUMP JUMPDEST DUP3 MSTORE POP POP JUMP JUMPDEST PUSH1 0x0 DUP2 PUSH1 0x60 SHL SWAP1 POP SWAP2 SWAP1 POP JUMP JUMPDEST PUSH1 0x0 PUSH2 0x8EF DUP3 PUSH2 0x8D7 JUMP JUMPDEST SWAP1 POP SWAP2 SWAP1 POP JUMP JUMPDEST PUSH1 0x0 PUSH2 0x901 DUP3 PUSH2 0x8E4 JUMP JUMPDEST SWAP1 POP SWAP2 SWAP1 POP JUMP JUMPDEST PUSH2 0x919 PUSH2 0x914 DUP3 PUSH2 0x667 JUMP JUMPDEST PUSH2 0x8F6 JUMP JUMPDEST DUP3 MSTORE POP POP JUMP JUMPDEST PUSH1 0x0 PUSH2 0x92B DUP3 DUP6 PUSH2 0x8C0 JUMP JUMPDEST PUSH1 0x20 DUP3 ADD SWAP2 POP PUSH2 0x93B DUP3 DUP5 PUSH2 0x908 JUMP JUMPDEST PUSH1 0x14 DUP3 ADD SWAP2 POP DUP2 SWAP1 POP SWAP4 SWAP3 POP POP POP JUMP JUMPDEST PUSH32 0x4E487B7100000000000000000000000000000000000000000000000000000000 PUSH1 0x0 MSTORE PUSH1 0x12 PUSH1 0x4 MSTORE PUSH1 0x24 PUSH1 0x0 REVERT JUMPDEST PUSH1 0x0 PUSH2 0x985 DUP3 PUSH2 0x7A2 JUMP JUMPDEST SWAP2 POP PUSH2 0x990 DUP4 PUSH2 0x7A2 JUMP JUMPDEST SWAP3 POP DUP3 PUSH2 0x9A0 JUMPI PUSH2 0x99F PUSH2 0x94B JUMP JUMPDEST JUMPDEST DUP3 DUP3 MOD SWAP1 POP SWAP3 SWAP2 POP POP JUMP INVALID LOG2 PUSH5 0x6970667358 0x22 SLT KECCAK256 PUSH21 0x2B6DAA58050470C6380E2C2E3F3D718375EB7EE800 POP GASLIMIT MLOAD CREATE2 0xEA SWAP2 PUSH21 0xBA12F364736F6C634300080D003300000000000000 "
				},
				"gasEstimates": {
					"creation": {
						"codeDepositCost": "505800",
						"executionCost": "infinite",
						"totalCost": "infinite"
					},
					"external": {
						"bolsa(address)": "infinite",
						"dulces(uint256)": "infinite",
						"trucooTrato()": "infinite"
					},
					"internal": {
						"random()": "infinite"
					}
				},
				"methodIdentifiers": {
					"bolsa(address)": "72e84e45",
					"dulces(uint256)": "77c31b4c",
					"trucooTrato()": "d7055097"
				}
			},
			"storageLayout": {
				"storage": [
					{
						"astId": 10,
						"contract": "contracts/DuleceHalloween.sol:DulceHalloween",
						"label": "dulces",
						"offset": 0,
						"slot": "0",
						"type": "t_array(t_struct(Dulce)6_storage)dyn_storage"
					},
					{
						"astId": 15,
						"contract": "contracts/DuleceHalloween.sol:DulceHalloween",
						"label": "bolsa",
						"offset": 0,
						"slot": "1",
						"type": "t_mapping(t_address,t_struct(Dulce)6_storage)"
					}
				],
				"types": {
					"t_address": {
						"encoding": "inplace",
						"label": "address",
						"numberOfBytes": "20"
					},
					"t_array(t_struct(Dulce)6_storage)dyn_storage": {
						"base": "t_struct(Dulce)6_storage",
						"encoding": "dynamic_array",
						"label": "struct DulceHalloween.Dulce[]",
						"numberOfBytes": "32"
					},
					"t_mapping(t_address,t_struct(Dulce)6_storage)": {
						"encoding": "mapping",
						"key": "t_address",
						"label": "mapping(address => struct DulceHalloween.Dulce)",
						"numberOfBytes": "32",
						"value": "t_struct(Dulce)6_storage"
					},
					"t_string_storage": {
						"encoding": "bytes",
						"label": "string",
						"numberOfBytes": "32"
					},
					"t_struct(Dulce)6_storage": {
						"encoding": "inplace",
						"label": "struct DulceHalloween.Dulce",
						"members": [
							{
								"astId": 3,
								"contract": "contracts/DuleceHalloween.sol:DulceHalloween",
								"label": "nombre",
								"offset": 0,
								"slot": "0",
								"type": "t_string_storage"
							},
							{
								"astId": 5,
								"contract": "contracts/DuleceHalloween.sol:DulceHalloween",
								"label": "color",
								"offset": 0,
								"slot": "1",
								"type": "t_string_storage"
							}
						],
						"numberOfBytes": "64"
					}
				}
			},
			"userdoc": {
				"kind": "user",
				"methods": {},
				"version": 1
			}
		}
	}
}