{
	"contracts/Identity.sol": {
		"Identity": {
			"abi": [
				{
					"inputs": [
						{
							"internalType": "uint256",
							"name": "_idNumber",
							"type": "uint256"
						},
						{
							"internalType": "bool",
							"name": "_isWorking",
							"type": "bool"
						},
						{
							"internalType": "string",
							"name": "_name",
							"type": "string"
						}
					],
					"stateMutability": "nonpayable",
					"type": "constructor"
				},
				{
					"inputs": [],
					"name": "idNumber",
					"outputs": [
						{
							"internalType": "uint256",
							"name": "",
							"type": "uint256"
						}
					],
					"stateMutability": "view",
					"type": "function"
				},
				{
					"inputs": [],
					"name": "isWorking",
					"outputs": [
						{
							"internalType": "bool",
							"name": "",
							"type": "bool"
						}
					],
					"stateMutability": "view",
					"type": "function"
				},
				{
					"inputs": [],
					"name": "name",
					"outputs": [
						{
							"internalType": "string",
							"name": "",
							"type": "string"
						}
					],
					"stateMutability": "view",
					"type": "function"
				},
				{
					"inputs": [],
					"name": "wallet",
					"outputs": [
						{
							"internalType": "address",
							"name": "",
							"type": "address"
						}
					],
					"stateMutability": "view",
					"type": "function"
				}
			],
			"devdoc": {
				"kind": "dev",
				"methods": {},
				"version": 1
			},
			"evm": {
				"assembly": "    /* \"contracts/Identity.sol\":70:390  contract Identity{... */\n  mstore(0x40, 0x80)\n    /* \"contracts/Identity.sol\":203:388  constructor(uint _idNumber, bool _isWorking, string memory _name){... */\n  callvalue\n  dup1\n  iszero\n  tag_1\n  jumpi\n  0x00\n  dup1\n  revert\ntag_1:\n  pop\n  mload(0x40)\n  sub(codesize, bytecodeSize)\n  dup1\n  bytecodeSize\n  dup4\n  codecopy\n  dup2\n  dup2\n  add\n  0x40\n  mstore\n  dup2\n  add\n  swap1\n  tag_2\n  swap2\n  swap1\n  tag_3\n  jump\t// in\ntag_2:\n    /* \"contracts/Identity.sol\":289:298  _idNumber */\n  dup3\n    /* \"contracts/Identity.sol\":278:286  idNumber */\n  0x00\n    /* \"contracts/Identity.sol\":278:298  idNumber = _idNumber */\n  dup2\n  swap1\n  sstore\n  pop\n    /* \"contracts/Identity.sol\":320:330  _isWorking */\n  dup2\n    /* \"contracts/Identity.sol\":308:317  isWorking */\n  0x01\n  0x00\n    /* \"contracts/Identity.sol\":308:330  isWorking = _isWorking */\n  0x0100\n  exp\n  dup2\n  sload\n  dup2\n  0xff\n  mul\n  not\n  and\n  swap1\n  dup4\n  iszero\n  iszero\n  mul\n  or\n  swap1\n  sstore\n  pop\n    /* \"contracts/Identity.sol\":347:352  _name */\n  dup1\n    /* \"contracts/Identity.sol\":340:344  name */\n  0x02\n    /* \"contracts/Identity.sol\":340:352  name = _name */\n  swap1\n  dup1\n  mload\n  swap1\n  0x20\n  add\n  swap1\n  tag_6\n  swap3\n  swap2\n  swap1\n  tag_7\n  jump\t// in\ntag_6:\n  pop\n    /* \"contracts/Identity.sol\":371:381  msg.sender */\n  caller\n    /* \"contracts/Identity.sol\":362:368  wallet */\n  0x03\n  0x00\n    /* \"contracts/Identity.sol\":362:381  wallet = msg.sender */\n  0x0100\n  exp\n  dup2\n  sload\n  dup2\n  0xffffffffffffffffffffffffffffffffffffffff\n  mul\n  not\n  and\n  swap1\n  dup4\n  0xffffffffffffffffffffffffffffffffffffffff\n  and\n  mul\n  or\n  swap1\n  sstore\n  pop\n    /* \"contracts/Identity.sol\":203:388  constructor(uint _idNumber, bool _isWorking, string memory _name){... */\n  pop\n  pop\n  pop\n    /* \"contracts/Identity.sol\":70:390  contract Identity{... */\n  jump(tag_8)\ntag_7:\n  dup3\n  dup1\n  sload\n  tag_9\n  swap1\n  tag_10\n  jump\t// in\ntag_9:\n  swap1\n  0x00\n  mstore\n  keccak256(0x00, 0x20)\n  swap1\n  0x1f\n  add\n  0x20\n  swap1\n  div\n  dup2\n  add\n  swap3\n  dup3\n  tag_12\n  jumpi\n  0x00\n  dup6\n  sstore\n  jump(tag_11)\ntag_12:\n  dup3\n  0x1f\n  lt\n  tag_13\n  jumpi\n  dup1\n  mload\n  not(0xff)\n  and\n  dup4\n  dup1\n  add\n  or\n  dup6\n  sstore\n  jump(tag_11)\ntag_13:\n  dup3\n  dup1\n  add\n  0x01\n  add\n  dup6\n  sstore\n  dup3\n  iszero\n  tag_11\n  jumpi\n  swap2\n  dup3\n  add\ntag_14:\n  dup3\n  dup2\n  gt\n  iszero\n  tag_15\n  jumpi\n  dup3\n  mload\n  dup3\n  sstore\n  swap2\n  0x20\n  add\n  swap2\n  swap1\n  0x01\n  add\n  swap1\n  jump(tag_14)\ntag_15:\ntag_11:\n  pop\n  swap1\n  pop\n  tag_16\n  swap2\n  swap1\n  tag_17\n  jump\t// in\ntag_16:\n  pop\n  swap1\n  jump\t// out\ntag_17:\ntag_18:\n  dup1\n  dup3\n  gt\n  iszero\n  tag_19\n  jumpi\n  0x00\n  dup2\n  0x00\n  swap1\n  sstore\n  pop\n  0x01\n  add\n  jump(tag_18)\ntag_19:\n  pop\n  swap1\n  jump\t// out\n    /* \"#utility.yul\":7:82   */\ntag_20:\n    /* \"#utility.yul\":40:46   */\n  0x00\n    /* \"#utility.yul\":73:75   */\n  0x40\n    /* \"#utility.yul\":67:76   */\n  mload\n    /* \"#utility.yul\":57:76   */\n  swap1\n  pop\n    /* \"#utility.yul\":7:82   */\n  swap1\n  jump\t// out\n    /* \"#utility.yul\":88:205   */\ntag_21:\n    /* \"#utility.yul\":197:198   */\n  0x00\n    /* \"#utility.yul\":194:195   */\n  dup1\n    /* \"#utility.yul\":187:199   */\n  revert\n    /* \"#utility.yul\":211:328   */\ntag_22:\n    /* \"#utility.yul\":320:321   */\n  0x00\n    /* \"#utility.yul\":317:318   */\n  dup1\n    /* \"#utility.yul\":310:322   */\n  revert\n    /* \"#utility.yul\":334:411   */\ntag_23:\n    /* \"#utility.yul\":371:378   */\n  0x00\n    /* \"#utility.yul\":400:405   */\n  dup2\n    /* \"#utility.yul\":389:405   */\n  swap1\n  pop\n    /* \"#utility.yul\":334:411   */\n  swap2\n  swap1\n  pop\n  jump\t// out\n    /* \"#utility.yul\":417:539   */\ntag_24:\n    /* \"#utility.yul\":490:514   */\n  tag_46\n    /* \"#utility.yul\":508:513   */\n  dup2\n    /* \"#utility.yul\":490:514   */\n  tag_23\n  jump\t// in\ntag_46:\n    /* \"#utility.yul\":483:488   */\n  dup2\n    /* \"#utility.yul\":480:515   */\n  eq\n    /* \"#utility.yul\":470:533   */\n  tag_47\n  jumpi\n    /* \"#utility.yul\":529:530   */\n  0x00\n    /* \"#utility.yul\":526:527   */\n  dup1\n    /* \"#utility.yul\":519:531   */\n  revert\n    /* \"#utility.yul\":470:533   */\ntag_47:\n    /* \"#utility.yul\":417:539   */\n  pop\n  jump\t// out\n    /* \"#utility.yul\":545:688   */\ntag_25:\n    /* \"#utility.yul\":602:607   */\n  0x00\n    /* \"#utility.yul\":633:639   */\n  dup2\n    /* \"#utility.yul\":627:640   */\n  mload\n    /* \"#utility.yul\":618:640   */\n  swap1\n  pop\n    /* \"#utility.yul\":649:682   */\n  tag_49\n    /* \"#utility.yul\":676:681   */\n  dup2\n    /* \"#utility.yul\":649:682   */\n  tag_24\n  jump\t// in\ntag_49:\n    /* \"#utility.yul\":545:688   */\n  swap3\n  swap2\n  pop\n  pop\n  jump\t// out\n    /* \"#utility.yul\":694:784   */\ntag_26:\n    /* \"#utility.yul\":728:735   */\n  0x00\n    /* \"#utility.yul\":771:776   */\n  dup2\n    /* \"#utility.yul\":764:777   */\n  iszero\n    /* \"#utility.yul\":757:778   */\n  iszero\n    /* \"#utility.yul\":746:778   */\n  swap1\n  pop\n    /* \"#utility.yul\":694:784   */\n  swap2\n  swap1\n  pop\n  jump\t// out\n    /* \"#utility.yul\":790:906   */\ntag_27:\n    /* \"#utility.yul\":860:881   */\n  tag_52\n    /* \"#utility.yul\":875:880   */\n  dup2\n    /* \"#utility.yul\":860:881   */\n  tag_26\n  jump\t// in\ntag_52:\n    /* \"#utility.yul\":853:858   */\n  dup2\n    /* \"#utility.yul\":850:882   */\n  eq\n    /* \"#utility.yul\":840:900   */\n  tag_53\n  jumpi\n    /* \"#utility.yul\":896:897   */\n  0x00\n    /* \"#utility.yul\":893:894   */\n  dup1\n    /* \"#utility.yul\":886:898   */\n  revert\n    /* \"#utility.yul\":840:900   */\ntag_53:\n    /* \"#utility.yul\":790:906   */\n  pop\n  jump\t// out\n    /* \"#utility.yul\":912:1049   */\ntag_28:\n    /* \"#utility.yul\":966:971   */\n  0x00\n    /* \"#utility.yul\":997:1003   */\n  dup2\n    /* \"#utility.yul\":991:1004   */\n  mload\n    /* \"#utility.yul\":982:1004   */\n  swap1\n  pop\n    /* \"#utility.yul\":1013:1043   */\n  tag_55\n    /* \"#utility.yul\":1037:1042   */\n  dup2\n    /* \"#utility.yul\":1013:1043   */\n  tag_27\n  jump\t// in\ntag_55:\n    /* \"#utility.yul\":912:1049   */\n  swap3\n  swap2\n  pop\n  pop\n  jump\t// out\n    /* \"#utility.yul\":1055:1172   */\ntag_29:\n    /* \"#utility.yul\":1164:1165   */\n  0x00\n    /* \"#utility.yul\":1161:1162   */\n  dup1\n    /* \"#utility.yul\":1154:1166   */\n  revert\n    /* \"#utility.yul\":1178:1295   */\ntag_30:\n    /* \"#utility.yul\":1287:1288   */\n  0x00\n    /* \"#utility.yul\":1284:1285   */\n  dup1\n    /* \"#utility.yul\":1277:1289   */\n  revert\n    /* \"#utility.yul\":1301:1403   */\ntag_31:\n    /* \"#utility.yul\":1342:1348   */\n  0x00\n    /* \"#utility.yul\":1393:1395   */\n  0x1f\n    /* \"#utility.yul\":1389:1396   */\n  not\n    /* \"#utility.yul\":1384:1386   */\n  0x1f\n    /* \"#utility.yul\":1377:1382   */\n  dup4\n    /* \"#utility.yul\":1373:1387   */\n  add\n    /* \"#utility.yul\":1369:1397   */\n  and\n    /* \"#utility.yul\":1359:1397   */\n  swap1\n  pop\n    /* \"#utility.yul\":1301:1403   */\n  swap2\n  swap1\n  pop\n  jump\t// out\n    /* \"#utility.yul\":1409:1589   */\ntag_32:\n    /* \"#utility.yul\":1457:1534   */\n  0x4e487b7100000000000000000000000000000000000000000000000000000000\n    /* \"#utility.yul\":1454:1455   */\n  0x00\n    /* \"#utility.yul\":1447:1535   */\n  mstore\n    /* \"#utility.yul\":1554:1558   */\n  0x41\n    /* \"#utility.yul\":1551:1552   */\n  0x04\n    /* \"#utility.yul\":1544:1559   */\n  mstore\n    /* \"#utility.yul\":1578:1582   */\n  0x24\n    /* \"#utility.yul\":1575:1576   */\n  0x00\n    /* \"#utility.yul\":1568:1583   */\n  revert\n    /* \"#utility.yul\":1595:1876   */\ntag_33:\n    /* \"#utility.yul\":1678:1705   */\n  tag_61\n    /* \"#utility.yul\":1700:1704   */\n  dup3\n    /* \"#utility.yul\":1678:1705   */\n  tag_31\n  jump\t// in\ntag_61:\n    /* \"#utility.yul\":1670:1676   */\n  dup2\n    /* \"#utility.yul\":1666:1706   */\n  add\n    /* \"#utility.yul\":1808:1814   */\n  dup2\n    /* \"#utility.yul\":1796:1806   */\n  dup2\n    /* \"#utility.yul\":1793:1815   */\n  lt\n    /* \"#utility.yul\":1772:1790   */\n  0xffffffffffffffff\n    /* \"#utility.yul\":1760:1770   */\n  dup3\n    /* \"#utility.yul\":1757:1791   */\n  gt\n    /* \"#utility.yul\":1754:1816   */\n  or\n    /* \"#utility.yul\":1751:1839   */\n  iszero\n  tag_62\n  jumpi\n    /* \"#utility.yul\":1819:1837   */\n  tag_63\n  tag_32\n  jump\t// in\ntag_63:\n    /* \"#utility.yul\":1751:1839   */\ntag_62:\n    /* \"#utility.yul\":1859:1869   */\n  dup1\n    /* \"#utility.yul\":1855:1857   */\n  0x40\n    /* \"#utility.yul\":1848:1870   */\n  mstore\n    /* \"#utility.yul\":1638:1876   */\n  pop\n    /* \"#utility.yul\":1595:1876   */\n  pop\n  pop\n  jump\t// out\n    /* \"#utility.yul\":1882:2011   */\ntag_34:\n    /* \"#utility.yul\":1916:1922   */\n  0x00\n    /* \"#utility.yul\":1943:1963   */\n  tag_65\n  tag_20\n  jump\t// in\ntag_65:\n    /* \"#utility.yul\":1933:1963   */\n  swap1\n  pop\n    /* \"#utility.yul\":1972:2005   */\n  tag_66\n    /* \"#utility.yul\":2000:2004   */\n  dup3\n    /* \"#utility.yul\":1992:1998   */\n  dup3\n    /* \"#utility.yul\":1972:2005   */\n  tag_33\n  jump\t// in\ntag_66:\n    /* \"#utility.yul\":1882:2011   */\n  swap2\n  swap1\n  pop\n  jump\t// out\n    /* \"#utility.yul\":2017:2325   */\ntag_35:\n    /* \"#utility.yul\":2079:2083   */\n  0x00\n    /* \"#utility.yul\":2169:2187   */\n  0xffffffffffffffff\n    /* \"#utility.yul\":2161:2167   */\n  dup3\n    /* \"#utility.yul\":2158:2188   */\n  gt\n    /* \"#utility.yul\":2155:2211   */\n  iszero\n  tag_68\n  jumpi\n    /* \"#utility.yul\":2191:2209   */\n  tag_69\n  tag_32\n  jump\t// in\ntag_69:\n    /* \"#utility.yul\":2155:2211   */\ntag_68:\n    /* \"#utility.yul\":2229:2258   */\n  tag_70\n    /* \"#utility.yul\":2251:2257   */\n  dup3\n    /* \"#utility.yul\":2229:2258   */\n  tag_31\n  jump\t// in\ntag_70:\n    /* \"#utility.yul\":2221:2258   */\n  swap1\n  pop\n    /* \"#utility.yul\":2313:2317   */\n  0x20\n    /* \"#utility.yul\":2307:2311   */\n  dup2\n    /* \"#utility.yul\":2303:2318   */\n  add\n    /* \"#utility.yul\":2295:2318   */\n  swap1\n  pop\n    /* \"#utility.yul\":2017:2325   */\n  swap2\n  swap1\n  pop\n  jump\t// out\n    /* \"#utility.yul\":2331:2638   */\ntag_36:\n    /* \"#utility.yul\":2399:2400   */\n  0x00\n    /* \"#utility.yul\":2409:2522   */\ntag_72:\n    /* \"#utility.yul\":2423:2429   */\n  dup4\n    /* \"#utility.yul\":2420:2421   */\n  dup2\n    /* \"#utility.yul\":2417:2430   */\n  lt\n    /* \"#utility.yul\":2409:2522   */\n  iszero\n  tag_74\n  jumpi\n    /* \"#utility.yul\":2508:2509   */\n  dup1\n    /* \"#utility.yul\":2503:2506   */\n  dup3\n    /* \"#utility.yul\":2499:2510   */\n  add\n    /* \"#utility.yul\":2493:2511   */\n  mload\n    /* \"#utility.yul\":2489:2490   */\n  dup2\n    /* \"#utility.yul\":2484:2487   */\n  dup5\n    /* \"#utility.yul\":2480:2491   */\n  add\n    /* \"#utility.yul\":2473:2512   */\n  mstore\n    /* \"#utility.yul\":2445:2447   */\n  0x20\n    /* \"#utility.yul\":2442:2443   */\n  dup2\n    /* \"#utility.yul\":2438:2448   */\n  add\n    /* \"#utility.yul\":2433:2448   */\n  swap1\n  pop\n    /* \"#utility.yul\":2409:2522   */\n  jump(tag_72)\ntag_74:\n    /* \"#utility.yul\":2540:2546   */\n  dup4\n    /* \"#utility.yul\":2537:2538   */\n  dup2\n    /* \"#utility.yul\":2534:2547   */\n  gt\n    /* \"#utility.yul\":2531:2632   */\n  iszero\n  tag_75\n  jumpi\n    /* \"#utility.yul\":2620:2621   */\n  0x00\n    /* \"#utility.yul\":2611:2617   */\n  dup5\n    /* \"#utility.yul\":2606:2609   */\n  dup5\n    /* \"#utility.yul\":2602:2618   */\n  add\n    /* \"#utility.yul\":2595:2622   */\n  mstore\n    /* \"#utility.yul\":2531:2632   */\ntag_75:\n    /* \"#utility.yul\":2380:2638   */\n  pop\n    /* \"#utility.yul\":2331:2638   */\n  pop\n  pop\n  pop\n  jump\t// out\n    /* \"#utility.yul\":2644:3065   */\ntag_37:\n    /* \"#utility.yul\":2733:2738   */\n  0x00\n    /* \"#utility.yul\":2758:2824   */\n  tag_77\n    /* \"#utility.yul\":2774:2823   */\n  tag_78\n    /* \"#utility.yul\":2816:2822   */\n  dup5\n    /* \"#utility.yul\":2774:2823   */\n  tag_35\n  jump\t// in\ntag_78:\n    /* \"#utility.yul\":2758:2824   */\n  tag_34\n  jump\t// in\ntag_77:\n    /* \"#utility.yul\":2749:2824   */\n  swap1\n  pop\n    /* \"#utility.yul\":2847:2853   */\n  dup3\n    /* \"#utility.yul\":2840:2845   */\n  dup2\n    /* \"#utility.yul\":2833:2854   */\n  mstore\n    /* \"#utility.yul\":2885:2889   */\n  0x20\n    /* \"#utility.yul\":2878:2883   */\n  dup2\n    /* \"#utility.yul\":2874:2890   */\n  add\n    /* \"#utility.yul\":2923:2926   */\n  dup5\n    /* \"#utility.yul\":2914:2920   */\n  dup5\n    /* \"#utility.yul\":2909:2912   */\n  dup5\n    /* \"#utility.yul\":2905:2921   */\n  add\n    /* \"#utility.yul\":2902:2927   */\n  gt\n    /* \"#utility.yul\":2899:3011   */\n  iszero\n  tag_79\n  jumpi\n    /* \"#utility.yul\":2930:3009   */\n  tag_80\n  tag_30\n  jump\t// in\ntag_80:\n    /* \"#utility.yul\":2899:3011   */\ntag_79:\n    /* \"#utility.yul\":3020:3059   */\n  tag_81\n    /* \"#utility.yul\":3052:3058   */\n  dup5\n    /* \"#utility.yul\":3047:3050   */\n  dup3\n    /* \"#utility.yul\":3042:3045   */\n  dup6\n    /* \"#utility.yul\":3020:3059   */\n  tag_36\n  jump\t// in\ntag_81:\n    /* \"#utility.yul\":2739:3065   */\n  pop\n    /* \"#utility.yul\":2644:3065   */\n  swap4\n  swap3\n  pop\n  pop\n  pop\n  jump\t// out\n    /* \"#utility.yul\":3085:3440   */\ntag_38:\n    /* \"#utility.yul\":3152:3157   */\n  0x00\n    /* \"#utility.yul\":3201:3204   */\n  dup3\n    /* \"#utility.yul\":3194:3198   */\n  0x1f\n    /* \"#utility.yul\":3186:3192   */\n  dup4\n    /* \"#utility.yul\":3182:3199   */\n  add\n    /* \"#utility.yul\":3178:3205   */\n  slt\n    /* \"#utility.yul\":3168:3290   */\n  tag_83\n  jumpi\n    /* \"#utility.yul\":3209:3288   */\n  tag_84\n  tag_29\n  jump\t// in\ntag_84:\n    /* \"#utility.yul\":3168:3290   */\ntag_83:\n    /* \"#utility.yul\":3319:3325   */\n  dup2\n    /* \"#utility.yul\":3313:3326   */\n  mload\n    /* \"#utility.yul\":3344:3434   */\n  tag_85\n    /* \"#utility.yul\":3430:3433   */\n  dup5\n    /* \"#utility.yul\":3422:3428   */\n  dup3\n    /* \"#utility.yul\":3415:3419   */\n  0x20\n    /* \"#utility.yul\":3407:3413   */\n  dup7\n    /* \"#utility.yul\":3403:3420   */\n  add\n    /* \"#utility.yul\":3344:3434   */\n  tag_37\n  jump\t// in\ntag_85:\n    /* \"#utility.yul\":3335:3434   */\n  swap2\n  pop\n    /* \"#utility.yul\":3158:3440   */\n  pop\n    /* \"#utility.yul\":3085:3440   */\n  swap3\n  swap2\n  pop\n  pop\n  jump\t// out\n    /* \"#utility.yul\":3446:4276   */\ntag_3:\n    /* \"#utility.yul\":3541:3547   */\n  0x00\n    /* \"#utility.yul\":3549:3555   */\n  dup1\n    /* \"#utility.yul\":3557:3563   */\n  0x00\n    /* \"#utility.yul\":3606:3608   */\n  0x60\n    /* \"#utility.yul\":3594:3603   */\n  dup5\n    /* \"#utility.yul\":3585:3592   */\n  dup7\n    /* \"#utility.yul\":3581:3604   */\n  sub\n    /* \"#utility.yul\":3577:3609   */\n  slt\n    /* \"#utility.yul\":3574:3693   */\n  iszero\n  tag_87\n  jumpi\n    /* \"#utility.yul\":3612:3691   */\n  tag_88\n  tag_21\n  jump\t// in\ntag_88:\n    /* \"#utility.yul\":3574:3693   */\ntag_87:\n    /* \"#utility.yul\":3732:3733   */\n  0x00\n    /* \"#utility.yul\":3757:3821   */\n  tag_89\n    /* \"#utility.yul\":3813:3820   */\n  dup7\n    /* \"#utility.yul\":3804:3810   */\n  dup3\n    /* \"#utility.yul\":3793:3802   */\n  dup8\n    /* \"#utility.yul\":3789:3811   */\n  add\n    /* \"#utility.yul\":3757:3821   */\n  tag_25\n  jump\t// in\ntag_89:\n    /* \"#utility.yul\":3747:3821   */\n  swap4\n  pop\n    /* \"#utility.yul\":3703:3831   */\n  pop\n    /* \"#utility.yul\":3870:3872   */\n  0x20\n    /* \"#utility.yul\":3896:3957   */\n  tag_90\n    /* \"#utility.yul\":3949:3956   */\n  dup7\n    /* \"#utility.yul\":3940:3946   */\n  dup3\n    /* \"#utility.yul\":3929:3938   */\n  dup8\n    /* \"#utility.yul\":3925:3947   */\n  add\n    /* \"#utility.yul\":3896:3957   */\n  tag_28\n  jump\t// in\ntag_90:\n    /* \"#utility.yul\":3886:3957   */\n  swap3\n  pop\n    /* \"#utility.yul\":3841:3967   */\n  pop\n    /* \"#utility.yul\":4027:4029   */\n  0x40\n    /* \"#utility.yul\":4016:4025   */\n  dup5\n    /* \"#utility.yul\":4012:4030   */\n  add\n    /* \"#utility.yul\":4006:4031   */\n  mload\n    /* \"#utility.yul\":4058:4076   */\n  0xffffffffffffffff\n    /* \"#utility.yul\":4050:4056   */\n  dup2\n    /* \"#utility.yul\":4047:4077   */\n  gt\n    /* \"#utility.yul\":4044:4161   */\n  iszero\n  tag_91\n  jumpi\n    /* \"#utility.yul\":4080:4159   */\n  tag_92\n  tag_22\n  jump\t// in\ntag_92:\n    /* \"#utility.yul\":4044:4161   */\ntag_91:\n    /* \"#utility.yul\":4185:4259   */\n  tag_93\n    /* \"#utility.yul\":4251:4258   */\n  dup7\n    /* \"#utility.yul\":4242:4248   */\n  dup3\n    /* \"#utility.yul\":4231:4240   */\n  dup8\n    /* \"#utility.yul\":4227:4249   */\n  add\n    /* \"#utility.yul\":4185:4259   */\n  tag_38\n  jump\t// in\ntag_93:\n    /* \"#utility.yul\":4175:4259   */\n  swap2\n  pop\n    /* \"#utility.yul\":3977:4269   */\n  pop\n    /* \"#utility.yul\":3446:4276   */\n  swap3\n  pop\n  swap3\n  pop\n  swap3\n  jump\t// out\n    /* \"#utility.yul\":4282:4462   */\ntag_39:\n    /* \"#utility.yul\":4330:4407   */\n  0x4e487b7100000000000000000000000000000000000000000000000000000000\n    /* \"#utility.yul\":4327:4328   */\n  0x00\n    /* \"#utility.yul\":4320:4408   */\n  mstore\n    /* \"#utility.yul\":4427:4431   */\n  0x22\n    /* \"#utility.yul\":4424:4425   */\n  0x04\n    /* \"#utility.yul\":4417:4432   */\n  mstore\n    /* \"#utility.yul\":4451:4455   */\n  0x24\n    /* \"#utility.yul\":4448:4449   */\n  0x00\n    /* \"#utility.yul\":4441:4456   */\n  revert\n    /* \"#utility.yul\":4468:4788   */\ntag_10:\n    /* \"#utility.yul\":4512:4518   */\n  0x00\n    /* \"#utility.yul\":4549:4550   */\n  0x02\n    /* \"#utility.yul\":4543:4547   */\n  dup3\n    /* \"#utility.yul\":4539:4551   */\n  div\n    /* \"#utility.yul\":4529:4551   */\n  swap1\n  pop\n    /* \"#utility.yul\":4596:4597   */\n  0x01\n    /* \"#utility.yul\":4590:4594   */\n  dup3\n    /* \"#utility.yul\":4586:4598   */\n  and\n    /* \"#utility.yul\":4617:4635   */\n  dup1\n    /* \"#utility.yul\":4607:4688   */\n  tag_96\n  jumpi\n    /* \"#utility.yul\":4673:4677   */\n  0x7f\n    /* \"#utility.yul\":4665:4671   */\n  dup3\n    /* \"#utility.yul\":4661:4678   */\n  and\n    /* \"#utility.yul\":4651:4678   */\n  swap2\n  pop\n    /* \"#utility.yul\":4607:4688   */\ntag_96:\n    /* \"#utility.yul\":4735:4737   */\n  0x20\n    /* \"#utility.yul\":4727:4733   */\n  dup3\n    /* \"#utility.yul\":4724:4738   */\n  lt\n    /* \"#utility.yul\":4704:4722   */\n  dup2\n    /* \"#utility.yul\":4701:4739   */\n  sub\n    /* \"#utility.yul\":4698:4782   */\n  tag_97\n  jumpi\n    /* \"#utility.yul\":4754:4772   */\n  tag_98\n  tag_39\n  jump\t// in\ntag_98:\n    /* \"#utility.yul\":4698:4782   */\ntag_97:\n    /* \"#utility.yul\":4519:4788   */\n  pop\n    /* \"#utility.yul\":4468:4788   */\n  swap2\n  swap1\n  pop\n  jump\t// out\n    /* \"contracts/Identity.sol\":70:390  contract Identity{... */\ntag_8:\n  dataSize(sub_0)\n  dup1\n  dataOffset(sub_0)\n  0x00\n  codecopy\n  0x00\n  return\nstop\n\nsub_0: assembly {\n        /* \"contracts/Identity.sol\":70:390  contract Identity{... */\n      mstore(0x40, 0x80)\n      callvalue\n      dup1\n      iszero\n      tag_1\n      jumpi\n      0x00\n      dup1\n      revert\n    tag_1:\n      pop\n      jumpi(tag_2, lt(calldatasize, 0x04))\n      shr(0xe0, calldataload(0x00))\n      dup1\n      0x06fdde03\n      eq\n      tag_3\n      jumpi\n      dup1\n      0x099aea0a\n      eq\n      tag_4\n      jumpi\n      dup1\n      0x3f83ea3b\n      eq\n      tag_5\n      jumpi\n      dup1\n      0x521eb273\n      eq\n      tag_6\n      jumpi\n    tag_2:\n      0x00\n      dup1\n      revert\n        /* \"contracts/Identity.sol\":146:164  string public name */\n    tag_3:\n      tag_7\n      tag_8\n      jump\t// in\n    tag_7:\n      mload(0x40)\n      tag_9\n      swap2\n      swap1\n      tag_10\n      jump\t// in\n    tag_9:\n      mload(0x40)\n      dup1\n      swap2\n      sub\n      swap1\n      return\n        /* \"contracts/Identity.sol\":119:140  bool public isWorking */\n    tag_4:\n      tag_11\n      tag_12\n      jump\t// in\n    tag_11:\n      mload(0x40)\n      tag_13\n      swap2\n      swap1\n      tag_14\n      jump\t// in\n    tag_13:\n      mload(0x40)\n      dup1\n      swap2\n      sub\n      swap1\n      return\n        /* \"contracts/Identity.sol\":93:113  uint public idNumber */\n    tag_5:\n      tag_15\n      tag_16\n      jump\t// in\n    tag_15:\n      mload(0x40)\n      tag_17\n      swap2\n      swap1\n      tag_18\n      jump\t// in\n    tag_17:\n      mload(0x40)\n      dup1\n      swap2\n      sub\n      swap1\n      return\n        /* \"contracts/Identity.sol\":170:191  address public wallet */\n    tag_6:\n      tag_19\n      tag_20\n      jump\t// in\n    tag_19:\n      mload(0x40)\n      tag_21\n      swap2\n      swap1\n      tag_22\n      jump\t// in\n    tag_21:\n      mload(0x40)\n      dup1\n      swap2\n      sub\n      swap1\n      return\n        /* \"contracts/Identity.sol\":146:164  string public name */\n    tag_8:\n      0x02\n      dup1\n      sload\n      tag_23\n      swap1\n      tag_24\n      jump\t// in\n    tag_23:\n      dup1\n      0x1f\n      add\n      0x20\n      dup1\n      swap2\n      div\n      mul\n      0x20\n      add\n      mload(0x40)\n      swap1\n      dup2\n      add\n      0x40\n      mstore\n      dup1\n      swap3\n      swap2\n      swap1\n      dup2\n      dup2\n      mstore\n      0x20\n      add\n      dup3\n      dup1\n      sload\n      tag_25\n      swap1\n      tag_24\n      jump\t// in\n    tag_25:\n      dup1\n      iszero\n      tag_26\n      jumpi\n      dup1\n      0x1f\n      lt\n      tag_27\n      jumpi\n      0x0100\n      dup1\n      dup4\n      sload\n      div\n      mul\n      dup4\n      mstore\n      swap2\n      0x20\n      add\n      swap2\n      jump(tag_26)\n    tag_27:\n      dup3\n      add\n      swap2\n      swap1\n      0x00\n      mstore\n      keccak256(0x00, 0x20)\n      swap1\n    tag_28:\n      dup2\n      sload\n      dup2\n      mstore\n      swap1\n      0x01\n      add\n      swap1\n      0x20\n      add\n      dup1\n      dup4\n      gt\n      tag_28\n      jumpi\n      dup3\n      swap1\n      sub\n      0x1f\n      and\n      dup3\n      add\n      swap2\n    tag_26:\n      pop\n      pop\n      pop\n      pop\n      pop\n      dup2\n      jump\t// out\n        /* \"contracts/Identity.sol\":119:140  bool public isWorking */\n    tag_12:\n      0x01\n      0x00\n      swap1\n      sload\n      swap1\n      0x0100\n      exp\n      swap1\n      div\n      0xff\n      and\n      dup2\n      jump\t// out\n        /* \"contracts/Identity.sol\":93:113  uint public idNumber */\n    tag_16:\n      sload(0x00)\n      dup2\n      jump\t// out\n        /* \"contracts/Identity.sol\":170:191  address public wallet */\n    tag_20:\n      0x03\n      0x00\n      swap1\n      sload\n      swap1\n      0x0100\n      exp\n      swap1\n      div\n      0xffffffffffffffffffffffffffffffffffffffff\n      and\n      dup2\n      jump\t// out\n        /* \"#utility.yul\":7:106   */\n    tag_29:\n        /* \"#utility.yul\":59:65   */\n      0x00\n        /* \"#utility.yul\":93:98   */\n      dup2\n        /* \"#utility.yul\":87:99   */\n      mload\n        /* \"#utility.yul\":77:99   */\n      swap1\n      pop\n        /* \"#utility.yul\":7:106   */\n      swap2\n      swap1\n      pop\n      jump\t// out\n        /* \"#utility.yul\":112:281   */\n    tag_30:\n        /* \"#utility.yul\":196:207   */\n      0x00\n        /* \"#utility.yul\":230:236   */\n      dup3\n        /* \"#utility.yul\":225:228   */\n      dup3\n        /* \"#utility.yul\":218:237   */\n      mstore\n        /* \"#utility.yul\":270:274   */\n      0x20\n        /* \"#utility.yul\":265:268   */\n      dup3\n        /* \"#utility.yul\":261:275   */\n      add\n        /* \"#utility.yul\":246:275   */\n      swap1\n      pop\n        /* \"#utility.yul\":112:281   */\n      swap3\n      swap2\n      pop\n      pop\n      jump\t// out\n        /* \"#utility.yul\":287:594   */\n    tag_31:\n        /* \"#utility.yul\":355:356   */\n      0x00\n        /* \"#utility.yul\":365:478   */\n    tag_46:\n        /* \"#utility.yul\":379:385   */\n      dup4\n        /* \"#utility.yul\":376:377   */\n      dup2\n        /* \"#utility.yul\":373:386   */\n      lt\n        /* \"#utility.yul\":365:478   */\n      iszero\n      tag_48\n      jumpi\n        /* \"#utility.yul\":464:465   */\n      dup1\n        /* \"#utility.yul\":459:462   */\n      dup3\n        /* \"#utility.yul\":455:466   */\n      add\n        /* \"#utility.yul\":449:467   */\n      mload\n        /* \"#utility.yul\":445:446   */\n      dup2\n        /* \"#utility.yul\":440:443   */\n      dup5\n        /* \"#utility.yul\":436:447   */\n      add\n        /* \"#utility.yul\":429:468   */\n      mstore\n        /* \"#utility.yul\":401:403   */\n      0x20\n        /* \"#utility.yul\":398:399   */\n      dup2\n        /* \"#utility.yul\":394:404   */\n      add\n        /* \"#utility.yul\":389:404   */\n      swap1\n      pop\n        /* \"#utility.yul\":365:478   */\n      jump(tag_46)\n    tag_48:\n        /* \"#utility.yul\":496:502   */\n      dup4\n        /* \"#utility.yul\":493:494   */\n      dup2\n        /* \"#utility.yul\":490:503   */\n      gt\n        /* \"#utility.yul\":487:588   */\n      iszero\n      tag_49\n      jumpi\n        /* \"#utility.yul\":576:577   */\n      0x00\n        /* \"#utility.yul\":567:573   */\n      dup5\n        /* \"#utility.yul\":562:565   */\n      dup5\n        /* \"#utility.yul\":558:574   */\n      add\n        /* \"#utility.yul\":551:578   */\n      mstore\n        /* \"#utility.yul\":487:588   */\n    tag_49:\n        /* \"#utility.yul\":336:594   */\n      pop\n        /* \"#utility.yul\":287:594   */\n      pop\n      pop\n      pop\n      jump\t// out\n        /* \"#utility.yul\":600:702   */\n    tag_32:\n        /* \"#utility.yul\":641:647   */\n      0x00\n        /* \"#utility.yul\":692:694   */\n      0x1f\n        /* \"#utility.yul\":688:695   */\n      not\n        /* \"#utility.yul\":683:685   */\n      0x1f\n        /* \"#utility.yul\":676:681   */\n      dup4\n        /* \"#utility.yul\":672:686   */\n      add\n        /* \"#utility.yul\":668:696   */\n      and\n        /* \"#utility.yul\":658:696   */\n      swap1\n      pop\n        /* \"#utility.yul\":600:702   */\n      swap2\n      swap1\n      pop\n      jump\t// out\n        /* \"#utility.yul\":708:1072   */\n    tag_33:\n        /* \"#utility.yul\":796:799   */\n      0x00\n        /* \"#utility.yul\":824:863   */\n      tag_52\n        /* \"#utility.yul\":857:862   */\n      dup3\n        /* \"#utility.yul\":824:863   */\n      tag_29\n      jump\t// in\n    tag_52:\n        /* \"#utility.yul\":879:950   */\n      tag_53\n        /* \"#utility.yul\":943:949   */\n      dup2\n        /* \"#utility.yul\":938:941   */\n      dup6\n        /* \"#utility.yul\":879:950   */\n      tag_30\n      jump\t// in\n    tag_53:\n        /* \"#utility.yul\":872:950   */\n      swap4\n      pop\n        /* \"#utility.yul\":959:1011   */\n      tag_54\n        /* \"#utility.yul\":1004:1010   */\n      dup2\n        /* \"#utility.yul\":999:1002   */\n      dup6\n        /* \"#utility.yul\":992:996   */\n      0x20\n        /* \"#utility.yul\":985:990   */\n      dup7\n        /* \"#utility.yul\":981:997   */\n      add\n        /* \"#utility.yul\":959:1011   */\n      tag_31\n      jump\t// in\n    tag_54:\n        /* \"#utility.yul\":1036:1065   */\n      tag_55\n        /* \"#utility.yul\":1058:1064   */\n      dup2\n        /* \"#utility.yul\":1036:1065   */\n      tag_32\n      jump\t// in\n    tag_55:\n        /* \"#utility.yul\":1031:1034   */\n      dup5\n        /* \"#utility.yul\":1027:1066   */\n      add\n        /* \"#utility.yul\":1020:1066   */\n      swap2\n      pop\n        /* \"#utility.yul\":800:1072   */\n      pop\n        /* \"#utility.yul\":708:1072   */\n      swap3\n      swap2\n      pop\n      pop\n      jump\t// out\n        /* \"#utility.yul\":1078:1391   */\n    tag_10:\n        /* \"#utility.yul\":1191:1195   */\n      0x00\n        /* \"#utility.yul\":1229:1231   */\n      0x20\n        /* \"#utility.yul\":1218:1227   */\n      dup3\n        /* \"#utility.yul\":1214:1232   */\n      add\n        /* \"#utility.yul\":1206:1232   */\n      swap1\n      pop\n        /* \"#utility.yul\":1278:1287   */\n      dup2\n        /* \"#utility.yul\":1272:1276   */\n      dup2\n        /* \"#utility.yul\":1268:1288   */\n      sub\n        /* \"#utility.yul\":1264:1265   */\n      0x00\n        /* \"#utility.yul\":1253:1262   */\n      dup4\n        /* \"#utility.yul\":1249:1266   */\n      add\n        /* \"#utility.yul\":1242:1289   */\n      mstore\n        /* \"#utility.yul\":1306:1384   */\n      tag_57\n        /* \"#utility.yul\":1379:1383   */\n      dup2\n        /* \"#utility.yul\":1370:1376   */\n      dup5\n        /* \"#utility.yul\":1306:1384   */\n      tag_33\n      jump\t// in\n    tag_57:\n        /* \"#utility.yul\":1298:1384   */\n      swap1\n      pop\n        /* \"#utility.yul\":1078:1391   */\n      swap3\n      swap2\n      pop\n      pop\n      jump\t// out\n        /* \"#utility.yul\":1397:1487   */\n    tag_34:\n        /* \"#utility.yul\":1431:1438   */\n      0x00\n        /* \"#utility.yul\":1474:1479   */\n      dup2\n        /* \"#utility.yul\":1467:1480   */\n      iszero\n        /* \"#utility.yul\":1460:1481   */\n      iszero\n        /* \"#utility.yul\":1449:1481   */\n      swap1\n      pop\n        /* \"#utility.yul\":1397:1487   */\n      swap2\n      swap1\n      pop\n      jump\t// out\n        /* \"#utility.yul\":1493:1602   */\n    tag_35:\n        /* \"#utility.yul\":1574:1595   */\n      tag_60\n        /* \"#utility.yul\":1589:1594   */\n      dup2\n        /* \"#utility.yul\":1574:1595   */\n      tag_34\n      jump\t// in\n    tag_60:\n        /* \"#utility.yul\":1569:1572   */\n      dup3\n        /* \"#utility.yul\":1562:1596   */\n      mstore\n        /* \"#utility.yul\":1493:1602   */\n      pop\n      pop\n      jump\t// out\n        /* \"#utility.yul\":1608:1818   */\n    tag_14:\n        /* \"#utility.yul\":1695:1699   */\n      0x00\n        /* \"#utility.yul\":1733:1735   */\n      0x20\n        /* \"#utility.yul\":1722:1731   */\n      dup3\n        /* \"#utility.yul\":1718:1736   */\n      add\n        /* \"#utility.yul\":1710:1736   */\n      swap1\n      pop\n        /* \"#utility.yul\":1746:1811   */\n      tag_62\n        /* \"#utility.yul\":1808:1809   */\n      0x00\n        /* \"#utility.yul\":1797:1806   */\n      dup4\n        /* \"#utility.yul\":1793:1810   */\n      add\n        /* \"#utility.yul\":1784:1790   */\n      dup5\n        /* \"#utility.yul\":1746:1811   */\n      tag_35\n      jump\t// in\n    tag_62:\n        /* \"#utility.yul\":1608:1818   */\n      swap3\n      swap2\n      pop\n      pop\n      jump\t// out\n        /* \"#utility.yul\":1824:1901   */\n    tag_36:\n        /* \"#utility.yul\":1861:1868   */\n      0x00\n        /* \"#utility.yul\":1890:1895   */\n      dup2\n        /* \"#utility.yul\":1879:1895   */\n      swap1\n      pop\n        /* \"#utility.yul\":1824:1901   */\n      swap2\n      swap1\n      pop\n      jump\t// out\n        /* \"#utility.yul\":1907:2025   */\n    tag_37:\n        /* \"#utility.yul\":1994:2018   */\n      tag_65\n        /* \"#utility.yul\":2012:2017   */\n      dup2\n        /* \"#utility.yul\":1994:2018   */\n      tag_36\n      jump\t// in\n    tag_65:\n        /* \"#utility.yul\":1989:1992   */\n      dup3\n        /* \"#utility.yul\":1982:2019   */\n      mstore\n        /* \"#utility.yul\":1907:2025   */\n      pop\n      pop\n      jump\t// out\n        /* \"#utility.yul\":2031:2253   */\n    tag_18:\n        /* \"#utility.yul\":2124:2128   */\n      0x00\n        /* \"#utility.yul\":2162:2164   */\n      0x20\n        /* \"#utility.yul\":2151:2160   */\n      dup3\n        /* \"#utility.yul\":2147:2165   */\n      add\n        /* \"#utility.yul\":2139:2165   */\n      swap1\n      pop\n        /* \"#utility.yul\":2175:2246   */\n      tag_67\n        /* \"#utility.yul\":2243:2244   */\n      0x00\n        /* \"#utility.yul\":2232:2241   */\n      dup4\n        /* \"#utility.yul\":2228:2245   */\n      add\n        /* \"#utility.yul\":2219:2225   */\n      dup5\n        /* \"#utility.yul\":2175:2246   */\n      tag_37\n      jump\t// in\n    tag_67:\n        /* \"#utility.yul\":2031:2253   */\n      swap3\n      swap2\n      pop\n      pop\n      jump\t// out\n        /* \"#utility.yul\":2259:2385   */\n    tag_38:\n        /* \"#utility.yul\":2296:2303   */\n      0x00\n        /* \"#utility.yul\":2336:2378   */\n      0xffffffffffffffffffffffffffffffffffffffff\n        /* \"#utility.yul\":2329:2334   */\n      dup3\n        /* \"#utility.yul\":2325:2379   */\n      and\n        /* \"#utility.yul\":2314:2379   */\n      swap1\n      pop\n        /* \"#utility.yul\":2259:2385   */\n      swap2\n      swap1\n      pop\n      jump\t// out\n        /* \"#utility.yul\":2391:2487   */\n    tag_39:\n        /* \"#utility.yul\":2428:2435   */\n      0x00\n        /* \"#utility.yul\":2457:2481   */\n      tag_70\n        /* \"#utility.yul\":2475:2480   */\n      dup3\n        /* \"#utility.yul\":2457:2481   */\n      tag_38\n      jump\t// in\n    tag_70:\n        /* \"#utility.yul\":2446:2481   */\n      swap1\n      pop\n        /* \"#utility.yul\":2391:2487   */\n      swap2\n      swap1\n      pop\n      jump\t// out\n        /* \"#utility.yul\":2493:2611   */\n    tag_40:\n        /* \"#utility.yul\":2580:2604   */\n      tag_72\n        /* \"#utility.yul\":2598:2603   */\n      dup2\n        /* \"#utility.yul\":2580:2604   */\n      tag_39\n      jump\t// in\n    tag_72:\n        /* \"#utility.yul\":2575:2578   */\n      dup3\n        /* \"#utility.yul\":2568:2605   */\n      mstore\n        /* \"#utility.yul\":2493:2611   */\n      pop\n      pop\n      jump\t// out\n        /* \"#utility.yul\":2617:2839   */\n    tag_22:\n        /* \"#utility.yul\":2710:2714   */\n      0x00\n        /* \"#utility.yul\":2748:2750   */\n      0x20\n        /* \"#utility.yul\":2737:2746   */\n      dup3\n        /* \"#utility.yul\":2733:2751   */\n      add\n        /* \"#utility.yul\":2725:2751   */\n      swap1\n      pop\n        /* \"#utility.yul\":2761:2832   */\n      tag_74\n        /* \"#utility.yul\":2829:2830   */\n      0x00\n        /* \"#utility.yul\":2818:2827   */\n      dup4\n        /* \"#utility.yul\":2814:2831   */\n      add\n        /* \"#utility.yul\":2805:2811   */\n      dup5\n        /* \"#utility.yul\":2761:2832   */\n      tag_40\n      jump\t// in\n    tag_74:\n        /* \"#utility.yul\":2617:2839   */\n      swap3\n      swap2\n      pop\n      pop\n      jump\t// out\n        /* \"#utility.yul\":2845:3025   */\n    tag_41:\n        /* \"#utility.yul\":2893:2970   */\n      0x4e487b7100000000000000000000000000000000000000000000000000000000\n        /* \"#utility.yul\":2890:2891   */\n      0x00\n        /* \"#utility.yul\":2883:2971   */\n      mstore\n        /* \"#utility.yul\":2990:2994   */\n      0x22\n        /* \"#utility.yul\":2987:2988   */\n      0x04\n        /* \"#utility.yul\":2980:2995   */\n      mstore\n        /* \"#utility.yul\":3014:3018   */\n      0x24\n        /* \"#utility.yul\":3011:3012   */\n      0x00\n        /* \"#utility.yul\":3004:3019   */\n      revert\n        /* \"#utility.yul\":3031:3351   */\n    tag_24:\n        /* \"#utility.yul\":3075:3081   */\n      0x00\n        /* \"#utility.yul\":3112:3113   */\n      0x02\n        /* \"#utility.yul\":3106:3110   */\n      dup3\n        /* \"#utility.yul\":3102:3114   */\n      div\n        /* \"#utility.yul\":3092:3114   */\n      swap1\n      pop\n        /* \"#utility.yul\":3159:3160   */\n      0x01\n        /* \"#utility.yul\":3153:3157   */\n      dup3\n        /* \"#utility.yul\":3149:3161   */\n      and\n        /* \"#utility.yul\":3180:3198   */\n      dup1\n        /* \"#utility.yul\":3170:3251   */\n      tag_77\n      jumpi\n        /* \"#utility.yul\":3236:3240   */\n      0x7f\n        /* \"#utility.yul\":3228:3234   */\n      dup3\n        /* \"#utility.yul\":3224:3241   */\n      and\n        /* \"#utility.yul\":3214:3241   */\n      swap2\n      pop\n        /* \"#utility.yul\":3170:3251   */\n    tag_77:\n        /* \"#utility.yul\":3298:3300   */\n      0x20\n        /* \"#utility.yul\":3290:3296   */\n      dup3\n        /* \"#utility.yul\":3287:3301   */\n      lt\n        /* \"#utility.yul\":3267:3285   */\n      dup2\n        /* \"#utility.yul\":3264:3302   */\n      sub\n        /* \"#utility.yul\":3261:3345   */\n      tag_78\n      jumpi\n        /* \"#utility.yul\":3317:3335   */\n      tag_79\n      tag_41\n      jump\t// in\n    tag_79:\n        /* \"#utility.yul\":3261:3345   */\n    tag_78:\n        /* \"#utility.yul\":3082:3351   */\n      pop\n        /* \"#utility.yul\":3031:3351   */\n      swap2\n      swap1\n      pop\n      jump\t// out\n\n    auxdata: 0xa264697066735822122053690d5b53f9e06059babb344caa021e56a5231284546adbbbcf7570ab19d44964736f6c634300080d0033\n}\n",
				"bytecode": {
					"linkReferences": {},
					"object": "60806040523480156200001157600080fd5b506040516200081c3803806200081c833981810160405281019062000037919062000380565b8260008190555081600160006101000a81548160ff021916908315150217905550806002908051906020019062000070929190620000bb565b5033600360006101000a81548173ffffffffffffffffffffffffffffffffffffffff021916908373ffffffffffffffffffffffffffffffffffffffff1602179055505050506200045f565b828054620000c9906200042a565b90600052602060002090601f016020900481019282620000ed576000855562000139565b82601f106200010857805160ff191683800117855562000139565b8280016001018555821562000139579182015b82811115620001385782518255916020019190600101906200011b565b5b5090506200014891906200014c565b5090565b5b80821115620001675760008160009055506001016200014d565b5090565b6000604051905090565b600080fd5b600080fd5b6000819050919050565b62000194816200017f565b8114620001a057600080fd5b50565b600081519050620001b48162000189565b92915050565b60008115159050919050565b620001d181620001ba565b8114620001dd57600080fd5b50565b600081519050620001f181620001c6565b92915050565b600080fd5b600080fd5b6000601f19601f8301169050919050565b7f4e487b7100000000000000000000000000000000000000000000000000000000600052604160045260246000fd5b6200024c8262000201565b810181811067ffffffffffffffff821117156200026e576200026d62000212565b5b80604052505050565b6000620002836200016b565b905062000291828262000241565b919050565b600067ffffffffffffffff821115620002b457620002b362000212565b5b620002bf8262000201565b9050602081019050919050565b60005b83811015620002ec578082015181840152602081019050620002cf565b83811115620002fc576000848401525b50505050565b600062000319620003138462000296565b62000277565b905082815260208101848484011115620003385762000337620001fc565b5b62000345848285620002cc565b509392505050565b600082601f830112620003655762000364620001f7565b5b81516200037784826020860162000302565b91505092915050565b6000806000606084860312156200039c576200039b62000175565b5b6000620003ac86828701620001a3565b9350506020620003bf86828701620001e0565b925050604084015167ffffffffffffffff811115620003e357620003e26200017a565b5b620003f1868287016200034d565b9150509250925092565b7f4e487b7100000000000000000000000000000000000000000000000000000000600052602260045260246000fd5b600060028204905060018216806200044357607f821691505b602082108103620004595762000458620003fb565b5b50919050565b6103ad806200046f6000396000f3fe608060405234801561001057600080fd5b506004361061004c5760003560e01c806306fdde0314610051578063099aea0a1461006f5780633f83ea3b1461008d578063521eb273146100ab575b600080fd5b6100596100c9565b604051610066919061022f565b60405180910390f35b610077610157565b604051610084919061026c565b60405180910390f35b61009561016a565b6040516100a291906102a0565b60405180910390f35b6100b3610170565b6040516100c091906102fc565b60405180910390f35b600280546100d690610346565b80601f016020809104026020016040519081016040528092919081815260200182805461010290610346565b801561014f5780601f106101245761010080835404028352916020019161014f565b820191906000526020600020905b81548152906001019060200180831161013257829003601f168201915b505050505081565b600160009054906101000a900460ff1681565b60005481565b600360009054906101000a900473ffffffffffffffffffffffffffffffffffffffff1681565b600081519050919050565b600082825260208201905092915050565b60005b838110156101d05780820151818401526020810190506101b5565b838111156101df576000848401525b50505050565b6000601f19601f8301169050919050565b600061020182610196565b61020b81856101a1565b935061021b8185602086016101b2565b610224816101e5565b840191505092915050565b6000602082019050818103600083015261024981846101f6565b905092915050565b60008115159050919050565b61026681610251565b82525050565b6000602082019050610281600083018461025d565b92915050565b6000819050919050565b61029a81610287565b82525050565b60006020820190506102b56000830184610291565b92915050565b600073ffffffffffffffffffffffffffffffffffffffff82169050919050565b60006102e6826102bb565b9050919050565b6102f6816102db565b82525050565b600060208201905061031160008301846102ed565b92915050565b7f4e487b7100000000000000000000000000000000000000000000000000000000600052602260045260246000fd5b6000600282049050600182168061035e57607f821691505b60208210810361037157610370610317565b5b5091905056fea264697066735822122053690d5b53f9e06059babb344caa021e56a5231284546adbbbcf7570ab19d44964736f6c634300080d0033",
					"opcodes": "PUSH1 0x80 PUSH1 0x40 MSTORE CALLVALUE DUP1 ISZERO PUSH3 0x11 JUMPI PUSH1 0x0 DUP1 REVERT JUMPDEST POP PUSH1 0x40 MLOAD PUSH3 0x81C CODESIZE SUB DUP1 PUSH3 0x81C DUP4 CODECOPY DUP2 DUP2 ADD PUSH1 0x40 MSTORE DUP2 ADD SWAP1 PUSH3 0x37 SWAP2 SWAP1 PUSH3 0x380 JUMP JUMPDEST DUP3 PUSH1 0x0 DUP2 SWAP1 SSTORE POP DUP2 PUSH1 0x1 PUSH1 0x0 PUSH2 0x100 EXP DUP2 SLOAD DUP2 PUSH1 0xFF MUL NOT AND SWAP1 DUP4 ISZERO ISZERO MUL OR SWAP1 SSTORE POP DUP1 PUSH1 0x2 SWAP1 DUP1 MLOAD SWAP1 PUSH1 0x20 ADD SWAP1 PUSH3 0x70 SWAP3 SWAP2 SWAP1 PUSH3 0xBB JUMP JUMPDEST POP CALLER PUSH1 0x3 PUSH1 0x0 PUSH2 0x100 EXP DUP2 SLOAD DUP2 PUSH20 0xFFFFFFFFFFFFFFFFFFFFFFFFFFFFFFFFFFFFFFFF MUL NOT AND SWAP1 DUP4 PUSH20 0xFFFFFFFFFFFFFFFFFFFFFFFFFFFFFFFFFFFFFFFF AND MUL OR SWAP1 SSTORE POP POP POP POP PUSH3 0x45F JUMP JUMPDEST DUP3 DUP1 SLOAD PUSH3 0xC9 SWAP1 PUSH3 0x42A JUMP JUMPDEST SWAP1 PUSH1 0x0 MSTORE PUSH1 0x20 PUSH1 0x0 KECCAK256 SWAP1 PUSH1 0x1F ADD PUSH1 0x20 SWAP1 DIV DUP2 ADD SWAP3 DUP3 PUSH3 0xED JUMPI PUSH1 0x0 DUP6 SSTORE PUSH3 0x139 JUMP JUMPDEST DUP3 PUSH1 0x1F LT PUSH3 0x108 JUMPI DUP1 MLOAD PUSH1 0xFF NOT AND DUP4 DUP1 ADD OR DUP6 SSTORE PUSH3 0x139 JUMP JUMPDEST DUP3 DUP1 ADD PUSH1 0x1 ADD DUP6 SSTORE DUP3 ISZERO PUSH3 0x139 JUMPI SWAP2 DUP3 ADD JUMPDEST DUP3 DUP2 GT ISZERO PUSH3 0x138 JUMPI DUP3 MLOAD DUP3 SSTORE SWAP2 PUSH1 0x20 ADD SWAP2 SWAP1 PUSH1 0x1 ADD SWAP1 PUSH3 0x11B JUMP JUMPDEST JUMPDEST POP SWAP1 POP PUSH3 0x148 SWAP2 SWAP1 PUSH3 0x14C JUMP JUMPDEST POP SWAP1 JUMP JUMPDEST JUMPDEST DUP1 DUP3 GT ISZERO PUSH3 0x167 JUMPI PUSH1 0x0 DUP2 PUSH1 0x0 SWAP1 SSTORE POP PUSH1 0x1 ADD PUSH3 0x14D JUMP JUMPDEST POP SWAP1 JUMP JUMPDEST PUSH1 0x0 PUSH1 0x40 MLOAD SWAP1 POP SWAP1 JUMP JUMPDEST PUSH1 0x0 DUP1 REVERT JUMPDEST PUSH1 0x0 DUP1 REVERT JUMPDEST PUSH1 0x0 DUP2 SWAP1 POP SWAP2 SWAP1 POP JUMP JUMPDEST PUSH3 0x194 DUP2 PUSH3 0x17F JUMP JUMPDEST DUP2 EQ PUSH3 0x1A0 JUMPI PUSH1 0x0 DUP1 REVERT JUMPDEST POP JUMP JUMPDEST PUSH1 0x0 DUP2 MLOAD SWAP1 POP PUSH3 0x1B4 DUP2 PUSH3 0x189 JUMP JUMPDEST SWAP3 SWAP2 POP POP JUMP JUMPDEST PUSH1 0x0 DUP2 ISZERO ISZERO SWAP1 POP SWAP2 SWAP1 POP JUMP JUMPDEST PUSH3 0x1D1 DUP2 PUSH3 0x1BA JUMP JUMPDEST DUP2 EQ PUSH3 0x1DD JUMPI PUSH1 0x0 DUP1 REVERT JUMPDEST POP JUMP JUMPDEST PUSH1 0x0 DUP2 MLOAD SWAP1 POP PUSH3 0x1F1 DUP2 PUSH3 0x1C6 JUMP JUMPDEST SWAP3 SWAP2 POP POP JUMP JUMPDEST PUSH1 0x0 DUP1 REVERT JUMPDEST PUSH1 0x0 DUP1 REVERT JUMPDEST PUSH1 0x0 PUSH1 0x1F NOT PUSH1 0x1F DUP4 ADD AND SWAP1 POP SWAP2 SWAP1 POP JUMP JUMPDEST PUSH32 0x4E487B7100000000000000000000000000000000000000000000000000000000 PUSH1 0x0 MSTORE PUSH1 0x41 PUSH1 0x4 MSTORE PUSH1 0x24 PUSH1 0x0 REVERT JUMPDEST PUSH3 0x24C DUP3 PUSH3 0x201 JUMP JUMPDEST DUP2 ADD DUP2 DUP2 LT PUSH8 0xFFFFFFFFFFFFFFFF DUP3 GT OR ISZERO PUSH3 0x26E JUMPI PUSH3 0x26D PUSH3 0x212 JUMP JUMPDEST JUMPDEST DUP1 PUSH1 0x40 MSTORE POP POP POP JUMP JUMPDEST PUSH1 0x0 PUSH3 0x283 PUSH3 0x16B JUMP JUMPDEST SWAP1 POP PUSH3 0x291 DUP3 DUP3 PUSH3 0x241 JUMP JUMPDEST SWAP2 SWAP1 POP JUMP JUMPDEST PUSH1 0x0 PUSH8 0xFFFFFFFFFFFFFFFF DUP3 GT ISZERO PUSH3 0x2B4 JUMPI PUSH3 0x2B3 PUSH3 0x212 JUMP JUMPDEST JUMPDEST PUSH3 0x2BF DUP3 PUSH3 0x201 JUMP JUMPDEST SWAP1 POP PUSH1 0x20 DUP2 ADD SWAP1 POP SWAP2 SWAP1 POP JUMP JUMPDEST PUSH1 0x0 JUMPDEST DUP4 DUP2 LT ISZERO PUSH3 0x2EC JUMPI DUP1 DUP3 ADD MLOAD DUP2 DUP5 ADD MSTORE PUSH1 0x20 DUP2 ADD SWAP1 POP PUSH3 0x2CF JUMP JUMPDEST DUP4 DUP2 GT ISZERO PUSH3 0x2FC JUMPI PUSH1 0x0 DUP5 DUP5 ADD MSTORE JUMPDEST POP POP POP POP JUMP JUMPDEST PUSH1 0x0 PUSH3 0x319 PUSH3 0x313 DUP5 PUSH3 0x296 JUMP JUMPDEST PUSH3 0x277 JUMP JUMPDEST SWAP1 POP DUP3 DUP2 MSTORE PUSH1 0x20 DUP2 ADD DUP5 DUP5 DUP5 ADD GT ISZERO PUSH3 0x338 JUMPI PUSH3 0x337 PUSH3 0x1FC JUMP JUMPDEST JUMPDEST PUSH3 0x345 DUP5 DUP3 DUP6 PUSH3 0x2CC JUMP JUMPDEST POP SWAP4 SWAP3 POP POP POP JUMP JUMPDEST PUSH1 0x0 DUP3 PUSH1 0x1F DUP4 ADD SLT PUSH3 0x365 JUMPI PUSH3 0x364 PUSH3 0x1F7 JUMP JUMPDEST JUMPDEST DUP2 MLOAD PUSH3 0x377 DUP5 DUP3 PUSH1 0x20 DUP7 ADD PUSH3 0x302 JUMP JUMPDEST SWAP2 POP POP SWAP3 SWAP2 POP POP JUMP JUMPDEST PUSH1 0x0 DUP1 PUSH1 0x0 PUSH1 0x60 DUP5 DUP7 SUB SLT ISZERO PUSH3 0x39C JUMPI PUSH3 0x39B PUSH3 0x175 JUMP JUMPDEST JUMPDEST PUSH1 0x0 PUSH3 0x3AC DUP7 DUP3 DUP8 ADD PUSH3 0x1A3 JUMP JUMPDEST SWAP4 POP POP PUSH1 0x20 PUSH3 0x3BF DUP7 DUP3 DUP8 ADD PUSH3 0x1E0 JUMP JUMPDEST SWAP3 POP POP PUSH1 0x40 DUP5 ADD MLOAD PUSH8 0xFFFFFFFFFFFFFFFF DUP2 GT ISZERO PUSH3 0x3E3 JUMPI PUSH3 0x3E2 PUSH3 0x17A JUMP JUMPDEST JUMPDEST PUSH3 0x3F1 DUP7 DUP3 DUP8 ADD PUSH3 0x34D JUMP JUMPDEST SWAP2 POP POP SWAP3 POP SWAP3 POP SWAP3 JUMP JUMPDEST PUSH32 0x4E487B7100000000000000000000000000000000000000000000000000000000 PUSH1 0x0 MSTORE PUSH1 0x22 PUSH1 0x4 MSTORE PUSH1 0x24 PUSH1 0x0 REVERT JUMPDEST PUSH1 0x0 PUSH1 0x2 DUP3 DIV SWAP1 POP PUSH1 0x1 DUP3 AND DUP1 PUSH3 0x443 JUMPI PUSH1 0x7F DUP3 AND SWAP2 POP JUMPDEST PUSH1 0x20 DUP3 LT DUP2 SUB PUSH3 0x459 JUMPI PUSH3 0x458 PUSH3 0x3FB JUMP JUMPDEST JUMPDEST POP SWAP2 SWAP1 POP JUMP JUMPDEST PUSH2 0x3AD DUP1 PUSH3 0x46F PUSH1 0x0 CODECOPY PUSH1 0x0 RETURN INVALID PUSH1 0x80 PUSH1 0x40 MSTORE CALLVALUE DUP1 ISZERO PUSH2 0x10 JUMPI PUSH1 0x0 DUP1 REVERT JUMPDEST POP PUSH1 0x4 CALLDATASIZE LT PUSH2 0x4C JUMPI PUSH1 0x0 CALLDATALOAD PUSH1 0xE0 SHR DUP1 PUSH4 0x6FDDE03 EQ PUSH2 0x51 JUMPI DUP1 PUSH4 0x99AEA0A EQ PUSH2 0x6F JUMPI DUP1 PUSH4 0x3F83EA3B EQ PUSH2 0x8D JUMPI DUP1 PUSH4 0x521EB273 EQ PUSH2 0xAB JUMPI JUMPDEST PUSH1 0x0 DUP1 REVERT JUMPDEST PUSH2 0x59 PUSH2 0xC9 JUMP JUMPDEST PUSH1 0x40 MLOAD PUSH2 0x66 SWAP2 SWAP1 PUSH2 0x22F JUMP JUMPDEST PUSH1 0x40 MLOAD DUP1 SWAP2 SUB SWAP1 RETURN JUMPDEST PUSH2 0x77 PUSH2 0x157 JUMP JUMPDEST PUSH1 0x40 MLOAD PUSH2 0x84 SWAP2 SWAP1 PUSH2 0x26C JUMP JUMPDEST PUSH1 0x40 MLOAD DUP1 SWAP2 SUB SWAP1 RETURN JUMPDEST PUSH2 0x95 PUSH2 0x16A JUMP JUMPDEST PUSH1 0x40 MLOAD PUSH2 0xA2 SWAP2 SWAP1 PUSH2 0x2A0 JUMP JUMPDEST PUSH1 0x40 MLOAD DUP1 SWAP2 SUB SWAP1 RETURN JUMPDEST PUSH2 0xB3 PUSH2 0x170 JUMP JUMPDEST PUSH1 0x40 MLOAD PUSH2 0xC0 SWAP2 SWAP1 PUSH2 0x2FC JUMP JUMPDEST PUSH1 0x40 MLOAD DUP1 SWAP2 SUB SWAP1 RETURN JUMPDEST PUSH1 0x2 DUP1 SLOAD PUSH2 0xD6 SWAP1 PUSH2 0x346 JUMP JUMPDEST DUP1 PUSH1 0x1F ADD PUSH1 0x20 DUP1 SWAP2 DIV MUL PUSH1 0x20 ADD PUSH1 0x40 MLOAD SWAP1 DUP2 ADD PUSH1 0x40 MSTORE DUP1 SWAP3 SWAP2 SWAP1 DUP2 DUP2 MSTORE PUSH1 0x20 ADD DUP3 DUP1 SLOAD PUSH2 0x102 SWAP1 PUSH2 0x346 JUMP JUMPDEST DUP1 ISZERO PUSH2 0x14F JUMPI DUP1 PUSH1 0x1F LT PUSH2 0x124 JUMPI PUSH2 0x100 DUP1 DUP4 SLOAD DIV MUL DUP4 MSTORE SWAP2 PUSH1 0x20 ADD SWAP2 PUSH2 0x14F JUMP JUMPDEST DUP3 ADD SWAP2 SWAP1 PUSH1 0x0 MSTORE PUSH1 0x20 PUSH1 0x0 KECCAK256 SWAP1 JUMPDEST DUP2 SLOAD DUP2 MSTORE SWAP1 PUSH1 0x1 ADD SWAP1 PUSH1 0x20 ADD DUP1 DUP4 GT PUSH2 0x132 JUMPI DUP3 SWAP1 SUB PUSH1 0x1F AND DUP3 ADD SWAP2 JUMPDEST POP POP POP POP POP DUP2 JUMP JUMPDEST PUSH1 0x1 PUSH1 0x0 SWAP1 SLOAD SWAP1 PUSH2 0x100 EXP SWAP1 DIV PUSH1 0xFF AND DUP2 JUMP JUMPDEST PUSH1 0x0 SLOAD DUP2 JUMP JUMPDEST PUSH1 0x3 PUSH1 0x0 SWAP1 SLOAD SWAP1 PUSH2 0x100 EXP SWAP1 DIV PUSH20 0xFFFFFFFFFFFFFFFFFFFFFFFFFFFFFFFFFFFFFFFF AND DUP2 JUMP JUMPDEST PUSH1 0x0 DUP2 MLOAD SWAP1 POP SWAP2 SWAP1 POP JUMP JUMPDEST PUSH1 0x0 DUP3 DUP3 MSTORE PUSH1 0x20 DUP3 ADD SWAP1 POP SWAP3 SWAP2 POP POP JUMP JUMPDEST PUSH1 0x0 JUMPDEST DUP4 DUP2 LT ISZERO PUSH2 0x1D0 JUMPI DUP1 DUP3 ADD MLOAD DUP2 DUP5 ADD MSTORE PUSH1 0x20 DUP2 ADD SWAP1 POP PUSH2 0x1B5 JUMP JUMPDEST DUP4 DUP2 GT ISZERO PUSH2 0x1DF JUMPI PUSH1 0x0 DUP5 DUP5 ADD MSTORE JUMPDEST POP POP POP POP JUMP JUMPDEST PUSH1 0x0 PUSH1 0x1F NOT PUSH1 0x1F DUP4 ADD AND SWAP1 POP SWAP2 SWAP1 POP JUMP JUMPDEST PUSH1 0x0 PUSH2 0x201 DUP3 PUSH2 0x196 JUMP JUMPDEST PUSH2 0x20B DUP2 DUP6 PUSH2 0x1A1 JUMP JUMPDEST SWAP4 POP PUSH2 0x21B DUP2 DUP6 PUSH1 0x20 DUP7 ADD PUSH2 0x1B2 JUMP JUMPDEST PUSH2 0x224 DUP2 PUSH2 0x1E5 JUMP JUMPDEST DUP5 ADD SWAP2 POP POP SWAP3 SWAP2 POP POP JUMP JUMPDEST PUSH1 0x0 PUSH1 0x20 DUP3 ADD SWAP1 POP DUP2 DUP2 SUB PUSH1 0x0 DUP4 ADD MSTORE PUSH2 0x249 DUP2 DUP5 PUSH2 0x1F6 JUMP JUMPDEST SWAP1 POP SWAP3 SWAP2 POP POP JUMP JUMPDEST PUSH1 0x0 DUP2 ISZERO ISZERO SWAP1 POP SWAP2 SWAP1 POP JUMP JUMPDEST PUSH2 0x266 DUP2 PUSH2 0x251 JUMP JUMPDEST DUP3 MSTORE POP POP JUMP JUMPDEST PUSH1 0x0 PUSH1 0x20 DUP3 ADD SWAP1 POP PUSH2 0x281 PUSH1 0x0 DUP4 ADD DUP5 PUSH2 0x25D JUMP JUMPDEST SWAP3 SWAP2 POP POP JUMP JUMPDEST PUSH1 0x0 DUP2 SWAP1 POP SWAP2 SWAP1 POP JUMP JUMPDEST PUSH2 0x29A DUP2 PUSH2 0x287 JUMP JUMPDEST DUP3 MSTORE POP POP JUMP JUMPDEST PUSH1 0x0 PUSH1 0x20 DUP3 ADD SWAP1 POP PUSH2 0x2B5 PUSH1 0x0 DUP4 ADD DUP5 PUSH2 0x291 JUMP JUMPDEST SWAP3 SWAP2 POP POP JUMP JUMPDEST PUSH1 0x0 PUSH20 0xFFFFFFFFFFFFFFFFFFFFFFFFFFFFFFFFFFFFFFFF DUP3 AND SWAP1 POP SWAP2 SWAP1 POP JUMP JUMPDEST PUSH1 0x0 PUSH2 0x2E6 DUP3 PUSH2 0x2BB JUMP JUMPDEST SWAP1 POP SWAP2 SWAP1 POP JUMP JUMPDEST PUSH2 0x2F6 DUP2 PUSH2 0x2DB JUMP JUMPDEST DUP3 MSTORE POP POP JUMP JUMPDEST PUSH1 0x0 PUSH1 0x20 DUP3 ADD SWAP1 POP PUSH2 0x311 PUSH1 0x0 DUP4 ADD DUP5 PUSH2 0x2ED JUMP JUMPDEST SWAP3 SWAP2 POP POP JUMP JUMPDEST PUSH32 0x4E487B7100000000000000000000000000000000000000000000000000000000 PUSH1 0x0 MSTORE PUSH1 0x22 PUSH1 0x4 MSTORE PUSH1 0x24 PUSH1 0x0 REVERT JUMPDEST PUSH1 0x0 PUSH1 0x2 DUP3 DIV SWAP1 POP PUSH1 0x1 DUP3 AND DUP1 PUSH2 0x35E JUMPI PUSH1 0x7F DUP3 AND SWAP2 POP JUMPDEST PUSH1 0x20 DUP3 LT DUP2 SUB PUSH2 0x371 JUMPI PUSH2 0x370 PUSH2 0x317 JUMP JUMPDEST JUMPDEST POP SWAP2 SWAP1 POP JUMP INVALID LOG2 PUSH5 0x6970667358 0x22 SLT KECCAK256 MSTORE8 PUSH10 0xD5B53F9E06059BABB34 0x4C 0xAA MUL 0x1E JUMP 0xA5 0x23 SLT DUP5 SLOAD PUSH11 0xDBBBCF7570AB19D4496473 PUSH16 0x6C634300080D00330000000000000000 "
				},
				"gasEstimates": {
					"creation": {
						"codeDepositCost": "188200",
						"executionCost": "infinite",
						"totalCost": "infinite"
					},
					"external": {
						"idNumber()": "2451",
						"isWorking()": "2471",
						"name()": "infinite",
						"wallet()": "2558"
					}
				},
				"methodIdentifiers": {
					"idNumber()": "3f83ea3b",
					"isWorking()": "099aea0a",
					"name()": "06fdde03",
					"wallet()": "521eb273"
				}
			},
			"storageLayout": {
				"storage": [
					{
						"astId": 3,
						"contract": "contracts/Identity.sol:Identity",
						"label": "idNumber",
						"offset": 0,
						"slot": "0",
						"type": "t_uint256"
					},
					{
						"astId": 5,
						"contract": "contracts/Identity.sol:Identity",
						"label": "isWorking",
						"offset": 0,
						"slot": "1",
						"type": "t_bool"
					},
					{
						"astId": 7,
						"contract": "contracts/Identity.sol:Identity",
						"label": "name",
						"offset": 0,
						"slot": "2",
						"type": "t_string_storage"
					},
					{
						"astId": 9,
						"contract": "contracts/Identity.sol:Identity",
						"label": "wallet",
						"offset": 0,
						"slot": "3",
						"type": "t_address"
					}
				],
				"types": {
					"t_address": {
						"encoding": "inplace",
						"label": "address",
						"numberOfBytes": "20"
					},
					"t_bool": {
						"encoding": "inplace",
						"label": "bool",
						"numberOfBytes": "1"
					},
					"t_string_storage": {
						"encoding": "bytes",
						"label": "string",
						"numberOfBytes": "32"
					},
					"t_uint256": {
						"encoding": "inplace",
						"label": "uint256",
						"numberOfBytes": "32"
					}
				}
			},
			"userdoc": {
				"kind": "user",
				"methods": {},
				"version": 1
			}
		}
	}
}