{
	"contracts/Number.sol": {
		"Number": {
			"abi": [
				{
					"inputs": [],
					"name": "changeNumber",
					"outputs": [
						{
							"internalType": "int256",
							"name": "number",
							"type": "int256"
						}
					],
					"stateMutability": "pure",
					"type": "function"
				},
				{
					"inputs": [],
					"name": "getNumber2",
					"outputs": [
						{
							"internalType": "int256",
							"name": "number",
							"type": "int256"
						}
					],
					"stateMutability": "pure",
					"type": "function"
				}
			],
			"devdoc": {
				"kind": "dev",
				"methods": {},
				"version": 1
			},
			"evm": {
				"assembly": "    /* \"contracts/Number.sol\":70:384  contract Number{... */\n  mstore(0x40, 0x80)\n  callvalue\n  dup1\n  iszero\n  tag_1\n  jumpi\n  0x00\n  dup1\n  revert\ntag_1:\n  pop\n  dataSize(sub_0)\n  dup1\n  dataOffset(sub_0)\n  0x00\n  codecopy\n  0x00\n  return\nstop\n\nsub_0: assembly {\n        /* \"contracts/Number.sol\":70:384  contract Number{... */\n      mstore(0x40, 0x80)\n      callvalue\n      dup1\n      iszero\n      tag_1\n      jumpi\n      0x00\n      dup1\n      revert\n    tag_1:\n      pop\n      jumpi(tag_2, lt(calldatasize, 0x04))\n      shr(0xe0, calldataload(0x00))\n      dup1\n      0x984d0f90\n      eq\n      tag_3\n      jumpi\n      dup1\n      0xc967aa5e\n      eq\n      tag_4\n      jumpi\n    tag_2:\n      0x00\n      dup1\n      revert\n        /* \"contracts/Number.sol\":191:275  function getNumber2() public pure returns (int number){... */\n    tag_3:\n      tag_5\n      tag_6\n      jump\t// in\n    tag_5:\n      mload(0x40)\n      tag_7\n      swap2\n      swap1\n      tag_8\n      jump\t// in\n    tag_7:\n      mload(0x40)\n      dup1\n      swap2\n      sub\n      swap1\n      return\n        /* \"contracts/Number.sol\":280:382  function changeNumber() public pure returns (int number) {... */\n    tag_4:\n      tag_9\n      tag_10\n      jump\t// in\n    tag_9:\n      mload(0x40)\n      tag_11\n      swap2\n      swap1\n      tag_8\n      jump\t// in\n    tag_11:\n      mload(0x40)\n      dup1\n      swap2\n      sub\n      swap1\n      return\n        /* \"contracts/Number.sol\":191:275  function getNumber2() public pure returns (int number){... */\n    tag_6:\n        /* \"contracts/Number.sol\":234:244  int number */\n      0x00\n        /* \"contracts/Number.sol\":264:268  1995 */\n      0x07cb\n        /* \"contracts/Number.sol\":255:268  number = 1995 */\n      swap1\n      pop\n        /* \"contracts/Number.sol\":191:275  function getNumber2() public pure returns (int number){... */\n      swap1\n      jump\t// out\n        /* \"contracts/Number.sol\":280:382  function changeNumber() public pure returns (int number) {... */\n    tag_10:\n        /* \"contracts/Number.sol\":325:335  int number */\n      0x00\n        /* \"contracts/Number.sol\":372:374  -2 */\n      0xfffffffffffffffffffffffffffffffffffffffffffffffffffffffffffffffe\n        /* \"contracts/Number.sol\":356:368  getNumber2() */\n      tag_14\n        /* \"contracts/Number.sol\":356:366  getNumber2 */\n      tag_6\n        /* \"contracts/Number.sol\":356:368  getNumber2() */\n      jump\t// in\n    tag_14:\n        /* \"contracts/Number.sol\":356:375  getNumber2() * (-2) */\n      tag_15\n      swap2\n      swap1\n      tag_16\n      jump\t// in\n    tag_15:\n        /* \"contracts/Number.sol\":347:375  number = getNumber2() * (-2) */\n      swap1\n      pop\n        /* \"contracts/Number.sol\":280:382  function changeNumber() public pure returns (int number) {... */\n      swap1\n      jump\t// out\n        /* \"#utility.yul\":7:83   */\n    tag_17:\n        /* \"#utility.yul\":43:50   */\n      0x00\n        /* \"#utility.yul\":72:77   */\n      dup2\n        /* \"#utility.yul\":61:77   */\n      swap1\n      pop\n        /* \"#utility.yul\":7:83   */\n      swap2\n      swap1\n      pop\n      jump\t// out\n        /* \"#utility.yul\":89:204   */\n    tag_18:\n        /* \"#utility.yul\":174:197   */\n      tag_23\n        /* \"#utility.yul\":191:196   */\n      dup2\n        /* \"#utility.yul\":174:197   */\n      tag_17\n      jump\t// in\n    tag_23:\n        /* \"#utility.yul\":169:172   */\n      dup3\n        /* \"#utility.yul\":162:198   */\n      mstore\n        /* \"#utility.yul\":89:204   */\n      pop\n      pop\n      jump\t// out\n        /* \"#utility.yul\":210:428   */\n    tag_8:\n        /* \"#utility.yul\":301:305   */\n      0x00\n        /* \"#utility.yul\":339:341   */\n      0x20\n        /* \"#utility.yul\":328:337   */\n      dup3\n        /* \"#utility.yul\":324:342   */\n      add\n        /* \"#utility.yul\":316:342   */\n      swap1\n      pop\n        /* \"#utility.yul\":352:421   */\n      tag_25\n        /* \"#utility.yul\":418:419   */\n      0x00\n        /* \"#utility.yul\":407:416   */\n      dup4\n        /* \"#utility.yul\":403:420   */\n      add\n        /* \"#utility.yul\":394:400   */\n      dup5\n        /* \"#utility.yul\":352:421   */\n      tag_18\n      jump\t// in\n    tag_25:\n        /* \"#utility.yul\":210:428   */\n      swap3\n      swap2\n      pop\n      pop\n      jump\t// out\n        /* \"#utility.yul\":434:614   */\n    tag_19:\n        /* \"#utility.yul\":482:559   */\n      0x4e487b7100000000000000000000000000000000000000000000000000000000\n        /* \"#utility.yul\":479:480   */\n      0x00\n        /* \"#utility.yul\":472:560   */\n      mstore\n        /* \"#utility.yul\":579:583   */\n      0x11\n        /* \"#utility.yul\":576:577   */\n      0x04\n        /* \"#utility.yul\":569:584   */\n      mstore\n        /* \"#utility.yul\":603:607   */\n      0x24\n        /* \"#utility.yul\":600:601   */\n      0x00\n        /* \"#utility.yul\":593:608   */\n      revert\n        /* \"#utility.yul\":620:1611   */\n    tag_16:\n        /* \"#utility.yul\":659:666   */\n      0x00\n        /* \"#utility.yul\":682:701   */\n      tag_28\n        /* \"#utility.yul\":699:700   */\n      dup3\n        /* \"#utility.yul\":682:701   */\n      tag_17\n      jump\t// in\n    tag_28:\n        /* \"#utility.yul\":677:701   */\n      swap2\n      pop\n        /* \"#utility.yul\":715:734   */\n      tag_29\n        /* \"#utility.yul\":732:733   */\n      dup4\n        /* \"#utility.yul\":715:734   */\n      tag_17\n      jump\t// in\n    tag_29:\n        /* \"#utility.yul\":710:734   */\n      swap3\n      pop\n        /* \"#utility.yul\":916:917   */\n      dup3\n        /* \"#utility.yul\":848:914   */\n      0x7fffffffffffffffffffffffffffffffffffffffffffffffffffffffffffffff\n        /* \"#utility.yul\":844:918   */\n      div\n        /* \"#utility.yul\":841:842   */\n      dup3\n        /* \"#utility.yul\":838:919   */\n      gt\n        /* \"#utility.yul\":833:834   */\n      0x00\n        /* \"#utility.yul\":830:831   */\n      dup5\n        /* \"#utility.yul\":826:835   */\n      sgt\n        /* \"#utility.yul\":822:823   */\n      0x00\n        /* \"#utility.yul\":819:820   */\n      dup5\n        /* \"#utility.yul\":815:824   */\n      sgt\n        /* \"#utility.yul\":811:836   */\n      and\n        /* \"#utility.yul\":807:920   */\n      and\n        /* \"#utility.yul\":804:943   */\n      iszero\n      tag_30\n      jumpi\n        /* \"#utility.yul\":923:941   */\n      tag_31\n      tag_19\n      jump\t// in\n    tag_31:\n        /* \"#utility.yul\":804:943   */\n    tag_30:\n        /* \"#utility.yul\":1127:1128   */\n      dup2\n        /* \"#utility.yul\":1059:1125   */\n      0x8000000000000000000000000000000000000000000000000000000000000000\n        /* \"#utility.yul\":1054:1129   */\n      sdiv\n        /* \"#utility.yul\":1051:1052   */\n      dup4\n        /* \"#utility.yul\":1047:1130   */\n      slt\n        /* \"#utility.yul\":1042:1043   */\n      0x00\n        /* \"#utility.yul\":1039:1040   */\n      dup5\n        /* \"#utility.yul\":1035:1044   */\n      slt\n        /* \"#utility.yul\":1031:1032   */\n      0x00\n        /* \"#utility.yul\":1028:1029   */\n      dup5\n        /* \"#utility.yul\":1024:1033   */\n      sgt\n        /* \"#utility.yul\":1020:1045   */\n      and\n        /* \"#utility.yul\":1016:1131   */\n      and\n        /* \"#utility.yul\":1013:1154   */\n      iszero\n      tag_32\n      jumpi\n        /* \"#utility.yul\":1134:1152   */\n      tag_33\n      tag_19\n      jump\t// in\n    tag_33:\n        /* \"#utility.yul\":1013:1154   */\n    tag_32:\n        /* \"#utility.yul\":1338:1339   */\n      dup3\n        /* \"#utility.yul\":1270:1336   */\n      0x8000000000000000000000000000000000000000000000000000000000000000\n        /* \"#utility.yul\":1265:1340   */\n      sdiv\n        /* \"#utility.yul\":1262:1263   */\n      dup3\n        /* \"#utility.yul\":1258:1341   */\n      slt\n        /* \"#utility.yul\":1253:1254   */\n      0x00\n        /* \"#utility.yul\":1250:1251   */\n      dup5\n        /* \"#utility.yul\":1246:1255   */\n      sgt\n        /* \"#utility.yul\":1242:1243   */\n      0x00\n        /* \"#utility.yul\":1239:1240   */\n      dup5\n        /* \"#utility.yul\":1235:1244   */\n      slt\n        /* \"#utility.yul\":1231:1256   */\n      and\n        /* \"#utility.yul\":1227:1342   */\n      and\n        /* \"#utility.yul\":1224:1365   */\n      iszero\n      tag_34\n      jumpi\n        /* \"#utility.yul\":1345:1363   */\n      tag_35\n      tag_19\n      jump\t// in\n    tag_35:\n        /* \"#utility.yul\":1224:1365   */\n    tag_34:\n        /* \"#utility.yul\":1548:1549   */\n      dup3\n        /* \"#utility.yul\":1480:1546   */\n      0x7fffffffffffffffffffffffffffffffffffffffffffffffffffffffffffffff\n        /* \"#utility.yul\":1475:1550   */\n      sdiv\n        /* \"#utility.yul\":1472:1473   */\n      dup3\n        /* \"#utility.yul\":1468:1551   */\n      slt\n        /* \"#utility.yul\":1463:1464   */\n      0x00\n        /* \"#utility.yul\":1460:1461   */\n      dup5\n        /* \"#utility.yul\":1456:1465   */\n      slt\n        /* \"#utility.yul\":1452:1453   */\n      0x00\n        /* \"#utility.yul\":1449:1450   */\n      dup5\n        /* \"#utility.yul\":1445:1454   */\n      slt\n        /* \"#utility.yul\":1441:1466   */\n      and\n        /* \"#utility.yul\":1437:1552   */\n      and\n        /* \"#utility.yul\":1434:1575   */\n      iszero\n      tag_36\n      jumpi\n        /* \"#utility.yul\":1555:1573   */\n      tag_37\n      tag_19\n      jump\t// in\n    tag_37:\n        /* \"#utility.yul\":1434:1575   */\n    tag_36:\n        /* \"#utility.yul\":1603:1604   */\n      dup3\n        /* \"#utility.yul\":1600:1601   */\n      dup3\n        /* \"#utility.yul\":1596:1605   */\n      mul\n        /* \"#utility.yul\":1585:1605   */\n      swap1\n      pop\n        /* \"#utility.yul\":620:1611   */\n      swap3\n      swap2\n      pop\n      pop\n      jump\t// out\n\n    auxdata: 0xa2646970667358221220e8c6e4f87cf8a2fafad2a821b6c477749feda7805072d16f988190769c09fdb164736f6c634300080d0033\n}\n",
				"bytecode": {
					"linkReferences": {},
					"object": "608060405234801561001057600080fd5b5061026b806100206000396000f3fe608060405234801561001057600080fd5b50600436106100365760003560e01c8063984d0f901461003b578063c967aa5e14610059575b600080fd5b610043610077565b60405161005091906100d4565b60405180910390f35b610061610081565b60405161006e91906100d4565b60405180910390f35b60006107cb905090565b60007ffffffffffffffffffffffffffffffffffffffffffffffffffffffffffffffffe6100ac610077565b6100b6919061011e565b905090565b6000819050919050565b6100ce816100bb565b82525050565b60006020820190506100e960008301846100c5565b92915050565b7f4e487b7100000000000000000000000000000000000000000000000000000000600052601160045260246000fd5b6000610129826100bb565b9150610134836100bb565b9250827f7fffffffffffffffffffffffffffffffffffffffffffffffffffffffffffffff0482116000841360008413161615610173576101726100ef565b5b817f800000000000000000000000000000000000000000000000000000000000000005831260008412600084131616156101b0576101af6100ef565b5b827f800000000000000000000000000000000000000000000000000000000000000005821260008413600084121616156101ed576101ec6100ef565b5b827f7fffffffffffffffffffffffffffffffffffffffffffffffffffffffffffffff058212600084126000841216161561022a576102296100ef565b5b82820290509291505056fea2646970667358221220e8c6e4f87cf8a2fafad2a821b6c477749feda7805072d16f988190769c09fdb164736f6c634300080d0033",
					"opcodes": "PUSH1 0x80 PUSH1 0x40 MSTORE CALLVALUE DUP1 ISZERO PUSH2 0x10 JUMPI PUSH1 0x0 DUP1 REVERT JUMPDEST POP PUSH2 0x26B DUP1 PUSH2 0x20 PUSH1 0x0 CODECOPY PUSH1 0x0 RETURN INVALID PUSH1 0x80 PUSH1 0x40 MSTORE CALLVALUE DUP1 ISZERO PUSH2 0x10 JUMPI PUSH1 0x0 DUP1 REVERT JUMPDEST POP PUSH1 0x4 CALLDATASIZE LT PUSH2 0x36 JUMPI PUSH1 0x0 CALLDATALOAD PUSH1 0xE0 SHR DUP1 PUSH4 0x984D0F90 EQ PUSH2 0x3B JUMPI DUP1 PUSH4 0xC967AA5E EQ PUSH2 0x59 JUMPI JUMPDEST PUSH1 0x0 DUP1 REVERT JUMPDEST PUSH2 0x43 PUSH2 0x77 JUMP JUMPDEST PUSH1 0x40 MLOAD PUSH2 0x50 SWAP2 SWAP1 PUSH2 0xD4 JUMP JUMPDEST PUSH1 0x40 MLOAD DUP1 SWAP2 SUB SWAP1 RETURN JUMPDEST PUSH2 0x61 PUSH2 0x81 JUMP JUMPDEST PUSH1 0x40 MLOAD PUSH2 0x6E SWAP2 SWAP1 PUSH2 0xD4 JUMP JUMPDEST PUSH1 0x40 MLOAD DUP1 SWAP2 SUB SWAP1 RETURN JUMPDEST PUSH1 0x0 PUSH2 0x7CB SWAP1 POP SWAP1 JUMP JUMPDEST PUSH1 0x0 PUSH32 0xFFFFFFFFFFFFFFFFFFFFFFFFFFFFFFFFFFFFFFFFFFFFFFFFFFFFFFFFFFFFFFFE PUSH2 0xAC PUSH2 0x77 JUMP JUMPDEST PUSH2 0xB6 SWAP2 SWAP1 PUSH2 0x11E JUMP JUMPDEST SWAP1 POP SWAP1 JUMP JUMPDEST PUSH1 0x0 DUP2 SWAP1 POP SWAP2 SWAP1 POP JUMP JUMPDEST PUSH2 0xCE DUP2 PUSH2 0xBB JUMP JUMPDEST DUP3 MSTORE POP POP JUMP JUMPDEST PUSH1 0x0 PUSH1 0x20 DUP3 ADD SWAP1 POP PUSH2 0xE9 PUSH1 0x0 DUP4 ADD DUP5 PUSH2 0xC5 JUMP JUMPDEST SWAP3 SWAP2 POP POP JUMP JUMPDEST PUSH32 0x4E487B7100000000000000000000000000000000000000000000000000000000 PUSH1 0x0 MSTORE PUSH1 0x11 PUSH1 0x4 MSTORE PUSH1 0x24 PUSH1 0x0 REVERT JUMPDEST PUSH1 0x0 PUSH2 0x129 DUP3 PUSH2 0xBB JUMP JUMPDEST SWAP2 POP PUSH2 0x134 DUP4 PUSH2 0xBB JUMP JUMPDEST SWAP3 POP DUP3 PUSH32 0x7FFFFFFFFFFFFFFFFFFFFFFFFFFFFFFFFFFFFFFFFFFFFFFFFFFFFFFFFFFFFFFF DIV DUP3 GT PUSH1 0x0 DUP5 SGT PUSH1 0x0 DUP5 SGT AND AND ISZERO PUSH2 0x173 JUMPI PUSH2 0x172 PUSH2 0xEF JUMP JUMPDEST JUMPDEST DUP2 PUSH32 0x8000000000000000000000000000000000000000000000000000000000000000 SDIV DUP4 SLT PUSH1 0x0 DUP5 SLT PUSH1 0x0 DUP5 SGT AND AND ISZERO PUSH2 0x1B0 JUMPI PUSH2 0x1AF PUSH2 0xEF JUMP JUMPDEST JUMPDEST DUP3 PUSH32 0x8000000000000000000000000000000000000000000000000000000000000000 SDIV DUP3 SLT PUSH1 0x0 DUP5 SGT PUSH1 0x0 DUP5 SLT AND AND ISZERO PUSH2 0x1ED JUMPI PUSH2 0x1EC PUSH2 0xEF JUMP JUMPDEST JUMPDEST DUP3 PUSH32 0x7FFFFFFFFFFFFFFFFFFFFFFFFFFFFFFFFFFFFFFFFFFFFFFFFFFFFFFFFFFFFFFF SDIV DUP3 SLT PUSH1 0x0 DUP5 SLT PUSH1 0x0 DUP5 SLT AND AND ISZERO PUSH2 0x22A JUMPI PUSH2 0x229 PUSH2 0xEF JUMP JUMPDEST JUMPDEST DUP3 DUP3 MUL SWAP1 POP SWAP3 SWAP2 POP POP JUMP INVALID LOG2 PUSH5 0x6970667358 0x22 SLT KECCAK256 0xE8 0xC6 0xE4 0xF8 PUSH29 0xF8A2FAFAD2A821B6C477749FEDA7805072D16F988190769C09FDB16473 PUSH16 0x6C634300080D00330000000000000000 "
				},
				"gasEstimates": {
					"creation": {
						"codeDepositCost": "123800",
						"executionCost": "171",
						"totalCost": "123971"
					},
					"external": {
						"changeNumber()": "infinite",
						"getNumber2()": "315"
					}
				},
				"methodIdentifiers": {
					"changeNumber()": "c967aa5e",
					"getNumber2()": "984d0f90"
				}
			},
			"storageLayout": {
				"storage": [],
				"types": null
			},
			"userdoc": {
				"kind": "user",
				"methods": {},
				"version": 1
			}
		}
	}
}