{
	"contracts/SistemaVotacion.sol": {
		"SistemaVotacion": {
			"abi": [
				{
					"anonymous": false,
					"inputs": [
						{
							"indexed": false,
							"internalType": "uint256",
							"name": "candidato",
							"type": "uint256"
						},
						{
							"indexed": false,
							"internalType": "address",
							"name": "votante",
							"type": "address"
						}
					],
					"name": "VotoEmitido",
					"type": "event"
				},
				{
					"inputs": [],
					"name": "porcentajeVotosCandidato1",
					"outputs": [
						{
							"internalType": "uint256",
							"name": "",
							"type": "uint256"
						}
					],
					"stateMutability": "view",
					"type": "function"
				},
				{
					"inputs": [],
					"name": "porcentajeVotosCandidato2",
					"outputs": [
						{
							"internalType": "uint256",
							"name": "",
							"type": "uint256"
						}
					],
					"stateMutability": "view",
					"type": "function"
				},
				{
					"inputs": [],
					"name": "totalVotos",
					"outputs": [
						{
							"internalType": "uint256",
							"name": "",
							"type": "uint256"
						}
					],
					"stateMutability": "view",
					"type": "function"
				},
				{
					"inputs": [
						{
							"internalType": "uint256",
							"name": "candidato",
							"type": "uint256"
						}
					],
					"name": "votar",
					"outputs": [],
					"stateMutability": "nonpayable",
					"type": "function"
				},
				{
					"inputs": [],
					"name": "votosCandidato1",
					"outputs": [
						{
							"internalType": "uint256",
							"name": "",
							"type": "uint256"
						}
					],
					"stateMutability": "view",
					"type": "function"
				},
				{
					"inputs": [],
					"name": "votosCandidato2",
					"outputs": [
						{
							"internalType": "uint256",
							"name": "",
							"type": "uint256"
						}
					],
					"stateMutability": "view",
					"type": "function"
				}
			],
			"devdoc": {
				"kind": "dev",
				"methods": {},
				"version": 1
			},
			"evm": {
				"assembly": "    /* \"contracts/SistemaVotacion.sol\":57:959  contract SistemaVotacion {... */\n  mstore(0x40, 0x80)\n  callvalue\n  dup1\n  iszero\n  tag_1\n  jumpi\n  0x00\n  dup1\n  revert\ntag_1:\n  pop\n  dataSize(sub_0)\n  dup1\n  dataOffset(sub_0)\n  0x00\n  codecopy\n  0x00\n  return\nstop\n\nsub_0: assembly {\n        /* \"contracts/SistemaVotacion.sol\":57:959  contract SistemaVotacion {... */\n      mstore(0x40, 0x80)\n      callvalue\n      dup1\n      iszero\n      tag_1\n      jumpi\n      0x00\n      dup1\n      revert\n    tag_1:\n      pop\n      jumpi(tag_2, lt(calldatasize, 0x04))\n      shr(0xe0, calldataload(0x00))\n      dup1\n      0x15c92695\n      eq\n      tag_3\n      jumpi\n      dup1\n      0x21606831\n      eq\n      tag_4\n      jumpi\n      dup1\n      0x471535c4\n      eq\n      tag_5\n      jumpi\n      dup1\n      0x5d70e895\n      eq\n      tag_6\n      jumpi\n      dup1\n      0x70e36064\n      eq\n      tag_7\n      jumpi\n      dup1\n      0xb8ee4d74\n      eq\n      tag_8\n      jumpi\n    tag_2:\n      0x00\n      dup1\n      revert\n        /* \"contracts/SistemaVotacion.sol\":591:771  function porcentajeVotosCandidato1() public view returns (uint256) {... */\n    tag_3:\n      tag_9\n      tag_10\n      jump\t// in\n    tag_9:\n      mload(0x40)\n      tag_11\n      swap2\n      swap1\n      tag_12\n      jump\t// in\n    tag_11:\n      mload(0x40)\n      dup1\n      swap2\n      sub\n      swap1\n      return\n        /* \"contracts/SistemaVotacion.sol\":252:585  function votar(uint256 candidato) public {... */\n    tag_4:\n      tag_13\n      0x04\n      dup1\n      calldatasize\n      sub\n      dup2\n      add\n      swap1\n      tag_14\n      swap2\n      swap1\n      tag_15\n      jump\t// in\n    tag_14:\n      tag_16\n      jump\t// in\n    tag_13:\n      stop\n        /* \"contracts/SistemaVotacion.sol\":777:957  function porcentajeVotosCandidato2() public view returns (uint256) {... */\n    tag_5:\n      tag_17\n      tag_18\n      jump\t// in\n    tag_17:\n      mload(0x40)\n      tag_19\n      swap2\n      swap1\n      tag_12\n      jump\t// in\n    tag_19:\n      mload(0x40)\n      dup1\n      swap2\n      sub\n      swap1\n      return\n        /* \"contracts/SistemaVotacion.sol\":124:154  uint256 public votosCandidato2 */\n    tag_6:\n      tag_20\n      tag_21\n      jump\t// in\n    tag_20:\n      mload(0x40)\n      tag_22\n      swap2\n      swap1\n      tag_12\n      jump\t// in\n    tag_22:\n      mload(0x40)\n      dup1\n      swap2\n      sub\n      swap1\n      return\n        /* \"contracts/SistemaVotacion.sol\":160:185  uint256 public totalVotos */\n    tag_7:\n      tag_23\n      tag_24\n      jump\t// in\n    tag_23:\n      mload(0x40)\n      tag_25\n      swap2\n      swap1\n      tag_12\n      jump\t// in\n    tag_25:\n      mload(0x40)\n      dup1\n      swap2\n      sub\n      swap1\n      return\n        /* \"contracts/SistemaVotacion.sol\":88:118  uint256 public votosCandidato1 */\n    tag_8:\n      tag_26\n      tag_27\n      jump\t// in\n    tag_26:\n      mload(0x40)\n      tag_28\n      swap2\n      swap1\n      tag_12\n      jump\t// in\n    tag_28:\n      mload(0x40)\n      dup1\n      swap2\n      sub\n      swap1\n      return\n        /* \"contracts/SistemaVotacion.sol\":591:771  function porcentajeVotosCandidato1() public view returns (uint256) {... */\n    tag_10:\n        /* \"contracts/SistemaVotacion.sol\":649:656  uint256 */\n      0x00\n        /* \"contracts/SistemaVotacion.sol\":689:690  0 */\n      dup1\n        /* \"contracts/SistemaVotacion.sol\":676:686  totalVotos */\n      sload(0x02)\n        /* \"contracts/SistemaVotacion.sol\":676:690  totalVotos > 0 */\n      gt\n        /* \"contracts/SistemaVotacion.sol\":668:711  require(totalVotos > 0, \"Aun no hay votos\") */\n      tag_30\n      jumpi\n      mload(0x40)\n      0x08c379a000000000000000000000000000000000000000000000000000000000\n      dup2\n      mstore\n      0x04\n      add\n      tag_31\n      swap1\n      tag_32\n      jump\t// in\n    tag_31:\n      mload(0x40)\n      dup1\n      swap2\n      sub\n      swap1\n      revert\n    tag_30:\n        /* \"contracts/SistemaVotacion.sol\":754:764  totalVotos */\n      sload(0x02)\n        /* \"contracts/SistemaVotacion.sol\":747:750  100 */\n      0x64\n        /* \"contracts/SistemaVotacion.sol\":729:744  votosCandidato1 */\n      sload(0x00)\n        /* \"contracts/SistemaVotacion.sol\":729:750  votosCandidato1 * 100 */\n      tag_33\n      swap2\n      swap1\n      tag_34\n      jump\t// in\n    tag_33:\n        /* \"contracts/SistemaVotacion.sol\":728:764  (votosCandidato1 * 100) / totalVotos */\n      tag_35\n      swap2\n      swap1\n      tag_36\n      jump\t// in\n    tag_35:\n        /* \"contracts/SistemaVotacion.sol\":721:764  return (votosCandidato1 * 100) / totalVotos */\n      swap1\n      pop\n        /* \"contracts/SistemaVotacion.sol\":591:771  function porcentajeVotosCandidato1() public view returns (uint256) {... */\n      swap1\n      jump\t// out\n        /* \"contracts/SistemaVotacion.sol\":252:585  function votar(uint256 candidato) public {... */\n    tag_16:\n        /* \"contracts/SistemaVotacion.sol\":324:325  1 */\n      0x01\n        /* \"contracts/SistemaVotacion.sol\":311:320  candidato */\n      dup2\n        /* \"contracts/SistemaVotacion.sol\":311:325  candidato == 1 */\n      eq\n        /* \"contracts/SistemaVotacion.sol\":311:343  candidato == 1 || candidato == 2 */\n      dup1\n      tag_38\n      jumpi\n      pop\n        /* \"contracts/SistemaVotacion.sol\":342:343  2 */\n      0x02\n        /* \"contracts/SistemaVotacion.sol\":329:338  candidato */\n      dup2\n        /* \"contracts/SistemaVotacion.sol\":329:343  candidato == 2 */\n      eq\n        /* \"contracts/SistemaVotacion.sol\":311:343  candidato == 1 || candidato == 2 */\n    tag_38:\n        /* \"contracts/SistemaVotacion.sol\":303:366  require(candidato == 1 || candidato == 2, \"Candidato invalido\") */\n      tag_39\n      jumpi\n      mload(0x40)\n      0x08c379a000000000000000000000000000000000000000000000000000000000\n      dup2\n      mstore\n      0x04\n      add\n      tag_40\n      swap1\n      tag_41\n      jump\t// in\n    tag_40:\n      mload(0x40)\n      dup1\n      swap2\n      sub\n      swap1\n      revert\n    tag_39:\n        /* \"contracts/SistemaVotacion.sol\":394:395  1 */\n      0x01\n        /* \"contracts/SistemaVotacion.sol\":381:390  candidato */\n      dup2\n        /* \"contracts/SistemaVotacion.sol\":381:395  candidato == 1 */\n      sub\n        /* \"contracts/SistemaVotacion.sol\":377:507  if (candidato == 1) {... */\n      tag_42\n      jumpi\n        /* \"contracts/SistemaVotacion.sol\":411:426  votosCandidato1 */\n      0x00\n      dup1\n        /* \"contracts/SistemaVotacion.sol\":411:428  votosCandidato1++ */\n      dup2\n      sload\n      dup1\n      swap3\n      swap2\n      swap1\n      tag_43\n      swap1\n      tag_44\n      jump\t// in\n    tag_43:\n      swap2\n      swap1\n      pop\n      sstore\n      pop\n        /* \"contracts/SistemaVotacion.sol\":377:507  if (candidato == 1) {... */\n      jump(tag_45)\n    tag_42:\n        /* \"contracts/SistemaVotacion.sol\":462:463  2 */\n      0x02\n        /* \"contracts/SistemaVotacion.sol\":449:458  candidato */\n      dup2\n        /* \"contracts/SistemaVotacion.sol\":449:463  candidato == 2 */\n      sub\n        /* \"contracts/SistemaVotacion.sol\":445:507  if (candidato == 2) {... */\n      tag_46\n      jumpi\n        /* \"contracts/SistemaVotacion.sol\":479:494  votosCandidato2 */\n      0x01\n      0x00\n        /* \"contracts/SistemaVotacion.sol\":479:496  votosCandidato2++ */\n      dup2\n      sload\n      dup1\n      swap3\n      swap2\n      swap1\n      tag_47\n      swap1\n      tag_44\n      jump\t// in\n    tag_47:\n      swap2\n      swap1\n      pop\n      sstore\n      pop\n        /* \"contracts/SistemaVotacion.sol\":445:507  if (candidato == 2) {... */\n    tag_46:\n        /* \"contracts/SistemaVotacion.sol\":377:507  if (candidato == 1) {... */\n    tag_45:\n        /* \"contracts/SistemaVotacion.sol\":517:527  totalVotos */\n      0x02\n      0x00\n        /* \"contracts/SistemaVotacion.sol\":517:529  totalVotos++ */\n      dup2\n      sload\n      dup1\n      swap3\n      swap2\n      swap1\n      tag_48\n      swap1\n      tag_44\n      jump\t// in\n    tag_48:\n      swap2\n      swap1\n      pop\n      sstore\n      pop\n        /* \"contracts/SistemaVotacion.sol\":544:578  VotoEmitido(candidato, msg.sender) */\n      0x7c24c034397cf1b457acfa5b426b455acca7d1cb432867412e848aad2983a032\n        /* \"contracts/SistemaVotacion.sol\":556:565  candidato */\n      dup2\n        /* \"contracts/SistemaVotacion.sol\":567:577  msg.sender */\n      caller\n        /* \"contracts/SistemaVotacion.sol\":544:578  VotoEmitido(candidato, msg.sender) */\n      mload(0x40)\n      tag_49\n      swap3\n      swap2\n      swap1\n      tag_50\n      jump\t// in\n    tag_49:\n      mload(0x40)\n      dup1\n      swap2\n      sub\n      swap1\n      log1\n        /* \"contracts/SistemaVotacion.sol\":252:585  function votar(uint256 candidato) public {... */\n      pop\n      jump\t// out\n        /* \"contracts/SistemaVotacion.sol\":777:957  function porcentajeVotosCandidato2() public view returns (uint256) {... */\n    tag_18:\n        /* \"contracts/SistemaVotacion.sol\":835:842  uint256 */\n      0x00\n        /* \"contracts/SistemaVotacion.sol\":875:876  0 */\n      dup1\n        /* \"contracts/SistemaVotacion.sol\":862:872  totalVotos */\n      sload(0x02)\n        /* \"contracts/SistemaVotacion.sol\":862:876  totalVotos > 0 */\n      gt\n        /* \"contracts/SistemaVotacion.sol\":854:897  require(totalVotos > 0, \"Aun no hay votos\") */\n      tag_52\n      jumpi\n      mload(0x40)\n      0x08c379a000000000000000000000000000000000000000000000000000000000\n      dup2\n      mstore\n      0x04\n      add\n      tag_53\n      swap1\n      tag_32\n      jump\t// in\n    tag_53:\n      mload(0x40)\n      dup1\n      swap2\n      sub\n      swap1\n      revert\n    tag_52:\n        /* \"contracts/SistemaVotacion.sol\":940:950  totalVotos */\n      sload(0x02)\n        /* \"contracts/SistemaVotacion.sol\":933:936  100 */\n      0x64\n        /* \"contracts/SistemaVotacion.sol\":915:930  votosCandidato2 */\n      sload(0x01)\n        /* \"contracts/SistemaVotacion.sol\":915:936  votosCandidato2 * 100 */\n      tag_54\n      swap2\n      swap1\n      tag_34\n      jump\t// in\n    tag_54:\n        /* \"contracts/SistemaVotacion.sol\":914:950  (votosCandidato2 * 100) / totalVotos */\n      tag_55\n      swap2\n      swap1\n      tag_36\n      jump\t// in\n    tag_55:\n        /* \"contracts/SistemaVotacion.sol\":907:950  return (votosCandidato2 * 100) / totalVotos */\n      swap1\n      pop\n        /* \"contracts/SistemaVotacion.sol\":777:957  function porcentajeVotosCandidato2() public view returns (uint256) {... */\n      swap1\n      jump\t// out\n        /* \"contracts/SistemaVotacion.sol\":124:154  uint256 public votosCandidato2 */\n    tag_21:\n      sload(0x01)\n      dup2\n      jump\t// out\n        /* \"contracts/SistemaVotacion.sol\":160:185  uint256 public totalVotos */\n    tag_24:\n      sload(0x02)\n      dup2\n      jump\t// out\n        /* \"contracts/SistemaVotacion.sol\":88:118  uint256 public votosCandidato1 */\n    tag_27:\n      sload(0x00)\n      dup2\n      jump\t// out\n        /* \"#utility.yul\":7:84   */\n    tag_56:\n        /* \"#utility.yul\":44:51   */\n      0x00\n        /* \"#utility.yul\":73:78   */\n      dup2\n        /* \"#utility.yul\":62:78   */\n      swap1\n      pop\n        /* \"#utility.yul\":7:84   */\n      swap2\n      swap1\n      pop\n      jump\t// out\n        /* \"#utility.yul\":90:208   */\n    tag_57:\n        /* \"#utility.yul\":177:201   */\n      tag_76\n        /* \"#utility.yul\":195:200   */\n      dup2\n        /* \"#utility.yul\":177:201   */\n      tag_56\n      jump\t// in\n    tag_76:\n        /* \"#utility.yul\":172:175   */\n      dup3\n        /* \"#utility.yul\":165:202   */\n      mstore\n        /* \"#utility.yul\":90:208   */\n      pop\n      pop\n      jump\t// out\n        /* \"#utility.yul\":214:436   */\n    tag_12:\n        /* \"#utility.yul\":307:311   */\n      0x00\n        /* \"#utility.yul\":345:347   */\n      0x20\n        /* \"#utility.yul\":334:343   */\n      dup3\n        /* \"#utility.yul\":330:348   */\n      add\n        /* \"#utility.yul\":322:348   */\n      swap1\n      pop\n        /* \"#utility.yul\":358:429   */\n      tag_78\n        /* \"#utility.yul\":426:427   */\n      0x00\n        /* \"#utility.yul\":415:424   */\n      dup4\n        /* \"#utility.yul\":411:428   */\n      add\n        /* \"#utility.yul\":402:408   */\n      dup5\n        /* \"#utility.yul\":358:429   */\n      tag_57\n      jump\t// in\n    tag_78:\n        /* \"#utility.yul\":214:436   */\n      swap3\n      swap2\n      pop\n      pop\n      jump\t// out\n        /* \"#utility.yul\":523:640   */\n    tag_59:\n        /* \"#utility.yul\":632:633   */\n      0x00\n        /* \"#utility.yul\":629:630   */\n      dup1\n        /* \"#utility.yul\":622:634   */\n      revert\n        /* \"#utility.yul\":769:891   */\n    tag_61:\n        /* \"#utility.yul\":842:866   */\n      tag_83\n        /* \"#utility.yul\":860:865   */\n      dup2\n        /* \"#utility.yul\":842:866   */\n      tag_56\n      jump\t// in\n    tag_83:\n        /* \"#utility.yul\":835:840   */\n      dup2\n        /* \"#utility.yul\":832:867   */\n      eq\n        /* \"#utility.yul\":822:885   */\n      tag_84\n      jumpi\n        /* \"#utility.yul\":881:882   */\n      0x00\n        /* \"#utility.yul\":878:879   */\n      dup1\n        /* \"#utility.yul\":871:883   */\n      revert\n        /* \"#utility.yul\":822:885   */\n    tag_84:\n        /* \"#utility.yul\":769:891   */\n      pop\n      jump\t// out\n        /* \"#utility.yul\":897:1036   */\n    tag_62:\n        /* \"#utility.yul\":943:948   */\n      0x00\n        /* \"#utility.yul\":981:987   */\n      dup2\n        /* \"#utility.yul\":968:988   */\n      calldataload\n        /* \"#utility.yul\":959:988   */\n      swap1\n      pop\n        /* \"#utility.yul\":997:1030   */\n      tag_86\n        /* \"#utility.yul\":1024:1029   */\n      dup2\n        /* \"#utility.yul\":997:1030   */\n      tag_61\n      jump\t// in\n    tag_86:\n        /* \"#utility.yul\":897:1036   */\n      swap3\n      swap2\n      pop\n      pop\n      jump\t// out\n        /* \"#utility.yul\":1042:1371   */\n    tag_15:\n        /* \"#utility.yul\":1101:1107   */\n      0x00\n        /* \"#utility.yul\":1150:1152   */\n      0x20\n        /* \"#utility.yul\":1138:1147   */\n      dup3\n        /* \"#utility.yul\":1129:1136   */\n      dup5\n        /* \"#utility.yul\":1125:1148   */\n      sub\n        /* \"#utility.yul\":1121:1153   */\n      slt\n        /* \"#utility.yul\":1118:1237   */\n      iszero\n      tag_88\n      jumpi\n        /* \"#utility.yul\":1156:1235   */\n      tag_89\n      tag_59\n      jump\t// in\n    tag_89:\n        /* \"#utility.yul\":1118:1237   */\n    tag_88:\n        /* \"#utility.yul\":1276:1277   */\n      0x00\n        /* \"#utility.yul\":1301:1354   */\n      tag_90\n        /* \"#utility.yul\":1346:1353   */\n      dup5\n        /* \"#utility.yul\":1337:1343   */\n      dup3\n        /* \"#utility.yul\":1326:1335   */\n      dup6\n        /* \"#utility.yul\":1322:1344   */\n      add\n        /* \"#utility.yul\":1301:1354   */\n      tag_62\n      jump\t// in\n    tag_90:\n        /* \"#utility.yul\":1291:1354   */\n      swap2\n      pop\n        /* \"#utility.yul\":1247:1364   */\n      pop\n        /* \"#utility.yul\":1042:1371   */\n      swap3\n      swap2\n      pop\n      pop\n      jump\t// out\n        /* \"#utility.yul\":1377:1546   */\n    tag_63:\n        /* \"#utility.yul\":1461:1472   */\n      0x00\n        /* \"#utility.yul\":1495:1501   */\n      dup3\n        /* \"#utility.yul\":1490:1493   */\n      dup3\n        /* \"#utility.yul\":1483:1502   */\n      mstore\n        /* \"#utility.yul\":1535:1539   */\n      0x20\n        /* \"#utility.yul\":1530:1533   */\n      dup3\n        /* \"#utility.yul\":1526:1540   */\n      add\n        /* \"#utility.yul\":1511:1540   */\n      swap1\n      pop\n        /* \"#utility.yul\":1377:1546   */\n      swap3\n      swap2\n      pop\n      pop\n      jump\t// out\n        /* \"#utility.yul\":1552:1718   */\n    tag_64:\n        /* \"#utility.yul\":1692:1710   */\n      0x41756e206e6f2068617920766f746f7300000000000000000000000000000000\n        /* \"#utility.yul\":1688:1689   */\n      0x00\n        /* \"#utility.yul\":1680:1686   */\n      dup3\n        /* \"#utility.yul\":1676:1690   */\n      add\n        /* \"#utility.yul\":1669:1711   */\n      mstore\n        /* \"#utility.yul\":1552:1718   */\n      pop\n      jump\t// out\n        /* \"#utility.yul\":1724:2090   */\n    tag_65:\n        /* \"#utility.yul\":1866:1869   */\n      0x00\n        /* \"#utility.yul\":1887:1954   */\n      tag_94\n        /* \"#utility.yul\":1951:1953   */\n      0x10\n        /* \"#utility.yul\":1946:1949   */\n      dup4\n        /* \"#utility.yul\":1887:1954   */\n      tag_63\n      jump\t// in\n    tag_94:\n        /* \"#utility.yul\":1880:1954   */\n      swap2\n      pop\n        /* \"#utility.yul\":1963:2056   */\n      tag_95\n        /* \"#utility.yul\":2052:2055   */\n      dup3\n        /* \"#utility.yul\":1963:2056   */\n      tag_64\n      jump\t// in\n    tag_95:\n        /* \"#utility.yul\":2081:2083   */\n      0x20\n        /* \"#utility.yul\":2076:2079   */\n      dup3\n        /* \"#utility.yul\":2072:2084   */\n      add\n        /* \"#utility.yul\":2065:2084   */\n      swap1\n      pop\n        /* \"#utility.yul\":1724:2090   */\n      swap2\n      swap1\n      pop\n      jump\t// out\n        /* \"#utility.yul\":2096:2515   */\n    tag_32:\n        /* \"#utility.yul\":2262:2266   */\n      0x00\n        /* \"#utility.yul\":2300:2302   */\n      0x20\n        /* \"#utility.yul\":2289:2298   */\n      dup3\n        /* \"#utility.yul\":2285:2303   */\n      add\n        /* \"#utility.yul\":2277:2303   */\n      swap1\n      pop\n        /* \"#utility.yul\":2349:2358   */\n      dup2\n        /* \"#utility.yul\":2343:2347   */\n      dup2\n        /* \"#utility.yul\":2339:2359   */\n      sub\n        /* \"#utility.yul\":2335:2336   */\n      0x00\n        /* \"#utility.yul\":2324:2333   */\n      dup4\n        /* \"#utility.yul\":2320:2337   */\n      add\n        /* \"#utility.yul\":2313:2360   */\n      mstore\n        /* \"#utility.yul\":2377:2508   */\n      tag_97\n        /* \"#utility.yul\":2503:2507   */\n      dup2\n        /* \"#utility.yul\":2377:2508   */\n      tag_65\n      jump\t// in\n    tag_97:\n        /* \"#utility.yul\":2369:2508   */\n      swap1\n      pop\n        /* \"#utility.yul\":2096:2515   */\n      swap2\n      swap1\n      pop\n      jump\t// out\n        /* \"#utility.yul\":2521:2701   */\n    tag_66:\n        /* \"#utility.yul\":2569:2646   */\n      0x4e487b7100000000000000000000000000000000000000000000000000000000\n        /* \"#utility.yul\":2566:2567   */\n      0x00\n        /* \"#utility.yul\":2559:2647   */\n      mstore\n        /* \"#utility.yul\":2666:2670   */\n      0x11\n        /* \"#utility.yul\":2663:2664   */\n      0x04\n        /* \"#utility.yul\":2656:2671   */\n      mstore\n        /* \"#utility.yul\":2690:2694   */\n      0x24\n        /* \"#utility.yul\":2687:2688   */\n      0x00\n        /* \"#utility.yul\":2680:2695   */\n      revert\n        /* \"#utility.yul\":2707:3055   */\n    tag_34:\n        /* \"#utility.yul\":2747:2754   */\n      0x00\n        /* \"#utility.yul\":2770:2790   */\n      tag_100\n        /* \"#utility.yul\":2788:2789   */\n      dup3\n        /* \"#utility.yul\":2770:2790   */\n      tag_56\n      jump\t// in\n    tag_100:\n        /* \"#utility.yul\":2765:2790   */\n      swap2\n      pop\n        /* \"#utility.yul\":2804:2824   */\n      tag_101\n        /* \"#utility.yul\":2822:2823   */\n      dup4\n        /* \"#utility.yul\":2804:2824   */\n      tag_56\n      jump\t// in\n    tag_101:\n        /* \"#utility.yul\":2799:2824   */\n      swap3\n      pop\n        /* \"#utility.yul\":2992:2993   */\n      dup2\n        /* \"#utility.yul\":2924:2990   */\n      0xffffffffffffffffffffffffffffffffffffffffffffffffffffffffffffffff\n        /* \"#utility.yul\":2920:2994   */\n      div\n        /* \"#utility.yul\":2917:2918   */\n      dup4\n        /* \"#utility.yul\":2914:2995   */\n      gt\n        /* \"#utility.yul\":2909:2910   */\n      dup3\n        /* \"#utility.yul\":2902:2911   */\n      iszero\n        /* \"#utility.yul\":2895:2912   */\n      iszero\n        /* \"#utility.yul\":2891:2996   */\n      and\n        /* \"#utility.yul\":2888:3019   */\n      iszero\n      tag_102\n      jumpi\n        /* \"#utility.yul\":2999:3017   */\n      tag_103\n      tag_66\n      jump\t// in\n    tag_103:\n        /* \"#utility.yul\":2888:3019   */\n    tag_102:\n        /* \"#utility.yul\":3047:3048   */\n      dup3\n        /* \"#utility.yul\":3044:3045   */\n      dup3\n        /* \"#utility.yul\":3040:3049   */\n      mul\n        /* \"#utility.yul\":3029:3049   */\n      swap1\n      pop\n        /* \"#utility.yul\":2707:3055   */\n      swap3\n      swap2\n      pop\n      pop\n      jump\t// out\n        /* \"#utility.yul\":3061:3241   */\n    tag_67:\n        /* \"#utility.yul\":3109:3186   */\n      0x4e487b7100000000000000000000000000000000000000000000000000000000\n        /* \"#utility.yul\":3106:3107   */\n      0x00\n        /* \"#utility.yul\":3099:3187   */\n      mstore\n        /* \"#utility.yul\":3206:3210   */\n      0x12\n        /* \"#utility.yul\":3203:3204   */\n      0x04\n        /* \"#utility.yul\":3196:3211   */\n      mstore\n        /* \"#utility.yul\":3230:3234   */\n      0x24\n        /* \"#utility.yul\":3227:3228   */\n      0x00\n        /* \"#utility.yul\":3220:3235   */\n      revert\n        /* \"#utility.yul\":3247:3432   */\n    tag_36:\n        /* \"#utility.yul\":3287:3288   */\n      0x00\n        /* \"#utility.yul\":3304:3324   */\n      tag_106\n        /* \"#utility.yul\":3322:3323   */\n      dup3\n        /* \"#utility.yul\":3304:3324   */\n      tag_56\n      jump\t// in\n    tag_106:\n        /* \"#utility.yul\":3299:3324   */\n      swap2\n      pop\n        /* \"#utility.yul\":3338:3358   */\n      tag_107\n        /* \"#utility.yul\":3356:3357   */\n      dup4\n        /* \"#utility.yul\":3338:3358   */\n      tag_56\n      jump\t// in\n    tag_107:\n        /* \"#utility.yul\":3333:3358   */\n      swap3\n      pop\n        /* \"#utility.yul\":3377:3378   */\n      dup3\n        /* \"#utility.yul\":3367:3402   */\n      tag_108\n      jumpi\n        /* \"#utility.yul\":3382:3400   */\n      tag_109\n      tag_67\n      jump\t// in\n    tag_109:\n        /* \"#utility.yul\":3367:3402   */\n    tag_108:\n        /* \"#utility.yul\":3424:3425   */\n      dup3\n        /* \"#utility.yul\":3421:3422   */\n      dup3\n        /* \"#utility.yul\":3417:3426   */\n      div\n        /* \"#utility.yul\":3412:3426   */\n      swap1\n      pop\n        /* \"#utility.yul\":3247:3432   */\n      swap3\n      swap2\n      pop\n      pop\n      jump\t// out\n        /* \"#utility.yul\":3438:3606   */\n    tag_68:\n        /* \"#utility.yul\":3578:3598   */\n      0x43616e64696461746f20696e76616c69646f0000000000000000000000000000\n        /* \"#utility.yul\":3574:3575   */\n      0x00\n        /* \"#utility.yul\":3566:3572   */\n      dup3\n        /* \"#utility.yul\":3562:3576   */\n      add\n        /* \"#utility.yul\":3555:3599   */\n      mstore\n        /* \"#utility.yul\":3438:3606   */\n      pop\n      jump\t// out\n        /* \"#utility.yul\":3612:3978   */\n    tag_69:\n        /* \"#utility.yul\":3754:3757   */\n      0x00\n        /* \"#utility.yul\":3775:3842   */\n      tag_112\n        /* \"#utility.yul\":3839:3841   */\n      0x12\n        /* \"#utility.yul\":3834:3837   */\n      dup4\n        /* \"#utility.yul\":3775:3842   */\n      tag_63\n      jump\t// in\n    tag_112:\n        /* \"#utility.yul\":3768:3842   */\n      swap2\n      pop\n        /* \"#utility.yul\":3851:3944   */\n      tag_113\n        /* \"#utility.yul\":3940:3943   */\n      dup3\n        /* \"#utility.yul\":3851:3944   */\n      tag_68\n      jump\t// in\n    tag_113:\n        /* \"#utility.yul\":3969:3971   */\n      0x20\n        /* \"#utility.yul\":3964:3967   */\n      dup3\n        /* \"#utility.yul\":3960:3972   */\n      add\n        /* \"#utility.yul\":3953:3972   */\n      swap1\n      pop\n        /* \"#utility.yul\":3612:3978   */\n      swap2\n      swap1\n      pop\n      jump\t// out\n        /* \"#utility.yul\":3984:4403   */\n    tag_41:\n        /* \"#utility.yul\":4150:4154   */\n      0x00\n        /* \"#utility.yul\":4188:4190   */\n      0x20\n        /* \"#utility.yul\":4177:4186   */\n      dup3\n        /* \"#utility.yul\":4173:4191   */\n      add\n        /* \"#utility.yul\":4165:4191   */\n      swap1\n      pop\n        /* \"#utility.yul\":4237:4246   */\n      dup2\n        /* \"#utility.yul\":4231:4235   */\n      dup2\n        /* \"#utility.yul\":4227:4247   */\n      sub\n        /* \"#utility.yul\":4223:4224   */\n      0x00\n        /* \"#utility.yul\":4212:4221   */\n      dup4\n        /* \"#utility.yul\":4208:4225   */\n      add\n        /* \"#utility.yul\":4201:4248   */\n      mstore\n        /* \"#utility.yul\":4265:4396   */\n      tag_115\n        /* \"#utility.yul\":4391:4395   */\n      dup2\n        /* \"#utility.yul\":4265:4396   */\n      tag_69\n      jump\t// in\n    tag_115:\n        /* \"#utility.yul\":4257:4396   */\n      swap1\n      pop\n        /* \"#utility.yul\":3984:4403   */\n      swap2\n      swap1\n      pop\n      jump\t// out\n        /* \"#utility.yul\":4409:4642   */\n    tag_44:\n        /* \"#utility.yul\":4448:4451   */\n      0x00\n        /* \"#utility.yul\":4471:4495   */\n      tag_117\n        /* \"#utility.yul\":4489:4494   */\n      dup3\n        /* \"#utility.yul\":4471:4495   */\n      tag_56\n      jump\t// in\n    tag_117:\n        /* \"#utility.yul\":4462:4495   */\n      swap2\n      pop\n        /* \"#utility.yul\":4517:4583   */\n      0xffffffffffffffffffffffffffffffffffffffffffffffffffffffffffffffff\n        /* \"#utility.yul\":4510:4515   */\n      dup3\n        /* \"#utility.yul\":4507:4584   */\n      sub\n        /* \"#utility.yul\":4504:4607   */\n      tag_118\n      jumpi\n        /* \"#utility.yul\":4587:4605   */\n      tag_119\n      tag_66\n      jump\t// in\n    tag_119:\n        /* \"#utility.yul\":4504:4607   */\n    tag_118:\n        /* \"#utility.yul\":4634:4635   */\n      0x01\n        /* \"#utility.yul\":4627:4632   */\n      dup3\n        /* \"#utility.yul\":4623:4636   */\n      add\n        /* \"#utility.yul\":4616:4636   */\n      swap1\n      pop\n        /* \"#utility.yul\":4409:4642   */\n      swap2\n      swap1\n      pop\n      jump\t// out\n        /* \"#utility.yul\":4648:4774   */\n    tag_70:\n        /* \"#utility.yul\":4685:4692   */\n      0x00\n        /* \"#utility.yul\":4725:4767   */\n      0xffffffffffffffffffffffffffffffffffffffff\n        /* \"#utility.yul\":4718:4723   */\n      dup3\n        /* \"#utility.yul\":4714:4768   */\n      and\n        /* \"#utility.yul\":4703:4768   */\n      swap1\n      pop\n        /* \"#utility.yul\":4648:4774   */\n      swap2\n      swap1\n      pop\n      jump\t// out\n        /* \"#utility.yul\":4780:4876   */\n    tag_71:\n        /* \"#utility.yul\":4817:4824   */\n      0x00\n        /* \"#utility.yul\":4846:4870   */\n      tag_122\n        /* \"#utility.yul\":4864:4869   */\n      dup3\n        /* \"#utility.yul\":4846:4870   */\n      tag_70\n      jump\t// in\n    tag_122:\n        /* \"#utility.yul\":4835:4870   */\n      swap1\n      pop\n        /* \"#utility.yul\":4780:4876   */\n      swap2\n      swap1\n      pop\n      jump\t// out\n        /* \"#utility.yul\":4882:5000   */\n    tag_72:\n        /* \"#utility.yul\":4969:4993   */\n      tag_124\n        /* \"#utility.yul\":4987:4992   */\n      dup2\n        /* \"#utility.yul\":4969:4993   */\n      tag_71\n      jump\t// in\n    tag_124:\n        /* \"#utility.yul\":4964:4967   */\n      dup3\n        /* \"#utility.yul\":4957:4994   */\n      mstore\n        /* \"#utility.yul\":4882:5000   */\n      pop\n      pop\n      jump\t// out\n        /* \"#utility.yul\":5006:5338   */\n    tag_50:\n        /* \"#utility.yul\":5127:5131   */\n      0x00\n        /* \"#utility.yul\":5165:5167   */\n      0x40\n        /* \"#utility.yul\":5154:5163   */\n      dup3\n        /* \"#utility.yul\":5150:5168   */\n      add\n        /* \"#utility.yul\":5142:5168   */\n      swap1\n      pop\n        /* \"#utility.yul\":5178:5249   */\n      tag_126\n        /* \"#utility.yul\":5246:5247   */\n      0x00\n        /* \"#utility.yul\":5235:5244   */\n      dup4\n        /* \"#utility.yul\":5231:5248   */\n      add\n        /* \"#utility.yul\":5222:5228   */\n      dup6\n        /* \"#utility.yul\":5178:5249   */\n      tag_57\n      jump\t// in\n    tag_126:\n        /* \"#utility.yul\":5259:5331   */\n      tag_127\n        /* \"#utility.yul\":5327:5329   */\n      0x20\n        /* \"#utility.yul\":5316:5325   */\n      dup4\n        /* \"#utility.yul\":5312:5330   */\n      add\n        /* \"#utility.yul\":5303:5309   */\n      dup5\n        /* \"#utility.yul\":5259:5331   */\n      tag_72\n      jump\t// in\n    tag_127:\n        /* \"#utility.yul\":5006:5338   */\n      swap4\n      swap3\n      pop\n      pop\n      pop\n      jump\t// out\n\n    auxdata: 0xa26469706673582212209474654e04bbe4f587d21b2d2044d7bdab75f7a7a702093e1f55b9bdaecd4a5564736f6c634300080d0033\n}\n",
				"bytecode": {
					"linkReferences": {},
					"object": "608060405234801561001057600080fd5b5061062d806100206000396000f3fe608060405234801561001057600080fd5b50600436106100625760003560e01c806315c92695146100675780632160683114610085578063471535c4146100a15780635d70e895146100bf57806370e36064146100dd578063b8ee4d74146100fb575b600080fd5b61006f610119565b60405161007c91906102fa565b60405180910390f35b61009f600480360381019061009a9190610346565b610180565b005b6100a9610268565b6040516100b691906102fa565b60405180910390f35b6100c76102cf565b6040516100d491906102fa565b60405180910390f35b6100e56102d5565b6040516100f291906102fa565b60405180910390f35b6101036102db565b60405161011091906102fa565b60405180910390f35b6000806002541161015f576040517f08c379a0000000000000000000000000000000000000000000000000000000008152600401610156906103d0565b60405180910390fd5b6002546064600054610171919061041f565b61017b91906104a8565b905090565b600181148061018f5750600281145b6101ce576040517f08c379a00000000000000000000000000000000000000000000000000000000081526004016101c590610525565b60405180910390fd5b600181036101f2576000808154809291906101e890610545565b9190505550610214565b60028103610213576001600081548092919061020d90610545565b91905055505b5b6002600081548092919061022790610545565b91905055507f7c24c034397cf1b457acfa5b426b455acca7d1cb432867412e848aad2983a032813360405161025d9291906105ce565b60405180910390a150565b600080600254116102ae576040517f08c379a00000000000000000000000000000000000000000000000000000000081526004016102a5906103d0565b60405180910390fd5b60025460646001546102c0919061041f565b6102ca91906104a8565b905090565b60015481565b60025481565b60005481565b6000819050919050565b6102f4816102e1565b82525050565b600060208201905061030f60008301846102eb565b92915050565b600080fd5b610323816102e1565b811461032e57600080fd5b50565b6000813590506103408161031a565b92915050565b60006020828403121561035c5761035b610315565b5b600061036a84828501610331565b91505092915050565b600082825260208201905092915050565b7f41756e206e6f2068617920766f746f7300000000000000000000000000000000600082015250565b60006103ba601083610373565b91506103c582610384565b602082019050919050565b600060208201905081810360008301526103e9816103ad565b9050919050565b7f4e487b7100000000000000000000000000000000000000000000000000000000600052601160045260246000fd5b600061042a826102e1565b9150610435836102e1565b9250817fffffffffffffffffffffffffffffffffffffffffffffffffffffffffffffffff048311821515161561046e5761046d6103f0565b5b828202905092915050565b7f4e487b7100000000000000000000000000000000000000000000000000000000600052601260045260246000fd5b60006104b3826102e1565b91506104be836102e1565b9250826104ce576104cd610479565b5b828204905092915050565b7f43616e64696461746f20696e76616c69646f0000000000000000000000000000600082015250565b600061050f601283610373565b915061051a826104d9565b602082019050919050565b6000602082019050818103600083015261053e81610502565b9050919050565b6000610550826102e1565b91507fffffffffffffffffffffffffffffffffffffffffffffffffffffffffffffffff8203610582576105816103f0565b5b600182019050919050565b600073ffffffffffffffffffffffffffffffffffffffff82169050919050565b60006105b88261058d565b9050919050565b6105c8816105ad565b82525050565b60006040820190506105e360008301856102eb565b6105f060208301846105bf565b939250505056fea26469706673582212209474654e04bbe4f587d21b2d2044d7bdab75f7a7a702093e1f55b9bdaecd4a5564736f6c634300080d0033",
					"opcodes": "PUSH1 0x80 PUSH1 0x40 MSTORE CALLVALUE DUP1 ISZERO PUSH2 0x10 JUMPI PUSH1 0x0 DUP1 REVERT JUMPDEST POP PUSH2 0x62D DUP1 PUSH2 0x20 PUSH1 0x0 CODECOPY PUSH1 0x0 RETURN INVALID PUSH1 0x80 PUSH1 0x40 MSTORE CALLVALUE DUP1 ISZERO PUSH2 0x10 JUMPI PUSH1 0x0 DUP1 REVERT JUMPDEST POP PUSH1 0x4 CALLDATASIZE LT PUSH2 0x62 JUMPI PUSH1 0x0 CALLDATALOAD PUSH1 0xE0 SHR DUP1 PUSH4 0x15C92695 EQ PUSH2 0x67 JUMPI DUP1 PUSH4 0x21606831 EQ PUSH2 0x85 JUMPI DUP1 PUSH4 0x471535C4 EQ PUSH2 0xA1 JUMPI DUP1 PUSH4 0x5D70E895 EQ PUSH2 0xBF JUMPI DUP1 PUSH4 0x70E36064 EQ PUSH2 0xDD JUMPI DUP1 PUSH4 0xB8EE4D74 EQ PUSH2 0xFB JUMPI JUMPDEST PUSH1 0x0 DUP1 REVERT JUMPDEST PUSH2 0x6F PUSH2 0x119 JUMP JUMPDEST PUSH1 0x40 MLOAD PUSH2 0x7C SWAP2 SWAP1 PUSH2 0x2FA JUMP JUMPDEST PUSH1 0x40 MLOAD DUP1 SWAP2 SUB SWAP1 RETURN JUMPDEST PUSH2 0x9F PUSH1 0x4 DUP1 CALLDATASIZE SUB DUP2 ADD SWAP1 PUSH2 0x9A SWAP2 SWAP1 PUSH2 0x346 JUMP JUMPDEST PUSH2 0x180 JUMP JUMPDEST STOP JUMPDEST PUSH2 0xA9 PUSH2 0x268 JUMP JUMPDEST PUSH1 0x40 MLOAD PUSH2 0xB6 SWAP2 SWAP1 PUSH2 0x2FA JUMP JUMPDEST PUSH1 0x40 MLOAD DUP1 SWAP2 SUB SWAP1 RETURN JUMPDEST PUSH2 0xC7 PUSH2 0x2CF JUMP JUMPDEST PUSH1 0x40 MLOAD PUSH2 0xD4 SWAP2 SWAP1 PUSH2 0x2FA JUMP JUMPDEST PUSH1 0x40 MLOAD DUP1 SWAP2 SUB SWAP1 RETURN JUMPDEST PUSH2 0xE5 PUSH2 0x2D5 JUMP JUMPDEST PUSH1 0x40 MLOAD PUSH2 0xF2 SWAP2 SWAP1 PUSH2 0x2FA JUMP JUMPDEST PUSH1 0x40 MLOAD DUP1 SWAP2 SUB SWAP1 RETURN JUMPDEST PUSH2 0x103 PUSH2 0x2DB JUMP JUMPDEST PUSH1 0x40 MLOAD PUSH2 0x110 SWAP2 SWAP1 PUSH2 0x2FA JUMP JUMPDEST PUSH1 0x40 MLOAD DUP1 SWAP2 SUB SWAP1 RETURN JUMPDEST PUSH1 0x0 DUP1 PUSH1 0x2 SLOAD GT PUSH2 0x15F JUMPI PUSH1 0x40 MLOAD PUSH32 0x8C379A000000000000000000000000000000000000000000000000000000000 DUP2 MSTORE PUSH1 0x4 ADD PUSH2 0x156 SWAP1 PUSH2 0x3D0 JUMP JUMPDEST PUSH1 0x40 MLOAD DUP1 SWAP2 SUB SWAP1 REVERT JUMPDEST PUSH1 0x2 SLOAD PUSH1 0x64 PUSH1 0x0 SLOAD PUSH2 0x171 SWAP2 SWAP1 PUSH2 0x41F JUMP JUMPDEST PUSH2 0x17B SWAP2 SWAP1 PUSH2 0x4A8 JUMP JUMPDEST SWAP1 POP SWAP1 JUMP JUMPDEST PUSH1 0x1 DUP2 EQ DUP1 PUSH2 0x18F JUMPI POP PUSH1 0x2 DUP2 EQ JUMPDEST PUSH2 0x1CE JUMPI PUSH1 0x40 MLOAD PUSH32 0x8C379A000000000000000000000000000000000000000000000000000000000 DUP2 MSTORE PUSH1 0x4 ADD PUSH2 0x1C5 SWAP1 PUSH2 0x525 JUMP JUMPDEST PUSH1 0x40 MLOAD DUP1 SWAP2 SUB SWAP1 REVERT JUMPDEST PUSH1 0x1 DUP2 SUB PUSH2 0x1F2 JUMPI PUSH1 0x0 DUP1 DUP2 SLOAD DUP1 SWAP3 SWAP2 SWAP1 PUSH2 0x1E8 SWAP1 PUSH2 0x545 JUMP JUMPDEST SWAP2 SWAP1 POP SSTORE POP PUSH2 0x214 JUMP JUMPDEST PUSH1 0x2 DUP2 SUB PUSH2 0x213 JUMPI PUSH1 0x1 PUSH1 0x0 DUP2 SLOAD DUP1 SWAP3 SWAP2 SWAP1 PUSH2 0x20D SWAP1 PUSH2 0x545 JUMP JUMPDEST SWAP2 SWAP1 POP SSTORE POP JUMPDEST JUMPDEST PUSH1 0x2 PUSH1 0x0 DUP2 SLOAD DUP1 SWAP3 SWAP2 SWAP1 PUSH2 0x227 SWAP1 PUSH2 0x545 JUMP JUMPDEST SWAP2 SWAP1 POP SSTORE POP PUSH32 0x7C24C034397CF1B457ACFA5B426B455ACCA7D1CB432867412E848AAD2983A032 DUP2 CALLER PUSH1 0x40 MLOAD PUSH2 0x25D SWAP3 SWAP2 SWAP1 PUSH2 0x5CE JUMP JUMPDEST PUSH1 0x40 MLOAD DUP1 SWAP2 SUB SWAP1 LOG1 POP JUMP JUMPDEST PUSH1 0x0 DUP1 PUSH1 0x2 SLOAD GT PUSH2 0x2AE JUMPI PUSH1 0x40 MLOAD PUSH32 0x8C379A000000000000000000000000000000000000000000000000000000000 DUP2 MSTORE PUSH1 0x4 ADD PUSH2 0x2A5 SWAP1 PUSH2 0x3D0 JUMP JUMPDEST PUSH1 0x40 MLOAD DUP1 SWAP2 SUB SWAP1 REVERT JUMPDEST PUSH1 0x2 SLOAD PUSH1 0x64 PUSH1 0x1 SLOAD PUSH2 0x2C0 SWAP2 SWAP1 PUSH2 0x41F JUMP JUMPDEST PUSH2 0x2CA SWAP2 SWAP1 PUSH2 0x4A8 JUMP JUMPDEST SWAP1 POP SWAP1 JUMP JUMPDEST PUSH1 0x1 SLOAD DUP2 JUMP JUMPDEST PUSH1 0x2 SLOAD DUP2 JUMP JUMPDEST PUSH1 0x0 SLOAD DUP2 JUMP JUMPDEST PUSH1 0x0 DUP2 SWAP1 POP SWAP2 SWAP1 POP JUMP JUMPDEST PUSH2 0x2F4 DUP2 PUSH2 0x2E1 JUMP JUMPDEST DUP3 MSTORE POP POP JUMP JUMPDEST PUSH1 0x0 PUSH1 0x20 DUP3 ADD SWAP1 POP PUSH2 0x30F PUSH1 0x0 DUP4 ADD DUP5 PUSH2 0x2EB JUMP JUMPDEST SWAP3 SWAP2 POP POP JUMP JUMPDEST PUSH1 0x0 DUP1 REVERT JUMPDEST PUSH2 0x323 DUP2 PUSH2 0x2E1 JUMP JUMPDEST DUP2 EQ PUSH2 0x32E JUMPI PUSH1 0x0 DUP1 REVERT JUMPDEST POP JUMP JUMPDEST PUSH1 0x0 DUP2 CALLDATALOAD SWAP1 POP PUSH2 0x340 DUP2 PUSH2 0x31A JUMP JUMPDEST SWAP3 SWAP2 POP POP JUMP JUMPDEST PUSH1 0x0 PUSH1 0x20 DUP3 DUP5 SUB SLT ISZERO PUSH2 0x35C JUMPI PUSH2 0x35B PUSH2 0x315 JUMP JUMPDEST JUMPDEST PUSH1 0x0 PUSH2 0x36A DUP5 DUP3 DUP6 ADD PUSH2 0x331 JUMP JUMPDEST SWAP2 POP POP SWAP3 SWAP2 POP POP JUMP JUMPDEST PUSH1 0x0 DUP3 DUP3 MSTORE PUSH1 0x20 DUP3 ADD SWAP1 POP SWAP3 SWAP2 POP POP JUMP JUMPDEST PUSH32 0x41756E206E6F2068617920766F746F7300000000000000000000000000000000 PUSH1 0x0 DUP3 ADD MSTORE POP JUMP JUMPDEST PUSH1 0x0 PUSH2 0x3BA PUSH1 0x10 DUP4 PUSH2 0x373 JUMP JUMPDEST SWAP2 POP PUSH2 0x3C5 DUP3 PUSH2 0x384 JUMP JUMPDEST PUSH1 0x20 DUP3 ADD SWAP1 POP SWAP2 SWAP1 POP JUMP JUMPDEST PUSH1 0x0 PUSH1 0x20 DUP3 ADD SWAP1 POP DUP2 DUP2 SUB PUSH1 0x0 DUP4 ADD MSTORE PUSH2 0x3E9 DUP2 PUSH2 0x3AD JUMP JUMPDEST SWAP1 POP SWAP2 SWAP1 POP JUMP JUMPDEST PUSH32 0x4E487B7100000000000000000000000000000000000000000000000000000000 PUSH1 0x0 MSTORE PUSH1 0x11 PUSH1 0x4 MSTORE PUSH1 0x24 PUSH1 0x0 REVERT JUMPDEST PUSH1 0x0 PUSH2 0x42A DUP3 PUSH2 0x2E1 JUMP JUMPDEST SWAP2 POP PUSH2 0x435 DUP4 PUSH2 0x2E1 JUMP JUMPDEST SWAP3 POP DUP2 PUSH32 0xFFFFFFFFFFFFFFFFFFFFFFFFFFFFFFFFFFFFFFFFFFFFFFFFFFFFFFFFFFFFFFFF DIV DUP4 GT DUP3 ISZERO ISZERO AND ISZERO PUSH2 0x46E JUMPI PUSH2 0x46D PUSH2 0x3F0 JUMP JUMPDEST JUMPDEST DUP3 DUP3 MUL SWAP1 POP SWAP3 SWAP2 POP POP JUMP JUMPDEST PUSH32 0x4E487B7100000000000000000000000000000000000000000000000000000000 PUSH1 0x0 MSTORE PUSH1 0x12 PUSH1 0x4 MSTORE PUSH1 0x24 PUSH1 0x0 REVERT JUMPDEST PUSH1 0x0 PUSH2 0x4B3 DUP3 PUSH2 0x2E1 JUMP JUMPDEST SWAP2 POP PUSH2 0x4BE DUP4 PUSH2 0x2E1 JUMP JUMPDEST SWAP3 POP DUP3 PUSH2 0x4CE JUMPI PUSH2 0x4CD PUSH2 0x479 JUMP JUMPDEST JUMPDEST DUP3 DUP3 DIV SWAP1 POP SWAP3 SWAP2 POP POP JUMP JUMPDEST PUSH32 0x43616E64696461746F20696E76616C69646F0000000000000000000000000000 PUSH1 0x0 DUP3 ADD MSTORE POP JUMP JUMPDEST PUSH1 0x0 PUSH2 0x50F PUSH1 0x12 DUP4 PUSH2 0x373 JUMP JUMPDEST SWAP2 POP PUSH2 0x51A DUP3 PUSH2 0x4D9 JUMP JUMPDEST PUSH1 0x20 DUP3 ADD SWAP1 POP SWAP2 SWAP1 POP JUMP JUMPDEST PUSH1 0x0 PUSH1 0x20 DUP3 ADD SWAP1 POP DUP2 DUP2 SUB PUSH1 0x0 DUP4 ADD MSTORE PUSH2 0x53E DUP2 PUSH2 0x502 JUMP JUMPDEST SWAP1 POP SWAP2 SWAP1 POP JUMP JUMPDEST PUSH1 0x0 PUSH2 0x550 DUP3 PUSH2 0x2E1 JUMP JUMPDEST SWAP2 POP PUSH32 0xFFFFFFFFFFFFFFFFFFFFFFFFFFFFFFFFFFFFFFFFFFFFFFFFFFFFFFFFFFFFFFFF DUP3 SUB PUSH2 0x582 JUMPI PUSH2 0x581 PUSH2 0x3F0 JUMP JUMPDEST JUMPDEST PUSH1 0x1 DUP3 ADD SWAP1 POP SWAP2 SWAP1 POP JUMP JUMPDEST PUSH1 0x0 PUSH20 0xFFFFFFFFFFFFFFFFFFFFFFFFFFFFFFFFFFFFFFFF DUP3 AND SWAP1 POP SWAP2 SWAP1 POP JUMP JUMPDEST PUSH1 0x0 PUSH2 0x5B8 DUP3 PUSH2 0x58D JUMP JUMPDEST SWAP1 POP SWAP2 SWAP1 POP JUMP JUMPDEST PUSH2 0x5C8 DUP2 PUSH2 0x5AD JUMP JUMPDEST DUP3 MSTORE POP POP JUMP JUMPDEST PUSH1 0x0 PUSH1 0x40 DUP3 ADD SWAP1 POP PUSH2 0x5E3 PUSH1 0x0 DUP4 ADD DUP6 PUSH2 0x2EB JUMP JUMPDEST PUSH2 0x5F0 PUSH1 0x20 DUP4 ADD DUP5 PUSH2 0x5BF JUMP JUMPDEST SWAP4 SWAP3 POP POP POP JUMP INVALID LOG2 PUSH5 0x6970667358 0x22 SLT KECCAK256 SWAP5 PUSH21 0x654E04BBE4F587D21B2D2044D7BDAB75F7A7A70209 RETURNDATACOPY 0x1F SSTORE 0xB9 0xBD 0xAE 0xCD 0x4A SSTORE PUSH5 0x736F6C6343 STOP ADDMOD 0xD STOP CALLER "
				},
				"gasEstimates": {
					"creation": {
						"codeDepositCost": "316200",
						"executionCost": "355",
						"totalCost": "316555"
					},
					"external": {
						"porcentajeVotosCandidato1()": "infinite",
						"porcentajeVotosCandidato2()": "infinite",
						"totalVotos()": "2495",
						"votar(uint256)": "infinite",
						"votosCandidato1()": "2517",
						"votosCandidato2()": "2473"
					}
				},
				"methodIdentifiers": {
					"porcentajeVotosCandidato1()": "15c92695",
					"porcentajeVotosCandidato2()": "471535c4",
					"totalVotos()": "70e36064",
					"votar(uint256)": "21606831",
					"votosCandidato1()": "b8ee4d74",
					"votosCandidato2()": "5d70e895"
				}
			},
			"storageLayout": {
				"storage": [
					{
						"astId": 3,
						"contract": "contracts/SistemaVotacion.sol:SistemaVotacion",
						"label": "votosCandidato1",
						"offset": 0,
						"slot": "0",
						"type": "t_uint256"
					},
					{
						"astId": 5,
						"contract": "contracts/SistemaVotacion.sol:SistemaVotacion",
						"label": "votosCandidato2",
						"offset": 0,
						"slot": "1",
						"type": "t_uint256"
					},
					{
						"astId": 7,
						"contract": "contracts/SistemaVotacion.sol:SistemaVotacion",
						"label": "totalVotos",
						"offset": 0,
						"slot": "2",
						"type": "t_uint256"
					}
				],
				"types": {
					"t_uint256": {
						"encoding": "inplace",
						"label": "uint256",
						"numberOfBytes": "32"
					}
				}
			},
			"userdoc": {
				"kind": "user",
				"methods": {},
				"version": 1
			}
		}
	}
}