{
	"data": {
		"bytecode": {
			"linkReferences": {},
			"object": "608060405260105f555f54600a620000189190620001b4565b60015534801562000027575f80fd5b5062000204565b7f4e487b71000000000000000000000000000000000000000000000000000000005f52601160045260245ffd5b5f8160011c9050919050565b5f808291508390505b6001851115620000b85780860481111562000090576200008f6200002e565b5b6001851615620000a05780820291505b8081029050620000b0856200005b565b945062000070565b94509492505050565b5f82620000d25760019050620001a4565b81620000e1575f9050620001a4565b8160018114620000fa576002811462000105576200013b565b6001915050620001a4565b60ff8411156200011a57620001196200002e565b5b8360020a9150848211156200013457620001336200002e565b5b50620001a4565b5060208310610133831016604e8410600b8410161715620001755782820a9050838111156200016f576200016e6200002e565b5b620001a4565b62000184848484600162000067565b925090508184048111156200019e576200019d6200002e565b5b81810290505b9392505050565b5f819050919050565b5f620001c082620001ab565b9150620001cd83620001ab565b9250620001fc7fffffffffffffffffffffffffffffffffffffffffffffffffffffffffffffffff8484620000c1565b905092915050565b610a4280620002125f395ff3fe608060405234801561000f575f80fd5b506004361061003f575f3560e01c80632052465e146100435780637bff0a0114610074578063a290561114610090575b5f80fd5b61005d6004803603810190610058919061039c565b6100c1565b60405161006b929190610460565b60405180910390f35b61008e600480360381019061008991906105ba565b610176565b005b6100aa60048036038101906100a5919061039c565b610190565b6040516100b8929190610460565b60405180910390f35b600281815481106100d0575f80fd5b905f5260205f2090600202015f91509050805f0180546100ef9061062e565b80601f016020809104026020016040519081016040528092919081815260200182805461011b9061062e565b80156101665780601f1061013d57610100808354040283529160200191610166565b820191905f5260205f20905b81548152906001019060200180831161014957829003601f168201915b5050505050908060010154905082565b5f610180826102b4565b905061018c82826102f7565b5050565b60605f60028054905083106101da576040517f08c379a00000000000000000000000000000000000000000000000000000000081526004016101d1906106a8565b60405180910390fd5b5f600284815481106101ef576101ee6106c6565b5b905f5260205f2090600202016040518060400160405290815f820180546102159061062e565b80601f01602080910402602001604051908101604052809291908181526020018280546102419061062e565b801561028c5780601f106102635761010080835404028352916020019161028c565b820191905f5260205f20905b81548152906001019060200180831161026f57829003601f168201915b505050505081526020016001820154815250509050805f015181602001519250925050915091565b5f80826040516020016102c7919061072d565b604051602081830303815290604052805190602001205f1c9050600154816102ef9190610770565b915050919050565b6002604051806040016040528084815260200183815250908060018154018082558091505060019003905f5260205f2090600202015f909190919091505f820151815f019081610347919061093d565b506020820151816001015550505050565b5f604051905090565b5f80fd5b5f80fd5b5f819050919050565b61037b81610369565b8114610385575f80fd5b50565b5f8135905061039681610372565b92915050565b5f602082840312156103b1576103b0610361565b5b5f6103be84828501610388565b91505092915050565b5f81519050919050565b5f82825260208201905092915050565b5f5b838110156103fe5780820151818401526020810190506103e3565b5f8484015250505050565b5f601f19601f8301169050919050565b5f610423826103c7565b61042d81856103d1565b935061043d8185602086016103e1565b61044681610409565b840191505092915050565b61045a81610369565b82525050565b5f6040820190508181035f8301526104788185610419565b90506104876020830184610451565b9392505050565b5f80fd5b5f80fd5b7f4e487b71000000000000000000000000000000000000000000000000000000005f52604160045260245ffd5b6104cc82610409565b810181811067ffffffffffffffff821117156104eb576104ea610496565b5b80604052505050565b5f6104fd610358565b905061050982826104c3565b919050565b5f67ffffffffffffffff82111561052857610527610496565b5b61053182610409565b9050602081019050919050565b828183375f83830152505050565b5f61055e6105598461050e565b6104f4565b90508281526020810184848401111561057a57610579610492565b5b61058584828561053e565b509392505050565b5f82601f8301126105a1576105a061048e565b5b81356105b184826020860161054c565b91505092915050565b5f602082840312156105cf576105ce610361565b5b5f82013567ffffffffffffffff8111156105ec576105eb610365565b5b6105f88482850161058d565b91505092915050565b7f4e487b71000000000000000000000000000000000000000000000000000000005f52602260045260245ffd5b5f600282049050600182168061064557607f821691505b60208210810361065857610657610601565b5b50919050565b7f496e646963652066756572612064652072616e676f00000000000000000000005f82015250565b5f6106926015836103d1565b915061069d8261065e565b602082019050919050565b5f6020820190508181035f8301526106bf81610686565b9050919050565b7f4e487b71000000000000000000000000000000000000000000000000000000005f52603260045260245ffd5b5f81905092915050565b5f610707826103c7565b61071181856106f3565b93506107218185602086016103e1565b80840191505092915050565b5f61073882846106fd565b915081905092915050565b7f4e487b71000000000000000000000000000000000000000000000000000000005f52601260045260245ffd5b5f61077a82610369565b915061078583610369565b92508261079557610794610743565b5b828206905092915050565b5f819050815f5260205f209050919050565b5f6020601f8301049050919050565b5f82821b905092915050565b5f600883026107fc7fffffffffffffffffffffffffffffffffffffffffffffffffffffffffffffffff826107c1565b61080686836107c1565b95508019841693508086168417925050509392505050565b5f819050919050565b5f61084161083c61083784610369565b61081e565b610369565b9050919050565b5f819050919050565b61085a83610827565b61086e61086682610848565b8484546107cd565b825550505050565b5f90565b610882610876565b61088d818484610851565b505050565b5b818110156108b0576108a55f8261087a565b600181019050610893565b5050565b601f8211156108f5576108c6816107a0565b6108cf846107b2565b810160208510156108de578190505b6108f26108ea856107b2565b830182610892565b50505b505050565b5f82821c905092915050565b5f6109155f19846008026108fa565b1980831691505092915050565b5f61092d8383610906565b9150826002028217905092915050565b610946826103c7565b67ffffffffffffffff81111561095f5761095e610496565b5b610969825461062e565b6109748282856108b4565b5f60209050601f8311600181146109a5575f8415610993578287015190505b61099d8582610922565b865550610a04565b601f1984166109b3866107a0565b5f5b828110156109da578489015182556001820191506020850194506020810190506109b5565b868310156109f757848901516109f3601f891682610906565b8355505b6001600288020188555050505b50505050505056fea26469706673582212203af956917fd1af2b43e2e33966341dcc7e3032cf4954efe68feb0a9c07e61f9b64736f6c63430008170033",
			"opcodes": "PUSH1 0x80 PUSH1 0x40 MSTORE PUSH1 0x10 PUSH0 SSTORE PUSH0 SLOAD PUSH1 0xA PUSH3 0x18 SWAP2 SWAP1 PUSH3 0x1B4 JUMP JUMPDEST PUSH1 0x1 SSTORE CALLVALUE DUP1 ISZERO PUSH3 0x27 JUMPI PUSH0 DUP1 REVERT JUMPDEST POP PUSH3 0x204 JUMP JUMPDEST PUSH32 0x4E487B7100000000000000000000000000000000000000000000000000000000 PUSH0 MSTORE PUSH1 0x11 PUSH1 0x4 MSTORE PUSH1 0x24 PUSH0 REVERT JUMPDEST PUSH0 DUP2 PUSH1 0x1 SHR SWAP1 POP SWAP2 SWAP1 POP JUMP JUMPDEST PUSH0 DUP1 DUP3 SWAP2 POP DUP4 SWAP1 POP JUMPDEST PUSH1 0x1 DUP6 GT ISZERO PUSH3 0xB8 JUMPI DUP1 DUP7 DIV DUP2 GT ISZERO PUSH3 0x90 JUMPI PUSH3 0x8F PUSH3 0x2E JUMP JUMPDEST JUMPDEST PUSH1 0x1 DUP6 AND ISZERO PUSH3 0xA0 JUMPI DUP1 DUP3 MUL SWAP2 POP JUMPDEST DUP1 DUP2 MUL SWAP1 POP PUSH3 0xB0 DUP6 PUSH3 0x5B JUMP JUMPDEST SWAP5 POP PUSH3 0x70 JUMP JUMPDEST SWAP5 POP SWAP5 SWAP3 POP POP POP JUMP JUMPDEST PUSH0 DUP3 PUSH3 0xD2 JUMPI PUSH1 0x1 SWAP1 POP PUSH3 0x1A4 JUMP JUMPDEST DUP2 PUSH3 0xE1 JUMPI PUSH0 SWAP1 POP PUSH3 0x1A4 JUMP JUMPDEST DUP2 PUSH1 0x1 DUP2 EQ PUSH3 0xFA JUMPI PUSH1 0x2 DUP2 EQ PUSH3 0x105 JUMPI PUSH3 0x13B JUMP JUMPDEST PUSH1 0x1 SWAP2 POP POP PUSH3 0x1A4 JUMP JUMPDEST PUSH1 0xFF DUP5 GT ISZERO PUSH3 0x11A JUMPI PUSH3 0x119 PUSH3 0x2E JUMP JUMPDEST JUMPDEST DUP4 PUSH1 0x2 EXP SWAP2 POP DUP5 DUP3 GT ISZERO PUSH3 0x134 JUMPI PUSH3 0x133 PUSH3 0x2E JUMP JUMPDEST JUMPDEST POP PUSH3 0x1A4 JUMP JUMPDEST POP PUSH1 0x20 DUP4 LT PUSH2 0x133 DUP4 LT AND PUSH1 0x4E DUP5 LT PUSH1 0xB DUP5 LT AND OR ISZERO PUSH3 0x175 JUMPI DUP3 DUP3 EXP SWAP1 POP DUP4 DUP2 GT ISZERO PUSH3 0x16F JUMPI PUSH3 0x16E PUSH3 0x2E JUMP JUMPDEST JUMPDEST PUSH3 0x1A4 JUMP JUMPDEST PUSH3 0x184 DUP5 DUP5 DUP5 PUSH1 0x1 PUSH3 0x67 JUMP JUMPDEST SWAP3 POP SWAP1 POP DUP2 DUP5 DIV DUP2 GT ISZERO PUSH3 0x19E JUMPI PUSH3 0x19D PUSH3 0x2E JUMP JUMPDEST JUMPDEST DUP2 DUP2 MUL SWAP1 POP JUMPDEST SWAP4 SWAP3 POP POP POP JUMP JUMPDEST PUSH0 DUP2 SWAP1 POP SWAP2 SWAP1 POP JUMP JUMPDEST PUSH0 PUSH3 0x1C0 DUP3 PUSH3 0x1AB JUMP JUMPDEST SWAP2 POP PUSH3 0x1CD DUP4 PUSH3 0x1AB JUMP JUMPDEST SWAP3 POP PUSH3 0x1FC PUSH32 0xFFFFFFFFFFFFFFFFFFFFFFFFFFFFFFFFFFFFFFFFFFFFFFFFFFFFFFFFFFFFFFFF DUP5 DUP5 PUSH3 0xC1 JUMP JUMPDEST SWAP1 POP SWAP3 SWAP2 POP POP JUMP JUMPDEST PUSH2 0xA42 DUP1 PUSH3 0x212 PUSH0 CODECOPY PUSH0 RETURN INVALID PUSH1 0x80 PUSH1 0x40 MSTORE CALLVALUE DUP1 ISZERO PUSH2 0xF JUMPI PUSH0 DUP1 REVERT JUMPDEST POP PUSH1 0x4 CALLDATASIZE LT PUSH2 0x3F JUMPI PUSH0 CALLDATALOAD PUSH1 0xE0 SHR DUP1 PUSH4 0x2052465E EQ PUSH2 0x43 JUMPI DUP1 PUSH4 0x7BFF0A01 EQ PUSH2 0x74 JUMPI DUP1 PUSH4 0xA2905611 EQ PUSH2 0x90 JUMPI JUMPDEST PUSH0 DUP1 REVERT JUMPDEST PUSH2 0x5D PUSH1 0x4 DUP1 CALLDATASIZE SUB DUP2 ADD SWAP1 PUSH2 0x58 SWAP2 SWAP1 PUSH2 0x39C JUMP JUMPDEST PUSH2 0xC1 JUMP JUMPDEST PUSH1 0x40 MLOAD PUSH2 0x6B SWAP3 SWAP2 SWAP1 PUSH2 0x460 JUMP JUMPDEST PUSH1 0x40 MLOAD DUP1 SWAP2 SUB SWAP1 RETURN JUMPDEST PUSH2 0x8E PUSH1 0x4 DUP1 CALLDATASIZE SUB DUP2 ADD SWAP1 PUSH2 0x89 SWAP2 SWAP1 PUSH2 0x5BA JUMP JUMPDEST PUSH2 0x176 JUMP JUMPDEST STOP JUMPDEST PUSH2 0xAA PUSH1 0x4 DUP1 CALLDATASIZE SUB DUP2 ADD SWAP1 PUSH2 0xA5 SWAP2 SWAP1 PUSH2 0x39C JUMP JUMPDEST PUSH2 0x190 JUMP JUMPDEST PUSH1 0x40 MLOAD PUSH2 0xB8 SWAP3 SWAP2 SWAP1 PUSH2 0x460 JUMP JUMPDEST PUSH1 0x40 MLOAD DUP1 SWAP2 SUB SWAP1 RETURN JUMPDEST PUSH1 0x2 DUP2 DUP2 SLOAD DUP2 LT PUSH2 0xD0 JUMPI PUSH0 DUP1 REVERT JUMPDEST SWAP1 PUSH0 MSTORE PUSH1 0x20 PUSH0 KECCAK256 SWAP1 PUSH1 0x2 MUL ADD PUSH0 SWAP2 POP SWAP1 POP DUP1 PUSH0 ADD DUP1 SLOAD PUSH2 0xEF SWAP1 PUSH2 0x62E JUMP JUMPDEST DUP1 PUSH1 0x1F ADD PUSH1 0x20 DUP1 SWAP2 DIV MUL PUSH1 0x20 ADD PUSH1 0x40 MLOAD SWAP1 DUP2 ADD PUSH1 0x40 MSTORE DUP1 SWAP3 SWAP2 SWAP1 DUP2 DUP2 MSTORE PUSH1 0x20 ADD DUP3 DUP1 SLOAD PUSH2 0x11B SWAP1 PUSH2 0x62E JUMP JUMPDEST DUP1 ISZERO PUSH2 0x166 JUMPI DUP1 PUSH1 0x1F LT PUSH2 0x13D JUMPI PUSH2 0x100 DUP1 DUP4 SLOAD DIV MUL DUP4 MSTORE SWAP2 PUSH1 0x20 ADD SWAP2 PUSH2 0x166 JUMP JUMPDEST DUP3 ADD SWAP2 SWAP1 PUSH0 MSTORE PUSH1 0x20 PUSH0 KECCAK256 SWAP1 JUMPDEST DUP2 SLOAD DUP2 MSTORE SWAP1 PUSH1 0x1 ADD SWAP1 PUSH1 0x20 ADD DUP1 DUP4 GT PUSH2 0x149 JUMPI DUP3 SWAP1 SUB PUSH1 0x1F AND DUP3 ADD SWAP2 JUMPDEST POP POP POP POP POP SWAP1 DUP1 PUSH1 0x1 ADD SLOAD SWAP1 POP DUP3 JUMP JUMPDEST PUSH0 PUSH2 0x180 DUP3 PUSH2 0x2B4 JUMP JUMPDEST SWAP1 POP PUSH2 0x18C DUP3 DUP3 PUSH2 0x2F7 JUMP JUMPDEST POP POP JUMP JUMPDEST PUSH1 0x60 PUSH0 PUSH1 0x2 DUP1 SLOAD SWAP1 POP DUP4 LT PUSH2 0x1DA JUMPI PUSH1 0x40 MLOAD PUSH32 0x8C379A000000000000000000000000000000000000000000000000000000000 DUP2 MSTORE PUSH1 0x4 ADD PUSH2 0x1D1 SWAP1 PUSH2 0x6A8 JUMP JUMPDEST PUSH1 0x40 MLOAD DUP1 SWAP2 SUB SWAP1 REVERT JUMPDEST PUSH0 PUSH1 0x2 DUP5 DUP2 SLOAD DUP2 LT PUSH2 0x1EF JUMPI PUSH2 0x1EE PUSH2 0x6C6 JUMP JUMPDEST JUMPDEST SWAP1 PUSH0 MSTORE PUSH1 0x20 PUSH0 KECCAK256 SWAP1 PUSH1 0x2 MUL ADD PUSH1 0x40 MLOAD DUP1 PUSH1 0x40 ADD PUSH1 0x40 MSTORE SWAP1 DUP2 PUSH0 DUP3 ADD DUP1 SLOAD PUSH2 0x215 SWAP1 PUSH2 0x62E JUMP JUMPDEST DUP1 PUSH1 0x1F ADD PUSH1 0x20 DUP1 SWAP2 DIV MUL PUSH1 0x20 ADD PUSH1 0x40 MLOAD SWAP1 DUP2 ADD PUSH1 0x40 MSTORE DUP1 SWAP3 SWAP2 SWAP1 DUP2 DUP2 MSTORE PUSH1 0x20 ADD DUP3 DUP1 SLOAD PUSH2 0x241 SWAP1 PUSH2 0x62E JUMP JUMPDEST DUP1 ISZERO PUSH2 0x28C JUMPI DUP1 PUSH1 0x1F LT PUSH2 0x263 JUMPI PUSH2 0x100 DUP1 DUP4 SLOAD DIV MUL DUP4 MSTORE SWAP2 PUSH1 0x20 ADD SWAP2 PUSH2 0x28C JUMP JUMPDEST DUP3 ADD SWAP2 SWAP1 PUSH0 MSTORE PUSH1 0x20 PUSH0 KECCAK256 SWAP1 JUMPDEST DUP2 SLOAD DUP2 MSTORE SWAP1 PUSH1 0x1 ADD SWAP1 PUSH1 0x20 ADD DUP1 DUP4 GT PUSH2 0x26F JUMPI DUP3 SWAP1 SUB PUSH1 0x1F AND DUP3 ADD SWAP2 JUMPDEST POP POP POP POP POP DUP2 MSTORE PUSH1 0x20 ADD PUSH1 0x1 DUP3 ADD SLOAD DUP2 MSTORE POP POP SWAP1 POP DUP1 PUSH0 ADD MLOAD DUP2 PUSH1 0x20 ADD MLOAD SWAP3 POP SWAP3 POP POP SWAP2 POP SWAP2 JUMP JUMPDEST PUSH0 DUP1 DUP3 PUSH1 0x40 MLOAD PUSH1 0x20 ADD PUSH2 0x2C7 SWAP2 SWAP1 PUSH2 0x72D JUMP JUMPDEST PUSH1 0x40 MLOAD PUSH1 0x20 DUP2 DUP4 SUB SUB DUP2 MSTORE SWAP1 PUSH1 0x40 MSTORE DUP1 MLOAD SWAP1 PUSH1 0x20 ADD KECCAK256 PUSH0 SHR SWAP1 POP PUSH1 0x1 SLOAD DUP2 PUSH2 0x2EF SWAP2 SWAP1 PUSH2 0x770 JUMP JUMPDEST SWAP2 POP POP SWAP2 SWAP1 POP JUMP JUMPDEST PUSH1 0x2 PUSH1 0x40 MLOAD DUP1 PUSH1 0x40 ADD PUSH1 0x40 MSTORE DUP1 DUP5 DUP2 MSTORE PUSH1 0x20 ADD DUP4 DUP2 MSTORE POP SWAP1 DUP1 PUSH1 0x1 DUP2 SLOAD ADD DUP1 DUP3 SSTORE DUP1 SWAP2 POP POP PUSH1 0x1 SWAP1 SUB SWAP1 PUSH0 MSTORE PUSH1 0x20 PUSH0 KECCAK256 SWAP1 PUSH1 0x2 MUL ADD PUSH0 SWAP1 SWAP2 SWAP1 SWAP2 SWAP1 SWAP2 POP PUSH0 DUP3 ADD MLOAD DUP2 PUSH0 ADD SWAP1 DUP2 PUSH2 0x347 SWAP2 SWAP1 PUSH2 0x93D JUMP JUMPDEST POP PUSH1 0x20 DUP3 ADD MLOAD DUP2 PUSH1 0x1 ADD SSTORE POP POP POP POP JUMP JUMPDEST PUSH0 PUSH1 0x40 MLOAD SWAP1 POP SWAP1 JUMP JUMPDEST PUSH0 DUP1 REVERT JUMPDEST PUSH0 DUP1 REVERT JUMPDEST PUSH0 DUP2 SWAP1 POP SWAP2 SWAP1 POP JUMP JUMPDEST PUSH2 0x37B DUP2 PUSH2 0x369 JUMP JUMPDEST DUP2 EQ PUSH2 0x385 JUMPI PUSH0 DUP1 REVERT JUMPDEST POP JUMP JUMPDEST PUSH0 DUP2 CALLDATALOAD SWAP1 POP PUSH2 0x396 DUP2 PUSH2 0x372 JUMP JUMPDEST SWAP3 SWAP2 POP POP JUMP JUMPDEST PUSH0 PUSH1 0x20 DUP3 DUP5 SUB SLT ISZERO PUSH2 0x3B1 JUMPI PUSH2 0x3B0 PUSH2 0x361 JUMP JUMPDEST JUMPDEST PUSH0 PUSH2 0x3BE DUP5 DUP3 DUP6 ADD PUSH2 0x388 JUMP JUMPDEST SWAP2 POP POP SWAP3 SWAP2 POP POP JUMP JUMPDEST PUSH0 DUP2 MLOAD SWAP1 POP SWAP2 SWAP1 POP JUMP JUMPDEST PUSH0 DUP3 DUP3 MSTORE PUSH1 0x20 DUP3 ADD SWAP1 POP SWAP3 SWAP2 POP POP JUMP JUMPDEST PUSH0 JUMPDEST DUP4 DUP2 LT ISZERO PUSH2 0x3FE JUMPI DUP1 DUP3 ADD MLOAD DUP2 DUP5 ADD MSTORE PUSH1 0x20 DUP2 ADD SWAP1 POP PUSH2 0x3E3 JUMP JUMPDEST PUSH0 DUP5 DUP5 ADD MSTORE POP POP POP POP JUMP JUMPDEST PUSH0 PUSH1 0x1F NOT PUSH1 0x1F DUP4 ADD AND SWAP1 POP SWAP2 SWAP1 POP JUMP JUMPDEST PUSH0 PUSH2 0x423 DUP3 PUSH2 0x3C7 JUMP JUMPDEST PUSH2 0x42D DUP2 DUP6 PUSH2 0x3D1 JUMP JUMPDEST SWAP4 POP PUSH2 0x43D DUP2 DUP6 PUSH1 0x20 DUP7 ADD PUSH2 0x3E1 JUMP JUMPDEST PUSH2 0x446 DUP2 PUSH2 0x409 JUMP JUMPDEST DUP5 ADD SWAP2 POP POP SWAP3 SWAP2 POP POP JUMP JUMPDEST PUSH2 0x45A DUP2 PUSH2 0x369 JUMP JUMPDEST DUP3 MSTORE POP POP JUMP JUMPDEST PUSH0 PUSH1 0x40 DUP3 ADD SWAP1 POP DUP2 DUP2 SUB PUSH0 DUP4 ADD MSTORE PUSH2 0x478 DUP2 DUP6 PUSH2 0x419 JUMP JUMPDEST SWAP1 POP PUSH2 0x487 PUSH1 0x20 DUP4 ADD DUP5 PUSH2 0x451 JUMP JUMPDEST SWAP4 SWAP3 POP POP POP JUMP JUMPDEST PUSH0 DUP1 REVERT JUMPDEST PUSH0 DUP1 REVERT JUMPDEST PUSH32 0x4E487B7100000000000000000000000000000000000000000000000000000000 PUSH0 MSTORE PUSH1 0x41 PUSH1 0x4 MSTORE PUSH1 0x24 PUSH0 REVERT JUMPDEST PUSH2 0x4CC DUP3 PUSH2 0x409 JUMP JUMPDEST DUP2 ADD DUP2 DUP2 LT PUSH8 0xFFFFFFFFFFFFFFFF DUP3 GT OR ISZERO PUSH2 0x4EB JUMPI PUSH2 0x4EA PUSH2 0x496 JUMP JUMPDEST JUMPDEST DUP1 PUSH1 0x40 MSTORE POP POP POP JUMP JUMPDEST PUSH0 PUSH2 0x4FD PUSH2 0x358 JUMP JUMPDEST SWAP1 POP PUSH2 0x509 DUP3 DUP3 PUSH2 0x4C3 JUMP JUMPDEST SWAP2 SWAP1 POP JUMP JUMPDEST PUSH0 PUSH8 0xFFFFFFFFFFFFFFFF DUP3 GT ISZERO PUSH2 0x528 JUMPI PUSH2 0x527 PUSH2 0x496 JUMP JUMPDEST JUMPDEST PUSH2 0x531 DUP3 PUSH2 0x409 JUMP JUMPDEST SWAP1 POP PUSH1 0x20 DUP2 ADD SWAP1 POP SWAP2 SWAP1 POP JUMP JUMPDEST DUP3 DUP2 DUP4 CALLDATACOPY PUSH0 DUP4 DUP4 ADD MSTORE POP POP POP JUMP JUMPDEST PUSH0 PUSH2 0x55E PUSH2 0x559 DUP5 PUSH2 0x50E JUMP JUMPDEST PUSH2 0x4F4 JUMP JUMPDEST SWAP1 POP DUP3 DUP2 MSTORE PUSH1 0x20 DUP2 ADD DUP5 DUP5 DUP5 ADD GT ISZERO PUSH2 0x57A JUMPI PUSH2 0x579 PUSH2 0x492 JUMP JUMPDEST JUMPDEST PUSH2 0x585 DUP5 DUP3 DUP6 PUSH2 0x53E JUMP JUMPDEST POP SWAP4 SWAP3 POP POP POP JUMP JUMPDEST PUSH0 DUP3 PUSH1 0x1F DUP4 ADD SLT PUSH2 0x5A1 JUMPI PUSH2 0x5A0 PUSH2 0x48E JUMP JUMPDEST JUMPDEST DUP2 CALLDATALOAD PUSH2 0x5B1 DUP5 DUP3 PUSH1 0x20 DUP7 ADD PUSH2 0x54C JUMP JUMPDEST SWAP2 POP POP SWAP3 SWAP2 POP POP JUMP JUMPDEST PUSH0 PUSH1 0x20 DUP3 DUP5 SUB SLT ISZERO PUSH2 0x5CF JUMPI PUSH2 0x5CE PUSH2 0x361 JUMP JUMPDEST JUMPDEST PUSH0 DUP3 ADD CALLDATALOAD PUSH8 0xFFFFFFFFFFFFFFFF DUP2 GT ISZERO PUSH2 0x5EC JUMPI PUSH2 0x5EB PUSH2 0x365 JUMP JUMPDEST JUMPDEST PUSH2 0x5F8 DUP5 DUP3 DUP6 ADD PUSH2 0x58D JUMP JUMPDEST SWAP2 POP POP SWAP3 SWAP2 POP POP JUMP JUMPDEST PUSH32 0x4E487B7100000000000000000000000000000000000000000000000000000000 PUSH0 MSTORE PUSH1 0x22 PUSH1 0x4 MSTORE PUSH1 0x24 PUSH0 REVERT JUMPDEST PUSH0 PUSH1 0x2 DUP3 DIV SWAP1 POP PUSH1 0x1 DUP3 AND DUP1 PUSH2 0x645 JUMPI PUSH1 0x7F DUP3 AND SWAP2 POP JUMPDEST PUSH1 0x20 DUP3 LT DUP2 SUB PUSH2 0x658 JUMPI PUSH2 0x657 PUSH2 0x601 JUMP JUMPDEST JUMPDEST POP SWAP2 SWAP1 POP JUMP JUMPDEST PUSH32 0x496E646963652066756572612064652072616E676F0000000000000000000000 PUSH0 DUP3 ADD MSTORE POP JUMP JUMPDEST PUSH0 PUSH2 0x692 PUSH1 0x15 DUP4 PUSH2 0x3D1 JUMP JUMPDEST SWAP2 POP PUSH2 0x69D DUP3 PUSH2 0x65E JUMP JUMPDEST PUSH1 0x20 DUP3 ADD SWAP1 POP SWAP2 SWAP1 POP JUMP JUMPDEST PUSH0 PUSH1 0x20 DUP3 ADD SWAP1 POP DUP2 DUP2 SUB PUSH0 DUP4 ADD MSTORE PUSH2 0x6BF DUP2 PUSH2 0x686 JUMP JUMPDEST SWAP1 POP SWAP2 SWAP1 POP JUMP JUMPDEST PUSH32 0x4E487B7100000000000000000000000000000000000000000000000000000000 PUSH0 MSTORE PUSH1 0x32 PUSH1 0x4 MSTORE PUSH1 0x24 PUSH0 REVERT JUMPDEST PUSH0 DUP2 SWAP1 POP SWAP3 SWAP2 POP POP JUMP JUMPDEST PUSH0 PUSH2 0x707 DUP3 PUSH2 0x3C7 JUMP JUMPDEST PUSH2 0x711 DUP2 DUP6 PUSH2 0x6F3 JUMP JUMPDEST SWAP4 POP PUSH2 0x721 DUP2 DUP6 PUSH1 0x20 DUP7 ADD PUSH2 0x3E1 JUMP JUMPDEST DUP1 DUP5 ADD SWAP2 POP POP SWAP3 SWAP2 POP POP JUMP JUMPDEST PUSH0 PUSH2 0x738 DUP3 DUP5 PUSH2 0x6FD JUMP JUMPDEST SWAP2 POP DUP2 SWAP1 POP SWAP3 SWAP2 POP POP JUMP JUMPDEST PUSH32 0x4E487B7100000000000000000000000000000000000000000000000000000000 PUSH0 MSTORE PUSH1 0x12 PUSH1 0x4 MSTORE PUSH1 0x24 PUSH0 REVERT JUMPDEST PUSH0 PUSH2 0x77A DUP3 PUSH2 0x369 JUMP JUMPDEST SWAP2 POP PUSH2 0x785 DUP4 PUSH2 0x369 JUMP JUMPDEST SWAP3 POP DUP3 PUSH2 0x795 JUMPI PUSH2 0x794 PUSH2 0x743 JUMP JUMPDEST JUMPDEST DUP3 DUP3 MOD SWAP1 POP SWAP3 SWAP2 POP POP JUMP JUMPDEST PUSH0 DUP2 SWAP1 POP DUP2 PUSH0 MSTORE PUSH1 0x20 PUSH0 KECCAK256 SWAP1 POP SWAP2 SWAP1 POP JUMP JUMPDEST PUSH0 PUSH1 0x20 PUSH1 0x1F DUP4 ADD DIV SWAP1 POP SWAP2 SWAP1 POP JUMP JUMPDEST PUSH0 DUP3 DUP3 SHL SWAP1 POP SWAP3 SWAP2 POP POP JUMP JUMPDEST PUSH0 PUSH1 0x8 DUP4 MUL PUSH2 0x7FC PUSH32 0xFFFFFFFFFFFFFFFFFFFFFFFFFFFFFFFFFFFFFFFFFFFFFFFFFFFFFFFFFFFFFFFF DUP3 PUSH2 0x7C1 JUMP JUMPDEST PUSH2 0x806 DUP7 DUP4 PUSH2 0x7C1 JUMP JUMPDEST SWAP6 POP DUP1 NOT DUP5 AND SWAP4 POP DUP1 DUP7 AND DUP5 OR SWAP3 POP POP POP SWAP4 SWAP3 POP POP POP JUMP JUMPDEST PUSH0 DUP2 SWAP1 POP SWAP2 SWAP1 POP JUMP JUMPDEST PUSH0 PUSH2 0x841 PUSH2 0x83C PUSH2 0x837 DUP5 PUSH2 0x369 JUMP JUMPDEST PUSH2 0x81E JUMP JUMPDEST PUSH2 0x369 JUMP JUMPDEST SWAP1 POP SWAP2 SWAP1 POP JUMP JUMPDEST PUSH0 DUP2 SWAP1 POP SWAP2 SWAP1 POP JUMP JUMPDEST PUSH2 0x85A DUP4 PUSH2 0x827 JUMP JUMPDEST PUSH2 0x86E PUSH2 0x866 DUP3 PUSH2 0x848 JUMP JUMPDEST DUP5 DUP5 SLOAD PUSH2 0x7CD JUMP JUMPDEST DUP3 SSTORE POP POP POP POP JUMP JUMPDEST PUSH0 SWAP1 JUMP JUMPDEST PUSH2 0x882 PUSH2 0x876 JUMP JUMPDEST PUSH2 0x88D DUP2 DUP5 DUP5 PUSH2 0x851 JUMP JUMPDEST POP POP POP JUMP JUMPDEST JUMPDEST DUP2 DUP2 LT ISZERO PUSH2 0x8B0 JUMPI PUSH2 0x8A5 PUSH0 DUP3 PUSH2 0x87A JUMP JUMPDEST PUSH1 0x1 DUP2 ADD SWAP1 POP PUSH2 0x893 JUMP JUMPDEST POP POP JUMP JUMPDEST PUSH1 0x1F DUP3 GT ISZERO PUSH2 0x8F5 JUMPI PUSH2 0x8C6 DUP2 PUSH2 0x7A0 JUMP JUMPDEST PUSH2 0x8CF DUP5 PUSH2 0x7B2 JUMP JUMPDEST DUP2 ADD PUSH1 0x20 DUP6 LT ISZERO PUSH2 0x8DE JUMPI DUP2 SWAP1 POP JUMPDEST PUSH2 0x8F2 PUSH2 0x8EA DUP6 PUSH2 0x7B2 JUMP JUMPDEST DUP4 ADD DUP3 PUSH2 0x892 JUMP JUMPDEST POP POP JUMPDEST POP POP POP JUMP JUMPDEST PUSH0 DUP3 DUP3 SHR SWAP1 POP SWAP3 SWAP2 POP POP JUMP JUMPDEST PUSH0 PUSH2 0x915 PUSH0 NOT DUP5 PUSH1 0x8 MUL PUSH2 0x8FA JUMP JUMPDEST NOT DUP1 DUP4 AND SWAP2 POP POP SWAP3 SWAP2 POP POP JUMP JUMPDEST PUSH0 PUSH2 0x92D DUP4 DUP4 PUSH2 0x906 JUMP JUMPDEST SWAP2 POP DUP3 PUSH1 0x2 MUL DUP3 OR SWAP1 POP SWAP3 SWAP2 POP POP JUMP JUMPDEST PUSH2 0x946 DUP3 PUSH2 0x3C7 JUMP JUMPDEST PUSH8 0xFFFFFFFFFFFFFFFF DUP2 GT ISZERO PUSH2 0x95F JUMPI PUSH2 0x95E PUSH2 0x496 JUMP JUMPDEST JUMPDEST PUSH2 0x969 DUP3 SLOAD PUSH2 0x62E JUMP JUMPDEST PUSH2 0x974 DUP3 DUP3 DUP6 PUSH2 0x8B4 JUMP JUMPDEST PUSH0 PUSH1 0x20 SWAP1 POP PUSH1 0x1F DUP4 GT PUSH1 0x1 DUP2 EQ PUSH2 0x9A5 JUMPI PUSH0 DUP5 ISZERO PUSH2 0x993 JUMPI DUP3 DUP8 ADD MLOAD SWAP1 POP JUMPDEST PUSH2 0x99D DUP6 DUP3 PUSH2 0x922 JUMP JUMPDEST DUP7 SSTORE POP PUSH2 0xA04 JUMP JUMPDEST PUSH1 0x1F NOT DUP5 AND PUSH2 0x9B3 DUP7 PUSH2 0x7A0 JUMP JUMPDEST PUSH0 JUMPDEST DUP3 DUP2 LT ISZERO PUSH2 0x9DA JUMPI DUP5 DUP10 ADD MLOAD DUP3 SSTORE PUSH1 0x1 DUP3 ADD SWAP2 POP PUSH1 0x20 DUP6 ADD SWAP5 POP PUSH1 0x20 DUP2 ADD SWAP1 POP PUSH2 0x9B5 JUMP JUMPDEST DUP7 DUP4 LT ISZERO PUSH2 0x9F7 JUMPI DUP5 DUP10 ADD MLOAD PUSH2 0x9F3 PUSH1 0x1F DUP10 AND DUP3 PUSH2 0x906 JUMP JUMPDEST DUP4 SSTORE POP JUMPDEST PUSH1 0x1 PUSH1 0x2 DUP9 MUL ADD DUP9 SSTORE POP POP POP JUMPDEST POP POP POP POP POP POP JUMP INVALID LOG2 PUSH5 0x6970667358 0x22 SLT KECCAK256 GASPRICE 0xF9 JUMP SWAP2 PUSH32 0xD1AF2B43E2E33966341DCC7E3032CF4954EFE68FEB0A9C07E61F9B64736F6C63 NUMBER STOP ADDMOD OR STOP CALLER "
		},
		"gasEstimates": {
			"creation": {
				"codeDepositCost": "525200",
				"executionCost": "infinite",
				"totalCost": "infinite"
			},
			"external": {
				"createRandomZombie(string)": "infinite",
				"getZombie(uint256)": "infinite",
				"zombies(uint256)": "infinite"
			},
			"internal": {
				"_createZombie(string memory,uint256)": "infinite",
				"_generateRandomDna(string memory)": "infinite"
			}
		},
		"methodIdentifiers": {
			"createRandomZombie(string)": "7bff0a01",
			"getZombie(uint256)": "a2905611",
			"zombies(uint256)": "2052465e"
		}
	},
	"abi": [
		{
			"inputs": [
				{
					"internalType": "string",
					"name": "_name",
					"type": "string"
				}
			],
			"name": "createRandomZombie",
			"outputs": [],
			"stateMutability": "nonpayable",
			"type": "function"
		},
		{
			"inputs": [
				{
					"internalType": "uint256",
					"name": "_index",
					"type": "uint256"
				}
			],
			"name": "getZombie",
			"outputs": [
				{
					"internalType": "string",
					"name": "name",
					"type": "string"
				},
				{
					"internalType": "uint256",
					"name": "dna",
					"type": "uint256"
				}
			],
			"stateMutability": "view",
			"type": "function"
		},
		{
			"inputs": [
				{
					"internalType": "uint256",
					"name": "",
					"type": "uint256"
				}
			],
			"name": "zombies",
			"outputs": [
				{
					"internalType": "string",
					"name": "name",
					"type": "string"
				},
				{
					"internalType": "uint256",
					"name": "dna",
					"type": "uint256"
				}
			],
			"stateMutability": "view",
			"type": "function"
		}
	]
}