{
	"data": {
		"bytecode": {
			"linkReferences": {},
			"object": "608060405234801561000f575f80fd5b5060405161030a38038061030a83398181016040528101906100319190610084565b825f8190555081600181905550806002819055505050506100d4565b5f80fd5b5f819050919050565b61006381610051565b811461006d575f80fd5b50565b5f8151905061007e8161005a565b92915050565b5f805f6060848603121561009b5761009a61004d565b5b5f6100a886828701610070565b93505060206100b986828701610070565b92505060406100ca86828701610070565b9150509250925092565b610229806100e15f395ff3fe608060405234801561000f575f80fd5b506004361061004a575f3560e01c8063343943bd1461004e5780633b2759d51461006c5780634ff135711461008a578063a3b78873146100a8575b5f80fd5b6100566100c6565b604051610063919061011d565b60405180910390f35b6100746100cb565b604051610081919061011d565b60405180910390f35b6100926100f9565b60405161009f919061011d565b60405180910390f35b6100b06100ff565b6040516100bd919061011d565b60405180910390f35b5f5481565b5f60036002546001545f546100e09190610163565b6100ea9190610163565b6100f491906101c3565b905090565b60015481565b60025481565b5f819050919050565b61011781610105565b82525050565b5f6020820190506101305f83018461010e565b92915050565b7f4e487b71000000000000000000000000000000000000000000000000000000005f52601160045260245ffd5b5f61016d82610105565b915061017883610105565b92508282019050808211156101905761018f610136565b5b92915050565b7f4e487b71000000000000000000000000000000000000000000000000000000005f52601260045260245ffd5b5f6101cd82610105565b91506101d883610105565b9250826101e8576101e7610196565b5b82820490509291505056fea26469706673582212200b62996194c476a5a7ff8e439dd0f097c64db34fdbfbeb48af791f3ddb17f68a64736f6c63430008160033",
			"opcodes": "PUSH1 0x80 PUSH1 0x40 MSTORE CALLVALUE DUP1 ISZERO PUSH2 0xF JUMPI PUSH0 DUP1 REVERT JUMPDEST POP PUSH1 0x40 MLOAD PUSH2 0x30A CODESIZE SUB DUP1 PUSH2 0x30A DUP4 CODECOPY DUP2 DUP2 ADD PUSH1 0x40 MSTORE DUP2 ADD SWAP1 PUSH2 0x31 SWAP2 SWAP1 PUSH2 0x84 JUMP JUMPDEST DUP3 PUSH0 DUP2 SWAP1 SSTORE POP DUP2 PUSH1 0x1 DUP2 SWAP1 SSTORE POP DUP1 PUSH1 0x2 DUP2 SWAP1 SSTORE POP POP POP POP PUSH2 0xD4 JUMP JUMPDEST PUSH0 DUP1 REVERT JUMPDEST PUSH0 DUP2 SWAP1 POP SWAP2 SWAP1 POP JUMP JUMPDEST PUSH2 0x63 DUP2 PUSH2 0x51 JUMP JUMPDEST DUP2 EQ PUSH2 0x6D JUMPI PUSH0 DUP1 REVERT JUMPDEST POP JUMP JUMPDEST PUSH0 DUP2 MLOAD SWAP1 POP PUSH2 0x7E DUP2 PUSH2 0x5A JUMP JUMPDEST SWAP3 SWAP2 POP POP JUMP JUMPDEST PUSH0 DUP1 PUSH0 PUSH1 0x60 DUP5 DUP7 SUB SLT ISZERO PUSH2 0x9B JUMPI PUSH2 0x9A PUSH2 0x4D JUMP JUMPDEST JUMPDEST PUSH0 PUSH2 0xA8 DUP7 DUP3 DUP8 ADD PUSH2 0x70 JUMP JUMPDEST SWAP4 POP POP PUSH1 0x20 PUSH2 0xB9 DUP7 DUP3 DUP8 ADD PUSH2 0x70 JUMP JUMPDEST SWAP3 POP POP PUSH1 0x40 PUSH2 0xCA DUP7 DUP3 DUP8 ADD PUSH2 0x70 JUMP JUMPDEST SWAP2 POP POP SWAP3 POP SWAP3 POP SWAP3 JUMP JUMPDEST PUSH2 0x229 DUP1 PUSH2 0xE1 PUSH0 CODECOPY PUSH0 RETURN INVALID PUSH1 0x80 PUSH1 0x40 MSTORE CALLVALUE DUP1 ISZERO PUSH2 0xF JUMPI PUSH0 DUP1 REVERT JUMPDEST POP PUSH1 0x4 CALLDATASIZE LT PUSH2 0x4A JUMPI PUSH0 CALLDATALOAD PUSH1 0xE0 SHR DUP1 PUSH4 0x343943BD EQ PUSH2 0x4E JUMPI DUP1 PUSH4 0x3B2759D5 EQ PUSH2 0x6C JUMPI DUP1 PUSH4 0x4FF13571 EQ PUSH2 0x8A JUMPI DUP1 PUSH4 0xA3B78873 EQ PUSH2 0xA8 JUMPI JUMPDEST PUSH0 DUP1 REVERT JUMPDEST PUSH2 0x56 PUSH2 0xC6 JUMP JUMPDEST PUSH1 0x40 MLOAD PUSH2 0x63 SWAP2 SWAP1 PUSH2 0x11D JUMP JUMPDEST PUSH1 0x40 MLOAD DUP1 SWAP2 SUB SWAP1 RETURN JUMPDEST PUSH2 0x74 PUSH2 0xCB JUMP JUMPDEST PUSH1 0x40 MLOAD PUSH2 0x81 SWAP2 SWAP1 PUSH2 0x11D JUMP JUMPDEST PUSH1 0x40 MLOAD DUP1 SWAP2 SUB SWAP1 RETURN JUMPDEST PUSH2 0x92 PUSH2 0xF9 JUMP JUMPDEST PUSH1 0x40 MLOAD PUSH2 0x9F SWAP2 SWAP1 PUSH2 0x11D JUMP JUMPDEST PUSH1 0x40 MLOAD DUP1 SWAP2 SUB SWAP1 RETURN JUMPDEST PUSH2 0xB0 PUSH2 0xFF JUMP JUMPDEST PUSH1 0x40 MLOAD PUSH2 0xBD SWAP2 SWAP1 PUSH2 0x11D JUMP JUMPDEST PUSH1 0x40 MLOAD DUP1 SWAP2 SUB SWAP1 RETURN JUMPDEST PUSH0 SLOAD DUP2 JUMP JUMPDEST PUSH0 PUSH1 0x3 PUSH1 0x2 SLOAD PUSH1 0x1 SLOAD PUSH0 SLOAD PUSH2 0xE0 SWAP2 SWAP1 PUSH2 0x163 JUMP JUMPDEST PUSH2 0xEA SWAP2 SWAP1 PUSH2 0x163 JUMP JUMPDEST PUSH2 0xF4 SWAP2 SWAP1 PUSH2 0x1C3 JUMP JUMPDEST SWAP1 POP SWAP1 JUMP JUMPDEST PUSH1 0x1 SLOAD DUP2 JUMP JUMPDEST PUSH1 0x2 SLOAD DUP2 JUMP JUMPDEST PUSH0 DUP2 SWAP1 POP SWAP2 SWAP1 POP JUMP JUMPDEST PUSH2 0x117 DUP2 PUSH2 0x105 JUMP JUMPDEST DUP3 MSTORE POP POP JUMP JUMPDEST PUSH0 PUSH1 0x20 DUP3 ADD SWAP1 POP PUSH2 0x130 PUSH0 DUP4 ADD DUP5 PUSH2 0x10E JUMP JUMPDEST SWAP3 SWAP2 POP POP JUMP JUMPDEST PUSH32 0x4E487B7100000000000000000000000000000000000000000000000000000000 PUSH0 MSTORE PUSH1 0x11 PUSH1 0x4 MSTORE PUSH1 0x24 PUSH0 REVERT JUMPDEST PUSH0 PUSH2 0x16D DUP3 PUSH2 0x105 JUMP JUMPDEST SWAP2 POP PUSH2 0x178 DUP4 PUSH2 0x105 JUMP JUMPDEST SWAP3 POP DUP3 DUP3 ADD SWAP1 POP DUP1 DUP3 GT ISZERO PUSH2 0x190 JUMPI PUSH2 0x18F PUSH2 0x136 JUMP JUMPDEST JUMPDEST SWAP3 SWAP2 POP POP JUMP JUMPDEST PUSH32 0x4E487B7100000000000000000000000000000000000000000000000000000000 PUSH0 MSTORE PUSH1 0x12 PUSH1 0x4 MSTORE PUSH1 0x24 PUSH0 REVERT JUMPDEST PUSH0 PUSH2 0x1CD DUP3 PUSH2 0x105 JUMP JUMPDEST SWAP2 POP PUSH2 0x1D8 DUP4 PUSH2 0x105 JUMP JUMPDEST SWAP3 POP DUP3 PUSH2 0x1E8 JUMPI PUSH2 0x1E7 PUSH2 0x196 JUMP JUMPDEST JUMPDEST DUP3 DUP3 DIV SWAP1 POP SWAP3 SWAP2 POP POP JUMP INVALID LOG2 PUSH5 0x6970667358 0x22 SLT KECCAK256 SIGNEXTEND PUSH3 0x996194 0xC4 PUSH23 0xA5A7FF8E439DD0F097C64DB34FDBFBEB48AF791F3DDB17 0xF6 DUP11 PUSH5 0x736F6C6343 STOP ADDMOD AND STOP CALLER "
		},
		"gasEstimates": {
			"creation": {
				"codeDepositCost": "110600",
				"executionCost": "infinite",
				"totalCost": "infinite"
			},
			"external": {
				"calcularMedia()": "infinite",
				"x1()": "2402",
				"x2()": "2447",
				"x3()": "2469"
			}
		},
		"methodIdentifiers": {
			"calcularMedia()": "3b2759d5",
			"x1()": "343943bd",
			"x2()": "4ff13571",
			"x3()": "a3b78873"
		}
	},
	"abi": [
		{
			"inputs": [
				{
					"internalType": "uint256",
					"name": "_x1",
					"type": "uint256"
				},
				{
					"internalType": "uint256",
					"name": "_x2",
					"type": "uint256"
				},
				{
					"internalType": "uint256",
					"name": "_x3",
					"type": "uint256"
				}
			],
			"stateMutability": "nonpayable",
			"type": "constructor"
		},
		{
			"inputs": [],
			"name": "calcularMedia",
			"outputs": [
				{
					"internalType": "uint256",
					"name": "",
					"type": "uint256"
				}
			],
			"stateMutability": "view",
			"type": "function"
		},
		{
			"inputs": [],
			"name": "x1",
			"outputs": [
				{
					"internalType": "uint256",
					"name": "",
					"type": "uint256"
				}
			],
			"stateMutability": "view",
			"type": "function"
		},
		{
			"inputs": [],
			"name": "x2",
			"outputs": [
				{
					"internalType": "uint256",
					"name": "",
					"type": "uint256"
				}
			],
			"stateMutability": "view",
			"type": "function"
		},
		{
			"inputs": [],
			"name": "x3",
			"outputs": [
				{
					"internalType": "uint256",
					"name": "",
					"type": "uint256"
				}
			],
			"stateMutability": "view",
			"type": "function"
		}
	]
}